{"src/contracts/DarkMarketAuction.sol":{"DarkMarketAuction":{"abi":[{"inputs":[],"stateMutability":"nonpayable","type":"constructor"},{"inputs":[{"internalType":"address","name":"authority","type":"address"}],"name":"AccessManagedInvalidAuthority","type":"error"},{"inputs":[{"internalType":"address","name":"caller","type":"address"},{"internalType":"uint32","name":"delay","type":"uint32"}],"name":"AccessManagedRequiredDelay","type":"error"},{"inputs":[{"internalType":"address","name":"caller","type":"address"}],"name":"AccessManagedUnauthorized","type":"error"},{"inputs":[{"internalType":"address","name":"target","type":"address"}],"name":"AddressEmptyCode","type":"error"},{"inputs":[{"internalType":"uint256","name":"now","type":"uint256"},{"internalType":"uint256","name":"endTime","type":"uint256"}],"name":"AuctionEnded","type":"error"},{"inputs":[],"name":"AuctionHasBids","type":"error"},{"inputs":[{"internalType":"uint256","name":"now","type":"uint256"},{"internalType":"uint256","name":"endTime","type":"uint256"}],"name":"AuctionNotEnded","type":"error"},{"inputs":[{"internalType":"uint256","name":"now","type":"uint256"},{"internalType":"uint256","name":"endTime","type":"uint256"}],"name":"AuctionNotStarted","type":"error"},{"inputs":[{"internalType":"uint256","name":"bidAmount","type":"uint256"},{"internalType":"uint256","name":"highestBid","type":"uint256"}],"name":"BidTooLow","type":"error"},{"inputs":[{"internalType":"uint256","name":"chainId","type":"uint256"}],"name":"ChainNotConfigured","type":"error"},{"inputs":[{"internalType":"address","name":"implementation","type":"address"}],"name":"ERC1967InvalidImplementation","type":"error"},{"inputs":[],"name":"ERC1967NonPayable","type":"error"},{"inputs":[],"name":"EnforcedPause","type":"error"},{"inputs":[],"name":"ExpectedPause","type":"error"},{"inputs":[],"name":"FailedInnerCall","type":"error"},{"inputs":[],"name":"FeeTokenNotConfigured","type":"error"},{"inputs":[{"internalType":"uint256","name":"incentiveAmount","type":"uint256"},{"internalType":"uint256","name":"maxIncentive","type":"uint256"}],"name":"IncentiveTooHigh","type":"error"},{"inputs":[{"internalType":"uint256","name":"count","type":"uint256"},{"internalType":"uint256","name":"max","type":"uint256"}],"name":"InvalidAAssetCount","type":"error"},{"inputs":[{"internalType":"uint256","name":"auctionId","type":"uint256"}],"name":"InvalidAuction","type":"error"},{"inputs":[{"internalType":"uint256","name":"duration","type":"uint256"},{"internalType":"uint256","name":"min","type":"uint256"},{"internalType":"uint256","name":"max","type":"uint256"}],"name":"InvalidAuctionDuration","type":"error"},{"inputs":[{"internalType":"uint256","name":"fee","type":"uint256"},{"internalType":"uint256","name":"max","type":"uint256"}],"name":"InvalidAuctionFeePercentage","type":"error"},{"inputs":[{"internalType":"uint256","name":"extraTime","type":"uint256"},{"internalType":"uint256","name":"max","type":"uint256"}],"name":"InvalidExtraTime","type":"error"},{"inputs":[],"name":"InvalidInitialization","type":"error"},{"inputs":[{"internalType":"uint256","name":"fee","type":"uint256"},{"internalType":"uint256","name":"max","type":"uint256"}],"name":"InvalidRoyaltyFeePercentage","type":"error"},{"inputs":[],"name":"NoFeesRemaining","type":"error"},{"inputs":[{"internalType":"address","name":"seller","type":"address"},{"internalType":"address","name":"msgSender","type":"address"}],"name":"NotAuctionSeller","type":"error"},{"inputs":[],"name":"NotInitializing","type":"error"},{"inputs":[],"name":"ReentrancyGuardReentrantCall","type":"error"},{"inputs":[{"internalType":"uint256","name":"chainId","type":"uint256"}],"name":"TreasuryNotConfigured","type":"error"},{"inputs":[],"name":"UUPSUnauthorizedCallContext","type":"error"},{"inputs":[{"internalType":"bytes32","name":"slot","type":"bytes32"}],"name":"UUPSUnsupportedProxiableUUID","type":"error"},{"anonymous":false,"inputs":[{"indexed":false,"internalType":"uint256","name":"auctionId","type":"uint256"}],"name":"AuctionCancelled","type":"event"},{"anonymous":false,"inputs":[{"indexed":false,"internalType":"uint256","name":"auctionId","type":"uint256"},{"indexed":false,"internalType":"uint256","name":"fee","type":"uint256"},{"indexed":false,"internalType":"address","name":"royaltyAddress","type":"address"},{"indexed":false,"internalType":"uint256","name":"royalty","type":"uint256"}],"name":"AuctionFinalized","type":"event"},{"anonymous":false,"inputs":[{"indexed":false,"internalType":"uint256","name":"auctionId","type":"uint256"},{"indexed":false,"internalType":"address","name":"seller","type":"address"},{"indexed":false,"internalType":"uint256","name":"startPrice","type":"uint256"},{"indexed":false,"internalType":"uint256","name":"endTime","type":"uint256"}],"name":"AuctionStarted","type":"event"},{"anonymous":false,"inputs":[{"indexed":false,"internalType":"address","name":"authority","type":"address"}],"name":"AuthorityUpdated","type":"event"},{"anonymous":false,"inputs":[{"indexed":false,"internalType":"uint256","name":"auctionId","type":"uint256"},{"indexed":false,"internalType":"address","name":"bidder","type":"address"},{"indexed":false,"internalType":"uint256","name":"amount","type":"uint256"},{"indexed":false,"internalType":"uint256","name":"incentive","type":"uint256"},{"indexed":false,"internalType":"uint256","name":"endTime","type":"uint256"}],"name":"BidPlaced","type":"event"},{"anonymous":false,"inputs":[{"indexed":false,"internalType":"uint256","name":"auctionId","type":"uint256"},{"indexed":false,"internalType":"address","name":"winner","type":"address"},{"indexed":false,"internalType":"uint256","name":"amount","type":"uint256"}],"name":"BidderFinalized","type":"event"},{"anonymous":false,"inputs":[{"indexed":false,"internalType":"uint256","name":"newExtraTime","type":"uint256"}],"name":"ExtraTimeUpdated","type":"event"},{"anonymous":false,"inputs":[{"indexed":true,"internalType":"address","name":"bidder","type":"address"},{"indexed":false,"internalType":"uint256","name":"amount","type":"uint256"}],"name":"IncentiveReceived","type":"event"},{"anonymous":false,"inputs":[{"indexed":false,"internalType":"uint64","name":"version","type":"uint64"}],"name":"Initialized","type":"event"},{"anonymous":false,"inputs":[{"indexed":false,"internalType":"uint256","name":"newMaxAssets","type":"uint256"}],"name":"MaxAssetsUpdated","type":"event"},{"anonymous":false,"inputs":[{"indexed":false,"internalType":"uint256","name":"newDuration","type":"uint256"}],"name":"MaxAuctionDurationUpdated","type":"event"},{"anonymous":false,"inputs":[{"indexed":false,"internalType":"uint16","name":"newIncentive","type":"uint16"}],"name":"MaxIncentiveUpdated","type":"event"},{"anonymous":false,"inputs":[{"indexed":false,"internalType":"uint256","name":"newMaxPmt","type":"uint256"}],"name":"MaxPaymentUpdated","type":"event"},{"anonymous":false,"inputs":[{"indexed":false,"internalType":"uint256","name":"newDuration","type":"uint256"}],"name":"MinAuctionDurationUpdated","type":"event"},{"anonymous":false,"inputs":[{"indexed":false,"internalType":"address","name":"account","type":"address"}],"name":"Paused","type":"event"},{"anonymous":false,"inputs":[{"indexed":false,"internalType":"uint256","name":"auctionId","type":"uint256"},{"indexed":false,"internalType":"address","name":"seller","type":"address"},{"indexed":false,"internalType":"uint256","name":"amount","type":"uint256"}],"name":"SellerFinalized","type":"event"},{"anonymous":false,"inputs":[{"indexed":false,"internalType":"address","name":"tokenAddress","type":"address"},{"indexed":false,"internalType":"address","name":"to","type":"address"},{"indexed":false,"internalType":"uint256","name":"tokenId","type":"uint256"}],"name":"TransferFailed","type":"event"},{"anonymous":false,"inputs":[{"indexed":false,"internalType":"address","name":"account","type":"address"}],"name":"Unpaused","type":"event"},{"anonymous":false,"inputs":[{"indexed":true,"internalType":"address","name":"implementation","type":"address"}],"name":"Upgraded","type":"event"},{"anonymous":false,"inputs":[{"indexed":false,"internalType":"uint256","name":"newWarmUp","type":"uint256"}],"name":"WarmUpTimeUpdated","type":"event"},{"inputs":[],"name":"UPGRADE_INTERFACE_VERSION","outputs":[{"internalType":"string","name":"","type":"string"}],"stateMutability":"view","type":"function"},{"inputs":[],"name":"authority","outputs":[{"internalType":"address","name":"","type":"address"}],"stateMutability":"view","type":"function"},{"inputs":[{"internalType":"uint256","name":"auctionId","type":"uint256"},{"internalType":"uint256","name":"bidAmount","type":"uint256"},{"internalType":"uint256","name":"incentiveAmount","type":"uint256"}],"name":"bid","outputs":[],"stateMutability":"nonpayable","type":"function"},{"inputs":[{"internalType":"uint256","name":"auctionId","type":"uint256"}],"name":"cancelAuction","outputs":[],"stateMutability":"nonpayable","type":"function"},{"inputs":[{"internalType":"uint256","name":"auctionId","type":"uint256"}],"name":"cancelSpecificAuction","outputs":[],"stateMutability":"nonpayable","type":"function"},{"inputs":[],"name":"extraTime","outputs":[{"internalType":"uint256","name":"","type":"uint256"}],"stateMutability":"view","type":"function"},{"inputs":[{"internalType":"uint256","name":"auctionId","type":"uint256"}],"name":"finalizeAuction","outputs":[],"stateMutability":"nonpayable","type":"function"},{"inputs":[{"internalType":"uint256","name":"auctionId_","type":"uint256"}],"name":"getAuction","outputs":[{"components":[{"internalType":"address payable","name":"seller","type":"address"},{"internalType":"address","name":"highestBidder","type":"address"},{"internalType":"address","name":"bidTokenAddress","type":"address"},{"internalType":"uint256","name":"startTime","type":"uint256"},{"internalType":"uint256","name":"endTime","type":"uint256"},{"internalType":"uint256","name":"highestBid","type":"uint256"},{"internalType":"uint256","name":"bidderIncentive","type":"uint256"},{"internalType":"uint256","name":"totalIncentives","type":"uint256"},{"internalType":"enum IDarkMarketAuctionStructures.AuctionStatus","name":"status","type":"uint8"},{"components":[{"internalType":"uint256","name":"contractFee","type":"uint256"},{"internalType":"uint256","name":"royaltyFee","type":"uint256"},{"internalType":"address","name":"royaltyAddress","type":"address"}],"internalType":"struct IDarkMarketAuctionStructures.FeeDetail","name":"fees","type":"tuple"},{"components":[{"internalType":"address","name":"tokenAddress","type":"address"},{"internalType":"uint256","name":"tokenId","type":"uint256"},{"internalType":"uint256","name":"tokenQuantity","type":"uint256"},{"internalType":"enum IDarkMarketAuctionStructures.TokenType","name":"tokenType","type":"uint8"}],"internalType":"struct IDarkMarketAuctionStructures.TokenDetail[]","name":"tokens","type":"tuple[]"}],"internalType":"struct IDarkMarketAuctionStructures.Auction","name":"","type":"tuple"}],"stateMutability":"view","type":"function"},{"inputs":[],"name":"initialize","outputs":[],"stateMutability":"nonpayable","type":"function"},{"inputs":[],"name":"isConsumingScheduledOp","outputs":[{"internalType":"bytes4","name":"","type":"bytes4"}],"stateMutability":"view","type":"function"},{"inputs":[],"name":"maxAssets","outputs":[{"internalType":"uint256","name":"","type":"uint256"}],"stateMutability":"view","type":"function"},{"inputs":[],"name":"maxAuctionDuration","outputs":[{"internalType":"uint256","name":"","type":"uint256"}],"stateMutability":"view","type":"function"},{"inputs":[],"name":"maxIncentive","outputs":[{"internalType":"uint256","name":"","type":"uint256"}],"stateMutability":"view","type":"function"},{"inputs":[],"name":"maxPayment","outputs":[{"internalType":"uint256","name":"","type":"uint256"}],"stateMutability":"view","type":"function"},{"inputs":[],"name":"minAuctionDuration","outputs":[{"internalType":"uint256","name":"","type":"uint256"}],"stateMutability":"view","type":"function"},{"inputs":[],"name":"nextAuctionId","outputs":[{"internalType":"uint256","name":"","type":"uint256"}],"stateMutability":"view","type":"function"},{"inputs":[{"internalType":"address","name":"","type":"address"},{"internalType":"address","name":"","type":"address"},{"internalType":"uint256[]","name":"","type":"uint256[]"},{"internalType":"uint256[]","name":"","type":"uint256[]"},{"internalType":"bytes","name":"","type":"bytes"}],"name":"onERC1155BatchReceived","outputs":[{"internalType":"bytes4","name":"","type":"bytes4"}],"stateMutability":"nonpayable","type":"function"},{"inputs":[{"internalType":"address","name":"","type":"address"},{"internalType":"address","name":"","type":"address"},{"internalType":"uint256","name":"","type":"uint256"},{"internalType":"uint256","name":"","type":"uint256"},{"internalType":"bytes","name":"","type":"bytes"}],"name":"onERC1155Received","outputs":[{"internalType":"bytes4","name":"","type":"bytes4"}],"stateMutability":"nonpayable","type":"function"},{"inputs":[{"internalType":"address","name":"","type":"address"},{"internalType":"address","name":"","type":"address"},{"internalType":"uint256","name":"","type":"uint256"},{"internalType":"bytes","name":"","type":"bytes"}],"name":"onERC721Received","outputs":[{"internalType":"bytes4","name":"","type":"bytes4"}],"stateMutability":"nonpayable","type":"function"},{"inputs":[],"name":"pause","outputs":[],"stateMutability":"nonpayable","type":"function"},{"inputs":[],"name":"paused","outputs":[{"internalType":"bool","name":"","type":"bool"}],"stateMutability":"view","type":"function"},{"inputs":[],"name":"proxiableUUID","outputs":[{"internalType":"bytes32","name":"","type":"bytes32"}],"stateMutability":"view","type":"function"},{"inputs":[{"internalType":"address","name":"newAuthority","type":"address"}],"name":"setAuthority","outputs":[],"stateMutability":"nonpayable","type":"function"},{"inputs":[{"internalType":"uint256","name":"_extTime","type":"uint256"}],"name":"setExtraTime","outputs":[],"stateMutability":"nonpayable","type":"function"},{"inputs":[{"internalType":"uint16","name":"_assets","type":"uint16"}],"name":"setMaxAssets","outputs":[],"stateMutability":"nonpayable","type":"function"},{"inputs":[{"internalType":"uint256","name":"_duration","type":"uint256"}],"name":"setMaxAuctionDuration","outputs":[],"stateMutability":"nonpayable","type":"function"},{"inputs":[{"internalType":"uint16","name":"_incentive","type":"uint16"}],"name":"setMaxIncentive","outputs":[],"stateMutability":"nonpayable","type":"function"},{"inputs":[{"internalType":"uint256","name":"_maxPmt","type":"uint256"}],"name":"setMaxPayment","outputs":[],"stateMutability":"nonpayable","type":"function"},{"inputs":[{"internalType":"uint256","name":"_duration","type":"uint256"}],"name":"setMinAuctionDuration","outputs":[],"stateMutability":"nonpayable","type":"function"},{"inputs":[{"internalType":"uint256","name":"_warmUp","type":"uint256"}],"name":"setWarmUpTime","outputs":[],"stateMutability":"nonpayable","type":"function"},{"inputs":[{"internalType":"uint256","name":"startPrice","type":"uint256"},{"internalType":"uint256","name":"duration","type":"uint256"},{"components":[{"internalType":"address","name":"tokenAddress","type":"address"},{"internalType":"uint256","name":"tokenId","type":"uint256"},{"internalType":"uint256","name":"tokenQuantity","type":"uint256"},{"internalType":"enum IDarkMarketAuctionStructures.TokenType","name":"tokenType","type":"uint8"}],"internalType":"struct IDarkMarketAuctionStructures.TokenDetail[]","name":"_tokens","type":"tuple[]"},{"internalType":"address","name":"ERC20forBidding","type":"address"},{"components":[{"internalType":"uint256","name":"contractFee","type":"uint256"},{"internalType":"uint256","name":"royaltyFee","type":"uint256"},{"internalType":"address","name":"royaltyAddress","type":"address"}],"internalType":"struct IDarkMarketAuctionStructures.FeeDetail","name":"_fees","type":"tuple"}],"name":"startAuction","outputs":[],"stateMutability":"nonpayable","type":"function"},{"inputs":[{"internalType":"bytes4","name":"interfaceId","type":"bytes4"}],"name":"supportsInterface","outputs":[{"internalType":"bool","name":"","type":"bool"}],"stateMutability":"view","type":"function"},{"inputs":[],"name":"unpause","outputs":[],"stateMutability":"nonpayable","type":"function"},{"inputs":[{"internalType":"address","name":"newImplementation","type":"address"},{"internalType":"bytes","name":"data","type":"bytes"}],"name":"upgradeToAndCall","outputs":[],"stateMutability":"payable","type":"function"},{"inputs":[],"name":"warmUpTime","outputs":[{"internalType":"uint256","name":"","type":"uint256"}],"stateMutability":"view","type":"function"}],"evm":{"bytecode":{"linkReferences":{},"object":"60a0604052306080523480156200001557600080fd5b506200002062000026565b620000da565b7ff0c57e16840df040f15088dc2f81fe391c3923bec73e23a9662efc9c229c6a00805468010000000000000000900460ff1615620000775760405163f92ee8a960e01b815260040160405180910390fd5b80546001600160401b0390811614620000d75780546001600160401b0319166001600160401b0390811782556040519081527fc7f505b2f371ae2175ee4913f4499e1f2633a7b5936321eed1cdaeb6115181d29060200160405180910390a15b50565b60805161353662000104600039600081816122a1015281816122ca015261240c01526135366000f3fe6080604052600436106102045760003560e01c806378bd793511610118578063bf7e214f116100a0578063e9d831be1161006f578063e9d831be146105d5578063f23a6e61146105ea578063f273591314610616578063f690825814610636578063fc5284821461065657600080fd5b8063bf7e214f14610553578063e12d145a14610580578063e457bf05146105a0578063e8083863146105b557600080fd5b80638fb36037116100e75780638fb360371461049f57806394b2294b146104b457806396b5a755146104c9578063ad3cb1cc146104e9578063bc197c811461052757600080fd5b806378bd7935146104285780637a9e5e4b146104555780638129fc1c146104755780638456cb591461048a57600080fd5b806348c9581e1161019b578063541348761161016a57806354134876146103995780635c975abb146103ae5780635fdbcd4c146103d357806361608185146103e857806363beec7d1461040857600080fd5b806348c9581e1461033c57806348cf48b5146103515780634f1ef2861461037157806352d1902d1461038457600080fd5b80632cf04c2f116101d75780632cf04c2f146102c7578063339b174a146102e757806336de093e146103075780633f4ba83a1461032757600080fd5b806301ffc9a714610209578063150b7a021461023e5780631800c0fe146102825780632ac9bf09146102a5575b600080fd5b34801561021557600080fd5b50610229610224366004612af2565b61066b565b60405190151581526020015b60405180910390f35b34801561024a57600080fd5b50610269610259366004612bf8565b630a85bd0160e11b949350505050565b6040516001600160e01b03199091168152602001610235565b34801561028e57600080fd5b506102976106a2565b604051908152602001610235565b3480156102b157600080fd5b506102c56102c0366004612c64565b6106b7565b005b3480156102d357600080fd5b506102c56102e2366004612c90565b610aca565b3480156102f357600080fd5b506102c5610302366004612c90565b610b45565b34801561031357600080fd5b506102c5610322366004612ca9565b610bd2565b34801561033357600080fd5b506102c5610c4e565b34801561034857600080fd5b50610297610c61565b34801561035d57600080fd5b506102c561036c366004612ce5565b610c76565b6102c561037f366004612d8f565b6110c4565b34801561039057600080fd5b506102976110e3565b3480156103a557600080fd5b50610297611100565b3480156103ba57600080fd5b506000805160206134c18339815191525460ff16610229565b3480156103df57600080fd5b50610297611115565b3480156103f457600080fd5b506102c5610403366004612c90565b61112a565b34801561041457600080fd5b506102c5610423366004612ca9565b611341565b34801561043457600080fd5b50610448610443366004612c90565b6113be565b6040516102359190612e7d565b34801561046157600080fd5b506102c5610470366004612f67565b61157c565b34801561048157600080fd5b506102c56115ff565b34801561049657600080fd5b506102c5611745565b3480156104ab57600080fd5b50610269611756565b3480156104c057600080fd5b5061029761178f565b3480156104d557600080fd5b506102c56104e4366004612c90565b6117a4565b3480156104f557600080fd5b5061051a604051806040016040528060058152602001640352e302e360dc1b81525081565b6040516102359190612fa8565b34801561053357600080fd5b5061026961054236600461305b565b63bc197c8160e01b95945050505050565b34801561055f57600080fd5b50610568611a39565b6040516001600160a01b039091168152602001610235565b34801561058c57600080fd5b506102c561059b366004612c90565b611a55565b3480156105ac57600080fd5b50610297611ad8565b3480156105c157600080fd5b506102c56105d0366004612c90565b611aed565b3480156105e157600080fd5b50610297611f61565b3480156105f657600080fd5b50610269610605366004613109565b63f23a6e6160e01b95945050505050565b34801561062257600080fd5b506102c5610631366004612c90565b611f76565b34801561064257600080fd5b506102c5610651366004612c90565b611fb8565b34801561066257600080fd5b5061029761200e565b60006001600160e01b03198216630271189760e51b148061069c57506301ffc9a760e01b6001600160e01b03198316145b92915050565b6000806106ad612020565b6007015492915050565b6106bf612044565b6106c761207c565b60006106d2846120ad565b9050806004015442111561070d5760048082015460405163394dab1560e21b8152429281019290925260248201526044015b60405180910390fd5b8060050154831161074157600581015460405163f0defc6160e01b8152610704918591600401918252602082015260400190565b60648361074c611115565b6107569190613188565b610760919061319f565b8211156107925781610770611115565b604051634bb8657760e11b815260048101929092526024820152604401610704565b60028101546040516323b872dd60e01b81526001600160a01b039091169081906323b872dd906107ca903390309089906004016131c1565b6020604051808303816000875af11580156107e9573d6000803e3d6000fd5b505050506040513d601f19601f8201168201806040525081019061080d91906131f5565b506108166106a2565b82600401546108259190613210565b421115610860576108346106a2565b8260040160008282546108479190613223565b909155505060088201805460ff19166002179055610870565b60088201805460ff191660011790555b60018201546001600160a01b0316158015906108a2575061088f611f61565b826003015461089e9190613223565b4210155b156109a1576000826006015483600501546108bd9190613223565b600184015460405163a9059cbb60e01b81526001600160a01b0391821660048201526024810183905291925083169063a9059cbb906044016020604051808303816000875af1158015610914573d6000803e3d6000fd5b505050506040513d601f19601f8201168201806040525081019061093891906131f5565b508383600701600082825461094d9190613223565b9091555050600183015460068401546040519081526001600160a01b03909116907f70220290ea80981efd0f0f7e6b1b5085605eb976822c8b8422e5bcc53e4c6d639060200160405180910390a250610a35565b60018201546001600160a01b031615610a35576001820154600583015460405163a9059cbb60e01b81526001600160a01b03928316600482015260248101919091529082169063a9059cbb906044016020604051808303816000875af1158015610a0f573d6000803e3d6000fd5b505050506040513d601f19601f82011682018060405250810190610a3391906131f5565b505b6001820180546001600160a01b031916339081179091556005830185905560068301849055600483015460408051888152602081019390935282018690526060820185905260808201527fe0771bb8191f40e2c9380d044dd32271d56e14b7722162d048aa9ebe13eefbb19060a00160405180910390a15050610ac560016000805160206134e183398151915255565b505050565b610ad7335b6000366120e0565b61a8c0811115610b0557604051638758956b60e01b81526004810182905261a8c06024820152604401610704565b610b0e816121de565b6040518181527fbfc3b8f5a88703f2c18a06cad35260a2d10c85f63de450b5b5addbadcdfc08eb906020015b60405180910390a150565b610b4e33610acf565b6103e8811115610b995760405162461bcd60e51b815260206004820152601660248201527546656573206d7573742062652062656c6f772031302560501b6044820152606401610704565b610ba2816121f2565b6040518181527f42a5471985e5ddd8227f0f32637d539819564f327d0fb8366fd3d982aa426c0e90602001610b3a565b610bdb33610acf565b60648161ffff1610610c0d57604051634bb8657760e11b815261ffff8216600482015260636024820152604401610704565b610c1a8161ffff16612206565b60405161ffff821681527f05ca520f831f8d754f63ab92b7cf507a5fd5e64acc73687fb37722eadbd032ee90602001610b3a565b610c5733610acf565b610c5f61221a565b565b600080610c6c612020565b6002015492915050565b610c7e61207c565b610c86612044565b6000610c90612274565b9050831580610ca55750610ca261178f565b84115b15610cd55783610cb361178f565b6040516319d2c49360e21b815260048101929092526024820152604401610704565b610cdd611100565b861080610cf05750610ced610c61565b86115b15610d305785610cfe611100565b610d06610c61565b60405163fb6ffde960e01b8152600481019390935260248301919091526044820152606401610704565b610d38611ad8565b82351115610d6c578135610d4a611ad8565b6040516316f0a44560e21b815260048101929092526024820152604401610704565b610d74611ad8565b82602001351115610d8c578160200135610d4a611ad8565b6000610d97826120ad565b80546001600160a01b031916331781554260038201819055909150610dbd908890613223565b60048201556005810188905560088101805460ff191690556002810180546001600160a01b0319166001600160a01b0386161790558260098201610e018282613256565b90505060005b85811015611057576000878783818110610e2357610e2361327f565b9050608002016060016020810190610e3b91906132a2565b6001811115610e4c57610e4c612ddf565b03610efa57868682818110610e6357610e6361327f565b610e799260206080909202019081019150612f67565b6001600160a01b03166342842e0e33308a8a86818110610e9b57610e9b61327f565b905060800201602001356040518463ffffffff1660e01b8152600401610ec3939291906131c1565b600060405180830381600087803b158015610edd57600080fd5b505af1158015610ef1573d6000803e3d6000fd5b50505050610ffe565b6001878783818110610f0e57610f0e61327f565b9050608002016060016020810190610f2691906132a2565b6001811115610f3757610f37612ddf565b03610ffe57868682818110610f4e57610f4e61327f565b610f649260206080909202019081019150612f67565b6001600160a01b031663f242432a33308a8a86818110610f8657610f8661327f565b905060800201602001358b8b87818110610fa257610fa261327f565b905060800201604001356040518563ffffffff1660e01b8152600401610fcb94939291906132bf565b600060405180830381600087803b158015610fe557600080fd5b505af1158015610ff9573d6000803e3d6000fd5b505050505b81600c018787838181106110145761101461327f565b83546001810185556000948552602090942060809091029290920192600402909101905061104282826132f7565b5050808061104f90613358565b915050610e07565b506004810154604080518481523360208201528082018b90526060810192909252517fbf6dc7bdf2f23af5a506fe03ee1221f47d023a2227fbc949c6b812ae44534e6d9181900360800190a150506110bc60016000805160206134e183398151915255565b505050505050565b6110cc612296565b6110d58261233b565b6110df8282612344565b5050565b60006110ed612401565b506000805160206134a183398151915290565b60008061110b612020565b6001015492915050565b600080611120612020565b6004015492915050565b61113333610acf565b61113b61200e565b811061115d5760405163d9970fa160e01b815260048101829052602401610704565b6000611168826120ad565b60018101549091506001600160a01b0316156112205760028101546001820154600783015460058401546001600160a01b039384169363a9059cbb9316916111af91613210565b6040516001600160e01b031960e085901b1681526001600160a01b03909216600483015260248201526044016020604051808303816000875af11580156111fa573d6000803e3d6000fd5b505050506040513d601f19601f8201168201806040525081019061121e91906131f5565b505b60005b600c8201548110156112f95781600c0181815481106112445761124461327f565b60009182526020909120600490910201548254600c840180546001600160a01b03938416936342842e0e933093911691869081106112845761128461327f565b9060005260206000209060040201600101546040518463ffffffff1660e01b81526004016112b4939291906131c1565b600060405180830381600087803b1580156112ce57600080fd5b505af11580156112e2573d6000803e3d6000fd5b5050505080806112f190613358565b915050611223565b5060088101805460ff191660041790556040518281527f2809c7e17bf978fbc7194c0a694b638c4215e9140cacc6c38ca36010b45697df906020015b60405180910390a15050565b61134a33610acf565b60648161ffff16111561137d576040516319d2c49360e21b815261ffff8216600482015260646024820152604401610704565b61138a8161ffff1661244a565b60405161ffff821681527f0fb15ab527eb75167c1ba0957b32fedfeb6cb153a67c3b8987cf1be51c31d32890602001610b3a565b6113c6612a53565b60006113d0612020565b60008481526008808301602090815260409283902083516101608101855281546001600160a01b0390811682526001830154811693820193909352600282015490921693820193909352600383015460608201526004808401546080830152600584015460a0830152600684015460c0830152600784015460e0830152918301549394509261010084019160ff9091169081111561147057611470612ddf565b600481111561148157611481612ddf565b81526040805160608101825260098401548152600a840154602082810191909152600b8501546001600160a01b03168284015280840191909152600c8401805483518184028101840185528181529390940193909160009084015b8282101561156d576000848152602090819020604080516080810182526004860290920180546001600160a01b0316835260018082015494840194909452600281015491830191909152600381015491929091606084019160ff9091169081111561154957611549612ddf565b600181111561155a5761155a612ddf565b81525050815260200190600101906114dc565b50505091525090949350505050565b33611585611a39565b6001600160a01b0316816001600160a01b0316146115c05760405162d1953b60e31b81526001600160a01b0382166004820152602401610704565b816001600160a01b03163b6000036115f6576040516361798f2f60e11b81526001600160a01b0383166004820152602401610704565b6110df8261245e565b7ff0c57e16840df040f15088dc2f81fe391c3923bec73e23a9662efc9c229c6a008054600160401b810460ff16159067ffffffffffffffff166000811580156116455750825b905060008267ffffffffffffffff1660011480156116625750303b155b905081158015611670575080155b1561168e5760405163f92ee8a960e01b815260040160405180910390fd5b845467ffffffffffffffff1916600117855583156116b857845460ff60401b1916600160401b1785555b6116c06124b8565b6116c86124b8565b6116d06124c0565b6116e06116db6124d0565b61250f565b6116e86124b8565b6116f0612520565b6116f8612530565b831561173e57845460ff60401b19168555604051600181527fc7f505b2f371ae2175ee4913f4499e1f2633a7b5936321eed1cdaeb6115181d29060200160405180910390a15b5050505050565b61174e33610acf565b610c5f61257e565b600080516020613481833981519152805460009190600160a01b900460ff16611780576000611789565b638fb3603760e01b5b91505090565b60008061179a612020565b6006015492915050565b6117ac612044565b60006117b7826120ad565b80549091506001600160a01b031633146117f857805460405163b71af04b60e01b81526001600160a01b039091166004820152336024820152604401610704565b6004600882015460ff16600481111561181357611813612ddf565b148061183757506003600882015460ff16600481111561183557611835612ddf565b145b156118645760048082015460405163394dab1560e21b815242928101929092526024820152604401610704565b6000600882015460ff16600481111561187f5761187f612ddf565b1461189d576040516335473acb60e01b815260040160405180910390fd5b600c81015460005b818110156119da57600083600c0182815481106118c4576118c461327f565b90600052602060002090600402016040518060800160405290816000820160009054906101000a90046001600160a01b03166001600160a01b03166001600160a01b0316815260200160018201548152602001600282015481526020016003820160009054906101000a900460ff16600181111561194457611944612ddf565b600181111561195557611955612ddf565b9052508051855460208301516040516323b872dd60e01b81529394506001600160a01b03928316936323b872dd936119949330939116916004016131c1565b600060405180830381600087803b1580156119ae57600080fd5b505af11580156119c2573d6000803e3d6000fd5b505050505080806119d290613358565b9150506118a5565b5060088201805460ff191660041790556040518381527f2809c7e17bf978fbc7194c0a694b638c4215e9140cacc6c38ca36010b45697df9060200160405180910390a15050611a3660016000805160206134e183398151915255565b50565b600080516020613481833981519152546001600160a01b031690565b611a5e33610acf565b6301dfe200811115611a9f5780611a73610c61565b60405163fb6ffde960e01b8152600481019290925260248201526301dfe2006044820152606401610704565b611aa8816125c7565b6040518181527f58762e4727ba1f653f8ac18ff80f9956b5cab3da576bce87bfe21fbca72d10e990602001610b3a565b600080611ae3612020565b6005015492915050565b611af5612044565b611afd61207c565b6000611b08826120ad565b90508060040154421015611b3e57600480820154604051633df48b2560e21b815242928101929092526024820152604401610704565b60018101546001600160a01b0316611b5957611b59826117a4565b600281015460098201546001600160a01b0390911690600090611b7f906127109061319f565b8360050154611b8e9190613188565b905060006127108460090160010154611ba7919061319f565b8460050154611bb69190613188565b90506000846007015482848760050154611bd09190613210565b611bda9190613210565b611be49190613210565b85549091506001600160a01b03163303611c5b578454611c0f9085906001600160a01b0316836125db565b8454604080518881526001600160a01b03909216602083015281018290527ff73372fdca7f972b1cc507ab0bda9b67b500bd17aaed8c5e6a3366d413e7e1f89060600160405180910390a15b60018501546001600160a01b03163303611f0d5760005b600c860154811015611eba57600086600c018281548110611c9557611c9561327f565b600091825260209091206003600490920201015460ff166001811115611cbd57611cbd612ddf565b03611d815785600c018181548110611cd757611cd761327f565b60009182526020909120600490910201546001870154600c880180546001600160a01b03938416936342842e0e93309391169186908110611d1a57611d1a61327f565b9060005260206000209060040201600101546040518463ffffffff1660e01b8152600401611d4a939291906131c1565b600060405180830381600087803b158015611d6457600080fd5b505af1158015611d78573d6000803e3d6000fd5b50505050611ea8565b600186600c018281548110611d9857611d9861327f565b600091825260209091206003600490920201015460ff166001811115611dc057611dc0612ddf565b03611ea85785600c018181548110611dda57611dda61327f565b60009182526020909120600490910201546001870154600c880180546001600160a01b039384169363f242432a93309391169186908110611e1d57611e1d61327f565b9060005260206000209060040201600101548a600c018681548110611e4457611e4461327f565b9060005260206000209060040201600201546040518563ffffffff1660e01b8152600401611e7594939291906132bf565b600060405180830381600087803b158015611e8f57600080fd5b505af1158015611ea3573d6000803e3d6000fd5b505050505b80611eb281613358565b915050611c72565b5060018501546005860154604080518981526001600160a01b0390931660208401528201527f287e93683fbdb8e8dc13e757ba52c664a7573734dfb5624353d5f49c033313b19060600160405180910390a15b8215611f2557611f2584611f1f612655565b856125db565b8115611f4557600b850154611f459085906001600160a01b0316846125db565b5050505050611a3660016000805160206134e183398151915255565b600080611f6c612020565b6003015492915050565b611f7f33610acf565b611f8881612694565b6040518181527f4cd8b89ec991355064be8d3cfeaaacab8c2fe683e8357b3c9de90b0bdda6cb1d90602001610b3a565b611fc133610acf565b603c811015611fd55780603c610d06610c61565b611fde816126a8565b6040518181527fe2720c1018ae21600ff3d5ee8e1b01ca87b27dfde5c38ea8456571a7294440e290602001610b3a565b600080612019612020565b5492915050565b7f27b49f3b53a795769950b1f0d5678148bbca7c47eb1e64956b2aa849760b9a0090565b6000805160206134e183398151915280546001190161207657604051633ee5aeb560e01b815260040160405180910390fd5b60029055565b6000805160206134c18339815191525460ff1615610c5f5760405163d93c066560e01b815260040160405180910390fd5b6000806120b8612020565b600093845260080160205250506040902090565b60016000805160206134e183398151915255565b60008051602061348183398151915260008061211b6120fd611a39565b873061210d600460008a8c613371565b6121169161339b565b6126bc565b91509150816110bc5763ffffffff8116156121bb57825460ff60a01b1916600160a01b178355612149611a39565b6001600160a01b03166394c7d7ee8787876040518463ffffffff1660e01b8152600401612178939291906133cb565b600060405180830381600087803b15801561219257600080fd5b505af11580156121a6573d6000803e3d6000fd5b5050845460ff60a01b19168555506110bc9050565b60405162d1953b60e31b81526001600160a01b0387166004820152602401610704565b60006121e8612020565b6007019190915550565b60006121fc612020565b6005019190915550565b6000612210612020565b6004019190915550565b6122226127c8565b6000805160206134c1833981519152805460ff191681557f5db9ee0a495bf2e6ff9c91a7834c1ba4fdd244a5e8aa4e537bd38aeae4b073aa335b6040516001600160a01b039091168152602001610b3a565b60008061227f612020565b80549091508061228e81613358565b925550919050565b306001600160a01b037f000000000000000000000000000000000000000000000000000000000000000016148061231d57507f00000000000000000000000000000000000000000000000000000000000000006001600160a01b03166123116000805160206134a1833981519152546001600160a01b031690565b6001600160a01b031614155b15610c5f5760405163703e46dd60e11b815260040160405180910390fd5b611a3633610acf565b816001600160a01b03166352d1902d6040518163ffffffff1660e01b8152600401602060405180830381865afa92505050801561239e575060408051601f3d908101601f1916820190925261239b9181019061340b565b60015b6123c657604051634c9c8ce360e01b81526001600160a01b0383166004820152602401610704565b6000805160206134a183398151915281146123f757604051632a87526960e21b815260048101829052602401610704565b610ac583836127f8565b306001600160a01b037f00000000000000000000000000000000000000000000000000000000000000001614610c5f5760405163703e46dd60e11b815260040160405180910390fd5b6000612454612020565b6006019190915550565b60008051602061348183398151915280546001600160a01b0319166001600160a01b03831690811782556040519081527f2f658b440c35314f52658ea8a740e05b284cdc84dc9ae01e891f21b8933e7cad90602001611335565b610c5f61284e565b6124c861284e565b610c5f612897565b60004661014f036124f4575073e1809d966d96bef678f808329336962944ffb10690565b60405163fc94119160e01b8152466004820152602401610704565b61251761284e565b611a36816128b8565b61252861284e565b610c5f6128c9565b61253861284e565b6000612542612020565b6001808255603c90820155626ebe0060028201556000600382018190556007820155600c60048201556103e86005820155601460069091015550565b61258661207c565b6000805160206134c1833981519152805460ff191660011781557f62e78cea01bee320cd4e420270b5ea74000d11b0c9f74754ebdbfc544b05a2583361225c565b60006125d1612020565b6002019190915550565b60405163a9059cbb60e01b81526001600160a01b0383811660048301526024820183905284169063a9059cbb906044016020604051808303816000875af1925050508015612646575060408051601f3d908101601f19168201909252612643918101906131f5565b60015b61264f57600080fd5b50505050565b60004661014f03612679575073419c3657532aad16955291af7942fea9a1b6d01090565b6040516367259b4960e01b8152466004820152602401610704565b600061269e612020565b6003019190915550565b60006126b2612020565b6001019190915550565b6040516001600160a01b03848116602483015283811660448301526001600160e01b03198316606483015260009182918291829189169060840160408051601f198184030181529181526020820180516001600160e01b031663b700961360e01b1790525161272b9190613424565b600060405180830381855afa9150503d8060008114612766576040519150601f19603f3d011682016040523d82523d6000602084013e61276b565b606091505b509150915081156127bd57604081511061279d57808060200190518101906127939190613440565b90945092506127bd565b60208151106127bd57808060200190518101906127ba91906131f5565b93505b505094509492505050565b6000805160206134c18339815191525460ff16610c5f57604051638dfc202b60e01b815260040160405180910390fd5b612801826128d1565b6040516001600160a01b038316907fbc7cd75a20ee27fd9adebab32041f755214dbc6bffa90cc0225b39da2e5c2d3b90600090a280511561284657610ac58282612936565b6110df6129ac565b7ff0c57e16840df040f15088dc2f81fe391c3923bec73e23a9662efc9c229c6a0054600160401b900460ff16610c5f57604051631afcd79f60e31b815260040160405180910390fd5b61289f61284e565b6000805160206134c1833981519152805460ff19169055565b6128c061284e565b611a368161245e565b6120cc61284e565b806001600160a01b03163b60000361290757604051634c9c8ce360e01b81526001600160a01b0382166004820152602401610704565b6000805160206134a183398151915280546001600160a01b0319166001600160a01b0392909216919091179055565b6060600080846001600160a01b0316846040516129539190613424565b600060405180830381855af49150503d806000811461298e576040519150601f19603f3d011682016040523d82523d6000602084013e612993565b606091505b50915091506129a38583836129cb565b95945050505050565b3415610c5f5760405163b398979f60e01b815260040160405180910390fd5b6060826129e0576129db82612a2a565b612a23565b81511580156129f757506001600160a01b0384163b155b15612a2057604051639996b31560e01b81526001600160a01b0385166004820152602401610704565b50805b9392505050565b805115612a3a5780518082602001fd5b604051630a12f52160e11b815260040160405180910390fd5b60405180610160016040528060006001600160a01b0316815260200160006001600160a01b0316815260200160006001600160a01b03168152602001600081526020016000815260200160008152602001600081526020016000815260200160006004811115612ac557612ac5612ddf565b81526040805160608101825260008082526020828101829052928201529101908152602001606081525090565b600060208284031215612b0457600080fd5b81356001600160e01b031981168114612a2357600080fd5b6001600160a01b0381168114611a3657600080fd5b8035612b3c81612b1c565b919050565b634e487b7160e01b600052604160045260246000fd5b604051601f8201601f1916810167ffffffffffffffff81118282101715612b8057612b80612b41565b604052919050565b600082601f830112612b9957600080fd5b813567ffffffffffffffff811115612bb357612bb3612b41565b612bc6601f8201601f1916602001612b57565b818152846020838601011115612bdb57600080fd5b816020850160208301376000918101602001919091529392505050565b60008060008060808587031215612c0e57600080fd5b8435612c1981612b1c565b93506020850135612c2981612b1c565b925060408501359150606085013567ffffffffffffffff811115612c4c57600080fd5b612c5887828801612b88565b91505092959194509250565b600080600060608486031215612c7957600080fd5b505081359360208301359350604090920135919050565b600060208284031215612ca257600080fd5b5035919050565b600060208284031215612cbb57600080fd5b813561ffff81168114612a2357600080fd5b600060608284031215612cdf57600080fd5b50919050565b60008060008060008060e08789031215612cfe57600080fd5b8635955060208701359450604087013567ffffffffffffffff80821115612d2457600080fd5b818901915089601f830112612d3857600080fd5b813581811115612d4757600080fd5b8a60208260071b8501011115612d5c57600080fd5b602083019650809550505050612d7460608801612b31565b9150612d838860808901612ccd565b90509295509295509295565b60008060408385031215612da257600080fd5b8235612dad81612b1c565b9150602083013567ffffffffffffffff811115612dc957600080fd5b612dd585828601612b88565b9150509250929050565b634e487b7160e01b600052602160045260246000fd5b60058110612e0557612e05612ddf565b9052565b600081518084526020808501945080840160005b83811015612e7257815180516001600160a01b031688528381015184890152604080820151908901526060908101519060028210612e5d57612e5d612ddf565b88015260809096019590820190600101612e1d565b509495945050505050565b60208152612e976020820183516001600160a01b03169052565b60006020830151612eb360408401826001600160a01b03169052565b5060408301516001600160a01b03811660608401525060608301516080830152608083015160a083015260a083015160c083015260c083015160e083015260e0830151610100818185015280850151915050610120612f1481850183612df5565b8401519050610140612f458482018380518252602080820151908301526040908101516001600160a01b0316910152565b8401516101a0848101529050612f5f6101c0840182612e09565b949350505050565b600060208284031215612f7957600080fd5b8135612a2381612b1c565b60005b83811015612f9f578181015183820152602001612f87565b50506000910152565b6020815260008251806020840152612fc7816040850160208701612f84565b601f01601f19169190910160400192915050565b600082601f830112612fec57600080fd5b8135602067ffffffffffffffff82111561300857613008612b41565b8160051b613017828201612b57565b928352848101820192828101908785111561303157600080fd5b83870192505b8483101561305057823582529183019190830190613037565b979650505050505050565b600080600080600060a0868803121561307357600080fd5b853561307e81612b1c565b9450602086013561308e81612b1c565b9350604086013567ffffffffffffffff808211156130ab57600080fd5b6130b789838a01612fdb565b945060608801359150808211156130cd57600080fd5b6130d989838a01612fdb565b935060808801359150808211156130ef57600080fd5b506130fc88828901612b88565b9150509295509295909350565b600080600080600060a0868803121561312157600080fd5b853561312c81612b1c565b9450602086013561313c81612b1c565b93506040860135925060608601359150608086013567ffffffffffffffff81111561316657600080fd5b6130fc88828901612b88565b634e487b7160e01b600052601160045260246000fd5b808202811582820484141761069c5761069c613172565b6000826131bc57634e487b7160e01b600052601260045260246000fd5b500490565b6001600160a01b039384168152919092166020820152604081019190915260600190565b80518015158114612b3c57600080fd5b60006020828403121561320757600080fd5b612a23826131e5565b8181038181111561069c5761069c613172565b8082018082111561069c5761069c613172565b80546001600160a01b0319166001600160a01b0392909216919091179055565b8135815560208201356001820155604082013561327281612b1c565b610ac58160028401613236565b634e487b7160e01b600052603260045260246000fd5b60028110611a3657600080fd5b6000602082840312156132b457600080fd5b8135612a2381613295565b6001600160a01b0394851681529290931660208301526040820152606081019190915260a06080820181905260009082015260c00190565b813561330281612b1c565b61330c8183613236565b50602082013560018201556040820135600282015560038101606083013561333381613295565b6002811061334357613343612ddf565b60ff1982541660ff8216811783555050505050565b60006001820161336a5761336a613172565b5060010190565b6000808585111561338157600080fd5b8386111561338e57600080fd5b5050820193919092039150565b6001600160e01b031981358181169160048510156133c35780818660040360031b1b83161692505b505092915050565b6001600160a01b03841681526040602082018190528101829052818360608301376000818301606090810191909152601f909201601f1916010192915050565b60006020828403121561341d57600080fd5b5051919050565b60008251613436818460208701612f84565b9190910192915050565b6000806040838503121561345357600080fd5b61345c836131e5565b9150602083015163ffffffff8116811461347557600080fd5b80915050925092905056fef3177357ab46d8af007ab3fdb9af81da189e1068fefdc0073dca88a2cab40a00360894a13ba1a3210667c828492db98dca3e2076cc3735a920a3ca505d382bbccd5ed15c6e187e77e9aee88184c21f4f2182ab5827cb3b7e07fbedcd63f033009b779b17422d0df92223018b32b4d1fa46e071723d6817e2486d003becc55f00a26469706673582212205b777d25ac5225a9904e5682e19e972def93810513359dea66af76d69161d6fa64736f6c63430008140033","opcodes":"PUSH1 0xA0 PUSH1 0x40 MSTORE ADDRESS PUSH1 0x80 MSTORE CALLVALUE DUP1 ISZERO PUSH3 0x15 JUMPI PUSH1 0x0 DUP1 REVERT JUMPDEST POP PUSH3 0x20 PUSH3 0x26 JUMP JUMPDEST PUSH3 0xDA JUMP JUMPDEST PUSH32 0xF0C57E16840DF040F15088DC2F81FE391C3923BEC73E23A9662EFC9C229C6A00 DUP1 SLOAD PUSH9 0x10000000000000000 SWAP1 DIV PUSH1 0xFF AND ISZERO PUSH3 0x77 JUMPI PUSH1 0x40 MLOAD PUSH4 0xF92EE8A9 PUSH1 0xE0 SHL DUP2 MSTORE PUSH1 0x4 ADD PUSH1 0x40 MLOAD DUP1 SWAP2 SUB SWAP1 REVERT JUMPDEST DUP1 SLOAD PUSH1 0x1 PUSH1 0x1 PUSH1 0x40 SHL SUB SWAP1 DUP2 AND EQ PUSH3 0xD7 JUMPI DUP1 SLOAD PUSH1 0x1 PUSH1 0x1 PUSH1 0x40 SHL SUB NOT AND PUSH1 0x1 PUSH1 0x1 PUSH1 0x40 SHL SUB SWAP1 DUP2 OR DUP3 SSTORE PUSH1 0x40 MLOAD SWAP1 DUP2 MSTORE PUSH32 0xC7F505B2F371AE2175EE4913F4499E1F2633A7B5936321EED1CDAEB6115181D2 SWAP1 PUSH1 0x20 ADD PUSH1 0x40 MLOAD DUP1 SWAP2 SUB SWAP1 LOG1 JUMPDEST POP JUMP JUMPDEST PUSH1 0x80 MLOAD PUSH2 0x3536 PUSH3 0x104 PUSH1 0x0 CODECOPY PUSH1 0x0 DUP2 DUP2 PUSH2 0x22A1 ADD MSTORE DUP2 DUP2 PUSH2 0x22CA ADD MSTORE PUSH2 0x240C ADD MSTORE PUSH2 0x3536 PUSH1 0x0 RETURN INVALID PUSH1 0x80 PUSH1 0x40 MSTORE PUSH1 0x4 CALLDATASIZE LT PUSH2 0x204 JUMPI PUSH1 0x0 CALLDATALOAD PUSH1 0xE0 SHR DUP1 PUSH4 0x78BD7935 GT PUSH2 0x118 JUMPI DUP1 PUSH4 0xBF7E214F GT PUSH2 0xA0 JUMPI DUP1 PUSH4 0xE9D831BE GT PUSH2 0x6F JUMPI DUP1 PUSH4 0xE9D831BE EQ PUSH2 0x5D5 JUMPI DUP1 PUSH4 0xF23A6E61 EQ PUSH2 0x5EA JUMPI DUP1 PUSH4 0xF2735913 EQ PUSH2 0x616 JUMPI DUP1 PUSH4 0xF6908258 EQ PUSH2 0x636 JUMPI DUP1 PUSH4 0xFC528482 EQ PUSH2 0x656 JUMPI PUSH1 0x0 DUP1 REVERT JUMPDEST DUP1 PUSH4 0xBF7E214F EQ PUSH2 0x553 JUMPI DUP1 PUSH4 0xE12D145A EQ PUSH2 0x580 JUMPI DUP1 PUSH4 0xE457BF05 EQ PUSH2 0x5A0 JUMPI DUP1 PUSH4 0xE8083863 EQ PUSH2 0x5B5 JUMPI PUSH1 0x0 DUP1 REVERT JUMPDEST DUP1 PUSH4 0x8FB36037 GT PUSH2 0xE7 JUMPI DUP1 PUSH4 0x8FB36037 EQ PUSH2 0x49F JUMPI DUP1 PUSH4 0x94B2294B EQ PUSH2 0x4B4 JUMPI DUP1 PUSH4 0x96B5A755 EQ PUSH2 0x4C9 JUMPI DUP1 PUSH4 0xAD3CB1CC EQ PUSH2 0x4E9 JUMPI DUP1 PUSH4 0xBC197C81 EQ PUSH2 0x527 JUMPI PUSH1 0x0 DUP1 REVERT JUMPDEST DUP1 PUSH4 0x78BD7935 EQ PUSH2 0x428 JUMPI DUP1 PUSH4 0x7A9E5E4B EQ PUSH2 0x455 JUMPI DUP1 PUSH4 0x8129FC1C EQ PUSH2 0x475 JUMPI DUP1 PUSH4 0x8456CB59 EQ PUSH2 0x48A JUMPI PUSH1 0x0 DUP1 REVERT JUMPDEST DUP1 PUSH4 0x48C9581E GT PUSH2 0x19B JUMPI DUP1 PUSH4 0x54134876 GT PUSH2 0x16A JUMPI DUP1 PUSH4 0x54134876 EQ PUSH2 0x399 JUMPI DUP1 PUSH4 0x5C975ABB EQ PUSH2 0x3AE JUMPI DUP1 PUSH4 0x5FDBCD4C EQ PUSH2 0x3D3 JUMPI DUP1 PUSH4 0x61608185 EQ PUSH2 0x3E8 JUMPI DUP1 PUSH4 0x63BEEC7D EQ PUSH2 0x408 JUMPI PUSH1 0x0 DUP1 REVERT JUMPDEST DUP1 PUSH4 0x48C9581E EQ PUSH2 0x33C JUMPI DUP1 PUSH4 0x48CF48B5 EQ PUSH2 0x351 JUMPI DUP1 PUSH4 0x4F1EF286 EQ PUSH2 0x371 JUMPI DUP1 PUSH4 0x52D1902D EQ PUSH2 0x384 JUMPI PUSH1 0x0 DUP1 REVERT JUMPDEST DUP1 PUSH4 0x2CF04C2F GT PUSH2 0x1D7 JUMPI DUP1 PUSH4 0x2CF04C2F EQ PUSH2 0x2C7 JUMPI DUP1 PUSH4 0x339B174A EQ PUSH2 0x2E7 JUMPI DUP1 PUSH4 0x36DE093E EQ PUSH2 0x307 JUMPI DUP1 PUSH4 0x3F4BA83A EQ PUSH2 0x327 JUMPI PUSH1 0x0 DUP1 REVERT JUMPDEST DUP1 PUSH4 0x1FFC9A7 EQ PUSH2 0x209 JUMPI DUP1 PUSH4 0x150B7A02 EQ PUSH2 0x23E JUMPI DUP1 PUSH4 0x1800C0FE EQ PUSH2 0x282 JUMPI DUP1 PUSH4 0x2AC9BF09 EQ PUSH2 0x2A5 JUMPI JUMPDEST PUSH1 0x0 DUP1 REVERT JUMPDEST CALLVALUE DUP1 ISZERO PUSH2 0x215 JUMPI PUSH1 0x0 DUP1 REVERT JUMPDEST POP PUSH2 0x229 PUSH2 0x224 CALLDATASIZE PUSH1 0x4 PUSH2 0x2AF2 JUMP JUMPDEST PUSH2 0x66B JUMP JUMPDEST PUSH1 0x40 MLOAD SWAP1 ISZERO ISZERO DUP2 MSTORE PUSH1 0x20 ADD JUMPDEST PUSH1 0x40 MLOAD DUP1 SWAP2 SUB SWAP1 RETURN JUMPDEST CALLVALUE DUP1 ISZERO PUSH2 0x24A JUMPI PUSH1 0x0 DUP1 REVERT JUMPDEST POP PUSH2 0x269 PUSH2 0x259 CALLDATASIZE PUSH1 0x4 PUSH2 0x2BF8 JUMP JUMPDEST PUSH4 0xA85BD01 PUSH1 0xE1 SHL SWAP5 SWAP4 POP POP POP POP JUMP JUMPDEST PUSH1 0x40 MLOAD PUSH1 0x1 PUSH1 0x1 PUSH1 0xE0 SHL SUB NOT SWAP1 SWAP2 AND DUP2 MSTORE PUSH1 0x20 ADD PUSH2 0x235 JUMP JUMPDEST CALLVALUE DUP1 ISZERO PUSH2 0x28E JUMPI PUSH1 0x0 DUP1 REVERT JUMPDEST POP PUSH2 0x297 PUSH2 0x6A2 JUMP JUMPDEST PUSH1 0x40 MLOAD SWAP1 DUP2 MSTORE PUSH1 0x20 ADD PUSH2 0x235 JUMP JUMPDEST CALLVALUE DUP1 ISZERO PUSH2 0x2B1 JUMPI PUSH1 0x0 DUP1 REVERT JUMPDEST POP PUSH2 0x2C5 PUSH2 0x2C0 CALLDATASIZE PUSH1 0x4 PUSH2 0x2C64 JUMP JUMPDEST PUSH2 0x6B7 JUMP JUMPDEST STOP JUMPDEST CALLVALUE DUP1 ISZERO PUSH2 0x2D3 JUMPI PUSH1 0x0 DUP1 REVERT JUMPDEST POP PUSH2 0x2C5 PUSH2 0x2E2 CALLDATASIZE PUSH1 0x4 PUSH2 0x2C90 JUMP JUMPDEST PUSH2 0xACA JUMP JUMPDEST CALLVALUE DUP1 ISZERO PUSH2 0x2F3 JUMPI PUSH1 0x0 DUP1 REVERT JUMPDEST POP PUSH2 0x2C5 PUSH2 0x302 CALLDATASIZE PUSH1 0x4 PUSH2 0x2C90 JUMP JUMPDEST PUSH2 0xB45 JUMP JUMPDEST CALLVALUE DUP1 ISZERO PUSH2 0x313 JUMPI PUSH1 0x0 DUP1 REVERT JUMPDEST POP PUSH2 0x2C5 PUSH2 0x322 CALLDATASIZE PUSH1 0x4 PUSH2 0x2CA9 JUMP JUMPDEST PUSH2 0xBD2 JUMP JUMPDEST CALLVALUE DUP1 ISZERO PUSH2 0x333 JUMPI PUSH1 0x0 DUP1 REVERT JUMPDEST POP PUSH2 0x2C5 PUSH2 0xC4E JUMP JUMPDEST CALLVALUE DUP1 ISZERO PUSH2 0x348 JUMPI PUSH1 0x0 DUP1 REVERT JUMPDEST POP PUSH2 0x297 PUSH2 0xC61 JUMP JUMPDEST CALLVALUE DUP1 ISZERO PUSH2 0x35D JUMPI PUSH1 0x0 DUP1 REVERT JUMPDEST POP PUSH2 0x2C5 PUSH2 0x36C CALLDATASIZE PUSH1 0x4 PUSH2 0x2CE5 JUMP JUMPDEST PUSH2 0xC76 JUMP JUMPDEST PUSH2 0x2C5 PUSH2 0x37F CALLDATASIZE PUSH1 0x4 PUSH2 0x2D8F JUMP JUMPDEST PUSH2 0x10C4 JUMP JUMPDEST CALLVALUE DUP1 ISZERO PUSH2 0x390 JUMPI PUSH1 0x0 DUP1 REVERT JUMPDEST POP PUSH2 0x297 PUSH2 0x10E3 JUMP JUMPDEST CALLVALUE DUP1 ISZERO PUSH2 0x3A5 JUMPI PUSH1 0x0 DUP1 REVERT JUMPDEST POP PUSH2 0x297 PUSH2 0x1100 JUMP JUMPDEST CALLVALUE DUP1 ISZERO PUSH2 0x3BA JUMPI PUSH1 0x0 DUP1 REVERT JUMPDEST POP PUSH1 0x0 DUP1 MLOAD PUSH1 0x20 PUSH2 0x34C1 DUP4 CODECOPY DUP2 MLOAD SWAP2 MSTORE SLOAD PUSH1 0xFF AND PUSH2 0x229 JUMP JUMPDEST CALLVALUE DUP1 ISZERO PUSH2 0x3DF JUMPI PUSH1 0x0 DUP1 REVERT JUMPDEST POP PUSH2 0x297 PUSH2 0x1115 JUMP JUMPDEST CALLVALUE DUP1 ISZERO PUSH2 0x3F4 JUMPI PUSH1 0x0 DUP1 REVERT JUMPDEST POP PUSH2 0x2C5 PUSH2 0x403 CALLDATASIZE PUSH1 0x4 PUSH2 0x2C90 JUMP JUMPDEST PUSH2 0x112A JUMP JUMPDEST CALLVALUE DUP1 ISZERO PUSH2 0x414 JUMPI PUSH1 0x0 DUP1 REVERT JUMPDEST POP PUSH2 0x2C5 PUSH2 0x423 CALLDATASIZE PUSH1 0x4 PUSH2 0x2CA9 JUMP JUMPDEST PUSH2 0x1341 JUMP JUMPDEST CALLVALUE DUP1 ISZERO PUSH2 0x434 JUMPI PUSH1 0x0 DUP1 REVERT JUMPDEST POP PUSH2 0x448 PUSH2 0x443 CALLDATASIZE PUSH1 0x4 PUSH2 0x2C90 JUMP JUMPDEST PUSH2 0x13BE JUMP JUMPDEST PUSH1 0x40 MLOAD PUSH2 0x235 SWAP2 SWAP1 PUSH2 0x2E7D JUMP JUMPDEST CALLVALUE DUP1 ISZERO PUSH2 0x461 JUMPI PUSH1 0x0 DUP1 REVERT JUMPDEST POP PUSH2 0x2C5 PUSH2 0x470 CALLDATASIZE PUSH1 0x4 PUSH2 0x2F67 JUMP JUMPDEST PUSH2 0x157C JUMP JUMPDEST CALLVALUE DUP1 ISZERO PUSH2 0x481 JUMPI PUSH1 0x0 DUP1 REVERT JUMPDEST POP PUSH2 0x2C5 PUSH2 0x15FF JUMP JUMPDEST CALLVALUE DUP1 ISZERO PUSH2 0x496 JUMPI PUSH1 0x0 DUP1 REVERT JUMPDEST POP PUSH2 0x2C5 PUSH2 0x1745 JUMP JUMPDEST CALLVALUE DUP1 ISZERO PUSH2 0x4AB JUMPI PUSH1 0x0 DUP1 REVERT JUMPDEST POP PUSH2 0x269 PUSH2 0x1756 JUMP JUMPDEST CALLVALUE DUP1 ISZERO PUSH2 0x4C0 JUMPI PUSH1 0x0 DUP1 REVERT JUMPDEST POP PUSH2 0x297 PUSH2 0x178F JUMP JUMPDEST CALLVALUE DUP1 ISZERO PUSH2 0x4D5 JUMPI PUSH1 0x0 DUP1 REVERT JUMPDEST POP PUSH2 0x2C5 PUSH2 0x4E4 CALLDATASIZE PUSH1 0x4 PUSH2 0x2C90 JUMP JUMPDEST PUSH2 0x17A4 JUMP JUMPDEST CALLVALUE DUP1 ISZERO PUSH2 0x4F5 JUMPI PUSH1 0x0 DUP1 REVERT JUMPDEST POP PUSH2 0x51A PUSH1 0x40 MLOAD DUP1 PUSH1 0x40 ADD PUSH1 0x40 MSTORE DUP1 PUSH1 0x5 DUP2 MSTORE PUSH1 0x20 ADD PUSH5 0x352E302E3 PUSH1 0xDC SHL DUP2 MSTORE POP DUP2 JUMP JUMPDEST PUSH1 0x40 MLOAD PUSH2 0x235 SWAP2 SWAP1 PUSH2 0x2FA8 JUMP JUMPDEST CALLVALUE DUP1 ISZERO PUSH2 0x533 JUMPI PUSH1 0x0 DUP1 REVERT JUMPDEST POP PUSH2 0x269 PUSH2 0x542 CALLDATASIZE PUSH1 0x4 PUSH2 0x305B JUMP JUMPDEST PUSH4 0xBC197C81 PUSH1 0xE0 SHL SWAP6 SWAP5 POP POP POP POP POP JUMP JUMPDEST CALLVALUE DUP1 ISZERO PUSH2 0x55F JUMPI PUSH1 0x0 DUP1 REVERT JUMPDEST POP PUSH2 0x568 PUSH2 0x1A39 JUMP JUMPDEST PUSH1 0x40 MLOAD PUSH1 0x1 PUSH1 0x1 PUSH1 0xA0 SHL SUB SWAP1 SWAP2 AND DUP2 MSTORE PUSH1 0x20 ADD PUSH2 0x235 JUMP JUMPDEST CALLVALUE DUP1 ISZERO PUSH2 0x58C JUMPI PUSH1 0x0 DUP1 REVERT JUMPDEST POP PUSH2 0x2C5 PUSH2 0x59B CALLDATASIZE PUSH1 0x4 PUSH2 0x2C90 JUMP JUMPDEST PUSH2 0x1A55 JUMP JUMPDEST CALLVALUE DUP1 ISZERO PUSH2 0x5AC JUMPI PUSH1 0x0 DUP1 REVERT JUMPDEST POP PUSH2 0x297 PUSH2 0x1AD8 JUMP JUMPDEST CALLVALUE DUP1 ISZERO PUSH2 0x5C1 JUMPI PUSH1 0x0 DUP1 REVERT JUMPDEST POP PUSH2 0x2C5 PUSH2 0x5D0 CALLDATASIZE PUSH1 0x4 PUSH2 0x2C90 JUMP JUMPDEST PUSH2 0x1AED JUMP JUMPDEST CALLVALUE DUP1 ISZERO PUSH2 0x5E1 JUMPI PUSH1 0x0 DUP1 REVERT JUMPDEST POP PUSH2 0x297 PUSH2 0x1F61 JUMP JUMPDEST CALLVALUE DUP1 ISZERO PUSH2 0x5F6 JUMPI PUSH1 0x0 DUP1 REVERT JUMPDEST POP PUSH2 0x269 PUSH2 0x605 CALLDATASIZE PUSH1 0x4 PUSH2 0x3109 JUMP JUMPDEST PUSH4 0xF23A6E61 PUSH1 0xE0 SHL SWAP6 SWAP5 POP POP POP POP POP JUMP JUMPDEST CALLVALUE DUP1 ISZERO PUSH2 0x622 JUMPI PUSH1 0x0 DUP1 REVERT JUMPDEST POP PUSH2 0x2C5 PUSH2 0x631 CALLDATASIZE PUSH1 0x4 PUSH2 0x2C90 JUMP JUMPDEST PUSH2 0x1F76 JUMP JUMPDEST CALLVALUE DUP1 ISZERO PUSH2 0x642 JUMPI PUSH1 0x0 DUP1 REVERT JUMPDEST POP PUSH2 0x2C5 PUSH2 0x651 CALLDATASIZE PUSH1 0x4 PUSH2 0x2C90 JUMP JUMPDEST PUSH2 0x1FB8 JUMP JUMPDEST CALLVALUE DUP1 ISZERO PUSH2 0x662 JUMPI PUSH1 0x0 DUP1 REVERT JUMPDEST POP PUSH2 0x297 PUSH2 0x200E JUMP JUMPDEST PUSH1 0x0 PUSH1 0x1 PUSH1 0x1 PUSH1 0xE0 SHL SUB NOT DUP3 AND PUSH4 0x2711897 PUSH1 0xE5 SHL EQ DUP1 PUSH2 0x69C JUMPI POP PUSH4 0x1FFC9A7 PUSH1 0xE0 SHL PUSH1 0x1 PUSH1 0x1 PUSH1 0xE0 SHL SUB NOT DUP4 AND EQ JUMPDEST SWAP3 SWAP2 POP POP JUMP JUMPDEST PUSH1 0x0 DUP1 PUSH2 0x6AD PUSH2 0x2020 JUMP JUMPDEST PUSH1 0x7 ADD SLOAD SWAP3 SWAP2 POP POP JUMP JUMPDEST PUSH2 0x6BF PUSH2 0x2044 JUMP JUMPDEST PUSH2 0x6C7 PUSH2 0x207C JUMP JUMPDEST PUSH1 0x0 PUSH2 0x6D2 DUP5 PUSH2 0x20AD JUMP JUMPDEST SWAP1 POP DUP1 PUSH1 0x4 ADD SLOAD TIMESTAMP GT ISZERO PUSH2 0x70D JUMPI PUSH1 0x4 DUP1 DUP3 ADD SLOAD PUSH1 0x40 MLOAD PUSH4 0x394DAB15 PUSH1 0xE2 SHL DUP2 MSTORE TIMESTAMP SWAP3 DUP2 ADD SWAP3 SWAP1 SWAP3 MSTORE PUSH1 0x24 DUP3 ADD MSTORE PUSH1 0x44 ADD JUMPDEST PUSH1 0x40 MLOAD DUP1 SWAP2 SUB SWAP1 REVERT JUMPDEST DUP1 PUSH1 0x5 ADD SLOAD DUP4 GT PUSH2 0x741 JUMPI PUSH1 0x5 DUP2 ADD SLOAD PUSH1 0x40 MLOAD PUSH4 0xF0DEFC61 PUSH1 0xE0 SHL DUP2 MSTORE PUSH2 0x704 SWAP2 DUP6 SWAP2 PUSH1 0x4 ADD SWAP2 DUP3 MSTORE PUSH1 0x20 DUP3 ADD MSTORE PUSH1 0x40 ADD SWAP1 JUMP JUMPDEST PUSH1 0x64 DUP4 PUSH2 0x74C PUSH2 0x1115 JUMP JUMPDEST PUSH2 0x756 SWAP2 SWAP1 PUSH2 0x3188 JUMP JUMPDEST PUSH2 0x760 SWAP2 SWAP1 PUSH2 0x319F JUMP JUMPDEST DUP3 GT ISZERO PUSH2 0x792 JUMPI DUP2 PUSH2 0x770 PUSH2 0x1115 JUMP JUMPDEST PUSH1 0x40 MLOAD PUSH4 0x4BB86577 PUSH1 0xE1 SHL DUP2 MSTORE PUSH1 0x4 DUP2 ADD SWAP3 SWAP1 SWAP3 MSTORE PUSH1 0x24 DUP3 ADD MSTORE PUSH1 0x44 ADD PUSH2 0x704 JUMP JUMPDEST PUSH1 0x2 DUP2 ADD SLOAD PUSH1 0x40 MLOAD PUSH4 0x23B872DD PUSH1 0xE0 SHL DUP2 MSTORE PUSH1 0x1 PUSH1 0x1 PUSH1 0xA0 SHL SUB SWAP1 SWAP2 AND SWAP1 DUP2 SWAP1 PUSH4 0x23B872DD SWAP1 PUSH2 0x7CA SWAP1 CALLER SWAP1 ADDRESS SWAP1 DUP10 SWAP1 PUSH1 0x4 ADD PUSH2 0x31C1 JUMP JUMPDEST PUSH1 0x20 PUSH1 0x40 MLOAD DUP1 DUP4 SUB DUP2 PUSH1 0x0 DUP8 GAS CALL ISZERO DUP1 ISZERO PUSH2 0x7E9 JUMPI RETURNDATASIZE PUSH1 0x0 DUP1 RETURNDATACOPY RETURNDATASIZE PUSH1 0x0 REVERT JUMPDEST POP POP POP POP PUSH1 0x40 MLOAD RETURNDATASIZE PUSH1 0x1F NOT PUSH1 0x1F DUP3 ADD AND DUP3 ADD DUP1 PUSH1 0x40 MSTORE POP DUP2 ADD SWAP1 PUSH2 0x80D SWAP2 SWAP1 PUSH2 0x31F5 JUMP JUMPDEST POP PUSH2 0x816 PUSH2 0x6A2 JUMP JUMPDEST DUP3 PUSH1 0x4 ADD SLOAD PUSH2 0x825 SWAP2 SWAP1 PUSH2 0x3210 JUMP JUMPDEST TIMESTAMP GT ISZERO PUSH2 0x860 JUMPI PUSH2 0x834 PUSH2 0x6A2 JUMP JUMPDEST DUP3 PUSH1 0x4 ADD PUSH1 0x0 DUP3 DUP3 SLOAD PUSH2 0x847 SWAP2 SWAP1 PUSH2 0x3223 JUMP JUMPDEST SWAP1 SWAP2 SSTORE POP POP PUSH1 0x8 DUP3 ADD DUP1 SLOAD PUSH1 0xFF NOT AND PUSH1 0x2 OR SWAP1 SSTORE PUSH2 0x870 JUMP JUMPDEST PUSH1 0x8 DUP3 ADD DUP1 SLOAD PUSH1 0xFF NOT AND PUSH1 0x1 OR SWAP1 SSTORE JUMPDEST PUSH1 0x1 DUP3 ADD SLOAD PUSH1 0x1 PUSH1 0x1 PUSH1 0xA0 SHL SUB AND ISZERO DUP1 ISZERO SWAP1 PUSH2 0x8A2 JUMPI POP PUSH2 0x88F PUSH2 0x1F61 JUMP JUMPDEST DUP3 PUSH1 0x3 ADD SLOAD PUSH2 0x89E SWAP2 SWAP1 PUSH2 0x3223 JUMP JUMPDEST TIMESTAMP LT ISZERO JUMPDEST ISZERO PUSH2 0x9A1 JUMPI PUSH1 0x0 DUP3 PUSH1 0x6 ADD SLOAD DUP4 PUSH1 0x5 ADD SLOAD PUSH2 0x8BD SWAP2 SWAP1 PUSH2 0x3223 JUMP JUMPDEST PUSH1 0x1 DUP5 ADD SLOAD PUSH1 0x40 MLOAD PUSH4 0xA9059CBB PUSH1 0xE0 SHL DUP2 MSTORE PUSH1 0x1 PUSH1 0x1 PUSH1 0xA0 SHL SUB SWAP2 DUP3 AND PUSH1 0x4 DUP3 ADD MSTORE PUSH1 0x24 DUP2 ADD DUP4 SWAP1 MSTORE SWAP2 SWAP3 POP DUP4 AND SWAP1 PUSH4 0xA9059CBB SWAP1 PUSH1 0x44 ADD PUSH1 0x20 PUSH1 0x40 MLOAD DUP1 DUP4 SUB DUP2 PUSH1 0x0 DUP8 GAS CALL ISZERO DUP1 ISZERO PUSH2 0x914 JUMPI RETURNDATASIZE PUSH1 0x0 DUP1 RETURNDATACOPY RETURNDATASIZE PUSH1 0x0 REVERT JUMPDEST POP POP POP POP PUSH1 0x40 MLOAD RETURNDATASIZE PUSH1 0x1F NOT PUSH1 0x1F DUP3 ADD AND DUP3 ADD DUP1 PUSH1 0x40 MSTORE POP DUP2 ADD SWAP1 PUSH2 0x938 SWAP2 SWAP1 PUSH2 0x31F5 JUMP JUMPDEST POP DUP4 DUP4 PUSH1 0x7 ADD PUSH1 0x0 DUP3 DUP3 SLOAD PUSH2 0x94D SWAP2 SWAP1 PUSH2 0x3223 JUMP JUMPDEST SWAP1 SWAP2 SSTORE POP POP PUSH1 0x1 DUP4 ADD SLOAD PUSH1 0x6 DUP5 ADD SLOAD PUSH1 0x40 MLOAD SWAP1 DUP2 MSTORE PUSH1 0x1 PUSH1 0x1 PUSH1 0xA0 SHL SUB SWAP1 SWAP2 AND SWAP1 PUSH32 0x70220290EA80981EFD0F0F7E6B1B5085605EB976822C8B8422E5BCC53E4C6D63 SWAP1 PUSH1 0x20 ADD PUSH1 0x40 MLOAD DUP1 SWAP2 SUB SWAP1 LOG2 POP PUSH2 0xA35 JUMP JUMPDEST PUSH1 0x1 DUP3 ADD SLOAD PUSH1 0x1 PUSH1 0x1 PUSH1 0xA0 SHL SUB AND ISZERO PUSH2 0xA35 JUMPI PUSH1 0x1 DUP3 ADD SLOAD PUSH1 0x5 DUP4 ADD SLOAD PUSH1 0x40 MLOAD PUSH4 0xA9059CBB PUSH1 0xE0 SHL DUP2 MSTORE PUSH1 0x1 PUSH1 0x1 PUSH1 0xA0 SHL SUB SWAP3 DUP4 AND PUSH1 0x4 DUP3 ADD MSTORE PUSH1 0x24 DUP2 ADD SWAP2 SWAP1 SWAP2 MSTORE SWAP1 DUP3 AND SWAP1 PUSH4 0xA9059CBB SWAP1 PUSH1 0x44 ADD PUSH1 0x20 PUSH1 0x40 MLOAD DUP1 DUP4 SUB DUP2 PUSH1 0x0 DUP8 GAS CALL ISZERO DUP1 ISZERO PUSH2 0xA0F JUMPI RETURNDATASIZE PUSH1 0x0 DUP1 RETURNDATACOPY RETURNDATASIZE PUSH1 0x0 REVERT JUMPDEST POP POP POP POP PUSH1 0x40 MLOAD RETURNDATASIZE PUSH1 0x1F NOT PUSH1 0x1F DUP3 ADD AND DUP3 ADD DUP1 PUSH1 0x40 MSTORE POP DUP2 ADD SWAP1 PUSH2 0xA33 SWAP2 SWAP1 PUSH2 0x31F5 JUMP JUMPDEST POP JUMPDEST PUSH1 0x1 DUP3 ADD DUP1 SLOAD PUSH1 0x1 PUSH1 0x1 PUSH1 0xA0 SHL SUB NOT AND CALLER SWAP1 DUP2 OR SWAP1 SWAP2 SSTORE PUSH1 0x5 DUP4 ADD DUP6 SWAP1 SSTORE PUSH1 0x6 DUP4 ADD DUP5 SWAP1 SSTORE PUSH1 0x4 DUP4 ADD SLOAD PUSH1 0x40 DUP1 MLOAD DUP9 DUP2 MSTORE PUSH1 0x20 DUP2 ADD SWAP4 SWAP1 SWAP4 MSTORE DUP3 ADD DUP7 SWAP1 MSTORE PUSH1 0x60 DUP3 ADD DUP6 SWAP1 MSTORE PUSH1 0x80 DUP3 ADD MSTORE PUSH32 0xE0771BB8191F40E2C9380D044DD32271D56E14B7722162D048AA9EBE13EEFBB1 SWAP1 PUSH1 0xA0 ADD PUSH1 0x40 MLOAD DUP1 SWAP2 SUB SWAP1 LOG1 POP POP PUSH2 0xAC5 PUSH1 0x1 PUSH1 0x0 DUP1 MLOAD PUSH1 0x20 PUSH2 0x34E1 DUP4 CODECOPY DUP2 MLOAD SWAP2 MSTORE SSTORE JUMP JUMPDEST POP POP POP JUMP JUMPDEST PUSH2 0xAD7 CALLER JUMPDEST PUSH1 0x0 CALLDATASIZE PUSH2 0x20E0 JUMP JUMPDEST PUSH2 0xA8C0 DUP2 GT ISZERO PUSH2 0xB05 JUMPI PUSH1 0x40 MLOAD PUSH4 0x8758956B PUSH1 0xE0 SHL DUP2 MSTORE PUSH1 0x4 DUP2 ADD DUP3 SWAP1 MSTORE PUSH2 0xA8C0 PUSH1 0x24 DUP3 ADD MSTORE PUSH1 0x44 ADD PUSH2 0x704 JUMP JUMPDEST PUSH2 0xB0E DUP2 PUSH2 0x21DE JUMP JUMPDEST PUSH1 0x40 MLOAD DUP2 DUP2 MSTORE PUSH32 0xBFC3B8F5A88703F2C18A06CAD35260A2D10C85F63DE450B5B5ADDBADCDFC08EB SWAP1 PUSH1 0x20 ADD JUMPDEST PUSH1 0x40 MLOAD DUP1 SWAP2 SUB SWAP1 LOG1 POP JUMP JUMPDEST PUSH2 0xB4E CALLER PUSH2 0xACF JUMP JUMPDEST PUSH2 0x3E8 DUP2 GT ISZERO PUSH2 0xB99 JUMPI PUSH1 0x40 MLOAD PUSH3 0x461BCD PUSH1 0xE5 SHL DUP2 MSTORE PUSH1 0x20 PUSH1 0x4 DUP3 ADD MSTORE PUSH1 0x16 PUSH1 0x24 DUP3 ADD MSTORE PUSH22 0x46656573206D7573742062652062656C6F7720313025 PUSH1 0x50 SHL PUSH1 0x44 DUP3 ADD MSTORE PUSH1 0x64 ADD PUSH2 0x704 JUMP JUMPDEST PUSH2 0xBA2 DUP2 PUSH2 0x21F2 JUMP JUMPDEST PUSH1 0x40 MLOAD DUP2 DUP2 MSTORE PUSH32 0x42A5471985E5DDD8227F0F32637D539819564F327D0FB8366FD3D982AA426C0E SWAP1 PUSH1 0x20 ADD PUSH2 0xB3A JUMP JUMPDEST PUSH2 0xBDB CALLER PUSH2 0xACF JUMP JUMPDEST PUSH1 0x64 DUP2 PUSH2 0xFFFF AND LT PUSH2 0xC0D JUMPI PUSH1 0x40 MLOAD PUSH4 0x4BB86577 PUSH1 0xE1 SHL DUP2 MSTORE PUSH2 0xFFFF DUP3 AND PUSH1 0x4 DUP3 ADD MSTORE PUSH1 0x63 PUSH1 0x24 DUP3 ADD MSTORE PUSH1 0x44 ADD PUSH2 0x704 JUMP JUMPDEST PUSH2 0xC1A DUP2 PUSH2 0xFFFF AND PUSH2 0x2206 JUMP JUMPDEST PUSH1 0x40 MLOAD PUSH2 0xFFFF DUP3 AND DUP2 MSTORE PUSH32 0x5CA520F831F8D754F63AB92B7CF507A5FD5E64ACC73687FB37722EADBD032EE SWAP1 PUSH1 0x20 ADD PUSH2 0xB3A JUMP JUMPDEST PUSH2 0xC57 CALLER PUSH2 0xACF JUMP JUMPDEST PUSH2 0xC5F PUSH2 0x221A JUMP JUMPDEST JUMP JUMPDEST PUSH1 0x0 DUP1 PUSH2 0xC6C PUSH2 0x2020 JUMP JUMPDEST PUSH1 0x2 ADD SLOAD SWAP3 SWAP2 POP POP JUMP JUMPDEST PUSH2 0xC7E PUSH2 0x207C JUMP JUMPDEST PUSH2 0xC86 PUSH2 0x2044 JUMP JUMPDEST PUSH1 0x0 PUSH2 0xC90 PUSH2 0x2274 JUMP JUMPDEST SWAP1 POP DUP4 ISZERO DUP1 PUSH2 0xCA5 JUMPI POP PUSH2 0xCA2 PUSH2 0x178F JUMP JUMPDEST DUP5 GT JUMPDEST ISZERO PUSH2 0xCD5 JUMPI DUP4 PUSH2 0xCB3 PUSH2 0x178F JUMP JUMPDEST PUSH1 0x40 MLOAD PUSH4 0x19D2C493 PUSH1 0xE2 SHL DUP2 MSTORE PUSH1 0x4 DUP2 ADD SWAP3 SWAP1 SWAP3 MSTORE PUSH1 0x24 DUP3 ADD MSTORE PUSH1 0x44 ADD PUSH2 0x704 JUMP JUMPDEST PUSH2 0xCDD PUSH2 0x1100 JUMP JUMPDEST DUP7 LT DUP1 PUSH2 0xCF0 JUMPI POP PUSH2 0xCED PUSH2 0xC61 JUMP JUMPDEST DUP7 GT JUMPDEST ISZERO PUSH2 0xD30 JUMPI DUP6 PUSH2 0xCFE PUSH2 0x1100 JUMP JUMPDEST PUSH2 0xD06 PUSH2 0xC61 JUMP JUMPDEST PUSH1 0x40 MLOAD PUSH4 0xFB6FFDE9 PUSH1 0xE0 SHL DUP2 MSTORE PUSH1 0x4 DUP2 ADD SWAP4 SWAP1 SWAP4 MSTORE PUSH1 0x24 DUP4 ADD SWAP2 SWAP1 SWAP2 MSTORE PUSH1 0x44 DUP3 ADD MSTORE PUSH1 0x64 ADD PUSH2 0x704 JUMP JUMPDEST PUSH2 0xD38 PUSH2 0x1AD8 JUMP JUMPDEST DUP3 CALLDATALOAD GT ISZERO PUSH2 0xD6C JUMPI DUP2 CALLDATALOAD PUSH2 0xD4A PUSH2 0x1AD8 JUMP JUMPDEST PUSH1 0x40 MLOAD PUSH4 0x16F0A445 PUSH1 0xE2 SHL DUP2 MSTORE PUSH1 0x4 DUP2 ADD SWAP3 SWAP1 SWAP3 MSTORE PUSH1 0x24 DUP3 ADD MSTORE PUSH1 0x44 ADD PUSH2 0x704 JUMP JUMPDEST PUSH2 0xD74 PUSH2 0x1AD8 JUMP JUMPDEST DUP3 PUSH1 0x20 ADD CALLDATALOAD GT ISZERO PUSH2 0xD8C JUMPI DUP2 PUSH1 0x20 ADD CALLDATALOAD PUSH2 0xD4A PUSH2 0x1AD8 JUMP JUMPDEST PUSH1 0x0 PUSH2 0xD97 DUP3 PUSH2 0x20AD JUMP JUMPDEST DUP1 SLOAD PUSH1 0x1 PUSH1 0x1 PUSH1 0xA0 SHL SUB NOT AND CALLER OR DUP2 SSTORE TIMESTAMP PUSH1 0x3 DUP3 ADD DUP2 SWAP1 SSTORE SWAP1 SWAP2 POP PUSH2 0xDBD SWAP1 DUP9 SWAP1 PUSH2 0x3223 JUMP JUMPDEST PUSH1 0x4 DUP3 ADD SSTORE PUSH1 0x5 DUP2 ADD DUP9 SWAP1 SSTORE PUSH1 0x8 DUP2 ADD DUP1 SLOAD PUSH1 0xFF NOT AND SWAP1 SSTORE PUSH1 0x2 DUP2 ADD DUP1 SLOAD PUSH1 0x1 PUSH1 0x1 PUSH1 0xA0 SHL SUB NOT AND PUSH1 0x1 PUSH1 0x1 PUSH1 0xA0 SHL SUB DUP7 AND OR SWAP1 SSTORE DUP3 PUSH1 0x9 DUP3 ADD PUSH2 0xE01 DUP3 DUP3 PUSH2 0x3256 JUMP JUMPDEST SWAP1 POP POP PUSH1 0x0 JUMPDEST DUP6 DUP2 LT ISZERO PUSH2 0x1057 JUMPI PUSH1 0x0 DUP8 DUP8 DUP4 DUP2 DUP2 LT PUSH2 0xE23 JUMPI PUSH2 0xE23 PUSH2 0x327F JUMP JUMPDEST SWAP1 POP PUSH1 0x80 MUL ADD PUSH1 0x60 ADD PUSH1 0x20 DUP2 ADD SWAP1 PUSH2 0xE3B SWAP2 SWAP1 PUSH2 0x32A2 JUMP JUMPDEST PUSH1 0x1 DUP2 GT ISZERO PUSH2 0xE4C JUMPI PUSH2 0xE4C PUSH2 0x2DDF JUMP JUMPDEST SUB PUSH2 0xEFA JUMPI DUP7 DUP7 DUP3 DUP2 DUP2 LT PUSH2 0xE63 JUMPI PUSH2 0xE63 PUSH2 0x327F JUMP JUMPDEST PUSH2 0xE79 SWAP3 PUSH1 0x20 PUSH1 0x80 SWAP1 SWAP3 MUL ADD SWAP1 DUP2 ADD SWAP2 POP PUSH2 0x2F67 JUMP JUMPDEST PUSH1 0x1 PUSH1 0x1 PUSH1 0xA0 SHL SUB AND PUSH4 0x42842E0E CALLER ADDRESS DUP11 DUP11 DUP7 DUP2 DUP2 LT PUSH2 0xE9B JUMPI PUSH2 0xE9B PUSH2 0x327F JUMP JUMPDEST SWAP1 POP PUSH1 0x80 MUL ADD PUSH1 0x20 ADD CALLDATALOAD PUSH1 0x40 MLOAD DUP5 PUSH4 0xFFFFFFFF AND PUSH1 0xE0 SHL DUP2 MSTORE PUSH1 0x4 ADD PUSH2 0xEC3 SWAP4 SWAP3 SWAP2 SWAP1 PUSH2 0x31C1 JUMP JUMPDEST PUSH1 0x0 PUSH1 0x40 MLOAD DUP1 DUP4 SUB DUP2 PUSH1 0x0 DUP8 DUP1 EXTCODESIZE ISZERO DUP1 ISZERO PUSH2 0xEDD JUMPI PUSH1 0x0 DUP1 REVERT JUMPDEST POP GAS CALL ISZERO DUP1 ISZERO PUSH2 0xEF1 JUMPI RETURNDATASIZE PUSH1 0x0 DUP1 RETURNDATACOPY RETURNDATASIZE PUSH1 0x0 REVERT JUMPDEST POP POP POP POP PUSH2 0xFFE JUMP JUMPDEST PUSH1 0x1 DUP8 DUP8 DUP4 DUP2 DUP2 LT PUSH2 0xF0E JUMPI PUSH2 0xF0E PUSH2 0x327F JUMP JUMPDEST SWAP1 POP PUSH1 0x80 MUL ADD PUSH1 0x60 ADD PUSH1 0x20 DUP2 ADD SWAP1 PUSH2 0xF26 SWAP2 SWAP1 PUSH2 0x32A2 JUMP JUMPDEST PUSH1 0x1 DUP2 GT ISZERO PUSH2 0xF37 JUMPI PUSH2 0xF37 PUSH2 0x2DDF JUMP JUMPDEST SUB PUSH2 0xFFE JUMPI DUP7 DUP7 DUP3 DUP2 DUP2 LT PUSH2 0xF4E JUMPI PUSH2 0xF4E PUSH2 0x327F JUMP JUMPDEST PUSH2 0xF64 SWAP3 PUSH1 0x20 PUSH1 0x80 SWAP1 SWAP3 MUL ADD SWAP1 DUP2 ADD SWAP2 POP PUSH2 0x2F67 JUMP JUMPDEST PUSH1 0x1 PUSH1 0x1 PUSH1 0xA0 SHL SUB AND PUSH4 0xF242432A CALLER ADDRESS DUP11 DUP11 DUP7 DUP2 DUP2 LT PUSH2 0xF86 JUMPI PUSH2 0xF86 PUSH2 0x327F JUMP JUMPDEST SWAP1 POP PUSH1 0x80 MUL ADD PUSH1 0x20 ADD CALLDATALOAD DUP12 DUP12 DUP8 DUP2 DUP2 LT PUSH2 0xFA2 JUMPI PUSH2 0xFA2 PUSH2 0x327F JUMP JUMPDEST SWAP1 POP PUSH1 0x80 MUL ADD PUSH1 0x40 ADD CALLDATALOAD PUSH1 0x40 MLOAD DUP6 PUSH4 0xFFFFFFFF AND PUSH1 0xE0 SHL DUP2 MSTORE PUSH1 0x4 ADD PUSH2 0xFCB SWAP5 SWAP4 SWAP3 SWAP2 SWAP1 PUSH2 0x32BF JUMP JUMPDEST PUSH1 0x0 PUSH1 0x40 MLOAD DUP1 DUP4 SUB DUP2 PUSH1 0x0 DUP8 DUP1 EXTCODESIZE ISZERO DUP1 ISZERO PUSH2 0xFE5 JUMPI PUSH1 0x0 DUP1 REVERT JUMPDEST POP GAS CALL ISZERO DUP1 ISZERO PUSH2 0xFF9 JUMPI RETURNDATASIZE PUSH1 0x0 DUP1 RETURNDATACOPY RETURNDATASIZE PUSH1 0x0 REVERT JUMPDEST POP POP POP POP JUMPDEST DUP2 PUSH1 0xC ADD DUP8 DUP8 DUP4 DUP2 DUP2 LT PUSH2 0x1014 JUMPI PUSH2 0x1014 PUSH2 0x327F JUMP JUMPDEST DUP4 SLOAD PUSH1 0x1 DUP2 ADD DUP6 SSTORE PUSH1 0x0 SWAP5 DUP6 MSTORE PUSH1 0x20 SWAP1 SWAP5 KECCAK256 PUSH1 0x80 SWAP1 SWAP2 MUL SWAP3 SWAP1 SWAP3 ADD SWAP3 PUSH1 0x4 MUL SWAP1 SWAP2 ADD SWAP1 POP PUSH2 0x1042 DUP3 DUP3 PUSH2 0x32F7 JUMP JUMPDEST POP POP DUP1 DUP1 PUSH2 0x104F SWAP1 PUSH2 0x3358 JUMP JUMPDEST SWAP2 POP POP PUSH2 0xE07 JUMP JUMPDEST POP PUSH1 0x4 DUP2 ADD SLOAD PUSH1 0x40 DUP1 MLOAD DUP5 DUP2 MSTORE CALLER PUSH1 0x20 DUP3 ADD MSTORE DUP1 DUP3 ADD DUP12 SWAP1 MSTORE PUSH1 0x60 DUP2 ADD SWAP3 SWAP1 SWAP3 MSTORE MLOAD PUSH32 0xBF6DC7BDF2F23AF5A506FE03EE1221F47D023A2227FBC949C6B812AE44534E6D SWAP2 DUP2 SWAP1 SUB PUSH1 0x80 ADD SWAP1 LOG1 POP POP PUSH2 0x10BC PUSH1 0x1 PUSH1 0x0 DUP1 MLOAD PUSH1 0x20 PUSH2 0x34E1 DUP4 CODECOPY DUP2 MLOAD SWAP2 MSTORE SSTORE JUMP JUMPDEST POP POP POP POP POP POP JUMP JUMPDEST PUSH2 0x10CC PUSH2 0x2296 JUMP JUMPDEST PUSH2 0x10D5 DUP3 PUSH2 0x233B JUMP JUMPDEST PUSH2 0x10DF DUP3 DUP3 PUSH2 0x2344 JUMP JUMPDEST POP POP JUMP JUMPDEST PUSH1 0x0 PUSH2 0x10ED PUSH2 0x2401 JUMP JUMPDEST POP PUSH1 0x0 DUP1 MLOAD PUSH1 0x20 PUSH2 0x34A1 DUP4 CODECOPY DUP2 MLOAD SWAP2 MSTORE SWAP1 JUMP JUMPDEST PUSH1 0x0 DUP1 PUSH2 0x110B PUSH2 0x2020 JUMP JUMPDEST PUSH1 0x1 ADD SLOAD SWAP3 SWAP2 POP POP JUMP JUMPDEST PUSH1 0x0 DUP1 PUSH2 0x1120 PUSH2 0x2020 JUMP JUMPDEST PUSH1 0x4 ADD SLOAD SWAP3 SWAP2 POP POP JUMP JUMPDEST PUSH2 0x1133 CALLER PUSH2 0xACF JUMP JUMPDEST PUSH2 0x113B PUSH2 0x200E JUMP JUMPDEST DUP2 LT PUSH2 0x115D JUMPI PUSH1 0x40 MLOAD PUSH4 0xD9970FA1 PUSH1 0xE0 SHL DUP2 MSTORE PUSH1 0x4 DUP2 ADD DUP3 SWAP1 MSTORE PUSH1 0x24 ADD PUSH2 0x704 JUMP JUMPDEST PUSH1 0x0 PUSH2 0x1168 DUP3 PUSH2 0x20AD JUMP JUMPDEST PUSH1 0x1 DUP2 ADD SLOAD SWAP1 SWAP2 POP PUSH1 0x1 PUSH1 0x1 PUSH1 0xA0 SHL SUB AND ISZERO PUSH2 0x1220 JUMPI PUSH1 0x2 DUP2 ADD SLOAD PUSH1 0x1 DUP3 ADD SLOAD PUSH1 0x7 DUP4 ADD SLOAD PUSH1 0x5 DUP5 ADD SLOAD PUSH1 0x1 PUSH1 0x1 PUSH1 0xA0 SHL SUB SWAP4 DUP5 AND SWAP4 PUSH4 0xA9059CBB SWAP4 AND SWAP2 PUSH2 0x11AF SWAP2 PUSH2 0x3210 JUMP JUMPDEST PUSH1 0x40 MLOAD PUSH1 0x1 PUSH1 0x1 PUSH1 0xE0 SHL SUB NOT PUSH1 0xE0 DUP6 SWAP1 SHL AND DUP2 MSTORE PUSH1 0x1 PUSH1 0x1 PUSH1 0xA0 SHL SUB SWAP1 SWAP3 AND PUSH1 0x4 DUP4 ADD MSTORE PUSH1 0x24 DUP3 ADD MSTORE PUSH1 0x44 ADD PUSH1 0x20 PUSH1 0x40 MLOAD DUP1 DUP4 SUB DUP2 PUSH1 0x0 DUP8 GAS CALL ISZERO DUP1 ISZERO PUSH2 0x11FA JUMPI RETURNDATASIZE PUSH1 0x0 DUP1 RETURNDATACOPY RETURNDATASIZE PUSH1 0x0 REVERT JUMPDEST POP POP POP POP PUSH1 0x40 MLOAD RETURNDATASIZE PUSH1 0x1F NOT PUSH1 0x1F DUP3 ADD AND DUP3 ADD DUP1 PUSH1 0x40 MSTORE POP DUP2 ADD SWAP1 PUSH2 0x121E SWAP2 SWAP1 PUSH2 0x31F5 JUMP JUMPDEST POP JUMPDEST PUSH1 0x0 JUMPDEST PUSH1 0xC DUP3 ADD SLOAD DUP2 LT ISZERO PUSH2 0x12F9 JUMPI DUP2 PUSH1 0xC ADD DUP2 DUP2 SLOAD DUP2 LT PUSH2 0x1244 JUMPI PUSH2 0x1244 PUSH2 0x327F JUMP JUMPDEST PUSH1 0x0 SWAP2 DUP3 MSTORE PUSH1 0x20 SWAP1 SWAP2 KECCAK256 PUSH1 0x4 SWAP1 SWAP2 MUL ADD SLOAD DUP3 SLOAD PUSH1 0xC DUP5 ADD DUP1 SLOAD PUSH1 0x1 PUSH1 0x1 PUSH1 0xA0 SHL SUB SWAP4 DUP5 AND SWAP4 PUSH4 0x42842E0E SWAP4 ADDRESS SWAP4 SWAP2 AND SWAP2 DUP7 SWAP1 DUP2 LT PUSH2 0x1284 JUMPI PUSH2 0x1284 PUSH2 0x327F JUMP JUMPDEST SWAP1 PUSH1 0x0 MSTORE PUSH1 0x20 PUSH1 0x0 KECCAK256 SWAP1 PUSH1 0x4 MUL ADD PUSH1 0x1 ADD SLOAD PUSH1 0x40 MLOAD DUP5 PUSH4 0xFFFFFFFF AND PUSH1 0xE0 SHL DUP2 MSTORE PUSH1 0x4 ADD PUSH2 0x12B4 SWAP4 SWAP3 SWAP2 SWAP1 PUSH2 0x31C1 JUMP JUMPDEST PUSH1 0x0 PUSH1 0x40 MLOAD DUP1 DUP4 SUB DUP2 PUSH1 0x0 DUP8 DUP1 EXTCODESIZE ISZERO DUP1 ISZERO PUSH2 0x12CE JUMPI PUSH1 0x0 DUP1 REVERT JUMPDEST POP GAS CALL ISZERO DUP1 ISZERO PUSH2 0x12E2 JUMPI RETURNDATASIZE PUSH1 0x0 DUP1 RETURNDATACOPY RETURNDATASIZE PUSH1 0x0 REVERT JUMPDEST POP POP POP POP DUP1 DUP1 PUSH2 0x12F1 SWAP1 PUSH2 0x3358 JUMP JUMPDEST SWAP2 POP POP PUSH2 0x1223 JUMP JUMPDEST POP PUSH1 0x8 DUP2 ADD DUP1 SLOAD PUSH1 0xFF NOT AND PUSH1 0x4 OR SWAP1 SSTORE PUSH1 0x40 MLOAD DUP3 DUP2 MSTORE PUSH32 0x2809C7E17BF978FBC7194C0A694B638C4215E9140CACC6C38CA36010B45697DF SWAP1 PUSH1 0x20 ADD JUMPDEST PUSH1 0x40 MLOAD DUP1 SWAP2 SUB SWAP1 LOG1 POP POP JUMP JUMPDEST PUSH2 0x134A CALLER PUSH2 0xACF JUMP JUMPDEST PUSH1 0x64 DUP2 PUSH2 0xFFFF AND GT ISZERO PUSH2 0x137D JUMPI PUSH1 0x40 MLOAD PUSH4 0x19D2C493 PUSH1 0xE2 SHL DUP2 MSTORE PUSH2 0xFFFF DUP3 AND PUSH1 0x4 DUP3 ADD MSTORE PUSH1 0x64 PUSH1 0x24 DUP3 ADD MSTORE PUSH1 0x44 ADD PUSH2 0x704 JUMP JUMPDEST PUSH2 0x138A DUP2 PUSH2 0xFFFF AND PUSH2 0x244A JUMP JUMPDEST PUSH1 0x40 MLOAD PUSH2 0xFFFF DUP3 AND DUP2 MSTORE PUSH32 0xFB15AB527EB75167C1BA0957B32FEDFEB6CB153A67C3B8987CF1BE51C31D328 SWAP1 PUSH1 0x20 ADD PUSH2 0xB3A JUMP JUMPDEST PUSH2 0x13C6 PUSH2 0x2A53 JUMP JUMPDEST PUSH1 0x0 PUSH2 0x13D0 PUSH2 0x2020 JUMP JUMPDEST PUSH1 0x0 DUP5 DUP2 MSTORE PUSH1 0x8 DUP1 DUP4 ADD PUSH1 0x20 SWAP1 DUP2 MSTORE PUSH1 0x40 SWAP3 DUP4 SWAP1 KECCAK256 DUP4 MLOAD PUSH2 0x160 DUP2 ADD DUP6 MSTORE DUP2 SLOAD PUSH1 0x1 PUSH1 0x1 PUSH1 0xA0 SHL SUB SWAP1 DUP2 AND DUP3 MSTORE PUSH1 0x1 DUP4 ADD SLOAD DUP2 AND SWAP4 DUP3 ADD SWAP4 SWAP1 SWAP4 MSTORE PUSH1 0x2 DUP3 ADD SLOAD SWAP1 SWAP3 AND SWAP4 DUP3 ADD SWAP4 SWAP1 SWAP4 MSTORE PUSH1 0x3 DUP4 ADD SLOAD PUSH1 0x60 DUP3 ADD MSTORE PUSH1 0x4 DUP1 DUP5 ADD SLOAD PUSH1 0x80 DUP4 ADD MSTORE PUSH1 0x5 DUP5 ADD SLOAD PUSH1 0xA0 DUP4 ADD MSTORE PUSH1 0x6 DUP5 ADD SLOAD PUSH1 0xC0 DUP4 ADD MSTORE PUSH1 0x7 DUP5 ADD SLOAD PUSH1 0xE0 DUP4 ADD MSTORE SWAP2 DUP4 ADD SLOAD SWAP4 SWAP5 POP SWAP3 PUSH2 0x100 DUP5 ADD SWAP2 PUSH1 0xFF SWAP1 SWAP2 AND SWAP1 DUP2 GT ISZERO PUSH2 0x1470 JUMPI PUSH2 0x1470 PUSH2 0x2DDF JUMP JUMPDEST PUSH1 0x4 DUP2 GT ISZERO PUSH2 0x1481 JUMPI PUSH2 0x1481 PUSH2 0x2DDF JUMP JUMPDEST DUP2 MSTORE PUSH1 0x40 DUP1 MLOAD PUSH1 0x60 DUP2 ADD DUP3 MSTORE PUSH1 0x9 DUP5 ADD SLOAD DUP2 MSTORE PUSH1 0xA DUP5 ADD SLOAD PUSH1 0x20 DUP3 DUP2 ADD SWAP2 SWAP1 SWAP2 MSTORE PUSH1 0xB DUP6 ADD SLOAD PUSH1 0x1 PUSH1 0x1 PUSH1 0xA0 SHL SUB AND DUP3 DUP5 ADD MSTORE DUP1 DUP5 ADD SWAP2 SWAP1 SWAP2 MSTORE PUSH1 0xC DUP5 ADD DUP1 SLOAD DUP4 MLOAD DUP2 DUP5 MUL DUP2 ADD DUP5 ADD DUP6 MSTORE DUP2 DUP2 MSTORE SWAP4 SWAP1 SWAP5 ADD SWAP4 SWAP1 SWAP2 PUSH1 0x0 SWAP1 DUP5 ADD JUMPDEST DUP3 DUP3 LT ISZERO PUSH2 0x156D JUMPI PUSH1 0x0 DUP5 DUP2 MSTORE PUSH1 0x20 SWAP1 DUP2 SWAP1 KECCAK256 PUSH1 0x40 DUP1 MLOAD PUSH1 0x80 DUP2 ADD DUP3 MSTORE PUSH1 0x4 DUP7 MUL SWAP1 SWAP3 ADD DUP1 SLOAD PUSH1 0x1 PUSH1 0x1 PUSH1 0xA0 SHL SUB AND DUP4 MSTORE PUSH1 0x1 DUP1 DUP3 ADD SLOAD SWAP5 DUP5 ADD SWAP5 SWAP1 SWAP5 MSTORE PUSH1 0x2 DUP2 ADD SLOAD SWAP2 DUP4 ADD SWAP2 SWAP1 SWAP2 MSTORE PUSH1 0x3 DUP2 ADD SLOAD SWAP2 SWAP3 SWAP1 SWAP2 PUSH1 0x60 DUP5 ADD SWAP2 PUSH1 0xFF SWAP1 SWAP2 AND SWAP1 DUP2 GT ISZERO PUSH2 0x1549 JUMPI PUSH2 0x1549 PUSH2 0x2DDF JUMP JUMPDEST PUSH1 0x1 DUP2 GT ISZERO PUSH2 0x155A JUMPI PUSH2 0x155A PUSH2 0x2DDF JUMP JUMPDEST DUP2 MSTORE POP POP DUP2 MSTORE PUSH1 0x20 ADD SWAP1 PUSH1 0x1 ADD SWAP1 PUSH2 0x14DC JUMP JUMPDEST POP POP POP SWAP2 MSTORE POP SWAP1 SWAP5 SWAP4 POP POP POP POP JUMP JUMPDEST CALLER PUSH2 0x1585 PUSH2 0x1A39 JUMP JUMPDEST PUSH1 0x1 PUSH1 0x1 PUSH1 0xA0 SHL SUB AND DUP2 PUSH1 0x1 PUSH1 0x1 PUSH1 0xA0 SHL SUB AND EQ PUSH2 0x15C0 JUMPI PUSH1 0x40 MLOAD PUSH3 0xD1953B PUSH1 0xE3 SHL DUP2 MSTORE PUSH1 0x1 PUSH1 0x1 PUSH1 0xA0 SHL SUB DUP3 AND PUSH1 0x4 DUP3 ADD MSTORE PUSH1 0x24 ADD PUSH2 0x704 JUMP JUMPDEST DUP2 PUSH1 0x1 PUSH1 0x1 PUSH1 0xA0 SHL SUB AND EXTCODESIZE PUSH1 0x0 SUB PUSH2 0x15F6 JUMPI PUSH1 0x40 MLOAD PUSH4 0x61798F2F PUSH1 0xE1 SHL DUP2 MSTORE PUSH1 0x1 PUSH1 0x1 PUSH1 0xA0 SHL SUB DUP4 AND PUSH1 0x4 DUP3 ADD MSTORE PUSH1 0x24 ADD PUSH2 0x704 JUMP JUMPDEST PUSH2 0x10DF DUP3 PUSH2 0x245E JUMP JUMPDEST PUSH32 0xF0C57E16840DF040F15088DC2F81FE391C3923BEC73E23A9662EFC9C229C6A00 DUP1 SLOAD PUSH1 0x1 PUSH1 0x40 SHL DUP2 DIV PUSH1 0xFF AND ISZERO SWAP1 PUSH8 0xFFFFFFFFFFFFFFFF AND PUSH1 0x0 DUP2 ISZERO DUP1 ISZERO PUSH2 0x1645 JUMPI POP DUP3 JUMPDEST SWAP1 POP PUSH1 0x0 DUP3 PUSH8 0xFFFFFFFFFFFFFFFF AND PUSH1 0x1 EQ DUP1 ISZERO PUSH2 0x1662 JUMPI POP ADDRESS EXTCODESIZE ISZERO JUMPDEST SWAP1 POP DUP2 ISZERO DUP1 ISZERO PUSH2 0x1670 JUMPI POP DUP1 ISZERO JUMPDEST ISZERO PUSH2 0x168E JUMPI PUSH1 0x40 MLOAD PUSH4 0xF92EE8A9 PUSH1 0xE0 SHL DUP2 MSTORE PUSH1 0x4 ADD PUSH1 0x40 MLOAD DUP1 SWAP2 SUB SWAP1 REVERT JUMPDEST DUP5 SLOAD PUSH8 0xFFFFFFFFFFFFFFFF NOT AND PUSH1 0x1 OR DUP6 SSTORE DUP4 ISZERO PUSH2 0x16B8 JUMPI DUP5 SLOAD PUSH1 0xFF PUSH1 0x40 SHL NOT AND PUSH1 0x1 PUSH1 0x40 SHL OR DUP6 SSTORE JUMPDEST PUSH2 0x16C0 PUSH2 0x24B8 JUMP JUMPDEST PUSH2 0x16C8 PUSH2 0x24B8 JUMP JUMPDEST PUSH2 0x16D0 PUSH2 0x24C0 JUMP JUMPDEST PUSH2 0x16E0 PUSH2 0x16DB PUSH2 0x24D0 JUMP JUMPDEST PUSH2 0x250F JUMP JUMPDEST PUSH2 0x16E8 PUSH2 0x24B8 JUMP JUMPDEST PUSH2 0x16F0 PUSH2 0x2520 JUMP JUMPDEST PUSH2 0x16F8 PUSH2 0x2530 JUMP JUMPDEST DUP4 ISZERO PUSH2 0x173E JUMPI DUP5 SLOAD PUSH1 0xFF PUSH1 0x40 SHL NOT AND DUP6 SSTORE PUSH1 0x40 MLOAD PUSH1 0x1 DUP2 MSTORE PUSH32 0xC7F505B2F371AE2175EE4913F4499E1F2633A7B5936321EED1CDAEB6115181D2 SWAP1 PUSH1 0x20 ADD PUSH1 0x40 MLOAD DUP1 SWAP2 SUB SWAP1 LOG1 JUMPDEST POP POP POP POP POP JUMP JUMPDEST PUSH2 0x174E CALLER PUSH2 0xACF JUMP JUMPDEST PUSH2 0xC5F PUSH2 0x257E JUMP JUMPDEST PUSH1 0x0 DUP1 MLOAD PUSH1 0x20 PUSH2 0x3481 DUP4 CODECOPY DUP2 MLOAD SWAP2 MSTORE DUP1 SLOAD PUSH1 0x0 SWAP2 SWAP1 PUSH1 0x1 PUSH1 0xA0 SHL SWAP1 DIV PUSH1 0xFF AND PUSH2 0x1780 JUMPI PUSH1 0x0 PUSH2 0x1789 JUMP JUMPDEST PUSH4 0x8FB36037 PUSH1 0xE0 SHL JUMPDEST SWAP2 POP POP SWAP1 JUMP JUMPDEST PUSH1 0x0 DUP1 PUSH2 0x179A PUSH2 0x2020 JUMP JUMPDEST PUSH1 0x6 ADD SLOAD SWAP3 SWAP2 POP POP JUMP JUMPDEST PUSH2 0x17AC PUSH2 0x2044 JUMP JUMPDEST PUSH1 0x0 PUSH2 0x17B7 DUP3 PUSH2 0x20AD JUMP JUMPDEST DUP1 SLOAD SWAP1 SWAP2 POP PUSH1 0x1 PUSH1 0x1 PUSH1 0xA0 SHL SUB AND CALLER EQ PUSH2 0x17F8 JUMPI DUP1 SLOAD PUSH1 0x40 MLOAD PUSH4 0xB71AF04B PUSH1 0xE0 SHL DUP2 MSTORE PUSH1 0x1 PUSH1 0x1 PUSH1 0xA0 SHL SUB SWAP1 SWAP2 AND PUSH1 0x4 DUP3 ADD MSTORE CALLER PUSH1 0x24 DUP3 ADD MSTORE PUSH1 0x44 ADD PUSH2 0x704 JUMP JUMPDEST PUSH1 0x4 PUSH1 0x8 DUP3 ADD SLOAD PUSH1 0xFF AND PUSH1 0x4 DUP2 GT ISZERO PUSH2 0x1813 JUMPI PUSH2 0x1813 PUSH2 0x2DDF JUMP JUMPDEST EQ DUP1 PUSH2 0x1837 JUMPI POP PUSH1 0x3 PUSH1 0x8 DUP3 ADD SLOAD PUSH1 0xFF AND PUSH1 0x4 DUP2 GT ISZERO PUSH2 0x1835 JUMPI PUSH2 0x1835 PUSH2 0x2DDF JUMP JUMPDEST EQ JUMPDEST ISZERO PUSH2 0x1864 JUMPI PUSH1 0x4 DUP1 DUP3 ADD SLOAD PUSH1 0x40 MLOAD PUSH4 0x394DAB15 PUSH1 0xE2 SHL DUP2 MSTORE TIMESTAMP SWAP3 DUP2 ADD SWAP3 SWAP1 SWAP3 MSTORE PUSH1 0x24 DUP3 ADD MSTORE PUSH1 0x44 ADD PUSH2 0x704 JUMP JUMPDEST PUSH1 0x0 PUSH1 0x8 DUP3 ADD SLOAD PUSH1 0xFF AND PUSH1 0x4 DUP2 GT ISZERO PUSH2 0x187F JUMPI PUSH2 0x187F PUSH2 0x2DDF JUMP JUMPDEST EQ PUSH2 0x189D JUMPI PUSH1 0x40 MLOAD PUSH4 0x35473ACB PUSH1 0xE0 SHL DUP2 MSTORE PUSH1 0x4 ADD PUSH1 0x40 MLOAD DUP1 SWAP2 SUB SWAP1 REVERT JUMPDEST PUSH1 0xC DUP2 ADD SLOAD PUSH1 0x0 JUMPDEST DUP2 DUP2 LT ISZERO PUSH2 0x19DA JUMPI PUSH1 0x0 DUP4 PUSH1 0xC ADD DUP3 DUP2 SLOAD DUP2 LT PUSH2 0x18C4 JUMPI PUSH2 0x18C4 PUSH2 0x327F JUMP JUMPDEST SWAP1 PUSH1 0x0 MSTORE PUSH1 0x20 PUSH1 0x0 KECCAK256 SWAP1 PUSH1 0x4 MUL ADD PUSH1 0x40 MLOAD DUP1 PUSH1 0x80 ADD PUSH1 0x40 MSTORE SWAP1 DUP2 PUSH1 0x0 DUP3 ADD PUSH1 0x0 SWAP1 SLOAD SWAP1 PUSH2 0x100 EXP SWAP1 DIV PUSH1 0x1 PUSH1 0x1 PUSH1 0xA0 SHL SUB AND PUSH1 0x1 PUSH1 0x1 PUSH1 0xA0 SHL SUB AND PUSH1 0x1 PUSH1 0x1 PUSH1 0xA0 SHL SUB AND DUP2 MSTORE PUSH1 0x20 ADD PUSH1 0x1 DUP3 ADD SLOAD DUP2 MSTORE PUSH1 0x20 ADD PUSH1 0x2 DUP3 ADD SLOAD DUP2 MSTORE PUSH1 0x20 ADD PUSH1 0x3 DUP3 ADD PUSH1 0x0 SWAP1 SLOAD SWAP1 PUSH2 0x100 EXP SWAP1 DIV PUSH1 0xFF AND PUSH1 0x1 DUP2 GT ISZERO PUSH2 0x1944 JUMPI PUSH2 0x1944 PUSH2 0x2DDF JUMP JUMPDEST PUSH1 0x1 DUP2 GT ISZERO PUSH2 0x1955 JUMPI PUSH2 0x1955 PUSH2 0x2DDF JUMP JUMPDEST SWAP1 MSTORE POP DUP1 MLOAD DUP6 SLOAD PUSH1 0x20 DUP4 ADD MLOAD PUSH1 0x40 MLOAD PUSH4 0x23B872DD PUSH1 0xE0 SHL DUP2 MSTORE SWAP4 SWAP5 POP PUSH1 0x1 PUSH1 0x1 PUSH1 0xA0 SHL SUB SWAP3 DUP4 AND SWAP4 PUSH4 0x23B872DD SWAP4 PUSH2 0x1994 SWAP4 ADDRESS SWAP4 SWAP2 AND SWAP2 PUSH1 0x4 ADD PUSH2 0x31C1 JUMP JUMPDEST PUSH1 0x0 PUSH1 0x40 MLOAD DUP1 DUP4 SUB DUP2 PUSH1 0x0 DUP8 DUP1 EXTCODESIZE ISZERO DUP1 ISZERO PUSH2 0x19AE JUMPI PUSH1 0x0 DUP1 REVERT JUMPDEST POP GAS CALL ISZERO DUP1 ISZERO PUSH2 0x19C2 JUMPI RETURNDATASIZE PUSH1 0x0 DUP1 RETURNDATACOPY RETURNDATASIZE PUSH1 0x0 REVERT JUMPDEST POP POP POP POP POP DUP1 DUP1 PUSH2 0x19D2 SWAP1 PUSH2 0x3358 JUMP JUMPDEST SWAP2 POP POP PUSH2 0x18A5 JUMP JUMPDEST POP PUSH1 0x8 DUP3 ADD DUP1 SLOAD PUSH1 0xFF NOT AND PUSH1 0x4 OR SWAP1 SSTORE PUSH1 0x40 MLOAD DUP4 DUP2 MSTORE PUSH32 0x2809C7E17BF978FBC7194C0A694B638C4215E9140CACC6C38CA36010B45697DF SWAP1 PUSH1 0x20 ADD PUSH1 0x40 MLOAD DUP1 SWAP2 SUB SWAP1 LOG1 POP POP PUSH2 0x1A36 PUSH1 0x1 PUSH1 0x0 DUP1 MLOAD PUSH1 0x20 PUSH2 0x34E1 DUP4 CODECOPY DUP2 MLOAD SWAP2 MSTORE SSTORE JUMP JUMPDEST POP JUMP JUMPDEST PUSH1 0x0 DUP1 MLOAD PUSH1 0x20 PUSH2 0x3481 DUP4 CODECOPY DUP2 MLOAD SWAP2 MSTORE SLOAD PUSH1 0x1 PUSH1 0x1 PUSH1 0xA0 SHL SUB AND SWAP1 JUMP JUMPDEST PUSH2 0x1A5E CALLER PUSH2 0xACF JUMP JUMPDEST PUSH4 0x1DFE200 DUP2 GT ISZERO PUSH2 0x1A9F JUMPI DUP1 PUSH2 0x1A73 PUSH2 0xC61 JUMP JUMPDEST PUSH1 0x40 MLOAD PUSH4 0xFB6FFDE9 PUSH1 0xE0 SHL DUP2 MSTORE PUSH1 0x4 DUP2 ADD SWAP3 SWAP1 SWAP3 MSTORE PUSH1 0x24 DUP3 ADD MSTORE PUSH4 0x1DFE200 PUSH1 0x44 DUP3 ADD MSTORE PUSH1 0x64 ADD PUSH2 0x704 JUMP JUMPDEST PUSH2 0x1AA8 DUP2 PUSH2 0x25C7 JUMP JUMPDEST PUSH1 0x40 MLOAD DUP2 DUP2 MSTORE PUSH32 0x58762E4727BA1F653F8AC18FF80F9956B5CAB3DA576BCE87BFE21FBCA72D10E9 SWAP1 PUSH1 0x20 ADD PUSH2 0xB3A JUMP JUMPDEST PUSH1 0x0 DUP1 PUSH2 0x1AE3 PUSH2 0x2020 JUMP JUMPDEST PUSH1 0x5 ADD SLOAD SWAP3 SWAP2 POP POP JUMP JUMPDEST PUSH2 0x1AF5 PUSH2 0x2044 JUMP JUMPDEST PUSH2 0x1AFD PUSH2 0x207C JUMP JUMPDEST PUSH1 0x0 PUSH2 0x1B08 DUP3 PUSH2 0x20AD JUMP JUMPDEST SWAP1 POP DUP1 PUSH1 0x4 ADD SLOAD TIMESTAMP LT ISZERO PUSH2 0x1B3E JUMPI PUSH1 0x4 DUP1 DUP3 ADD SLOAD PUSH1 0x40 MLOAD PUSH4 0x3DF48B25 PUSH1 0xE2 SHL DUP2 MSTORE TIMESTAMP SWAP3 DUP2 ADD SWAP3 SWAP1 SWAP3 MSTORE PUSH1 0x24 DUP3 ADD MSTORE PUSH1 0x44 ADD PUSH2 0x704 JUMP JUMPDEST PUSH1 0x1 DUP2 ADD SLOAD PUSH1 0x1 PUSH1 0x1 PUSH1 0xA0 SHL SUB AND PUSH2 0x1B59 JUMPI PUSH2 0x1B59 DUP3 PUSH2 0x17A4 JUMP JUMPDEST PUSH1 0x2 DUP2 ADD SLOAD PUSH1 0x9 DUP3 ADD SLOAD PUSH1 0x1 PUSH1 0x1 PUSH1 0xA0 SHL SUB SWAP1 SWAP2 AND SWAP1 PUSH1 0x0 SWAP1 PUSH2 0x1B7F SWAP1 PUSH2 0x2710 SWAP1 PUSH2 0x319F JUMP JUMPDEST DUP4 PUSH1 0x5 ADD SLOAD PUSH2 0x1B8E SWAP2 SWAP1 PUSH2 0x3188 JUMP JUMPDEST SWAP1 POP PUSH1 0x0 PUSH2 0x2710 DUP5 PUSH1 0x9 ADD PUSH1 0x1 ADD SLOAD PUSH2 0x1BA7 SWAP2 SWAP1 PUSH2 0x319F JUMP JUMPDEST DUP5 PUSH1 0x5 ADD SLOAD PUSH2 0x1BB6 SWAP2 SWAP1 PUSH2 0x3188 JUMP JUMPDEST SWAP1 POP PUSH1 0x0 DUP5 PUSH1 0x7 ADD SLOAD DUP3 DUP5 DUP8 PUSH1 0x5 ADD SLOAD PUSH2 0x1BD0 SWAP2 SWAP1 PUSH2 0x3210 JUMP JUMPDEST PUSH2 0x1BDA SWAP2 SWAP1 PUSH2 0x3210 JUMP JUMPDEST PUSH2 0x1BE4 SWAP2 SWAP1 PUSH2 0x3210 JUMP JUMPDEST DUP6 SLOAD SWAP1 SWAP2 POP PUSH1 0x1 PUSH1 0x1 PUSH1 0xA0 SHL SUB AND CALLER SUB PUSH2 0x1C5B JUMPI DUP5 SLOAD PUSH2 0x1C0F SWAP1 DUP6 SWAP1 PUSH1 0x1 PUSH1 0x1 PUSH1 0xA0 SHL SUB AND DUP4 PUSH2 0x25DB JUMP JUMPDEST DUP5 SLOAD PUSH1 0x40 DUP1 MLOAD DUP9 DUP2 MSTORE PUSH1 0x1 PUSH1 0x1 PUSH1 0xA0 SHL SUB SWAP1 SWAP3 AND PUSH1 0x20 DUP4 ADD MSTORE DUP2 ADD DUP3 SWAP1 MSTORE PUSH32 0xF73372FDCA7F972B1CC507AB0BDA9B67B500BD17AAED8C5E6A3366D413E7E1F8 SWAP1 PUSH1 0x60 ADD PUSH1 0x40 MLOAD DUP1 SWAP2 SUB SWAP1 LOG1 JUMPDEST PUSH1 0x1 DUP6 ADD SLOAD PUSH1 0x1 PUSH1 0x1 PUSH1 0xA0 SHL SUB AND CALLER SUB PUSH2 0x1F0D JUMPI PUSH1 0x0 JUMPDEST PUSH1 0xC DUP7 ADD SLOAD DUP2 LT ISZERO PUSH2 0x1EBA JUMPI PUSH1 0x0 DUP7 PUSH1 0xC ADD DUP3 DUP2 SLOAD DUP2 LT PUSH2 0x1C95 JUMPI PUSH2 0x1C95 PUSH2 0x327F JUMP JUMPDEST PUSH1 0x0 SWAP2 DUP3 MSTORE PUSH1 0x20 SWAP1 SWAP2 KECCAK256 PUSH1 0x3 PUSH1 0x4 SWAP1 SWAP3 MUL ADD ADD SLOAD PUSH1 0xFF AND PUSH1 0x1 DUP2 GT ISZERO PUSH2 0x1CBD JUMPI PUSH2 0x1CBD PUSH2 0x2DDF JUMP JUMPDEST SUB PUSH2 0x1D81 JUMPI DUP6 PUSH1 0xC ADD DUP2 DUP2 SLOAD DUP2 LT PUSH2 0x1CD7 JUMPI PUSH2 0x1CD7 PUSH2 0x327F JUMP JUMPDEST PUSH1 0x0 SWAP2 DUP3 MSTORE PUSH1 0x20 SWAP1 SWAP2 KECCAK256 PUSH1 0x4 SWAP1 SWAP2 MUL ADD SLOAD PUSH1 0x1 DUP8 ADD SLOAD PUSH1 0xC DUP9 ADD DUP1 SLOAD PUSH1 0x1 PUSH1 0x1 PUSH1 0xA0 SHL SUB SWAP4 DUP5 AND SWAP4 PUSH4 0x42842E0E SWAP4 ADDRESS SWAP4 SWAP2 AND SWAP2 DUP7 SWAP1 DUP2 LT PUSH2 0x1D1A JUMPI PUSH2 0x1D1A PUSH2 0x327F JUMP JUMPDEST SWAP1 PUSH1 0x0 MSTORE PUSH1 0x20 PUSH1 0x0 KECCAK256 SWAP1 PUSH1 0x4 MUL ADD PUSH1 0x1 ADD SLOAD PUSH1 0x40 MLOAD DUP5 PUSH4 0xFFFFFFFF AND PUSH1 0xE0 SHL DUP2 MSTORE PUSH1 0x4 ADD PUSH2 0x1D4A SWAP4 SWAP3 SWAP2 SWAP1 PUSH2 0x31C1 JUMP JUMPDEST PUSH1 0x0 PUSH1 0x40 MLOAD DUP1 DUP4 SUB DUP2 PUSH1 0x0 DUP8 DUP1 EXTCODESIZE ISZERO DUP1 ISZERO PUSH2 0x1D64 JUMPI PUSH1 0x0 DUP1 REVERT JUMPDEST POP GAS CALL ISZERO DUP1 ISZERO PUSH2 0x1D78 JUMPI RETURNDATASIZE PUSH1 0x0 DUP1 RETURNDATACOPY RETURNDATASIZE PUSH1 0x0 REVERT JUMPDEST POP POP POP POP PUSH2 0x1EA8 JUMP JUMPDEST PUSH1 0x1 DUP7 PUSH1 0xC ADD DUP3 DUP2 SLOAD DUP2 LT PUSH2 0x1D98 JUMPI PUSH2 0x1D98 PUSH2 0x327F JUMP JUMPDEST PUSH1 0x0 SWAP2 DUP3 MSTORE PUSH1 0x20 SWAP1 SWAP2 KECCAK256 PUSH1 0x3 PUSH1 0x4 SWAP1 SWAP3 MUL ADD ADD SLOAD PUSH1 0xFF AND PUSH1 0x1 DUP2 GT ISZERO PUSH2 0x1DC0 JUMPI PUSH2 0x1DC0 PUSH2 0x2DDF JUMP JUMPDEST SUB PUSH2 0x1EA8 JUMPI DUP6 PUSH1 0xC ADD DUP2 DUP2 SLOAD DUP2 LT PUSH2 0x1DDA JUMPI PUSH2 0x1DDA PUSH2 0x327F JUMP JUMPDEST PUSH1 0x0 SWAP2 DUP3 MSTORE PUSH1 0x20 SWAP1 SWAP2 KECCAK256 PUSH1 0x4 SWAP1 SWAP2 MUL ADD SLOAD PUSH1 0x1 DUP8 ADD SLOAD PUSH1 0xC DUP9 ADD DUP1 SLOAD PUSH1 0x1 PUSH1 0x1 PUSH1 0xA0 SHL SUB SWAP4 DUP5 AND SWAP4 PUSH4 0xF242432A SWAP4 ADDRESS SWAP4 SWAP2 AND SWAP2 DUP7 SWAP1 DUP2 LT PUSH2 0x1E1D JUMPI PUSH2 0x1E1D PUSH2 0x327F JUMP JUMPDEST SWAP1 PUSH1 0x0 MSTORE PUSH1 0x20 PUSH1 0x0 KECCAK256 SWAP1 PUSH1 0x4 MUL ADD PUSH1 0x1 ADD SLOAD DUP11 PUSH1 0xC ADD DUP7 DUP2 SLOAD DUP2 LT PUSH2 0x1E44 JUMPI PUSH2 0x1E44 PUSH2 0x327F JUMP JUMPDEST SWAP1 PUSH1 0x0 MSTORE PUSH1 0x20 PUSH1 0x0 KECCAK256 SWAP1 PUSH1 0x4 MUL ADD PUSH1 0x2 ADD SLOAD PUSH1 0x40 MLOAD DUP6 PUSH4 0xFFFFFFFF AND PUSH1 0xE0 SHL DUP2 MSTORE PUSH1 0x4 ADD PUSH2 0x1E75 SWAP5 SWAP4 SWAP3 SWAP2 SWAP1 PUSH2 0x32BF JUMP JUMPDEST PUSH1 0x0 PUSH1 0x40 MLOAD DUP1 DUP4 SUB DUP2 PUSH1 0x0 DUP8 DUP1 EXTCODESIZE ISZERO DUP1 ISZERO PUSH2 0x1E8F JUMPI PUSH1 0x0 DUP1 REVERT JUMPDEST POP GAS CALL ISZERO DUP1 ISZERO PUSH2 0x1EA3 JUMPI RETURNDATASIZE PUSH1 0x0 DUP1 RETURNDATACOPY RETURNDATASIZE PUSH1 0x0 REVERT JUMPDEST POP POP POP POP JUMPDEST DUP1 PUSH2 0x1EB2 DUP2 PUSH2 0x3358 JUMP JUMPDEST SWAP2 POP POP PUSH2 0x1C72 JUMP JUMPDEST POP PUSH1 0x1 DUP6 ADD SLOAD PUSH1 0x5 DUP7 ADD SLOAD PUSH1 0x40 DUP1 MLOAD DUP10 DUP2 MSTORE PUSH1 0x1 PUSH1 0x1 PUSH1 0xA0 SHL SUB SWAP1 SWAP4 AND PUSH1 0x20 DUP5 ADD MSTORE DUP3 ADD MSTORE PUSH32 0x287E93683FBDB8E8DC13E757BA52C664A7573734DFB5624353D5F49C033313B1 SWAP1 PUSH1 0x60 ADD PUSH1 0x40 MLOAD DUP1 SWAP2 SUB SWAP1 LOG1 JUMPDEST DUP3 ISZERO PUSH2 0x1F25 JUMPI PUSH2 0x1F25 DUP5 PUSH2 0x1F1F PUSH2 0x2655 JUMP JUMPDEST DUP6 PUSH2 0x25DB JUMP JUMPDEST DUP2 ISZERO PUSH2 0x1F45 JUMPI PUSH1 0xB DUP6 ADD SLOAD PUSH2 0x1F45 SWAP1 DUP6 SWAP1 PUSH1 0x1 PUSH1 0x1 PUSH1 0xA0 SHL SUB AND DUP5 PUSH2 0x25DB JUMP JUMPDEST POP POP POP POP POP PUSH2 0x1A36 PUSH1 0x1 PUSH1 0x0 DUP1 MLOAD PUSH1 0x20 PUSH2 0x34E1 DUP4 CODECOPY DUP2 MLOAD SWAP2 MSTORE SSTORE JUMP JUMPDEST PUSH1 0x0 DUP1 PUSH2 0x1F6C PUSH2 0x2020 JUMP JUMPDEST PUSH1 0x3 ADD SLOAD SWAP3 SWAP2 POP POP JUMP JUMPDEST PUSH2 0x1F7F CALLER PUSH2 0xACF JUMP JUMPDEST PUSH2 0x1F88 DUP2 PUSH2 0x2694 JUMP JUMPDEST PUSH1 0x40 MLOAD DUP2 DUP2 MSTORE PUSH32 0x4CD8B89EC991355064BE8D3CFEAAACAB8C2FE683E8357B3C9DE90B0BDDA6CB1D SWAP1 PUSH1 0x20 ADD PUSH2 0xB3A JUMP JUMPDEST PUSH2 0x1FC1 CALLER PUSH2 0xACF JUMP JUMPDEST PUSH1 0x3C DUP2 LT ISZERO PUSH2 0x1FD5 JUMPI DUP1 PUSH1 0x3C PUSH2 0xD06 PUSH2 0xC61 JUMP JUMPDEST PUSH2 0x1FDE DUP2 PUSH2 0x26A8 JUMP JUMPDEST PUSH1 0x40 MLOAD DUP2 DUP2 MSTORE PUSH32 0xE2720C1018AE21600FF3D5EE8E1B01CA87B27DFDE5C38EA8456571A7294440E2 SWAP1 PUSH1 0x20 ADD PUSH2 0xB3A JUMP JUMPDEST PUSH1 0x0 DUP1 PUSH2 0x2019 PUSH2 0x2020 JUMP JUMPDEST SLOAD SWAP3 SWAP2 POP POP JUMP JUMPDEST PUSH32 0x27B49F3B53A795769950B1F0D5678148BBCA7C47EB1E64956B2AA849760B9A00 SWAP1 JUMP JUMPDEST PUSH1 0x0 DUP1 MLOAD PUSH1 0x20 PUSH2 0x34E1 DUP4 CODECOPY DUP2 MLOAD SWAP2 MSTORE DUP1 SLOAD PUSH1 0x1 NOT ADD PUSH2 0x2076 JUMPI PUSH1 0x40 MLOAD PUSH4 0x3EE5AEB5 PUSH1 0xE0 SHL DUP2 MSTORE PUSH1 0x4 ADD PUSH1 0x40 MLOAD DUP1 SWAP2 SUB SWAP1 REVERT JUMPDEST PUSH1 0x2 SWAP1 SSTORE JUMP JUMPDEST PUSH1 0x0 DUP1 MLOAD PUSH1 0x20 PUSH2 0x34C1 DUP4 CODECOPY DUP2 MLOAD SWAP2 MSTORE SLOAD PUSH1 0xFF AND ISZERO PUSH2 0xC5F JUMPI PUSH1 0x40 MLOAD PUSH4 0xD93C0665 PUSH1 0xE0 SHL DUP2 MSTORE PUSH1 0x4 ADD PUSH1 0x40 MLOAD DUP1 SWAP2 SUB SWAP1 REVERT JUMPDEST PUSH1 0x0 DUP1 PUSH2 0x20B8 PUSH2 0x2020 JUMP JUMPDEST PUSH1 0x0 SWAP4 DUP5 MSTORE PUSH1 0x8 ADD PUSH1 0x20 MSTORE POP POP PUSH1 0x40 SWAP1 KECCAK256 SWAP1 JUMP JUMPDEST PUSH1 0x1 PUSH1 0x0 DUP1 MLOAD PUSH1 0x20 PUSH2 0x34E1 DUP4 CODECOPY DUP2 MLOAD SWAP2 MSTORE SSTORE JUMP JUMPDEST PUSH1 0x0 DUP1 MLOAD PUSH1 0x20 PUSH2 0x3481 DUP4 CODECOPY DUP2 MLOAD SWAP2 MSTORE PUSH1 0x0 DUP1 PUSH2 0x211B PUSH2 0x20FD PUSH2 0x1A39 JUMP JUMPDEST DUP8 ADDRESS PUSH2 0x210D PUSH1 0x4 PUSH1 0x0 DUP11 DUP13 PUSH2 0x3371 JUMP JUMPDEST PUSH2 0x2116 SWAP2 PUSH2 0x339B JUMP JUMPDEST PUSH2 0x26BC JUMP JUMPDEST SWAP2 POP SWAP2 POP DUP2 PUSH2 0x10BC JUMPI PUSH4 0xFFFFFFFF DUP2 AND ISZERO PUSH2 0x21BB JUMPI DUP3 SLOAD PUSH1 0xFF PUSH1 0xA0 SHL NOT AND PUSH1 0x1 PUSH1 0xA0 SHL OR DUP4 SSTORE PUSH2 0x2149 PUSH2 0x1A39 JUMP JUMPDEST PUSH1 0x1 PUSH1 0x1 PUSH1 0xA0 SHL SUB AND PUSH4 0x94C7D7EE DUP8 DUP8 DUP8 PUSH1 0x40 MLOAD DUP5 PUSH4 0xFFFFFFFF AND PUSH1 0xE0 SHL DUP2 MSTORE PUSH1 0x4 ADD PUSH2 0x2178 SWAP4 SWAP3 SWAP2 SWAP1 PUSH2 0x33CB JUMP JUMPDEST PUSH1 0x0 PUSH1 0x40 MLOAD DUP1 DUP4 SUB DUP2 PUSH1 0x0 DUP8 DUP1 EXTCODESIZE ISZERO DUP1 ISZERO PUSH2 0x2192 JUMPI PUSH1 0x0 DUP1 REVERT JUMPDEST POP GAS CALL ISZERO DUP1 ISZERO PUSH2 0x21A6 JUMPI RETURNDATASIZE PUSH1 0x0 DUP1 RETURNDATACOPY RETURNDATASIZE PUSH1 0x0 REVERT JUMPDEST POP POP DUP5 SLOAD PUSH1 0xFF PUSH1 0xA0 SHL NOT AND DUP6 SSTORE POP PUSH2 0x10BC SWAP1 POP JUMP JUMPDEST PUSH1 0x40 MLOAD PUSH3 0xD1953B PUSH1 0xE3 SHL DUP2 MSTORE PUSH1 0x1 PUSH1 0x1 PUSH1 0xA0 SHL SUB DUP8 AND PUSH1 0x4 DUP3 ADD MSTORE PUSH1 0x24 ADD PUSH2 0x704 JUMP JUMPDEST PUSH1 0x0 PUSH2 0x21E8 PUSH2 0x2020 JUMP JUMPDEST PUSH1 0x7 ADD SWAP2 SWAP1 SWAP2 SSTORE POP JUMP JUMPDEST PUSH1 0x0 PUSH2 0x21FC PUSH2 0x2020 JUMP JUMPDEST PUSH1 0x5 ADD SWAP2 SWAP1 SWAP2 SSTORE POP JUMP JUMPDEST PUSH1 0x0 PUSH2 0x2210 PUSH2 0x2020 JUMP JUMPDEST PUSH1 0x4 ADD SWAP2 SWAP1 SWAP2 SSTORE POP JUMP JUMPDEST PUSH2 0x2222 PUSH2 0x27C8 JUMP JUMPDEST PUSH1 0x0 DUP1 MLOAD PUSH1 0x20 PUSH2 0x34C1 DUP4 CODECOPY DUP2 MLOAD SWAP2 MSTORE DUP1 SLOAD PUSH1 0xFF NOT AND DUP2 SSTORE PUSH32 0x5DB9EE0A495BF2E6FF9C91A7834C1BA4FDD244A5E8AA4E537BD38AEAE4B073AA CALLER JUMPDEST PUSH1 0x40 MLOAD PUSH1 0x1 PUSH1 0x1 PUSH1 0xA0 SHL SUB SWAP1 SWAP2 AND DUP2 MSTORE PUSH1 0x20 ADD PUSH2 0xB3A JUMP JUMPDEST PUSH1 0x0 DUP1 PUSH2 0x227F PUSH2 0x2020 JUMP JUMPDEST DUP1 SLOAD SWAP1 SWAP2 POP DUP1 PUSH2 0x228E DUP2 PUSH2 0x3358 JUMP JUMPDEST SWAP3 SSTORE POP SWAP2 SWAP1 POP JUMP JUMPDEST ADDRESS PUSH1 0x1 PUSH1 0x1 PUSH1 0xA0 SHL SUB PUSH32 0x0 AND EQ DUP1 PUSH2 0x231D JUMPI POP PUSH32 0x0 PUSH1 0x1 PUSH1 0x1 PUSH1 0xA0 SHL SUB AND PUSH2 0x2311 PUSH1 0x0 DUP1 MLOAD PUSH1 0x20 PUSH2 0x34A1 DUP4 CODECOPY DUP2 MLOAD SWAP2 MSTORE SLOAD PUSH1 0x1 PUSH1 0x1 PUSH1 0xA0 SHL SUB AND SWAP1 JUMP JUMPDEST PUSH1 0x1 PUSH1 0x1 PUSH1 0xA0 SHL SUB AND EQ ISZERO JUMPDEST ISZERO PUSH2 0xC5F JUMPI PUSH1 0x40 MLOAD PUSH4 0x703E46DD PUSH1 0xE1 SHL DUP2 MSTORE PUSH1 0x4 ADD PUSH1 0x40 MLOAD DUP1 SWAP2 SUB SWAP1 REVERT JUMPDEST PUSH2 0x1A36 CALLER PUSH2 0xACF JUMP JUMPDEST DUP2 PUSH1 0x1 PUSH1 0x1 PUSH1 0xA0 SHL SUB AND PUSH4 0x52D1902D PUSH1 0x40 MLOAD DUP2 PUSH4 0xFFFFFFFF AND PUSH1 0xE0 SHL DUP2 MSTORE PUSH1 0x4 ADD PUSH1 0x20 PUSH1 0x40 MLOAD DUP1 DUP4 SUB DUP2 DUP7 GAS STATICCALL SWAP3 POP POP POP DUP1 ISZERO PUSH2 0x239E JUMPI POP PUSH1 0x40 DUP1 MLOAD PUSH1 0x1F RETURNDATASIZE SWAP1 DUP2 ADD PUSH1 0x1F NOT AND DUP3 ADD SWAP1 SWAP3 MSTORE PUSH2 0x239B SWAP2 DUP2 ADD SWAP1 PUSH2 0x340B JUMP JUMPDEST PUSH1 0x1 JUMPDEST PUSH2 0x23C6 JUMPI PUSH1 0x40 MLOAD PUSH4 0x4C9C8CE3 PUSH1 0xE0 SHL DUP2 MSTORE PUSH1 0x1 PUSH1 0x1 PUSH1 0xA0 SHL SUB DUP4 AND PUSH1 0x4 DUP3 ADD MSTORE PUSH1 0x24 ADD PUSH2 0x704 JUMP JUMPDEST PUSH1 0x0 DUP1 MLOAD PUSH1 0x20 PUSH2 0x34A1 DUP4 CODECOPY DUP2 MLOAD SWAP2 MSTORE DUP2 EQ PUSH2 0x23F7 JUMPI PUSH1 0x40 MLOAD PUSH4 0x2A875269 PUSH1 0xE2 SHL DUP2 MSTORE PUSH1 0x4 DUP2 ADD DUP3 SWAP1 MSTORE PUSH1 0x24 ADD PUSH2 0x704 JUMP JUMPDEST PUSH2 0xAC5 DUP4 DUP4 PUSH2 0x27F8 JUMP JUMPDEST ADDRESS PUSH1 0x1 PUSH1 0x1 PUSH1 0xA0 SHL SUB PUSH32 0x0 AND EQ PUSH2 0xC5F JUMPI PUSH1 0x40 MLOAD PUSH4 0x703E46DD PUSH1 0xE1 SHL DUP2 MSTORE PUSH1 0x4 ADD PUSH1 0x40 MLOAD DUP1 SWAP2 SUB SWAP1 REVERT JUMPDEST PUSH1 0x0 PUSH2 0x2454 PUSH2 0x2020 JUMP JUMPDEST PUSH1 0x6 ADD SWAP2 SWAP1 SWAP2 SSTORE POP JUMP JUMPDEST PUSH1 0x0 DUP1 MLOAD PUSH1 0x20 PUSH2 0x3481 DUP4 CODECOPY DUP2 MLOAD SWAP2 MSTORE DUP1 SLOAD PUSH1 0x1 PUSH1 0x1 PUSH1 0xA0 SHL SUB NOT AND PUSH1 0x1 PUSH1 0x1 PUSH1 0xA0 SHL SUB DUP4 AND SWAP1 DUP2 OR DUP3 SSTORE PUSH1 0x40 MLOAD SWAP1 DUP2 MSTORE PUSH32 0x2F658B440C35314F52658EA8A740E05B284CDC84DC9AE01E891F21B8933E7CAD SWAP1 PUSH1 0x20 ADD PUSH2 0x1335 JUMP JUMPDEST PUSH2 0xC5F PUSH2 0x284E JUMP JUMPDEST PUSH2 0x24C8 PUSH2 0x284E JUMP JUMPDEST PUSH2 0xC5F PUSH2 0x2897 JUMP JUMPDEST PUSH1 0x0 CHAINID PUSH2 0x14F SUB PUSH2 0x24F4 JUMPI POP PUSH20 0xE1809D966D96BEF678F808329336962944FFB106 SWAP1 JUMP JUMPDEST PUSH1 0x40 MLOAD PUSH4 0xFC941191 PUSH1 0xE0 SHL DUP2 MSTORE CHAINID PUSH1 0x4 DUP3 ADD MSTORE PUSH1 0x24 ADD PUSH2 0x704 JUMP JUMPDEST PUSH2 0x2517 PUSH2 0x284E JUMP JUMPDEST PUSH2 0x1A36 DUP2 PUSH2 0x28B8 JUMP JUMPDEST PUSH2 0x2528 PUSH2 0x284E JUMP JUMPDEST PUSH2 0xC5F PUSH2 0x28C9 JUMP JUMPDEST PUSH2 0x2538 PUSH2 0x284E JUMP JUMPDEST PUSH1 0x0 PUSH2 0x2542 PUSH2 0x2020 JUMP JUMPDEST PUSH1 0x1 DUP1 DUP3 SSTORE PUSH1 0x3C SWAP1 DUP3 ADD SSTORE PUSH3 0x6EBE00 PUSH1 0x2 DUP3 ADD SSTORE PUSH1 0x0 PUSH1 0x3 DUP3 ADD DUP2 SWAP1 SSTORE PUSH1 0x7 DUP3 ADD SSTORE PUSH1 0xC PUSH1 0x4 DUP3 ADD SSTORE PUSH2 0x3E8 PUSH1 0x5 DUP3 ADD SSTORE PUSH1 0x14 PUSH1 0x6 SWAP1 SWAP2 ADD SSTORE POP JUMP JUMPDEST PUSH2 0x2586 PUSH2 0x207C JUMP JUMPDEST PUSH1 0x0 DUP1 MLOAD PUSH1 0x20 PUSH2 0x34C1 DUP4 CODECOPY DUP2 MLOAD SWAP2 MSTORE DUP1 SLOAD PUSH1 0xFF NOT AND PUSH1 0x1 OR DUP2 SSTORE PUSH32 0x62E78CEA01BEE320CD4E420270B5EA74000D11B0C9F74754EBDBFC544B05A258 CALLER PUSH2 0x225C JUMP JUMPDEST PUSH1 0x0 PUSH2 0x25D1 PUSH2 0x2020 JUMP JUMPDEST PUSH1 0x2 ADD SWAP2 SWAP1 SWAP2 SSTORE POP JUMP JUMPDEST PUSH1 0x40 MLOAD PUSH4 0xA9059CBB PUSH1 0xE0 SHL DUP2 MSTORE PUSH1 0x1 PUSH1 0x1 PUSH1 0xA0 SHL SUB DUP4 DUP2 AND PUSH1 0x4 DUP4 ADD MSTORE PUSH1 0x24 DUP3 ADD DUP4 SWAP1 MSTORE DUP5 AND SWAP1 PUSH4 0xA9059CBB SWAP1 PUSH1 0x44 ADD PUSH1 0x20 PUSH1 0x40 MLOAD DUP1 DUP4 SUB DUP2 PUSH1 0x0 DUP8 GAS CALL SWAP3 POP POP POP DUP1 ISZERO PUSH2 0x2646 JUMPI POP PUSH1 0x40 DUP1 MLOAD PUSH1 0x1F RETURNDATASIZE SWAP1 DUP2 ADD PUSH1 0x1F NOT AND DUP3 ADD SWAP1 SWAP3 MSTORE PUSH2 0x2643 SWAP2 DUP2 ADD SWAP1 PUSH2 0x31F5 JUMP JUMPDEST PUSH1 0x1 JUMPDEST PUSH2 0x264F JUMPI PUSH1 0x0 DUP1 REVERT JUMPDEST POP POP POP POP JUMP JUMPDEST PUSH1 0x0 CHAINID PUSH2 0x14F SUB PUSH2 0x2679 JUMPI POP PUSH20 0x419C3657532AAD16955291AF7942FEA9A1B6D010 SWAP1 JUMP JUMPDEST PUSH1 0x40 MLOAD PUSH4 0x67259B49 PUSH1 0xE0 SHL DUP2 MSTORE CHAINID PUSH1 0x4 DUP3 ADD MSTORE PUSH1 0x24 ADD PUSH2 0x704 JUMP JUMPDEST PUSH1 0x0 PUSH2 0x269E PUSH2 0x2020 JUMP JUMPDEST PUSH1 0x3 ADD SWAP2 SWAP1 SWAP2 SSTORE POP JUMP JUMPDEST PUSH1 0x0 PUSH2 0x26B2 PUSH2 0x2020 JUMP JUMPDEST PUSH1 0x1 ADD SWAP2 SWAP1 SWAP2 SSTORE POP JUMP JUMPDEST PUSH1 0x40 MLOAD PUSH1 0x1 PUSH1 0x1 PUSH1 0xA0 SHL SUB DUP5 DUP2 AND PUSH1 0x24 DUP4 ADD MSTORE DUP4 DUP2 AND PUSH1 0x44 DUP4 ADD MSTORE PUSH1 0x1 PUSH1 0x1 PUSH1 0xE0 SHL SUB NOT DUP4 AND PUSH1 0x64 DUP4 ADD MSTORE PUSH1 0x0 SWAP2 DUP3 SWAP2 DUP3 SWAP2 DUP3 SWAP2 DUP10 AND SWAP1 PUSH1 0x84 ADD PUSH1 0x40 DUP1 MLOAD PUSH1 0x1F NOT DUP2 DUP5 SUB ADD DUP2 MSTORE SWAP2 DUP2 MSTORE PUSH1 0x20 DUP3 ADD DUP1 MLOAD PUSH1 0x1 PUSH1 0x1 PUSH1 0xE0 SHL SUB AND PUSH4 0xB7009613 PUSH1 0xE0 SHL OR SWAP1 MSTORE MLOAD PUSH2 0x272B SWAP2 SWAP1 PUSH2 0x3424 JUMP JUMPDEST PUSH1 0x0 PUSH1 0x40 MLOAD DUP1 DUP4 SUB DUP2 DUP6 GAS STATICCALL SWAP2 POP POP RETURNDATASIZE DUP1 PUSH1 0x0 DUP2 EQ PUSH2 0x2766 JUMPI PUSH1 0x40 MLOAD SWAP2 POP PUSH1 0x1F NOT PUSH1 0x3F RETURNDATASIZE ADD AND DUP3 ADD PUSH1 0x40 MSTORE RETURNDATASIZE DUP3 MSTORE RETURNDATASIZE PUSH1 0x0 PUSH1 0x20 DUP5 ADD RETURNDATACOPY PUSH2 0x276B JUMP JUMPDEST PUSH1 0x60 SWAP2 POP JUMPDEST POP SWAP2 POP SWAP2 POP DUP2 ISZERO PUSH2 0x27BD JUMPI PUSH1 0x40 DUP2 MLOAD LT PUSH2 0x279D JUMPI DUP1 DUP1 PUSH1 0x20 ADD SWAP1 MLOAD DUP2 ADD SWAP1 PUSH2 0x2793 SWAP2 SWAP1 PUSH2 0x3440 JUMP JUMPDEST SWAP1 SWAP5 POP SWAP3 POP PUSH2 0x27BD JUMP JUMPDEST PUSH1 0x20 DUP2 MLOAD LT PUSH2 0x27BD JUMPI DUP1 DUP1 PUSH1 0x20 ADD SWAP1 MLOAD DUP2 ADD SWAP1 PUSH2 0x27BA SWAP2 SWAP1 PUSH2 0x31F5 JUMP JUMPDEST SWAP4 POP JUMPDEST POP POP SWAP5 POP SWAP5 SWAP3 POP POP POP JUMP JUMPDEST PUSH1 0x0 DUP1 MLOAD PUSH1 0x20 PUSH2 0x34C1 DUP4 CODECOPY DUP2 MLOAD SWAP2 MSTORE SLOAD PUSH1 0xFF AND PUSH2 0xC5F JUMPI PUSH1 0x40 MLOAD PUSH4 0x8DFC202B PUSH1 0xE0 SHL DUP2 MSTORE PUSH1 0x4 ADD PUSH1 0x40 MLOAD DUP1 SWAP2 SUB SWAP1 REVERT JUMPDEST PUSH2 0x2801 DUP3 PUSH2 0x28D1 JUMP JUMPDEST PUSH1 0x40 MLOAD PUSH1 0x1 PUSH1 0x1 PUSH1 0xA0 SHL SUB DUP4 AND SWAP1 PUSH32 0xBC7CD75A20EE27FD9ADEBAB32041F755214DBC6BFFA90CC0225B39DA2E5C2D3B SWAP1 PUSH1 0x0 SWAP1 LOG2 DUP1 MLOAD ISZERO PUSH2 0x2846 JUMPI PUSH2 0xAC5 DUP3 DUP3 PUSH2 0x2936 JUMP JUMPDEST PUSH2 0x10DF PUSH2 0x29AC JUMP JUMPDEST PUSH32 0xF0C57E16840DF040F15088DC2F81FE391C3923BEC73E23A9662EFC9C229C6A00 SLOAD PUSH1 0x1 PUSH1 0x40 SHL SWAP1 DIV PUSH1 0xFF AND PUSH2 0xC5F JUMPI PUSH1 0x40 MLOAD PUSH4 0x1AFCD79F PUSH1 0xE3 SHL DUP2 MSTORE PUSH1 0x4 ADD PUSH1 0x40 MLOAD DUP1 SWAP2 SUB SWAP1 REVERT JUMPDEST PUSH2 0x289F PUSH2 0x284E JUMP JUMPDEST PUSH1 0x0 DUP1 MLOAD PUSH1 0x20 PUSH2 0x34C1 DUP4 CODECOPY DUP2 MLOAD SWAP2 MSTORE DUP1 SLOAD PUSH1 0xFF NOT AND SWAP1 SSTORE JUMP JUMPDEST PUSH2 0x28C0 PUSH2 0x284E JUMP JUMPDEST PUSH2 0x1A36 DUP2 PUSH2 0x245E JUMP JUMPDEST PUSH2 0x20CC PUSH2 0x284E JUMP JUMPDEST DUP1 PUSH1 0x1 PUSH1 0x1 PUSH1 0xA0 SHL SUB AND EXTCODESIZE PUSH1 0x0 SUB PUSH2 0x2907 JUMPI PUSH1 0x40 MLOAD PUSH4 0x4C9C8CE3 PUSH1 0xE0 SHL DUP2 MSTORE PUSH1 0x1 PUSH1 0x1 PUSH1 0xA0 SHL SUB DUP3 AND PUSH1 0x4 DUP3 ADD MSTORE PUSH1 0x24 ADD PUSH2 0x704 JUMP JUMPDEST PUSH1 0x0 DUP1 MLOAD PUSH1 0x20 PUSH2 0x34A1 DUP4 CODECOPY DUP2 MLOAD SWAP2 MSTORE DUP1 SLOAD PUSH1 0x1 PUSH1 0x1 PUSH1 0xA0 SHL SUB NOT AND PUSH1 0x1 PUSH1 0x1 PUSH1 0xA0 SHL SUB SWAP3 SWAP1 SWAP3 AND SWAP2 SWAP1 SWAP2 OR SWAP1 SSTORE JUMP JUMPDEST PUSH1 0x60 PUSH1 0x0 DUP1 DUP5 PUSH1 0x1 PUSH1 0x1 PUSH1 0xA0 SHL SUB AND DUP5 PUSH1 0x40 MLOAD PUSH2 0x2953 SWAP2 SWAP1 PUSH2 0x3424 JUMP JUMPDEST PUSH1 0x0 PUSH1 0x40 MLOAD DUP1 DUP4 SUB DUP2 DUP6 GAS DELEGATECALL SWAP2 POP POP RETURNDATASIZE DUP1 PUSH1 0x0 DUP2 EQ PUSH2 0x298E JUMPI PUSH1 0x40 MLOAD SWAP2 POP PUSH1 0x1F NOT PUSH1 0x3F RETURNDATASIZE ADD AND DUP3 ADD PUSH1 0x40 MSTORE RETURNDATASIZE DUP3 MSTORE RETURNDATASIZE PUSH1 0x0 PUSH1 0x20 DUP5 ADD RETURNDATACOPY PUSH2 0x2993 JUMP JUMPDEST PUSH1 0x60 SWAP2 POP JUMPDEST POP SWAP2 POP SWAP2 POP PUSH2 0x29A3 DUP6 DUP4 DUP4 PUSH2 0x29CB JUMP JUMPDEST SWAP6 SWAP5 POP POP POP POP POP JUMP JUMPDEST CALLVALUE ISZERO PUSH2 0xC5F JUMPI PUSH1 0x40 MLOAD PUSH4 0xB398979F PUSH1 0xE0 SHL DUP2 MSTORE PUSH1 0x4 ADD PUSH1 0x40 MLOAD DUP1 SWAP2 SUB SWAP1 REVERT JUMPDEST PUSH1 0x60 DUP3 PUSH2 0x29E0 JUMPI PUSH2 0x29DB DUP3 PUSH2 0x2A2A JUMP JUMPDEST PUSH2 0x2A23 JUMP JUMPDEST DUP2 MLOAD ISZERO DUP1 ISZERO PUSH2 0x29F7 JUMPI POP PUSH1 0x1 PUSH1 0x1 PUSH1 0xA0 SHL SUB DUP5 AND EXTCODESIZE ISZERO JUMPDEST ISZERO PUSH2 0x2A20 JUMPI PUSH1 0x40 MLOAD PUSH4 0x9996B315 PUSH1 0xE0 SHL DUP2 MSTORE PUSH1 0x1 PUSH1 0x1 PUSH1 0xA0 SHL SUB DUP6 AND PUSH1 0x4 DUP3 ADD MSTORE PUSH1 0x24 ADD PUSH2 0x704 JUMP JUMPDEST POP DUP1 JUMPDEST SWAP4 SWAP3 POP POP POP JUMP JUMPDEST DUP1 MLOAD ISZERO PUSH2 0x2A3A JUMPI DUP1 MLOAD DUP1 DUP3 PUSH1 0x20 ADD REVERT JUMPDEST PUSH1 0x40 MLOAD PUSH4 0xA12F521 PUSH1 0xE1 SHL DUP2 MSTORE PUSH1 0x4 ADD PUSH1 0x40 MLOAD DUP1 SWAP2 SUB SWAP1 REVERT JUMPDEST PUSH1 0x40 MLOAD DUP1 PUSH2 0x160 ADD PUSH1 0x40 MSTORE DUP1 PUSH1 0x0 PUSH1 0x1 PUSH1 0x1 PUSH1 0xA0 SHL SUB AND DUP2 MSTORE PUSH1 0x20 ADD PUSH1 0x0 PUSH1 0x1 PUSH1 0x1 PUSH1 0xA0 SHL SUB AND DUP2 MSTORE PUSH1 0x20 ADD PUSH1 0x0 PUSH1 0x1 PUSH1 0x1 PUSH1 0xA0 SHL SUB AND DUP2 MSTORE PUSH1 0x20 ADD PUSH1 0x0 DUP2 MSTORE PUSH1 0x20 ADD PUSH1 0x0 DUP2 MSTORE PUSH1 0x20 ADD PUSH1 0x0 DUP2 MSTORE PUSH1 0x20 ADD PUSH1 0x0 DUP2 MSTORE PUSH1 0x20 ADD PUSH1 0x0 DUP2 MSTORE PUSH1 0x20 ADD PUSH1 0x0 PUSH1 0x4 DUP2 GT ISZERO PUSH2 0x2AC5 JUMPI PUSH2 0x2AC5 PUSH2 0x2DDF JUMP JUMPDEST DUP2 MSTORE PUSH1 0x40 DUP1 MLOAD PUSH1 0x60 DUP2 ADD DUP3 MSTORE PUSH1 0x0 DUP1 DUP3 MSTORE PUSH1 0x20 DUP3 DUP2 ADD DUP3 SWAP1 MSTORE SWAP3 DUP3 ADD MSTORE SWAP2 ADD SWAP1 DUP2 MSTORE PUSH1 0x20 ADD PUSH1 0x60 DUP2 MSTORE POP SWAP1 JUMP JUMPDEST PUSH1 0x0 PUSH1 0x20 DUP3 DUP5 SUB SLT ISZERO PUSH2 0x2B04 JUMPI PUSH1 0x0 DUP1 REVERT JUMPDEST DUP2 CALLDATALOAD PUSH1 0x1 PUSH1 0x1 PUSH1 0xE0 SHL SUB NOT DUP2 AND DUP2 EQ PUSH2 0x2A23 JUMPI PUSH1 0x0 DUP1 REVERT JUMPDEST PUSH1 0x1 PUSH1 0x1 PUSH1 0xA0 SHL SUB DUP2 AND DUP2 EQ PUSH2 0x1A36 JUMPI PUSH1 0x0 DUP1 REVERT JUMPDEST DUP1 CALLDATALOAD PUSH2 0x2B3C DUP2 PUSH2 0x2B1C JUMP JUMPDEST SWAP2 SWAP1 POP JUMP JUMPDEST PUSH4 0x4E487B71 PUSH1 0xE0 SHL PUSH1 0x0 MSTORE PUSH1 0x41 PUSH1 0x4 MSTORE PUSH1 0x24 PUSH1 0x0 REVERT JUMPDEST PUSH1 0x40 MLOAD PUSH1 0x1F DUP3 ADD PUSH1 0x1F NOT AND DUP2 ADD PUSH8 0xFFFFFFFFFFFFFFFF DUP2 GT DUP3 DUP3 LT OR ISZERO PUSH2 0x2B80 JUMPI PUSH2 0x2B80 PUSH2 0x2B41 JUMP JUMPDEST PUSH1 0x40 MSTORE SWAP2 SWAP1 POP JUMP JUMPDEST PUSH1 0x0 DUP3 PUSH1 0x1F DUP4 ADD SLT PUSH2 0x2B99 JUMPI PUSH1 0x0 DUP1 REVERT JUMPDEST DUP2 CALLDATALOAD PUSH8 0xFFFFFFFFFFFFFFFF DUP2 GT ISZERO PUSH2 0x2BB3 JUMPI PUSH2 0x2BB3 PUSH2 0x2B41 JUMP JUMPDEST PUSH2 0x2BC6 PUSH1 0x1F DUP3 ADD PUSH1 0x1F NOT AND PUSH1 0x20 ADD PUSH2 0x2B57 JUMP JUMPDEST DUP2 DUP2 MSTORE DUP5 PUSH1 0x20 DUP4 DUP7 ADD ADD GT ISZERO PUSH2 0x2BDB JUMPI PUSH1 0x0 DUP1 REVERT JUMPDEST DUP2 PUSH1 0x20 DUP6 ADD PUSH1 0x20 DUP4 ADD CALLDATACOPY PUSH1 0x0 SWAP2 DUP2 ADD PUSH1 0x20 ADD SWAP2 SWAP1 SWAP2 MSTORE SWAP4 SWAP3 POP POP POP JUMP JUMPDEST PUSH1 0x0 DUP1 PUSH1 0x0 DUP1 PUSH1 0x80 DUP6 DUP8 SUB SLT ISZERO PUSH2 0x2C0E JUMPI PUSH1 0x0 DUP1 REVERT JUMPDEST DUP5 CALLDATALOAD PUSH2 0x2C19 DUP2 PUSH2 0x2B1C JUMP JUMPDEST SWAP4 POP PUSH1 0x20 DUP6 ADD CALLDATALOAD PUSH2 0x2C29 DUP2 PUSH2 0x2B1C JUMP JUMPDEST SWAP3 POP PUSH1 0x40 DUP6 ADD CALLDATALOAD SWAP2 POP PUSH1 0x60 DUP6 ADD CALLDATALOAD PUSH8 0xFFFFFFFFFFFFFFFF DUP2 GT ISZERO PUSH2 0x2C4C JUMPI PUSH1 0x0 DUP1 REVERT JUMPDEST PUSH2 0x2C58 DUP8 DUP3 DUP9 ADD PUSH2 0x2B88 JUMP JUMPDEST SWAP2 POP POP SWAP3 SWAP6 SWAP2 SWAP5 POP SWAP3 POP JUMP JUMPDEST PUSH1 0x0 DUP1 PUSH1 0x0 PUSH1 0x60 DUP5 DUP7 SUB SLT ISZERO PUSH2 0x2C79 JUMPI PUSH1 0x0 DUP1 REVERT JUMPDEST POP POP DUP2 CALLDATALOAD SWAP4 PUSH1 0x20 DUP4 ADD CALLDATALOAD SWAP4 POP PUSH1 0x40 SWAP1 SWAP3 ADD CALLDATALOAD SWAP2 SWAP1 POP JUMP JUMPDEST PUSH1 0x0 PUSH1 0x20 DUP3 DUP5 SUB SLT ISZERO PUSH2 0x2CA2 JUMPI PUSH1 0x0 DUP1 REVERT JUMPDEST POP CALLDATALOAD SWAP2 SWAP1 POP JUMP JUMPDEST PUSH1 0x0 PUSH1 0x20 DUP3 DUP5 SUB SLT ISZERO PUSH2 0x2CBB JUMPI PUSH1 0x0 DUP1 REVERT JUMPDEST DUP2 CALLDATALOAD PUSH2 0xFFFF DUP2 AND DUP2 EQ PUSH2 0x2A23 JUMPI PUSH1 0x0 DUP1 REVERT JUMPDEST PUSH1 0x0 PUSH1 0x60 DUP3 DUP5 SUB SLT ISZERO PUSH2 0x2CDF JUMPI PUSH1 0x0 DUP1 REVERT JUMPDEST POP SWAP2 SWAP1 POP JUMP JUMPDEST PUSH1 0x0 DUP1 PUSH1 0x0 DUP1 PUSH1 0x0 DUP1 PUSH1 0xE0 DUP8 DUP10 SUB SLT ISZERO PUSH2 0x2CFE JUMPI PUSH1 0x0 DUP1 REVERT JUMPDEST DUP7 CALLDATALOAD SWAP6 POP PUSH1 0x20 DUP8 ADD CALLDATALOAD SWAP5 POP PUSH1 0x40 DUP8 ADD CALLDATALOAD PUSH8 0xFFFFFFFFFFFFFFFF DUP1 DUP3 GT ISZERO PUSH2 0x2D24 JUMPI PUSH1 0x0 DUP1 REVERT JUMPDEST DUP2 DUP10 ADD SWAP2 POP DUP10 PUSH1 0x1F DUP4 ADD SLT PUSH2 0x2D38 JUMPI PUSH1 0x0 DUP1 REVERT JUMPDEST DUP2 CALLDATALOAD DUP2 DUP2 GT ISZERO PUSH2 0x2D47 JUMPI PUSH1 0x0 DUP1 REVERT JUMPDEST DUP11 PUSH1 0x20 DUP3 PUSH1 0x7 SHL DUP6 ADD ADD GT ISZERO PUSH2 0x2D5C JUMPI PUSH1 0x0 DUP1 REVERT JUMPDEST PUSH1 0x20 DUP4 ADD SWAP7 POP DUP1 SWAP6 POP POP POP POP PUSH2 0x2D74 PUSH1 0x60 DUP9 ADD PUSH2 0x2B31 JUMP JUMPDEST SWAP2 POP PUSH2 0x2D83 DUP9 PUSH1 0x80 DUP10 ADD PUSH2 0x2CCD JUMP JUMPDEST SWAP1 POP SWAP3 SWAP6 POP SWAP3 SWAP6 POP SWAP3 SWAP6 JUMP JUMPDEST PUSH1 0x0 DUP1 PUSH1 0x40 DUP4 DUP6 SUB SLT ISZERO PUSH2 0x2DA2 JUMPI PUSH1 0x0 DUP1 REVERT JUMPDEST DUP3 CALLDATALOAD PUSH2 0x2DAD DUP2 PUSH2 0x2B1C JUMP JUMPDEST SWAP2 POP PUSH1 0x20 DUP4 ADD CALLDATALOAD PUSH8 0xFFFFFFFFFFFFFFFF DUP2 GT ISZERO PUSH2 0x2DC9 JUMPI PUSH1 0x0 DUP1 REVERT JUMPDEST PUSH2 0x2DD5 DUP6 DUP3 DUP7 ADD PUSH2 0x2B88 JUMP JUMPDEST SWAP2 POP POP SWAP3 POP SWAP3 SWAP1 POP JUMP JUMPDEST PUSH4 0x4E487B71 PUSH1 0xE0 SHL PUSH1 0x0 MSTORE PUSH1 0x21 PUSH1 0x4 MSTORE PUSH1 0x24 PUSH1 0x0 REVERT JUMPDEST PUSH1 0x5 DUP2 LT PUSH2 0x2E05 JUMPI PUSH2 0x2E05 PUSH2 0x2DDF JUMP JUMPDEST SWAP1 MSTORE JUMP JUMPDEST PUSH1 0x0 DUP2 MLOAD DUP1 DUP5 MSTORE PUSH1 0x20 DUP1 DUP6 ADD SWAP5 POP DUP1 DUP5 ADD PUSH1 0x0 JUMPDEST DUP4 DUP2 LT ISZERO PUSH2 0x2E72 JUMPI DUP2 MLOAD DUP1 MLOAD PUSH1 0x1 PUSH1 0x1 PUSH1 0xA0 SHL SUB AND DUP9 MSTORE DUP4 DUP2 ADD MLOAD DUP5 DUP10 ADD MSTORE PUSH1 0x40 DUP1 DUP3 ADD MLOAD SWAP1 DUP10 ADD MSTORE PUSH1 0x60 SWAP1 DUP2 ADD MLOAD SWAP1 PUSH1 0x2 DUP3 LT PUSH2 0x2E5D JUMPI PUSH2 0x2E5D PUSH2 0x2DDF JUMP JUMPDEST DUP9 ADD MSTORE PUSH1 0x80 SWAP1 SWAP7 ADD SWAP6 SWAP1 DUP3 ADD SWAP1 PUSH1 0x1 ADD PUSH2 0x2E1D JUMP JUMPDEST POP SWAP5 SWAP6 SWAP5 POP POP POP POP POP JUMP JUMPDEST PUSH1 0x20 DUP2 MSTORE PUSH2 0x2E97 PUSH1 0x20 DUP3 ADD DUP4 MLOAD PUSH1 0x1 PUSH1 0x1 PUSH1 0xA0 SHL SUB AND SWAP1 MSTORE JUMP JUMPDEST PUSH1 0x0 PUSH1 0x20 DUP4 ADD MLOAD PUSH2 0x2EB3 PUSH1 0x40 DUP5 ADD DUP3 PUSH1 0x1 PUSH1 0x1 PUSH1 0xA0 SHL SUB AND SWAP1 MSTORE JUMP JUMPDEST POP PUSH1 0x40 DUP4 ADD MLOAD PUSH1 0x1 PUSH1 0x1 PUSH1 0xA0 SHL SUB DUP2 AND PUSH1 0x60 DUP5 ADD MSTORE POP PUSH1 0x60 DUP4 ADD MLOAD PUSH1 0x80 DUP4 ADD MSTORE PUSH1 0x80 DUP4 ADD MLOAD PUSH1 0xA0 DUP4 ADD MSTORE PUSH1 0xA0 DUP4 ADD MLOAD PUSH1 0xC0 DUP4 ADD MSTORE PUSH1 0xC0 DUP4 ADD MLOAD PUSH1 0xE0 DUP4 ADD MSTORE PUSH1 0xE0 DUP4 ADD MLOAD PUSH2 0x100 DUP2 DUP2 DUP6 ADD MSTORE DUP1 DUP6 ADD MLOAD SWAP2 POP POP PUSH2 0x120 PUSH2 0x2F14 DUP2 DUP6 ADD DUP4 PUSH2 0x2DF5 JUMP JUMPDEST DUP5 ADD MLOAD SWAP1 POP PUSH2 0x140 PUSH2 0x2F45 DUP5 DUP3 ADD DUP4 DUP1 MLOAD DUP3 MSTORE PUSH1 0x20 DUP1 DUP3 ADD MLOAD SWAP1 DUP4 ADD MSTORE PUSH1 0x40 SWAP1 DUP2 ADD MLOAD PUSH1 0x1 PUSH1 0x1 PUSH1 0xA0 SHL SUB AND SWAP2 ADD MSTORE JUMP JUMPDEST DUP5 ADD MLOAD PUSH2 0x1A0 DUP5 DUP2 ADD MSTORE SWAP1 POP PUSH2 0x2F5F PUSH2 0x1C0 DUP5 ADD DUP3 PUSH2 0x2E09 JUMP JUMPDEST SWAP5 SWAP4 POP POP POP POP JUMP JUMPDEST PUSH1 0x0 PUSH1 0x20 DUP3 DUP5 SUB SLT ISZERO PUSH2 0x2F79 JUMPI PUSH1 0x0 DUP1 REVERT JUMPDEST DUP2 CALLDATALOAD PUSH2 0x2A23 DUP2 PUSH2 0x2B1C JUMP JUMPDEST PUSH1 0x0 JUMPDEST DUP4 DUP2 LT ISZERO PUSH2 0x2F9F JUMPI DUP2 DUP2 ADD MLOAD DUP4 DUP3 ADD MSTORE PUSH1 0x20 ADD PUSH2 0x2F87 JUMP JUMPDEST POP POP PUSH1 0x0 SWAP2 ADD MSTORE JUMP JUMPDEST PUSH1 0x20 DUP2 MSTORE PUSH1 0x0 DUP3 MLOAD DUP1 PUSH1 0x20 DUP5 ADD MSTORE PUSH2 0x2FC7 DUP2 PUSH1 0x40 DUP6 ADD PUSH1 0x20 DUP8 ADD PUSH2 0x2F84 JUMP JUMPDEST PUSH1 0x1F ADD PUSH1 0x1F NOT AND SWAP2 SWAP1 SWAP2 ADD PUSH1 0x40 ADD SWAP3 SWAP2 POP POP JUMP JUMPDEST PUSH1 0x0 DUP3 PUSH1 0x1F DUP4 ADD SLT PUSH2 0x2FEC JUMPI PUSH1 0x0 DUP1 REVERT JUMPDEST DUP2 CALLDATALOAD PUSH1 0x20 PUSH8 0xFFFFFFFFFFFFFFFF DUP3 GT ISZERO PUSH2 0x3008 JUMPI PUSH2 0x3008 PUSH2 0x2B41 JUMP JUMPDEST DUP2 PUSH1 0x5 SHL PUSH2 0x3017 DUP3 DUP3 ADD PUSH2 0x2B57 JUMP JUMPDEST SWAP3 DUP4 MSTORE DUP5 DUP2 ADD DUP3 ADD SWAP3 DUP3 DUP2 ADD SWAP1 DUP8 DUP6 GT ISZERO PUSH2 0x3031 JUMPI PUSH1 0x0 DUP1 REVERT JUMPDEST DUP4 DUP8 ADD SWAP3 POP JUMPDEST DUP5 DUP4 LT ISZERO PUSH2 0x3050 JUMPI DUP3 CALLDATALOAD DUP3 MSTORE SWAP2 DUP4 ADD SWAP2 SWAP1 DUP4 ADD SWAP1 PUSH2 0x3037 JUMP JUMPDEST SWAP8 SWAP7 POP POP POP POP POP POP POP JUMP JUMPDEST PUSH1 0x0 DUP1 PUSH1 0x0 DUP1 PUSH1 0x0 PUSH1 0xA0 DUP7 DUP9 SUB SLT ISZERO PUSH2 0x3073 JUMPI PUSH1 0x0 DUP1 REVERT JUMPDEST DUP6 CALLDATALOAD PUSH2 0x307E DUP2 PUSH2 0x2B1C JUMP JUMPDEST SWAP5 POP PUSH1 0x20 DUP7 ADD CALLDATALOAD PUSH2 0x308E DUP2 PUSH2 0x2B1C JUMP JUMPDEST SWAP4 POP PUSH1 0x40 DUP7 ADD CALLDATALOAD PUSH8 0xFFFFFFFFFFFFFFFF DUP1 DUP3 GT ISZERO PUSH2 0x30AB JUMPI PUSH1 0x0 DUP1 REVERT JUMPDEST PUSH2 0x30B7 DUP10 DUP4 DUP11 ADD PUSH2 0x2FDB JUMP JUMPDEST SWAP5 POP PUSH1 0x60 DUP9 ADD CALLDATALOAD SWAP2 POP DUP1 DUP3 GT ISZERO PUSH2 0x30CD JUMPI PUSH1 0x0 DUP1 REVERT JUMPDEST PUSH2 0x30D9 DUP10 DUP4 DUP11 ADD PUSH2 0x2FDB JUMP JUMPDEST SWAP4 POP PUSH1 0x80 DUP9 ADD CALLDATALOAD SWAP2 POP DUP1 DUP3 GT ISZERO PUSH2 0x30EF JUMPI PUSH1 0x0 DUP1 REVERT JUMPDEST POP PUSH2 0x30FC DUP9 DUP3 DUP10 ADD PUSH2 0x2B88 JUMP JUMPDEST SWAP2 POP POP SWAP3 SWAP6 POP SWAP3 SWAP6 SWAP1 SWAP4 POP JUMP JUMPDEST PUSH1 0x0 DUP1 PUSH1 0x0 DUP1 PUSH1 0x0 PUSH1 0xA0 DUP7 DUP9 SUB SLT ISZERO PUSH2 0x3121 JUMPI PUSH1 0x0 DUP1 REVERT JUMPDEST DUP6 CALLDATALOAD PUSH2 0x312C DUP2 PUSH2 0x2B1C JUMP JUMPDEST SWAP5 POP PUSH1 0x20 DUP7 ADD CALLDATALOAD PUSH2 0x313C DUP2 PUSH2 0x2B1C JUMP JUMPDEST SWAP4 POP PUSH1 0x40 DUP7 ADD CALLDATALOAD SWAP3 POP PUSH1 0x60 DUP7 ADD CALLDATALOAD SWAP2 POP PUSH1 0x80 DUP7 ADD CALLDATALOAD PUSH8 0xFFFFFFFFFFFFFFFF DUP2 GT ISZERO PUSH2 0x3166 JUMPI PUSH1 0x0 DUP1 REVERT JUMPDEST PUSH2 0x30FC DUP9 DUP3 DUP10 ADD PUSH2 0x2B88 JUMP JUMPDEST PUSH4 0x4E487B71 PUSH1 0xE0 SHL PUSH1 0x0 MSTORE PUSH1 0x11 PUSH1 0x4 MSTORE PUSH1 0x24 PUSH1 0x0 REVERT JUMPDEST DUP1 DUP3 MUL DUP2 ISZERO DUP3 DUP3 DIV DUP5 EQ OR PUSH2 0x69C JUMPI PUSH2 0x69C PUSH2 0x3172 JUMP JUMPDEST PUSH1 0x0 DUP3 PUSH2 0x31BC JUMPI PUSH4 0x4E487B71 PUSH1 0xE0 SHL PUSH1 0x0 MSTORE PUSH1 0x12 PUSH1 0x4 MSTORE PUSH1 0x24 PUSH1 0x0 REVERT JUMPDEST POP DIV SWAP1 JUMP JUMPDEST PUSH1 0x1 PUSH1 0x1 PUSH1 0xA0 SHL SUB SWAP4 DUP5 AND DUP2 MSTORE SWAP2 SWAP1 SWAP3 AND PUSH1 0x20 DUP3 ADD MSTORE PUSH1 0x40 DUP2 ADD SWAP2 SWAP1 SWAP2 MSTORE PUSH1 0x60 ADD SWAP1 JUMP JUMPDEST DUP1 MLOAD DUP1 ISZERO ISZERO DUP2 EQ PUSH2 0x2B3C JUMPI PUSH1 0x0 DUP1 REVERT JUMPDEST PUSH1 0x0 PUSH1 0x20 DUP3 DUP5 SUB SLT ISZERO PUSH2 0x3207 JUMPI PUSH1 0x0 DUP1 REVERT JUMPDEST PUSH2 0x2A23 DUP3 PUSH2 0x31E5 JUMP JUMPDEST DUP2 DUP2 SUB DUP2 DUP2 GT ISZERO PUSH2 0x69C JUMPI PUSH2 0x69C PUSH2 0x3172 JUMP JUMPDEST DUP1 DUP3 ADD DUP1 DUP3 GT ISZERO PUSH2 0x69C JUMPI PUSH2 0x69C PUSH2 0x3172 JUMP JUMPDEST DUP1 SLOAD PUSH1 0x1 PUSH1 0x1 PUSH1 0xA0 SHL SUB NOT AND PUSH1 0x1 PUSH1 0x1 PUSH1 0xA0 SHL SUB SWAP3 SWAP1 SWAP3 AND SWAP2 SWAP1 SWAP2 OR SWAP1 SSTORE JUMP JUMPDEST DUP2 CALLDATALOAD DUP2 SSTORE PUSH1 0x20 DUP3 ADD CALLDATALOAD PUSH1 0x1 DUP3 ADD SSTORE PUSH1 0x40 DUP3 ADD CALLDATALOAD PUSH2 0x3272 DUP2 PUSH2 0x2B1C JUMP JUMPDEST PUSH2 0xAC5 DUP2 PUSH1 0x2 DUP5 ADD PUSH2 0x3236 JUMP JUMPDEST PUSH4 0x4E487B71 PUSH1 0xE0 SHL PUSH1 0x0 MSTORE PUSH1 0x32 PUSH1 0x4 MSTORE PUSH1 0x24 PUSH1 0x0 REVERT JUMPDEST PUSH1 0x2 DUP2 LT PUSH2 0x1A36 JUMPI PUSH1 0x0 DUP1 REVERT JUMPDEST PUSH1 0x0 PUSH1 0x20 DUP3 DUP5 SUB SLT ISZERO PUSH2 0x32B4 JUMPI PUSH1 0x0 DUP1 REVERT JUMPDEST DUP2 CALLDATALOAD PUSH2 0x2A23 DUP2 PUSH2 0x3295 JUMP JUMPDEST PUSH1 0x1 PUSH1 0x1 PUSH1 0xA0 SHL SUB SWAP5 DUP6 AND DUP2 MSTORE SWAP3 SWAP1 SWAP4 AND PUSH1 0x20 DUP4 ADD MSTORE PUSH1 0x40 DUP3 ADD MSTORE PUSH1 0x60 DUP2 ADD SWAP2 SWAP1 SWAP2 MSTORE PUSH1 0xA0 PUSH1 0x80 DUP3 ADD DUP2 SWAP1 MSTORE PUSH1 0x0 SWAP1 DUP3 ADD MSTORE PUSH1 0xC0 ADD SWAP1 JUMP JUMPDEST DUP2 CALLDATALOAD PUSH2 0x3302 DUP2 PUSH2 0x2B1C JUMP JUMPDEST PUSH2 0x330C DUP2 DUP4 PUSH2 0x3236 JUMP JUMPDEST POP PUSH1 0x20 DUP3 ADD CALLDATALOAD PUSH1 0x1 DUP3 ADD SSTORE PUSH1 0x40 DUP3 ADD CALLDATALOAD PUSH1 0x2 DUP3 ADD SSTORE PUSH1 0x3 DUP2 ADD PUSH1 0x60 DUP4 ADD CALLDATALOAD PUSH2 0x3333 DUP2 PUSH2 0x3295 JUMP JUMPDEST PUSH1 0x2 DUP2 LT PUSH2 0x3343 JUMPI PUSH2 0x3343 PUSH2 0x2DDF JUMP JUMPDEST PUSH1 0xFF NOT DUP3 SLOAD AND PUSH1 0xFF DUP3 AND DUP2 OR DUP4 SSTORE POP POP POP POP POP JUMP JUMPDEST PUSH1 0x0 PUSH1 0x1 DUP3 ADD PUSH2 0x336A JUMPI PUSH2 0x336A PUSH2 0x3172 JUMP JUMPDEST POP PUSH1 0x1 ADD SWAP1 JUMP JUMPDEST PUSH1 0x0 DUP1 DUP6 DUP6 GT ISZERO PUSH2 0x3381 JUMPI PUSH1 0x0 DUP1 REVERT JUMPDEST DUP4 DUP7 GT ISZERO PUSH2 0x338E JUMPI PUSH1 0x0 DUP1 REVERT JUMPDEST POP POP DUP3 ADD SWAP4 SWAP2 SWAP1 SWAP3 SUB SWAP2 POP JUMP JUMPDEST PUSH1 0x1 PUSH1 0x1 PUSH1 0xE0 SHL SUB NOT DUP2 CALLDATALOAD DUP2 DUP2 AND SWAP2 PUSH1 0x4 DUP6 LT ISZERO PUSH2 0x33C3 JUMPI DUP1 DUP2 DUP7 PUSH1 0x4 SUB PUSH1 0x3 SHL SHL DUP4 AND AND SWAP3 POP JUMPDEST POP POP SWAP3 SWAP2 POP POP JUMP JUMPDEST PUSH1 0x1 PUSH1 0x1 PUSH1 0xA0 SHL SUB DUP5 AND DUP2 MSTORE PUSH1 0x40 PUSH1 0x20 DUP3 ADD DUP2 SWAP1 MSTORE DUP2 ADD DUP3 SWAP1 MSTORE DUP2 DUP4 PUSH1 0x60 DUP4 ADD CALLDATACOPY PUSH1 0x0 DUP2 DUP4 ADD PUSH1 0x60 SWAP1 DUP2 ADD SWAP2 SWAP1 SWAP2 MSTORE PUSH1 0x1F SWAP1 SWAP3 ADD PUSH1 0x1F NOT AND ADD ADD SWAP3 SWAP2 POP POP JUMP JUMPDEST PUSH1 0x0 PUSH1 0x20 DUP3 DUP5 SUB SLT ISZERO PUSH2 0x341D JUMPI PUSH1 0x0 DUP1 REVERT JUMPDEST POP MLOAD SWAP2 SWAP1 POP JUMP JUMPDEST PUSH1 0x0 DUP3 MLOAD PUSH2 0x3436 DUP2 DUP5 PUSH1 0x20 DUP8 ADD PUSH2 0x2F84 JUMP JUMPDEST SWAP2 SWAP1 SWAP2 ADD SWAP3 SWAP2 POP POP JUMP JUMPDEST PUSH1 0x0 DUP1 PUSH1 0x40 DUP4 DUP6 SUB SLT ISZERO PUSH2 0x3453 JUMPI PUSH1 0x0 DUP1 REVERT JUMPDEST PUSH2 0x345C DUP4 PUSH2 0x31E5 JUMP JUMPDEST SWAP2 POP PUSH1 0x20 DUP4 ADD MLOAD PUSH4 0xFFFFFFFF DUP2 AND DUP2 EQ PUSH2 0x3475 JUMPI PUSH1 0x0 DUP1 REVERT JUMPDEST DUP1 SWAP2 POP POP SWAP3 POP SWAP3 SWAP1 POP JUMP INVALID RETURN OR PUSH20 0x57AB46D8AF007AB3FDB9AF81DA189E1068FEFDC0 SMOD RETURNDATASIZE 0xCA DUP9 LOG2 0xCA 0xB4 EXP STOP CALLDATASIZE ADDMOD SWAP5 LOG1 EXTCODESIZE LOG1 LOG3 0x21 MOD PUSH8 0xC828492DB98DCA3E KECCAK256 PUSH23 0xCC3735A920A3CA505D382BBCCD5ED15C6E187E77E9AEE8 DUP2 DUP5 0xC2 0x1F 0x4F 0x21 DUP3 0xAB PC 0x27 0xCB EXTCODESIZE PUSH31 0x7FBEDCD63F033009B779B17422D0DF92223018B32B4D1FA46E071723D6817 0xE2 BASEFEE PUSH14 0x3BECC55F00A264697066735822 SLT KECCAK256 JUMPDEST PUSH24 0x7D25AC5225A9904E5682E19E972DEF93810513359DEA66AF PUSH23 0xD69161D6FA64736F6C6343000814003300000000000000 "},"methodIdentifiers":{"UPGRADE_INTERFACE_VERSION()":"ad3cb1cc","authority()":"bf7e214f","bid(uint256,uint256,uint256)":"2ac9bf09","cancelAuction(uint256)":"96b5a755","cancelSpecificAuction(uint256)":"61608185","extraTime()":"1800c0fe","finalizeAuction(uint256)":"e8083863","getAuction(uint256)":"78bd7935","initialize()":"8129fc1c","isConsumingScheduledOp()":"8fb36037","maxAssets()":"94b2294b","maxAuctionDuration()":"48c9581e","maxIncentive()":"5fdbcd4c","maxPayment()":"e457bf05","minAuctionDuration()":"54134876","nextAuctionId()":"fc528482","onERC1155BatchReceived(address,address,uint256[],uint256[],bytes)":"bc197c81","onERC1155Received(address,address,uint256,uint256,bytes)":"f23a6e61","onERC721Received(address,address,uint256,bytes)":"150b7a02","pause()":"8456cb59","paused()":"5c975abb","proxiableUUID()":"52d1902d","setAuthority(address)":"7a9e5e4b","setExtraTime(uint256)":"2cf04c2f","setMaxAssets(uint16)":"63beec7d","setMaxAuctionDuration(uint256)":"e12d145a","setMaxIncentive(uint16)":"36de093e","setMaxPayment(uint256)":"339b174a","setMinAuctionDuration(uint256)":"f6908258","setWarmUpTime(uint256)":"f2735913","startAuction(uint256,uint256,(address,uint256,uint256,uint8)[],address,(uint256,uint256,address))":"48cf48b5","supportsInterface(bytes4)":"01ffc9a7","unpause()":"3f4ba83a","upgradeToAndCall(address,bytes)":"4f1ef286","warmUpTime()":"e9d831be"}},"storageLayout":{"storage":[],"types":null}}}}