{"@openzeppelin/contracts-upgradeable/access/manager/AccessManagerUpgradeable.sol":{"AccessManagerUpgradeable":{"abi":[{"inputs":[{"internalType":"bytes32","name":"operationId","type":"bytes32"}],"name":"AccessManagerAlreadyScheduled","type":"error"},{"inputs":[],"name":"AccessManagerBadConfirmation","type":"error"},{"inputs":[{"internalType":"bytes32","name":"operationId","type":"bytes32"}],"name":"AccessManagerExpired","type":"error"},{"inputs":[{"internalType":"address","name":"initialAdmin","type":"address"}],"name":"AccessManagerInvalidInitialAdmin","type":"error"},{"inputs":[{"internalType":"address","name":"account","type":"address"}],"name":"AccessManagerLockedAccount","type":"error"},{"inputs":[{"internalType":"uint64","name":"roleId","type":"uint64"}],"name":"AccessManagerLockedRole","type":"error"},{"inputs":[{"internalType":"bytes32","name":"operationId","type":"bytes32"}],"name":"AccessManagerNotReady","type":"error"},{"inputs":[{"internalType":"bytes32","name":"operationId","type":"bytes32"}],"name":"AccessManagerNotScheduled","type":"error"},{"inputs":[{"internalType":"address","name":"msgsender","type":"address"},{"internalType":"uint64","name":"roleId","type":"uint64"}],"name":"AccessManagerUnauthorizedAccount","type":"error"},{"inputs":[{"internalType":"address","name":"caller","type":"address"},{"internalType":"address","name":"target","type":"address"},{"internalType":"bytes4","name":"selector","type":"bytes4"}],"name":"AccessManagerUnauthorizedCall","type":"error"},{"inputs":[{"internalType":"address","name":"msgsender","type":"address"},{"internalType":"address","name":"caller","type":"address"},{"internalType":"address","name":"target","type":"address"},{"internalType":"bytes4","name":"selector","type":"bytes4"}],"name":"AccessManagerUnauthorizedCancel","type":"error"},{"inputs":[{"internalType":"address","name":"target","type":"address"}],"name":"AccessManagerUnauthorizedConsume","type":"error"},{"inputs":[{"internalType":"address","name":"target","type":"address"}],"name":"AddressEmptyCode","type":"error"},{"inputs":[{"internalType":"address","name":"account","type":"address"}],"name":"AddressInsufficientBalance","type":"error"},{"inputs":[],"name":"FailedInnerCall","type":"error"},{"inputs":[],"name":"InvalidInitialization","type":"error"},{"inputs":[],"name":"NotInitializing","type":"error"},{"inputs":[{"internalType":"uint8","name":"bits","type":"uint8"},{"internalType":"uint256","name":"value","type":"uint256"}],"name":"SafeCastOverflowedUintDowncast","type":"error"},{"anonymous":false,"inputs":[{"indexed":false,"internalType":"uint64","name":"version","type":"uint64"}],"name":"Initialized","type":"event"},{"anonymous":false,"inputs":[{"indexed":true,"internalType":"bytes32","name":"operationId","type":"bytes32"},{"indexed":true,"internalType":"uint32","name":"nonce","type":"uint32"}],"name":"OperationCanceled","type":"event"},{"anonymous":false,"inputs":[{"indexed":true,"internalType":"bytes32","name":"operationId","type":"bytes32"},{"indexed":true,"internalType":"uint32","name":"nonce","type":"uint32"}],"name":"OperationExecuted","type":"event"},{"anonymous":false,"inputs":[{"indexed":true,"internalType":"bytes32","name":"operationId","type":"bytes32"},{"indexed":true,"internalType":"uint32","name":"nonce","type":"uint32"},{"indexed":false,"internalType":"uint48","name":"schedule","type":"uint48"},{"indexed":false,"internalType":"address","name":"caller","type":"address"},{"indexed":false,"internalType":"address","name":"target","type":"address"},{"indexed":false,"internalType":"bytes","name":"data","type":"bytes"}],"name":"OperationScheduled","type":"event"},{"anonymous":false,"inputs":[{"indexed":true,"internalType":"uint64","name":"roleId","type":"uint64"},{"indexed":true,"internalType":"uint64","name":"admin","type":"uint64"}],"name":"RoleAdminChanged","type":"event"},{"anonymous":false,"inputs":[{"indexed":true,"internalType":"uint64","name":"roleId","type":"uint64"},{"indexed":false,"internalType":"uint32","name":"delay","type":"uint32"},{"indexed":false,"internalType":"uint48","name":"since","type":"uint48"}],"name":"RoleGrantDelayChanged","type":"event"},{"anonymous":false,"inputs":[{"indexed":true,"internalType":"uint64","name":"roleId","type":"uint64"},{"indexed":true,"internalType":"address","name":"account","type":"address"},{"indexed":false,"internalType":"uint32","name":"delay","type":"uint32"},{"indexed":false,"internalType":"uint48","name":"since","type":"uint48"},{"indexed":false,"internalType":"bool","name":"newMember","type":"bool"}],"name":"RoleGranted","type":"event"},{"anonymous":false,"inputs":[{"indexed":true,"internalType":"uint64","name":"roleId","type":"uint64"},{"indexed":true,"internalType":"uint64","name":"guardian","type":"uint64"}],"name":"RoleGuardianChanged","type":"event"},{"anonymous":false,"inputs":[{"indexed":true,"internalType":"uint64","name":"roleId","type":"uint64"},{"indexed":false,"internalType":"string","name":"label","type":"string"}],"name":"RoleLabel","type":"event"},{"anonymous":false,"inputs":[{"indexed":true,"internalType":"uint64","name":"roleId","type":"uint64"},{"indexed":true,"internalType":"address","name":"account","type":"address"}],"name":"RoleRevoked","type":"event"},{"anonymous":false,"inputs":[{"indexed":true,"internalType":"address","name":"target","type":"address"},{"indexed":false,"internalType":"uint32","name":"delay","type":"uint32"},{"indexed":false,"internalType":"uint48","name":"since","type":"uint48"}],"name":"TargetAdminDelayUpdated","type":"event"},{"anonymous":false,"inputs":[{"indexed":true,"internalType":"address","name":"target","type":"address"},{"indexed":false,"internalType":"bool","name":"closed","type":"bool"}],"name":"TargetClosed","type":"event"},{"anonymous":false,"inputs":[{"indexed":true,"internalType":"address","name":"target","type":"address"},{"indexed":false,"internalType":"bytes4","name":"selector","type":"bytes4"},{"indexed":true,"internalType":"uint64","name":"roleId","type":"uint64"}],"name":"TargetFunctionRoleUpdated","type":"event"},{"inputs":[],"name":"ADMIN_ROLE","outputs":[{"internalType":"uint64","name":"","type":"uint64"}],"stateMutability":"view","type":"function"},{"inputs":[],"name":"PUBLIC_ROLE","outputs":[{"internalType":"uint64","name":"","type":"uint64"}],"stateMutability":"view","type":"function"},{"inputs":[{"internalType":"address","name":"caller","type":"address"},{"internalType":"address","name":"target","type":"address"},{"internalType":"bytes4","name":"selector","type":"bytes4"}],"name":"canCall","outputs":[{"internalType":"bool","name":"immediate","type":"bool"},{"internalType":"uint32","name":"delay","type":"uint32"}],"stateMutability":"view","type":"function"},{"inputs":[{"internalType":"address","name":"caller","type":"address"},{"internalType":"address","name":"target","type":"address"},{"internalType":"bytes","name":"data","type":"bytes"}],"name":"cancel","outputs":[{"internalType":"uint32","name":"","type":"uint32"}],"stateMutability":"nonpayable","type":"function"},{"inputs":[{"internalType":"address","name":"caller","type":"address"},{"internalType":"bytes","name":"data","type":"bytes"}],"name":"consumeScheduledOp","outputs":[],"stateMutability":"nonpayable","type":"function"},{"inputs":[{"internalType":"address","name":"target","type":"address"},{"internalType":"bytes","name":"data","type":"bytes"}],"name":"execute","outputs":[{"internalType":"uint32","name":"","type":"uint32"}],"stateMutability":"payable","type":"function"},{"inputs":[],"name":"expiration","outputs":[{"internalType":"uint32","name":"","type":"uint32"}],"stateMutability":"view","type":"function"},{"inputs":[{"internalType":"uint64","name":"roleId","type":"uint64"},{"internalType":"address","name":"account","type":"address"}],"name":"getAccess","outputs":[{"internalType":"uint48","name":"since","type":"uint48"},{"internalType":"uint32","name":"currentDelay","type":"uint32"},{"internalType":"uint32","name":"pendingDelay","type":"uint32"},{"internalType":"uint48","name":"effect","type":"uint48"}],"stateMutability":"view","type":"function"},{"inputs":[{"internalType":"bytes32","name":"id","type":"bytes32"}],"name":"getNonce","outputs":[{"internalType":"uint32","name":"","type":"uint32"}],"stateMutability":"view","type":"function"},{"inputs":[{"internalType":"uint64","name":"roleId","type":"uint64"}],"name":"getRoleAdmin","outputs":[{"internalType":"uint64","name":"","type":"uint64"}],"stateMutability":"view","type":"function"},{"inputs":[{"internalType":"uint64","name":"roleId","type":"uint64"}],"name":"getRoleGrantDelay","outputs":[{"internalType":"uint32","name":"","type":"uint32"}],"stateMutability":"view","type":"function"},{"inputs":[{"internalType":"uint64","name":"roleId","type":"uint64"}],"name":"getRoleGuardian","outputs":[{"internalType":"uint64","name":"","type":"uint64"}],"stateMutability":"view","type":"function"},{"inputs":[{"internalType":"bytes32","name":"id","type":"bytes32"}],"name":"getSchedule","outputs":[{"internalType":"uint48","name":"","type":"uint48"}],"stateMutability":"view","type":"function"},{"inputs":[{"internalType":"address","name":"target","type":"address"}],"name":"getTargetAdminDelay","outputs":[{"internalType":"uint32","name":"","type":"uint32"}],"stateMutability":"view","type":"function"},{"inputs":[{"internalType":"address","name":"target","type":"address"},{"internalType":"bytes4","name":"selector","type":"bytes4"}],"name":"getTargetFunctionRole","outputs":[{"internalType":"uint64","name":"","type":"uint64"}],"stateMutability":"view","type":"function"},{"inputs":[{"internalType":"uint64","name":"roleId","type":"uint64"},{"internalType":"address","name":"account","type":"address"},{"internalType":"uint32","name":"executionDelay","type":"uint32"}],"name":"grantRole","outputs":[],"stateMutability":"nonpayable","type":"function"},{"inputs":[{"internalType":"uint64","name":"roleId","type":"uint64"},{"internalType":"address","name":"account","type":"address"}],"name":"hasRole","outputs":[{"internalType":"bool","name":"isMember","type":"bool"},{"internalType":"uint32","name":"executionDelay","type":"uint32"}],"stateMutability":"view","type":"function"},{"inputs":[{"internalType":"address","name":"caller","type":"address"},{"internalType":"address","name":"target","type":"address"},{"internalType":"bytes","name":"data","type":"bytes"}],"name":"hashOperation","outputs":[{"internalType":"bytes32","name":"","type":"bytes32"}],"stateMutability":"view","type":"function"},{"inputs":[{"internalType":"address","name":"target","type":"address"}],"name":"isTargetClosed","outputs":[{"internalType":"bool","name":"","type":"bool"}],"stateMutability":"view","type":"function"},{"inputs":[{"internalType":"uint64","name":"roleId","type":"uint64"},{"internalType":"string","name":"label","type":"string"}],"name":"labelRole","outputs":[],"stateMutability":"nonpayable","type":"function"},{"inputs":[],"name":"minSetback","outputs":[{"internalType":"uint32","name":"","type":"uint32"}],"stateMutability":"view","type":"function"},{"inputs":[{"internalType":"bytes[]","name":"data","type":"bytes[]"}],"name":"multicall","outputs":[{"internalType":"bytes[]","name":"results","type":"bytes[]"}],"stateMutability":"nonpayable","type":"function"},{"inputs":[{"internalType":"uint64","name":"roleId","type":"uint64"},{"internalType":"address","name":"callerConfirmation","type":"address"}],"name":"renounceRole","outputs":[],"stateMutability":"nonpayable","type":"function"},{"inputs":[{"internalType":"uint64","name":"roleId","type":"uint64"},{"internalType":"address","name":"account","type":"address"}],"name":"revokeRole","outputs":[],"stateMutability":"nonpayable","type":"function"},{"inputs":[{"internalType":"address","name":"target","type":"address"},{"internalType":"bytes","name":"data","type":"bytes"},{"internalType":"uint48","name":"when","type":"uint48"}],"name":"schedule","outputs":[{"internalType":"bytes32","name":"operationId","type":"bytes32"},{"internalType":"uint32","name":"nonce","type":"uint32"}],"stateMutability":"nonpayable","type":"function"},{"inputs":[{"internalType":"uint64","name":"roleId","type":"uint64"},{"internalType":"uint32","name":"newDelay","type":"uint32"}],"name":"setGrantDelay","outputs":[],"stateMutability":"nonpayable","type":"function"},{"inputs":[{"internalType":"uint64","name":"roleId","type":"uint64"},{"internalType":"uint64","name":"admin","type":"uint64"}],"name":"setRoleAdmin","outputs":[],"stateMutability":"nonpayable","type":"function"},{"inputs":[{"internalType":"uint64","name":"roleId","type":"uint64"},{"internalType":"uint64","name":"guardian","type":"uint64"}],"name":"setRoleGuardian","outputs":[],"stateMutability":"nonpayable","type":"function"},{"inputs":[{"internalType":"address","name":"target","type":"address"},{"internalType":"uint32","name":"newDelay","type":"uint32"}],"name":"setTargetAdminDelay","outputs":[],"stateMutability":"nonpayable","type":"function"},{"inputs":[{"internalType":"address","name":"target","type":"address"},{"internalType":"bool","name":"closed","type":"bool"}],"name":"setTargetClosed","outputs":[],"stateMutability":"nonpayable","type":"function"},{"inputs":[{"internalType":"address","name":"target","type":"address"},{"internalType":"bytes4[]","name":"selectors","type":"bytes4[]"},{"internalType":"uint64","name":"roleId","type":"uint64"}],"name":"setTargetFunctionRole","outputs":[],"stateMutability":"nonpayable","type":"function"},{"inputs":[{"internalType":"address","name":"target","type":"address"},{"internalType":"address","name":"newAuthority","type":"address"}],"name":"updateAuthority","outputs":[],"stateMutability":"nonpayable","type":"function"}],"evm":{"bytecode":{"linkReferences":{},"object":"608060405234801561001057600080fd5b50612b08806100206000396000f3fe6080604052600436106101e35760003560e01c80636d5115bd11610102578063b700961311610095578063d22b598911610064578063d22b598914610603578063d6bb62c614610623578063f801a69814610643578063fe0776f51461067d57600080fd5b8063b700961314610571578063b7d2b162146105ad578063cc1b6c81146105cd578063d1f856ee146105e357600080fd5b8063a166aa89116100d1578063a166aa89146104c6578063a64d95ce146104f6578063abd9bd2a14610516578063ac9650d81461054457600080fd5b80636d5115bd1461045157806375b238fc14610471578063853551b81461048657806394c7d7ee146104a657600080fd5b806330cae1871161017a5780634665096d116101495780634665096d146103db5780634c1da1e2146103f15780635296295214610411578063530dd4561461043157600080fd5b806330cae187146103495780633adc277a146103695780633ca7c02a146103a05780634136a33c146103bb57600080fd5b806318ff183c116101b657806318ff183c1461029c5780631cff79cd146102bc57806325c471a0146102cf5780633078f114146102ef57600080fd5b806308d6122d146101e85780630b0a93ba1461020a57806312be872714610247578063167bd3951461027c575b600080fd5b3480156101f457600080fd5b5061020861020336600461238b565b61069d565b005b34801561021657600080fd5b5061022a6102253660046123f1565b6106f8565b6040516001600160401b0390911681526020015b60405180910390f35b34801561025357600080fd5b506102676102623660046123f1565b610731565b60405163ffffffff909116815260200161023e565b34801561028857600080fd5b5061020861029736600461240c565b61077d565b3480156102a857600080fd5b506102086102b736600461244a565b610793565b6102676102ca3660046124b9565b6107fa565b3480156102db57600080fd5b506102086102ea366004612521565b610940565b3480156102fb57600080fd5b5061030f61030a366004612566565b610962565b60405161023e949392919065ffffffffffff948516815263ffffffff93841660208201529190921660408201529116606082015260800190565b34801561035557600080fd5b50610208610364366004612582565b6109d9565b34801561037557600080fd5b506103896103843660046125b5565b6109eb565b60405165ffffffffffff909116815260200161023e565b3480156103ac57600080fd5b5061022a6001600160401b0381565b3480156103c757600080fd5b506102676103d63660046125b5565b610a30565b3480156103e757600080fd5b5062093a80610267565b3480156103fd57600080fd5b5061026761040c3660046125ce565b610a5d565b34801561041d57600080fd5b5061020861042c366004612582565b610a99565b34801561043d57600080fd5b5061022a61044c3660046123f1565b610aab565b34801561045d57600080fd5b5061022a61046c366004612601565b610add565b34801561047d57600080fd5b5061022a600081565b34801561049257600080fd5b506102086104a136600461262f565b610b26565b3480156104b257600080fd5b506102086104c13660046124b9565b610bbd565b3480156104d257600080fd5b506104e66104e13660046125ce565b610c69565b604051901515815260200161023e565b34801561050257600080fd5b5061020861051136600461264d565b610ca2565b34801561052257600080fd5b50610536610531366004612677565b610cb4565b60405190815260200161023e565b34801561055057600080fd5b5061056461055f3660046126db565b610ced565b60405161023e9190612740565b34801561057d57600080fd5b5061059161058c3660046127ba565b610de1565b60408051921515835263ffffffff90911660208301520161023e565b3480156105b957600080fd5b506102086105c8366004612566565b610e68565b3480156105d957600080fd5b5062069780610267565b3480156105ef57600080fd5b506105916105fe366004612566565b610e7f565b34801561060f57600080fd5b5061020861061e366004612805565b610efc565b34801561062f57600080fd5b5061026761063e366004612677565b610f0e565b34801561064f57600080fd5b5061066361065e366004612823565b611079565b6040805192835263ffffffff90911660208301520161023e565b34801561068957600080fd5b50610208610698366004612566565b611224565b6106a561124d565b60005b828110156106f1576106e1858585848181106106c6576106c6612895565b90506020020160208101906106db91906128ab565b846112c8565b6106ea816128de565b90506106a8565b5050505050565b600080610703611356565b6001600160401b0393841660009081526001918201602052604090200154600160401b900490921692915050565b60008061073c611356565b6001600160401b038416600090815260018281016020526040909120015490915061077690600160801b90046001600160701b031661137a565b9392505050565b61078561124d565b61078f8282611399565b5050565b61079b61124d565b604051637a9e5e4b60e01b81526001600160a01b038281166004830152831690637a9e5e4b90602401600060405180830381600087803b1580156107de57600080fd5b505af11580156107f2573d6000803e3d6000fd5b505050505050565b600080610805611356565b9050336000806108178389898961143f565b915091508115801561082d575063ffffffff8116155b1561088057828861083e8989611492565b6040516381c6f24b60e01b81526001600160a01b0393841660048201529290911660248301526001600160e01b03191660448201526064015b60405180910390fd5b600061088e848a8a8a610cb4565b9050600063ffffffff83161515806108b557506108aa826109eb565b65ffffffffffff1615155b156108c6576108c3826114aa565b90505b60038601546108de8b6108d98c8c611492565b6115be565b87600301819055506109288b8b8b8080601f016020809104026020016040519081016040528093929190818152602001838380828437600092019190915250349250611600915050565b50600390960195909555509293505050509392505050565b61094861124d565b61095c838361095686610731565b8461169d565b50505050565b6000806000806000610972611356565b6001600160401b038816600090815260018201602090815260408083206001600160a01b038b1684529091529020805465ffffffffffff81169750919250906109ca90600160301b90046001600160701b03166118fc565b979a9199509750945050505050565b6109e161124d565b61078f828261191f565b6000806109f6611356565b600084815260028201602052604090205490915065ffffffffffff16610a1b816119d1565b610a255780610a28565b60005b949350505050565b600080610a3b611356565b600093845260020160205250506040902054600160301b900463ffffffff1690565b600080610a68611356565b6001600160a01b038416600090815260208290526040902060010154909150610776906001600160701b031661137a565b610aa161124d565b61078f8282611a00565b600080610ab6611356565b6001600160401b039384166000908152600191820160205260409020015490921692915050565b600080610ae8611356565b6001600160a01b0385166000908152602091825260408082206001600160e01b03198716835290925220546001600160401b03169150505b92915050565b610b2e61124d565b6001600160401b0383161580610b4c57506001600160401b03838116145b15610b755760405163061c6a4360e21b81526001600160401b0384166004820152602401610877565b826001600160401b03167f1256f5b5ecb89caec12db449738f2fbcd1ba5806cf38f35413f4e5c15bf6a4508383604051610bb0929190612920565b60405180910390a2505050565b60408051638fb3603760e01b80825291513392918391638fb36037916004808201926020929091908290030181865afa158015610bfe573d6000803e3d6000fd5b505050506040513d601f19601f82011682018060405250810190610c229190612934565b6001600160e01b03191614610c5557604051630641fee960e31b81526001600160a01b0382166004820152602401610877565b6106f1610c6485838686610cb4565b6114aa565b600080610c74611356565b6001600160a01b0390931660009081526020939093525050604090206001015460ff600160701b9091041690565b610caa61124d565b61078f8282611ac0565b600084848484604051602001610ccd9493929190612951565b604051602081830303815290604052805190602001209050949350505050565b6060816001600160401b03811115610d0757610d0761297e565b604051908082528060200260200182016040528015610d3a57816020015b6060815260200190600190039081610d255790505b50905060005b82811015610dda57610daa30858584818110610d5e57610d5e612895565b9050602002810190610d709190612994565b8080601f016020809104026020016040519081016040528093929190818152602001838380828437600092019190915250611bed92505050565b828281518110610dbc57610dbc612895565b60200260200101819052508080610dd2906128de565b915050610d40565b5092915050565b600080610ded84610c69565b15610dfd57506000905080610e60565b306001600160a01b03861603610e2257610e178484611c63565b600091509150610e60565b6000610e2e8585610add565b9050600080610e3d8389610e7f565b9150915081610e4e57600080610e58565b63ffffffff811615815b945094505050505b935093915050565b610e7061124d565b610e7a8282611c88565b505050565b60008067fffffffffffffffe196001600160401b03851601610ea75750600190506000610ef5565b600080610eb48686610962565b5050915091508165ffffffffffff16600014158015610eea5750610ed6611d87565b65ffffffffffff168265ffffffffffff1611155b93509150610ef59050565b9250929050565b610f0461124d565b61078f8282611d97565b600080610f19611356565b9050336000610f288686611492565b90506000610f3889898989610cb4565b600081815260028601602052604081205491925065ffffffffffff9091169003610f785760405163060a299b60e41b815260048101829052602401610877565b826001600160a01b0316896001600160a01b031614611014576000610f9e600085610e7f565b5090506000610fb9610fb36102258c87610add565b86610e7f565b50905081158015610fc8575080155b1561101157604051630ff89d4760e21b81526001600160a01b038087166004830152808d1660248301528b1660448201526001600160e01b031985166064820152608401610877565b50505b6000818152600285016020526040808220805465ffffffffffff1916908190559051600160301b90910463ffffffff1691829184917fbd9ac67a6e2f6463b80927326310338bcbb4bdb7936ce1365ea3e01067e7b9f791a39998505050505050505050565b6000806000611086611356565b9050336000611097828a8a8a61143f565b91505060008163ffffffff166110ab611d87565b6110b591906129da565b905063ffffffff821615806110ec575060008765ffffffffffff161180156110ec57508065ffffffffffff168765ffffffffffff16105b156110fd57828a61083e8b8b611492565b6111178765ffffffffffff168265ffffffffffff16611e63565b9650611125838b8b8b610cb4565b955061113086611e79565b83600201600087815260200190815260200160002060000160069054906101000a900463ffffffff1660010194508684600201600088815260200190815260200160002060000160006101000a81548165ffffffffffff021916908365ffffffffffff1602179055508484600201600088815260200190815260200160002060000160066101000a81548163ffffffff021916908363ffffffff1602179055508463ffffffff16867f82a2da5dee54ea8021c6545b4444620291e07ee83be6dd57edb175062715f3b489868e8e8e60405161120f9594939291906129f9565b60405180910390a35050505094509492505050565b6001600160a01b0381163314610e7057604051635f159e6360e01b815260040160405180910390fd5b3360008061125c838236611ed5565b9150915081610e7a578063ffffffff166000036112b857600061127f8136611f8d565b5060405163f07e038f60e01b81526001600160a01b03871660048201526001600160401b03821660248201529092506044019050610877565b61095c610c648430600036610cb4565b60006112d2611356565b6001600160a01b0385166000818152602083815260408083206001600160e01b0319891680855290835292819020805467ffffffffffffffff19166001600160401b03891690811790915590519283529394507f9ea6790c7dadfd01c9f8b9762b3682607af2c7e79e05a9f9fdf5580dde949151910160405180910390a350505050565b7f40c6c8c28789853c7efd823ab20824bbd71718a8a5915e855f6f288c9a26ad0090565b60008061138f836001600160701b03166118fc565b5090949350505050565b60006113a3611356565b9050306001600160a01b038416036113d957604051630b40d17960e31b81526001600160a01b0384166004820152602401610877565b6001600160a01b038316600081815260208390526040908190206001018054851515600160701b0260ff60701b19909116179055517f90d4e7bb7e5d933792b3562e1741306f8be94837e1348dacef9b6f1df56eb13890610bb090851515815260200190565b600080306001600160a01b038616036114665761145d868585611ed5565b91509150611489565b600483106114825761147d868661058c8787611492565b61145d565b5060009050805b94509492505050565b60006114a16004828486612a3f565b61077691612a69565b6000806114b5611356565b600084815260028201602052604081205491925065ffffffffffff821691600160301b900463ffffffff16908290036115045760405163060a299b60e41b815260048101869052602401610877565b61150c611d87565b65ffffffffffff168265ffffffffffff16111561153f57604051630c65b5bd60e11b815260048101869052602401610877565b611548826119d1565b1561156957604051631e2975b960e21b815260048101869052602401610877565b6000858152600284016020526040808220805465ffffffffffff191690555163ffffffff83169187917f76a2a46953689d4861a5d3f6ed883ad7e6af674a21f8e162707159fc9dde614d9190a3949350505050565b604080516001600160a01b03939093166020808501919091526001600160e01b0319929092168382015280518084038201815260609093019052815191012090565b6060814710156116255760405163cd78605960e01b8152306004820152602401610877565b600080856001600160a01b031684866040516116419190612a99565b60006040518083038185875af1925050503d806000811461167e576040519150601f19603f3d011682016040523d82523d6000602084013e611683565b606091505b5091509150611693868383612159565b9695505050505050565b6000806116a8611356565b905067fffffffffffffffe196001600160401b038716016116e75760405163061c6a4360e21b81526001600160401b0387166004820152602401610877565b6001600160401b038616600090815260018201602090815260408083206001600160a01b038916845290915281205465ffffffffffff16159081156117dd578563ffffffff16611735611d87565b61173f91906129da565b905060405180604001604052808265ffffffffffff16815260200161176d8763ffffffff1663ffffffff1690565b6001600160701b039081169091526001600160401b038a16600090815260018601602090815260408083206001600160a01b038d1684528252909120835181549490920151909216600160301b026001600160a01b031990931665ffffffffffff9091161791909117905561188d565b6001600160401b038816600090815260018401602090815260408083206001600160a01b038b16845290915281205461182991600160301b9091046001600160701b03169087906121b5565b6001600160401b038a16600090815260018601602090815260408083206001600160a01b038d168452909152902080546001600160701b03909316600160301b0273ffffffffffffffffffffffffffff000000000000199093169290921790915590505b6040805163ffffffff8716815265ffffffffffff831660208201528315158183015290516001600160a01b038916916001600160401b038b16917ff98448b987f1428e0e230e1f3c6e2ce15b5693eaf31827fbd0b1ec4b424ae7cf9181900360600190a3509695505050505050565b60008060006119128461190d611d87565b61225f565b9250925092509193909250565b6000611929611356565b90506001600160401b038316158061194957506001600160401b03838116145b156119725760405163061c6a4360e21b81526001600160401b0384166004820152602401610877565b6001600160401b03838116600081815260018481016020526040808320909101805467ffffffffffffffff19169487169485179055517f1fd6dd7631312dfac2205b52913f99de03b4d7e381d5d27d3dbfe0713e6e63409190a3505050565b60006119db611d87565b65ffffffffffff166119f062093a80846129da565b65ffffffffffff16111592915050565b6000611a0a611356565b90506001600160401b0383161580611a2a57506001600160401b03838116145b15611a535760405163061c6a4360e21b81526001600160401b0384166004820152602401610877565b6001600160401b0383811660008181526001848101602052604080832090910180546fffffffffffffffff00000000000000001916600160401b958816958602179055517f7a8059630b897b5de4c08ade69f8b90c3ead1f8596d62d10b6c4d14a0afb4ae29190a3505050565b6000611aca611356565b905067fffffffffffffffe196001600160401b03841601611b095760405163061c6a4360e21b81526001600160401b0384166004820152602401610877565b6001600160401b03831660009081526001828101602052604082200154611b4490600160801b90046001600160701b031684620697806121b5565b6001600160401b038616600081815260018087016020526040918290200180546001600160701b03909516600160801b026dffffffffffffffffffffffffffff60801b199095169490941790935591519092507ffeb69018ee8b8fd50ea86348f1267d07673379f72cffdeccec63853ee8ce8b4890611bdf908690859063ffffffff92909216825265ffffffffffff16602082015260400190565b60405180910390a250505050565b6060600080846001600160a01b031684604051611c0a9190612a99565b600060405180830381855af49150503d8060008114611c45576040519150601f19603f3d011682016040523d82523d6000602084013e611c4a565b606091505b5091509150611c5a858383612159565b95945050505050565b600080611c6e611356565b9050611c7a84846115be565b600390910154149392505050565b600080611c93611356565b905067fffffffffffffffe196001600160401b03851601611cd25760405163061c6a4360e21b81526001600160401b0385166004820152602401610877565b6001600160401b038416600090815260018201602090815260408083206001600160a01b038716845290915281205465ffffffffffff169003611d19576000915050610b20565b6001600160401b038416600081815260018301602090815260408083206001600160a01b038816808552925280832080546001600160a01b0319169055519092917ff229baa593af28c41b1d16b748cd7688f0c83aaf92d4be41c44005defe84c16691a35060019392505050565b6000611d92426122b3565b905090565b6000611da1611356565b90506000611dd983620697806001600160a01b0387166000908152602086905260409020600101546001600160701b031691906121b5565b6001600160a01b0386166000818152602086815260409182902060010180546dffffffffffffffffffffffffffff19166001600160701b039690961695909517909455805163ffffffff8816815265ffffffffffff841694810194909452919350917fa56b76017453f399ec2327ba00375dbfb1fd070ff854341ad6191e6a2e2de19c9101611bdf565b6000818311611e725781610776565b5090919050565b6000611e83611356565b600083815260028201602052604090205490915065ffffffffffff168015801590611eb45750611eb2816119d1565b155b15610e7a5760405163813e945960e01b815260048101849052602401610877565b6000806004831015611eec57506000905080610e60565b306001600160a01b03861603611f0f57610e1730611f0a8686611492565b611c63565b6000806000611f1e8787611f8d565b92509250925082611f385760008094509450505050610e60565b600080611f45848b610e7f565b9150915081611f5f57600080965096505050505050610e60565b611f758363ffffffff168263ffffffff16611e63565b63ffffffff8116159b909a5098505050505050505050565b600080806004841015611fa857506000915081905080612152565b6000611fb48686611492565b90506001600160e01b031981166310a6aa3760e31b1480611fe557506001600160e01b031981166330cae18760e01b145b8061200057506001600160e01b0319811663294b14a960e11b145b8061201b57506001600160e01b03198116635326cae760e11b145b8061203657506001600160e01b0319811663d22b598960e01b145b1561204c57600160008093509350935050612152565b6001600160e01b0319811663063fc60f60e21b148061207b57506001600160e01b0319811663167bd39560e01b145b8061209657506001600160e01b031981166308d6122d60e01b145b156120d85760006120ab60246004888a612a3f565b8101906120b891906125ce565b905060006120c582610a5d565b6001965060009550935061215292505050565b6001600160e01b0319811663012e238d60e51b148061210757506001600160e01b03198116635be958b160e11b145b1561214557600061211c60246004888a612a3f565b81019061212991906123f1565b9050600161213682610aab565b60009450945094505050612152565b6000806000935093509350505b9250925092565b60608261216e57612169826122ea565b610776565b815115801561218557506001600160a01b0384163b155b156121ae57604051639996b31560e01b81526001600160a01b0385166004820152602401610877565b5080610776565b60008060006121cc866001600160701b031661137a565b905060006122098563ffffffff168763ffffffff168463ffffffff16116121f45760006121fe565b6121fe8885612ab5565b63ffffffff16611e63565b90508063ffffffff1661221a611d87565b61222491906129da565b925063ffffffff8616602083901b67ffffffff0000000016604085901b6dffffffffffff000000000000000016171793505050935093915050565b6000808069ffffffffffffffffffff602086901c166001600160701b03861665ffffffffffff604088901c811690871681111561229e578282826122a3565b816000805b9550955095505050509250925092565b600065ffffffffffff8211156122e6576040516306dfcc6560e41b81526030600482015260248101839052604401610877565b5090565b8051156122fa5780518082602001fd5b604051630a12f52160e11b815260040160405180910390fd5b50565b6001600160a01b038116811461231357600080fd5b60008083601f84011261233d57600080fd5b5081356001600160401b0381111561235457600080fd5b6020830191508360208260051b8501011115610ef557600080fd5b80356001600160401b038116811461238657600080fd5b919050565b600080600080606085870312156123a157600080fd5b84356123ac81612316565b935060208501356001600160401b038111156123c757600080fd5b6123d38782880161232b565b90945092506123e690506040860161236f565b905092959194509250565b60006020828403121561240357600080fd5b6107768261236f565b6000806040838503121561241f57600080fd5b823561242a81612316565b91506020830135801515811461243f57600080fd5b809150509250929050565b6000806040838503121561245d57600080fd5b823561246881612316565b9150602083013561243f81612316565b60008083601f84011261248a57600080fd5b5081356001600160401b038111156124a157600080fd5b602083019150836020828501011115610ef557600080fd5b6000806000604084860312156124ce57600080fd5b83356124d981612316565b925060208401356001600160401b038111156124f457600080fd5b61250086828701612478565b9497909650939450505050565b803563ffffffff8116811461238657600080fd5b60008060006060848603121561253657600080fd5b61253f8461236f565b9250602084013561254f81612316565b915061255d6040850161250d565b90509250925092565b6000806040838503121561257957600080fd5b6124688361236f565b6000806040838503121561259557600080fd5b61259e8361236f565b91506125ac6020840161236f565b90509250929050565b6000602082840312156125c757600080fd5b5035919050565b6000602082840312156125e057600080fd5b813561077681612316565b6001600160e01b03198116811461231357600080fd5b6000806040838503121561261457600080fd5b823561261f81612316565b9150602083013561243f816125eb565b60008060006040848603121561264457600080fd5b6124d98461236f565b6000806040838503121561266057600080fd5b6126698361236f565b91506125ac6020840161250d565b6000806000806060858703121561268d57600080fd5b843561269881612316565b935060208501356126a881612316565b925060408501356001600160401b038111156126c357600080fd5b6126cf87828801612478565b95989497509550505050565b600080602083850312156126ee57600080fd5b82356001600160401b0381111561270457600080fd5b6127108582860161232b565b90969095509350505050565b60005b8381101561273757818101518382015260200161271f565b50506000910152565b6000602080830181845280855180835260408601915060408160051b870101925083870160005b828110156127ad57878503603f190184528151805180875261278e818989018a850161271c565b601f01601f191695909501860194509285019290850190600101612767565b5092979650505050505050565b6000806000606084860312156127cf57600080fd5b83356127da81612316565b925060208401356127ea81612316565b915060408401356127fa816125eb565b809150509250925092565b6000806040838503121561281857600080fd5b823561266981612316565b6000806000806060858703121561283957600080fd5b843561284481612316565b935060208501356001600160401b0381111561285f57600080fd5b61286b87828801612478565b909450925050604085013565ffffffffffff8116811461288a57600080fd5b939692955090935050565b634e487b7160e01b600052603260045260246000fd5b6000602082840312156128bd57600080fd5b8135610776816125eb565b634e487b7160e01b600052601160045260246000fd5b6000600182016128f0576128f06128c8565b5060010190565b81835281816020850137506000828201602090810191909152601f909101601f19169091010190565b602081526000610a286020830184866128f7565b60006020828403121561294657600080fd5b8151610776816125eb565b6001600160a01b0385811682528416602082015260606040820181905260009061169390830184866128f7565b634e487b7160e01b600052604160045260246000fd5b6000808335601e198436030181126129ab57600080fd5b8301803591506001600160401b038211156129c557600080fd5b602001915036819003821315610ef557600080fd5b65ffffffffffff818116838216019080821115610dda57610dda6128c8565b65ffffffffffff861681526001600160a01b03858116602083015284166040820152608060608201819052600090612a3490830184866128f7565b979650505050505050565b60008085851115612a4f57600080fd5b83861115612a5c57600080fd5b5050820193919092039150565b6001600160e01b03198135818116916004851015612a915780818660040360031b1b83161692505b505092915050565b60008251612aab81846020870161271c565b9190910192915050565b63ffffffff828116828216039080821115610dda57610dda6128c856fea2646970667358221220cb8d9e781e4a1f57dfd3f54accbde53acc4cc6274e35d68bd009be578103c1cb64736f6c63430008140033","opcodes":"PUSH1 0x80 PUSH1 0x40 MSTORE CALLVALUE DUP1 ISZERO PUSH2 0x10 JUMPI PUSH1 0x0 DUP1 REVERT JUMPDEST POP PUSH2 0x2B08 DUP1 PUSH2 0x20 PUSH1 0x0 CODECOPY PUSH1 0x0 RETURN INVALID PUSH1 0x80 PUSH1 0x40 MSTORE PUSH1 0x4 CALLDATASIZE LT PUSH2 0x1E3 JUMPI PUSH1 0x0 CALLDATALOAD PUSH1 0xE0 SHR DUP1 PUSH4 0x6D5115BD GT PUSH2 0x102 JUMPI DUP1 PUSH4 0xB7009613 GT PUSH2 0x95 JUMPI DUP1 PUSH4 0xD22B5989 GT PUSH2 0x64 JUMPI DUP1 PUSH4 0xD22B5989 EQ PUSH2 0x603 JUMPI DUP1 PUSH4 0xD6BB62C6 EQ PUSH2 0x623 JUMPI DUP1 PUSH4 0xF801A698 EQ PUSH2 0x643 JUMPI DUP1 PUSH4 0xFE0776F5 EQ PUSH2 0x67D JUMPI PUSH1 0x0 DUP1 REVERT JUMPDEST DUP1 PUSH4 0xB7009613 EQ PUSH2 0x571 JUMPI DUP1 PUSH4 0xB7D2B162 EQ PUSH2 0x5AD JUMPI DUP1 PUSH4 0xCC1B6C81 EQ PUSH2 0x5CD JUMPI DUP1 PUSH4 0xD1F856EE EQ PUSH2 0x5E3 JUMPI PUSH1 0x0 DUP1 REVERT JUMPDEST DUP1 PUSH4 0xA166AA89 GT PUSH2 0xD1 JUMPI DUP1 PUSH4 0xA166AA89 EQ PUSH2 0x4C6 JUMPI DUP1 PUSH4 0xA64D95CE EQ PUSH2 0x4F6 JUMPI DUP1 PUSH4 0xABD9BD2A EQ PUSH2 0x516 JUMPI DUP1 PUSH4 0xAC9650D8 EQ PUSH2 0x544 JUMPI PUSH1 0x0 DUP1 REVERT JUMPDEST DUP1 PUSH4 0x6D5115BD EQ PUSH2 0x451 JUMPI DUP1 PUSH4 0x75B238FC EQ PUSH2 0x471 JUMPI DUP1 PUSH4 0x853551B8 EQ PUSH2 0x486 JUMPI DUP1 PUSH4 0x94C7D7EE EQ PUSH2 0x4A6 JUMPI PUSH1 0x0 DUP1 REVERT JUMPDEST DUP1 PUSH4 0x30CAE187 GT PUSH2 0x17A JUMPI DUP1 PUSH4 0x4665096D GT PUSH2 0x149 JUMPI DUP1 PUSH4 0x4665096D EQ PUSH2 0x3DB JUMPI DUP1 PUSH4 0x4C1DA1E2 EQ PUSH2 0x3F1 JUMPI DUP1 PUSH4 0x52962952 EQ PUSH2 0x411 JUMPI DUP1 PUSH4 0x530DD456 EQ PUSH2 0x431 JUMPI PUSH1 0x0 DUP1 REVERT JUMPDEST DUP1 PUSH4 0x30CAE187 EQ PUSH2 0x349 JUMPI DUP1 PUSH4 0x3ADC277A EQ PUSH2 0x369 JUMPI DUP1 PUSH4 0x3CA7C02A EQ PUSH2 0x3A0 JUMPI DUP1 PUSH4 0x4136A33C EQ PUSH2 0x3BB JUMPI PUSH1 0x0 DUP1 REVERT JUMPDEST DUP1 PUSH4 0x18FF183C GT PUSH2 0x1B6 JUMPI DUP1 PUSH4 0x18FF183C EQ PUSH2 0x29C JUMPI DUP1 PUSH4 0x1CFF79CD EQ PUSH2 0x2BC JUMPI DUP1 PUSH4 0x25C471A0 EQ PUSH2 0x2CF JUMPI DUP1 PUSH4 0x3078F114 EQ PUSH2 0x2EF JUMPI PUSH1 0x0 DUP1 REVERT JUMPDEST DUP1 PUSH4 0x8D6122D EQ PUSH2 0x1E8 JUMPI DUP1 PUSH4 0xB0A93BA EQ PUSH2 0x20A JUMPI DUP1 PUSH4 0x12BE8727 EQ PUSH2 0x247 JUMPI DUP1 PUSH4 0x167BD395 EQ PUSH2 0x27C JUMPI JUMPDEST PUSH1 0x0 DUP1 REVERT JUMPDEST CALLVALUE DUP1 ISZERO PUSH2 0x1F4 JUMPI PUSH1 0x0 DUP1 REVERT JUMPDEST POP PUSH2 0x208 PUSH2 0x203 CALLDATASIZE PUSH1 0x4 PUSH2 0x238B JUMP JUMPDEST PUSH2 0x69D JUMP JUMPDEST STOP JUMPDEST CALLVALUE DUP1 ISZERO PUSH2 0x216 JUMPI PUSH1 0x0 DUP1 REVERT JUMPDEST POP PUSH2 0x22A PUSH2 0x225 CALLDATASIZE PUSH1 0x4 PUSH2 0x23F1 JUMP JUMPDEST PUSH2 0x6F8 JUMP JUMPDEST PUSH1 0x40 MLOAD PUSH1 0x1 PUSH1 0x1 PUSH1 0x40 SHL SUB SWAP1 SWAP2 AND DUP2 MSTORE PUSH1 0x20 ADD JUMPDEST PUSH1 0x40 MLOAD DUP1 SWAP2 SUB SWAP1 RETURN JUMPDEST CALLVALUE DUP1 ISZERO PUSH2 0x253 JUMPI PUSH1 0x0 DUP1 REVERT JUMPDEST POP PUSH2 0x267 PUSH2 0x262 CALLDATASIZE PUSH1 0x4 PUSH2 0x23F1 JUMP JUMPDEST PUSH2 0x731 JUMP JUMPDEST PUSH1 0x40 MLOAD PUSH4 0xFFFFFFFF SWAP1 SWAP2 AND DUP2 MSTORE PUSH1 0x20 ADD PUSH2 0x23E JUMP JUMPDEST CALLVALUE DUP1 ISZERO PUSH2 0x288 JUMPI PUSH1 0x0 DUP1 REVERT JUMPDEST POP PUSH2 0x208 PUSH2 0x297 CALLDATASIZE PUSH1 0x4 PUSH2 0x240C JUMP JUMPDEST PUSH2 0x77D JUMP JUMPDEST CALLVALUE DUP1 ISZERO PUSH2 0x2A8 JUMPI PUSH1 0x0 DUP1 REVERT JUMPDEST POP PUSH2 0x208 PUSH2 0x2B7 CALLDATASIZE PUSH1 0x4 PUSH2 0x244A JUMP JUMPDEST PUSH2 0x793 JUMP JUMPDEST PUSH2 0x267 PUSH2 0x2CA CALLDATASIZE PUSH1 0x4 PUSH2 0x24B9 JUMP JUMPDEST PUSH2 0x7FA JUMP JUMPDEST CALLVALUE DUP1 ISZERO PUSH2 0x2DB JUMPI PUSH1 0x0 DUP1 REVERT JUMPDEST POP PUSH2 0x208 PUSH2 0x2EA CALLDATASIZE PUSH1 0x4 PUSH2 0x2521 JUMP JUMPDEST PUSH2 0x940 JUMP JUMPDEST CALLVALUE DUP1 ISZERO PUSH2 0x2FB JUMPI PUSH1 0x0 DUP1 REVERT JUMPDEST POP PUSH2 0x30F PUSH2 0x30A CALLDATASIZE PUSH1 0x4 PUSH2 0x2566 JUMP JUMPDEST PUSH2 0x962 JUMP JUMPDEST PUSH1 0x40 MLOAD PUSH2 0x23E SWAP5 SWAP4 SWAP3 SWAP2 SWAP1 PUSH6 0xFFFFFFFFFFFF SWAP5 DUP6 AND DUP2 MSTORE PUSH4 0xFFFFFFFF SWAP4 DUP5 AND PUSH1 0x20 DUP3 ADD MSTORE SWAP2 SWAP1 SWAP3 AND PUSH1 0x40 DUP3 ADD MSTORE SWAP2 AND PUSH1 0x60 DUP3 ADD MSTORE PUSH1 0x80 ADD SWAP1 JUMP JUMPDEST CALLVALUE DUP1 ISZERO PUSH2 0x355 JUMPI PUSH1 0x0 DUP1 REVERT JUMPDEST POP PUSH2 0x208 PUSH2 0x364 CALLDATASIZE PUSH1 0x4 PUSH2 0x2582 JUMP JUMPDEST PUSH2 0x9D9 JUMP JUMPDEST CALLVALUE DUP1 ISZERO PUSH2 0x375 JUMPI PUSH1 0x0 DUP1 REVERT JUMPDEST POP PUSH2 0x389 PUSH2 0x384 CALLDATASIZE PUSH1 0x4 PUSH2 0x25B5 JUMP JUMPDEST PUSH2 0x9EB JUMP JUMPDEST PUSH1 0x40 MLOAD PUSH6 0xFFFFFFFFFFFF SWAP1 SWAP2 AND DUP2 MSTORE PUSH1 0x20 ADD PUSH2 0x23E JUMP JUMPDEST CALLVALUE DUP1 ISZERO PUSH2 0x3AC JUMPI PUSH1 0x0 DUP1 REVERT JUMPDEST POP PUSH2 0x22A PUSH1 0x1 PUSH1 0x1 PUSH1 0x40 SHL SUB DUP2 JUMP JUMPDEST CALLVALUE DUP1 ISZERO PUSH2 0x3C7 JUMPI PUSH1 0x0 DUP1 REVERT JUMPDEST POP PUSH2 0x267 PUSH2 0x3D6 CALLDATASIZE PUSH1 0x4 PUSH2 0x25B5 JUMP JUMPDEST PUSH2 0xA30 JUMP JUMPDEST CALLVALUE DUP1 ISZERO PUSH2 0x3E7 JUMPI PUSH1 0x0 DUP1 REVERT JUMPDEST POP PUSH3 0x93A80 PUSH2 0x267 JUMP JUMPDEST CALLVALUE DUP1 ISZERO PUSH2 0x3FD JUMPI PUSH1 0x0 DUP1 REVERT JUMPDEST POP PUSH2 0x267 PUSH2 0x40C CALLDATASIZE PUSH1 0x4 PUSH2 0x25CE JUMP JUMPDEST PUSH2 0xA5D JUMP JUMPDEST CALLVALUE DUP1 ISZERO PUSH2 0x41D JUMPI PUSH1 0x0 DUP1 REVERT JUMPDEST POP PUSH2 0x208 PUSH2 0x42C CALLDATASIZE PUSH1 0x4 PUSH2 0x2582 JUMP JUMPDEST PUSH2 0xA99 JUMP JUMPDEST CALLVALUE DUP1 ISZERO PUSH2 0x43D JUMPI PUSH1 0x0 DUP1 REVERT JUMPDEST POP PUSH2 0x22A PUSH2 0x44C CALLDATASIZE PUSH1 0x4 PUSH2 0x23F1 JUMP JUMPDEST PUSH2 0xAAB JUMP JUMPDEST CALLVALUE DUP1 ISZERO PUSH2 0x45D JUMPI PUSH1 0x0 DUP1 REVERT JUMPDEST POP PUSH2 0x22A PUSH2 0x46C CALLDATASIZE PUSH1 0x4 PUSH2 0x2601 JUMP JUMPDEST PUSH2 0xADD JUMP JUMPDEST CALLVALUE DUP1 ISZERO PUSH2 0x47D JUMPI PUSH1 0x0 DUP1 REVERT JUMPDEST POP PUSH2 0x22A PUSH1 0x0 DUP2 JUMP JUMPDEST CALLVALUE DUP1 ISZERO PUSH2 0x492 JUMPI PUSH1 0x0 DUP1 REVERT JUMPDEST POP PUSH2 0x208 PUSH2 0x4A1 CALLDATASIZE PUSH1 0x4 PUSH2 0x262F JUMP JUMPDEST PUSH2 0xB26 JUMP JUMPDEST CALLVALUE DUP1 ISZERO PUSH2 0x4B2 JUMPI PUSH1 0x0 DUP1 REVERT JUMPDEST POP PUSH2 0x208 PUSH2 0x4C1 CALLDATASIZE PUSH1 0x4 PUSH2 0x24B9 JUMP JUMPDEST PUSH2 0xBBD JUMP JUMPDEST CALLVALUE DUP1 ISZERO PUSH2 0x4D2 JUMPI PUSH1 0x0 DUP1 REVERT JUMPDEST POP PUSH2 0x4E6 PUSH2 0x4E1 CALLDATASIZE PUSH1 0x4 PUSH2 0x25CE JUMP JUMPDEST PUSH2 0xC69 JUMP JUMPDEST PUSH1 0x40 MLOAD SWAP1 ISZERO ISZERO DUP2 MSTORE PUSH1 0x20 ADD PUSH2 0x23E JUMP JUMPDEST CALLVALUE DUP1 ISZERO PUSH2 0x502 JUMPI PUSH1 0x0 DUP1 REVERT JUMPDEST POP PUSH2 0x208 PUSH2 0x511 CALLDATASIZE PUSH1 0x4 PUSH2 0x264D JUMP JUMPDEST PUSH2 0xCA2 JUMP JUMPDEST CALLVALUE DUP1 ISZERO PUSH2 0x522 JUMPI PUSH1 0x0 DUP1 REVERT JUMPDEST POP PUSH2 0x536 PUSH2 0x531 CALLDATASIZE PUSH1 0x4 PUSH2 0x2677 JUMP JUMPDEST PUSH2 0xCB4 JUMP JUMPDEST PUSH1 0x40 MLOAD SWAP1 DUP2 MSTORE PUSH1 0x20 ADD PUSH2 0x23E JUMP JUMPDEST CALLVALUE DUP1 ISZERO PUSH2 0x550 JUMPI PUSH1 0x0 DUP1 REVERT JUMPDEST POP PUSH2 0x564 PUSH2 0x55F CALLDATASIZE PUSH1 0x4 PUSH2 0x26DB JUMP JUMPDEST PUSH2 0xCED JUMP JUMPDEST PUSH1 0x40 MLOAD PUSH2 0x23E SWAP2 SWAP1 PUSH2 0x2740 JUMP JUMPDEST CALLVALUE DUP1 ISZERO PUSH2 0x57D JUMPI PUSH1 0x0 DUP1 REVERT JUMPDEST POP PUSH2 0x591 PUSH2 0x58C CALLDATASIZE PUSH1 0x4 PUSH2 0x27BA JUMP JUMPDEST PUSH2 0xDE1 JUMP JUMPDEST PUSH1 0x40 DUP1 MLOAD SWAP3 ISZERO ISZERO DUP4 MSTORE PUSH4 0xFFFFFFFF SWAP1 SWAP2 AND PUSH1 0x20 DUP4 ADD MSTORE ADD PUSH2 0x23E JUMP JUMPDEST CALLVALUE DUP1 ISZERO PUSH2 0x5B9 JUMPI PUSH1 0x0 DUP1 REVERT JUMPDEST POP PUSH2 0x208 PUSH2 0x5C8 CALLDATASIZE PUSH1 0x4 PUSH2 0x2566 JUMP JUMPDEST PUSH2 0xE68 JUMP JUMPDEST CALLVALUE DUP1 ISZERO PUSH2 0x5D9 JUMPI PUSH1 0x0 DUP1 REVERT JUMPDEST POP PUSH3 0x69780 PUSH2 0x267 JUMP JUMPDEST CALLVALUE DUP1 ISZERO PUSH2 0x5EF JUMPI PUSH1 0x0 DUP1 REVERT JUMPDEST POP PUSH2 0x591 PUSH2 0x5FE CALLDATASIZE PUSH1 0x4 PUSH2 0x2566 JUMP JUMPDEST PUSH2 0xE7F JUMP JUMPDEST CALLVALUE DUP1 ISZERO PUSH2 0x60F JUMPI PUSH1 0x0 DUP1 REVERT JUMPDEST POP PUSH2 0x208 PUSH2 0x61E CALLDATASIZE PUSH1 0x4 PUSH2 0x2805 JUMP JUMPDEST PUSH2 0xEFC JUMP JUMPDEST CALLVALUE DUP1 ISZERO PUSH2 0x62F JUMPI PUSH1 0x0 DUP1 REVERT JUMPDEST POP PUSH2 0x267 PUSH2 0x63E CALLDATASIZE PUSH1 0x4 PUSH2 0x2677 JUMP JUMPDEST PUSH2 0xF0E JUMP JUMPDEST CALLVALUE DUP1 ISZERO PUSH2 0x64F JUMPI PUSH1 0x0 DUP1 REVERT JUMPDEST POP PUSH2 0x663 PUSH2 0x65E CALLDATASIZE PUSH1 0x4 PUSH2 0x2823 JUMP JUMPDEST PUSH2 0x1079 JUMP JUMPDEST PUSH1 0x40 DUP1 MLOAD SWAP3 DUP4 MSTORE PUSH4 0xFFFFFFFF SWAP1 SWAP2 AND PUSH1 0x20 DUP4 ADD MSTORE ADD PUSH2 0x23E JUMP JUMPDEST CALLVALUE DUP1 ISZERO PUSH2 0x689 JUMPI PUSH1 0x0 DUP1 REVERT JUMPDEST POP PUSH2 0x208 PUSH2 0x698 CALLDATASIZE PUSH1 0x4 PUSH2 0x2566 JUMP JUMPDEST PUSH2 0x1224 JUMP JUMPDEST PUSH2 0x6A5 PUSH2 0x124D JUMP JUMPDEST PUSH1 0x0 JUMPDEST DUP3 DUP2 LT ISZERO PUSH2 0x6F1 JUMPI PUSH2 0x6E1 DUP6 DUP6 DUP6 DUP5 DUP2 DUP2 LT PUSH2 0x6C6 JUMPI PUSH2 0x6C6 PUSH2 0x2895 JUMP JUMPDEST SWAP1 POP PUSH1 0x20 MUL ADD PUSH1 0x20 DUP2 ADD SWAP1 PUSH2 0x6DB SWAP2 SWAP1 PUSH2 0x28AB JUMP JUMPDEST DUP5 PUSH2 0x12C8 JUMP JUMPDEST PUSH2 0x6EA DUP2 PUSH2 0x28DE JUMP JUMPDEST SWAP1 POP PUSH2 0x6A8 JUMP JUMPDEST POP POP POP POP POP JUMP JUMPDEST PUSH1 0x0 DUP1 PUSH2 0x703 PUSH2 0x1356 JUMP JUMPDEST PUSH1 0x1 PUSH1 0x1 PUSH1 0x40 SHL SUB SWAP4 DUP5 AND PUSH1 0x0 SWAP1 DUP2 MSTORE PUSH1 0x1 SWAP2 DUP3 ADD PUSH1 0x20 MSTORE PUSH1 0x40 SWAP1 KECCAK256 ADD SLOAD PUSH1 0x1 PUSH1 0x40 SHL SWAP1 DIV SWAP1 SWAP3 AND SWAP3 SWAP2 POP POP JUMP JUMPDEST PUSH1 0x0 DUP1 PUSH2 0x73C PUSH2 0x1356 JUMP JUMPDEST PUSH1 0x1 PUSH1 0x1 PUSH1 0x40 SHL SUB DUP5 AND PUSH1 0x0 SWAP1 DUP2 MSTORE PUSH1 0x1 DUP3 DUP2 ADD PUSH1 0x20 MSTORE PUSH1 0x40 SWAP1 SWAP2 KECCAK256 ADD SLOAD SWAP1 SWAP2 POP PUSH2 0x776 SWAP1 PUSH1 0x1 PUSH1 0x80 SHL SWAP1 DIV PUSH1 0x1 PUSH1 0x1 PUSH1 0x70 SHL SUB AND PUSH2 0x137A JUMP JUMPDEST SWAP4 SWAP3 POP POP POP JUMP JUMPDEST PUSH2 0x785 PUSH2 0x124D JUMP JUMPDEST PUSH2 0x78F DUP3 DUP3 PUSH2 0x1399 JUMP JUMPDEST POP POP JUMP JUMPDEST PUSH2 0x79B PUSH2 0x124D JUMP JUMPDEST PUSH1 0x40 MLOAD PUSH4 0x7A9E5E4B PUSH1 0xE0 SHL DUP2 MSTORE PUSH1 0x1 PUSH1 0x1 PUSH1 0xA0 SHL SUB DUP3 DUP2 AND PUSH1 0x4 DUP4 ADD MSTORE DUP4 AND SWAP1 PUSH4 0x7A9E5E4B SWAP1 PUSH1 0x24 ADD PUSH1 0x0 PUSH1 0x40 MLOAD DUP1 DUP4 SUB DUP2 PUSH1 0x0 DUP8 DUP1 EXTCODESIZE ISZERO DUP1 ISZERO PUSH2 0x7DE JUMPI PUSH1 0x0 DUP1 REVERT JUMPDEST POP GAS CALL ISZERO DUP1 ISZERO PUSH2 0x7F2 JUMPI RETURNDATASIZE PUSH1 0x0 DUP1 RETURNDATACOPY RETURNDATASIZE PUSH1 0x0 REVERT JUMPDEST POP POP POP POP POP POP JUMP JUMPDEST PUSH1 0x0 DUP1 PUSH2 0x805 PUSH2 0x1356 JUMP JUMPDEST SWAP1 POP CALLER PUSH1 0x0 DUP1 PUSH2 0x817 DUP4 DUP10 DUP10 DUP10 PUSH2 0x143F JUMP JUMPDEST SWAP2 POP SWAP2 POP DUP2 ISZERO DUP1 ISZERO PUSH2 0x82D JUMPI POP PUSH4 0xFFFFFFFF DUP2 AND ISZERO JUMPDEST ISZERO PUSH2 0x880 JUMPI DUP3 DUP9 PUSH2 0x83E DUP10 DUP10 PUSH2 0x1492 JUMP JUMPDEST PUSH1 0x40 MLOAD PUSH4 0x81C6F24B PUSH1 0xE0 SHL DUP2 MSTORE PUSH1 0x1 PUSH1 0x1 PUSH1 0xA0 SHL SUB SWAP4 DUP5 AND PUSH1 0x4 DUP3 ADD MSTORE SWAP3 SWAP1 SWAP2 AND PUSH1 0x24 DUP4 ADD MSTORE PUSH1 0x1 PUSH1 0x1 PUSH1 0xE0 SHL SUB NOT AND PUSH1 0x44 DUP3 ADD MSTORE PUSH1 0x64 ADD JUMPDEST PUSH1 0x40 MLOAD DUP1 SWAP2 SUB SWAP1 REVERT JUMPDEST PUSH1 0x0 PUSH2 0x88E DUP5 DUP11 DUP11 DUP11 PUSH2 0xCB4 JUMP JUMPDEST SWAP1 POP PUSH1 0x0 PUSH4 0xFFFFFFFF DUP4 AND ISZERO ISZERO DUP1 PUSH2 0x8B5 JUMPI POP PUSH2 0x8AA DUP3 PUSH2 0x9EB JUMP JUMPDEST PUSH6 0xFFFFFFFFFFFF AND ISZERO ISZERO JUMPDEST ISZERO PUSH2 0x8C6 JUMPI PUSH2 0x8C3 DUP3 PUSH2 0x14AA JUMP JUMPDEST SWAP1 POP JUMPDEST PUSH1 0x3 DUP7 ADD SLOAD PUSH2 0x8DE DUP12 PUSH2 0x8D9 DUP13 DUP13 PUSH2 0x1492 JUMP JUMPDEST PUSH2 0x15BE JUMP JUMPDEST DUP8 PUSH1 0x3 ADD DUP2 SWAP1 SSTORE POP PUSH2 0x928 DUP12 DUP12 DUP12 DUP1 DUP1 PUSH1 0x1F ADD PUSH1 0x20 DUP1 SWAP2 DIV MUL PUSH1 0x20 ADD PUSH1 0x40 MLOAD SWAP1 DUP2 ADD PUSH1 0x40 MSTORE DUP1 SWAP4 SWAP3 SWAP2 SWAP1 DUP2 DUP2 MSTORE PUSH1 0x20 ADD DUP4 DUP4 DUP1 DUP3 DUP5 CALLDATACOPY PUSH1 0x0 SWAP3 ADD SWAP2 SWAP1 SWAP2 MSTORE POP CALLVALUE SWAP3 POP PUSH2 0x1600 SWAP2 POP POP JUMP JUMPDEST POP PUSH1 0x3 SWAP1 SWAP7 ADD SWAP6 SWAP1 SWAP6 SSTORE POP SWAP3 SWAP4 POP POP POP POP SWAP4 SWAP3 POP POP POP JUMP JUMPDEST PUSH2 0x948 PUSH2 0x124D JUMP JUMPDEST PUSH2 0x95C DUP4 DUP4 PUSH2 0x956 DUP7 PUSH2 0x731 JUMP JUMPDEST DUP5 PUSH2 0x169D JUMP JUMPDEST POP POP POP POP JUMP JUMPDEST PUSH1 0x0 DUP1 PUSH1 0x0 DUP1 PUSH1 0x0 PUSH2 0x972 PUSH2 0x1356 JUMP JUMPDEST PUSH1 0x1 PUSH1 0x1 PUSH1 0x40 SHL SUB DUP9 AND PUSH1 0x0 SWAP1 DUP2 MSTORE PUSH1 0x1 DUP3 ADD PUSH1 0x20 SWAP1 DUP2 MSTORE PUSH1 0x40 DUP1 DUP4 KECCAK256 PUSH1 0x1 PUSH1 0x1 PUSH1 0xA0 SHL SUB DUP12 AND DUP5 MSTORE SWAP1 SWAP2 MSTORE SWAP1 KECCAK256 DUP1 SLOAD PUSH6 0xFFFFFFFFFFFF DUP2 AND SWAP8 POP SWAP2 SWAP3 POP SWAP1 PUSH2 0x9CA SWAP1 PUSH1 0x1 PUSH1 0x30 SHL SWAP1 DIV PUSH1 0x1 PUSH1 0x1 PUSH1 0x70 SHL SUB AND PUSH2 0x18FC JUMP JUMPDEST SWAP8 SWAP11 SWAP2 SWAP10 POP SWAP8 POP SWAP5 POP POP POP POP POP JUMP JUMPDEST PUSH2 0x9E1 PUSH2 0x124D JUMP JUMPDEST PUSH2 0x78F DUP3 DUP3 PUSH2 0x191F JUMP JUMPDEST PUSH1 0x0 DUP1 PUSH2 0x9F6 PUSH2 0x1356 JUMP JUMPDEST PUSH1 0x0 DUP5 DUP2 MSTORE PUSH1 0x2 DUP3 ADD PUSH1 0x20 MSTORE PUSH1 0x40 SWAP1 KECCAK256 SLOAD SWAP1 SWAP2 POP PUSH6 0xFFFFFFFFFFFF AND PUSH2 0xA1B DUP2 PUSH2 0x19D1 JUMP JUMPDEST PUSH2 0xA25 JUMPI DUP1 PUSH2 0xA28 JUMP JUMPDEST PUSH1 0x0 JUMPDEST SWAP5 SWAP4 POP POP POP POP JUMP JUMPDEST PUSH1 0x0 DUP1 PUSH2 0xA3B PUSH2 0x1356 JUMP JUMPDEST PUSH1 0x0 SWAP4 DUP5 MSTORE PUSH1 0x2 ADD PUSH1 0x20 MSTORE POP POP PUSH1 0x40 SWAP1 KECCAK256 SLOAD PUSH1 0x1 PUSH1 0x30 SHL SWAP1 DIV PUSH4 0xFFFFFFFF AND SWAP1 JUMP JUMPDEST PUSH1 0x0 DUP1 PUSH2 0xA68 PUSH2 0x1356 JUMP JUMPDEST PUSH1 0x1 PUSH1 0x1 PUSH1 0xA0 SHL SUB DUP5 AND PUSH1 0x0 SWAP1 DUP2 MSTORE PUSH1 0x20 DUP3 SWAP1 MSTORE PUSH1 0x40 SWAP1 KECCAK256 PUSH1 0x1 ADD SLOAD SWAP1 SWAP2 POP PUSH2 0x776 SWAP1 PUSH1 0x1 PUSH1 0x1 PUSH1 0x70 SHL SUB AND PUSH2 0x137A JUMP JUMPDEST PUSH2 0xAA1 PUSH2 0x124D JUMP JUMPDEST PUSH2 0x78F DUP3 DUP3 PUSH2 0x1A00 JUMP JUMPDEST PUSH1 0x0 DUP1 PUSH2 0xAB6 PUSH2 0x1356 JUMP JUMPDEST PUSH1 0x1 PUSH1 0x1 PUSH1 0x40 SHL SUB SWAP4 DUP5 AND PUSH1 0x0 SWAP1 DUP2 MSTORE PUSH1 0x1 SWAP2 DUP3 ADD PUSH1 0x20 MSTORE PUSH1 0x40 SWAP1 KECCAK256 ADD SLOAD SWAP1 SWAP3 AND SWAP3 SWAP2 POP POP JUMP JUMPDEST PUSH1 0x0 DUP1 PUSH2 0xAE8 PUSH2 0x1356 JUMP JUMPDEST PUSH1 0x1 PUSH1 0x1 PUSH1 0xA0 SHL SUB DUP6 AND PUSH1 0x0 SWAP1 DUP2 MSTORE PUSH1 0x20 SWAP2 DUP3 MSTORE PUSH1 0x40 DUP1 DUP3 KECCAK256 PUSH1 0x1 PUSH1 0x1 PUSH1 0xE0 SHL SUB NOT DUP8 AND DUP4 MSTORE SWAP1 SWAP3 MSTORE KECCAK256 SLOAD PUSH1 0x1 PUSH1 0x1 PUSH1 0x40 SHL SUB AND SWAP2 POP POP JUMPDEST SWAP3 SWAP2 POP POP JUMP JUMPDEST PUSH2 0xB2E PUSH2 0x124D JUMP JUMPDEST PUSH1 0x1 PUSH1 0x1 PUSH1 0x40 SHL SUB DUP4 AND ISZERO DUP1 PUSH2 0xB4C JUMPI POP PUSH1 0x1 PUSH1 0x1 PUSH1 0x40 SHL SUB DUP4 DUP2 AND EQ JUMPDEST ISZERO PUSH2 0xB75 JUMPI PUSH1 0x40 MLOAD PUSH4 0x61C6A43 PUSH1 0xE2 SHL DUP2 MSTORE PUSH1 0x1 PUSH1 0x1 PUSH1 0x40 SHL SUB DUP5 AND PUSH1 0x4 DUP3 ADD MSTORE PUSH1 0x24 ADD PUSH2 0x877 JUMP JUMPDEST DUP3 PUSH1 0x1 PUSH1 0x1 PUSH1 0x40 SHL SUB AND PUSH32 0x1256F5B5ECB89CAEC12DB449738F2FBCD1BA5806CF38F35413F4E5C15BF6A450 DUP4 DUP4 PUSH1 0x40 MLOAD PUSH2 0xBB0 SWAP3 SWAP2 SWAP1 PUSH2 0x2920 JUMP JUMPDEST PUSH1 0x40 MLOAD DUP1 SWAP2 SUB SWAP1 LOG2 POP POP POP JUMP JUMPDEST PUSH1 0x40 DUP1 MLOAD PUSH4 0x8FB36037 PUSH1 0xE0 SHL DUP1 DUP3 MSTORE SWAP2 MLOAD CALLER SWAP3 SWAP2 DUP4 SWAP2 PUSH4 0x8FB36037 SWAP2 PUSH1 0x4 DUP1 DUP3 ADD SWAP3 PUSH1 0x20 SWAP3 SWAP1 SWAP2 SWAP1 DUP3 SWAP1 SUB ADD DUP2 DUP7 GAS STATICCALL ISZERO DUP1 ISZERO PUSH2 0xBFE JUMPI RETURNDATASIZE PUSH1 0x0 DUP1 RETURNDATACOPY RETURNDATASIZE PUSH1 0x0 REVERT JUMPDEST POP POP POP POP PUSH1 0x40 MLOAD RETURNDATASIZE PUSH1 0x1F NOT PUSH1 0x1F DUP3 ADD AND DUP3 ADD DUP1 PUSH1 0x40 MSTORE POP DUP2 ADD SWAP1 PUSH2 0xC22 SWAP2 SWAP1 PUSH2 0x2934 JUMP JUMPDEST PUSH1 0x1 PUSH1 0x1 PUSH1 0xE0 SHL SUB NOT AND EQ PUSH2 0xC55 JUMPI PUSH1 0x40 MLOAD PUSH4 0x641FEE9 PUSH1 0xE3 SHL DUP2 MSTORE PUSH1 0x1 PUSH1 0x1 PUSH1 0xA0 SHL SUB DUP3 AND PUSH1 0x4 DUP3 ADD MSTORE PUSH1 0x24 ADD PUSH2 0x877 JUMP JUMPDEST PUSH2 0x6F1 PUSH2 0xC64 DUP6 DUP4 DUP7 DUP7 PUSH2 0xCB4 JUMP JUMPDEST PUSH2 0x14AA JUMP JUMPDEST PUSH1 0x0 DUP1 PUSH2 0xC74 PUSH2 0x1356 JUMP JUMPDEST PUSH1 0x1 PUSH1 0x1 PUSH1 0xA0 SHL SUB SWAP1 SWAP4 AND PUSH1 0x0 SWAP1 DUP2 MSTORE PUSH1 0x20 SWAP4 SWAP1 SWAP4 MSTORE POP POP PUSH1 0x40 SWAP1 KECCAK256 PUSH1 0x1 ADD SLOAD PUSH1 0xFF PUSH1 0x1 PUSH1 0x70 SHL SWAP1 SWAP2 DIV AND SWAP1 JUMP JUMPDEST PUSH2 0xCAA PUSH2 0x124D JUMP JUMPDEST PUSH2 0x78F DUP3 DUP3 PUSH2 0x1AC0 JUMP JUMPDEST PUSH1 0x0 DUP5 DUP5 DUP5 DUP5 PUSH1 0x40 MLOAD PUSH1 0x20 ADD PUSH2 0xCCD SWAP5 SWAP4 SWAP3 SWAP2 SWAP1 PUSH2 0x2951 JUMP JUMPDEST PUSH1 0x40 MLOAD PUSH1 0x20 DUP2 DUP4 SUB SUB DUP2 MSTORE SWAP1 PUSH1 0x40 MSTORE DUP1 MLOAD SWAP1 PUSH1 0x20 ADD KECCAK256 SWAP1 POP SWAP5 SWAP4 POP POP POP POP JUMP JUMPDEST PUSH1 0x60 DUP2 PUSH1 0x1 PUSH1 0x1 PUSH1 0x40 SHL SUB DUP2 GT ISZERO PUSH2 0xD07 JUMPI PUSH2 0xD07 PUSH2 0x297E JUMP JUMPDEST PUSH1 0x40 MLOAD SWAP1 DUP1 DUP3 MSTORE DUP1 PUSH1 0x20 MUL PUSH1 0x20 ADD DUP3 ADD PUSH1 0x40 MSTORE DUP1 ISZERO PUSH2 0xD3A JUMPI DUP2 PUSH1 0x20 ADD JUMPDEST PUSH1 0x60 DUP2 MSTORE PUSH1 0x20 ADD SWAP1 PUSH1 0x1 SWAP1 SUB SWAP1 DUP2 PUSH2 0xD25 JUMPI SWAP1 POP JUMPDEST POP SWAP1 POP PUSH1 0x0 JUMPDEST DUP3 DUP2 LT ISZERO PUSH2 0xDDA JUMPI PUSH2 0xDAA ADDRESS DUP6 DUP6 DUP5 DUP2 DUP2 LT PUSH2 0xD5E JUMPI PUSH2 0xD5E PUSH2 0x2895 JUMP JUMPDEST SWAP1 POP PUSH1 0x20 MUL DUP2 ADD SWAP1 PUSH2 0xD70 SWAP2 SWAP1 PUSH2 0x2994 JUMP JUMPDEST DUP1 DUP1 PUSH1 0x1F ADD PUSH1 0x20 DUP1 SWAP2 DIV MUL PUSH1 0x20 ADD PUSH1 0x40 MLOAD SWAP1 DUP2 ADD PUSH1 0x40 MSTORE DUP1 SWAP4 SWAP3 SWAP2 SWAP1 DUP2 DUP2 MSTORE PUSH1 0x20 ADD DUP4 DUP4 DUP1 DUP3 DUP5 CALLDATACOPY PUSH1 0x0 SWAP3 ADD SWAP2 SWAP1 SWAP2 MSTORE POP PUSH2 0x1BED SWAP3 POP POP POP JUMP JUMPDEST DUP3 DUP3 DUP2 MLOAD DUP2 LT PUSH2 0xDBC JUMPI PUSH2 0xDBC PUSH2 0x2895 JUMP JUMPDEST PUSH1 0x20 MUL PUSH1 0x20 ADD ADD DUP2 SWAP1 MSTORE POP DUP1 DUP1 PUSH2 0xDD2 SWAP1 PUSH2 0x28DE JUMP JUMPDEST SWAP2 POP POP PUSH2 0xD40 JUMP JUMPDEST POP SWAP3 SWAP2 POP POP JUMP JUMPDEST PUSH1 0x0 DUP1 PUSH2 0xDED DUP5 PUSH2 0xC69 JUMP JUMPDEST ISZERO PUSH2 0xDFD JUMPI POP PUSH1 0x0 SWAP1 POP DUP1 PUSH2 0xE60 JUMP JUMPDEST ADDRESS PUSH1 0x1 PUSH1 0x1 PUSH1 0xA0 SHL SUB DUP7 AND SUB PUSH2 0xE22 JUMPI PUSH2 0xE17 DUP5 DUP5 PUSH2 0x1C63 JUMP JUMPDEST PUSH1 0x0 SWAP2 POP SWAP2 POP PUSH2 0xE60 JUMP JUMPDEST PUSH1 0x0 PUSH2 0xE2E DUP6 DUP6 PUSH2 0xADD JUMP JUMPDEST SWAP1 POP PUSH1 0x0 DUP1 PUSH2 0xE3D DUP4 DUP10 PUSH2 0xE7F JUMP JUMPDEST SWAP2 POP SWAP2 POP DUP2 PUSH2 0xE4E JUMPI PUSH1 0x0 DUP1 PUSH2 0xE58 JUMP JUMPDEST PUSH4 0xFFFFFFFF DUP2 AND ISZERO DUP2 JUMPDEST SWAP5 POP SWAP5 POP POP POP POP JUMPDEST SWAP4 POP SWAP4 SWAP2 POP POP JUMP JUMPDEST PUSH2 0xE70 PUSH2 0x124D JUMP JUMPDEST PUSH2 0xE7A DUP3 DUP3 PUSH2 0x1C88 JUMP JUMPDEST POP POP POP JUMP JUMPDEST PUSH1 0x0 DUP1 PUSH8 0xFFFFFFFFFFFFFFFE NOT PUSH1 0x1 PUSH1 0x1 PUSH1 0x40 SHL SUB DUP6 AND ADD PUSH2 0xEA7 JUMPI POP PUSH1 0x1 SWAP1 POP PUSH1 0x0 PUSH2 0xEF5 JUMP JUMPDEST PUSH1 0x0 DUP1 PUSH2 0xEB4 DUP7 DUP7 PUSH2 0x962 JUMP JUMPDEST POP POP SWAP2 POP SWAP2 POP DUP2 PUSH6 0xFFFFFFFFFFFF AND PUSH1 0x0 EQ ISZERO DUP1 ISZERO PUSH2 0xEEA JUMPI POP PUSH2 0xED6 PUSH2 0x1D87 JUMP JUMPDEST PUSH6 0xFFFFFFFFFFFF AND DUP3 PUSH6 0xFFFFFFFFFFFF AND GT ISZERO JUMPDEST SWAP4 POP SWAP2 POP PUSH2 0xEF5 SWAP1 POP JUMP JUMPDEST SWAP3 POP SWAP3 SWAP1 POP JUMP JUMPDEST PUSH2 0xF04 PUSH2 0x124D JUMP JUMPDEST PUSH2 0x78F DUP3 DUP3 PUSH2 0x1D97 JUMP JUMPDEST PUSH1 0x0 DUP1 PUSH2 0xF19 PUSH2 0x1356 JUMP JUMPDEST SWAP1 POP CALLER PUSH1 0x0 PUSH2 0xF28 DUP7 DUP7 PUSH2 0x1492 JUMP JUMPDEST SWAP1 POP PUSH1 0x0 PUSH2 0xF38 DUP10 DUP10 DUP10 DUP10 PUSH2 0xCB4 JUMP JUMPDEST PUSH1 0x0 DUP2 DUP2 MSTORE PUSH1 0x2 DUP7 ADD PUSH1 0x20 MSTORE PUSH1 0x40 DUP2 KECCAK256 SLOAD SWAP2 SWAP3 POP PUSH6 0xFFFFFFFFFFFF SWAP1 SWAP2 AND SWAP1 SUB PUSH2 0xF78 JUMPI PUSH1 0x40 MLOAD PUSH4 0x60A299B PUSH1 0xE4 SHL DUP2 MSTORE PUSH1 0x4 DUP2 ADD DUP3 SWAP1 MSTORE PUSH1 0x24 ADD PUSH2 0x877 JUMP JUMPDEST DUP3 PUSH1 0x1 PUSH1 0x1 PUSH1 0xA0 SHL SUB AND DUP10 PUSH1 0x1 PUSH1 0x1 PUSH1 0xA0 SHL SUB AND EQ PUSH2 0x1014 JUMPI PUSH1 0x0 PUSH2 0xF9E PUSH1 0x0 DUP6 PUSH2 0xE7F JUMP JUMPDEST POP SWAP1 POP PUSH1 0x0 PUSH2 0xFB9 PUSH2 0xFB3 PUSH2 0x225 DUP13 DUP8 PUSH2 0xADD JUMP JUMPDEST DUP7 PUSH2 0xE7F JUMP JUMPDEST POP SWAP1 POP DUP2 ISZERO DUP1 ISZERO PUSH2 0xFC8 JUMPI POP DUP1 ISZERO JUMPDEST ISZERO PUSH2 0x1011 JUMPI PUSH1 0x40 MLOAD PUSH4 0xFF89D47 PUSH1 0xE2 SHL DUP2 MSTORE PUSH1 0x1 PUSH1 0x1 PUSH1 0xA0 SHL SUB DUP1 DUP8 AND PUSH1 0x4 DUP4 ADD MSTORE DUP1 DUP14 AND PUSH1 0x24 DUP4 ADD MSTORE DUP12 AND PUSH1 0x44 DUP3 ADD MSTORE PUSH1 0x1 PUSH1 0x1 PUSH1 0xE0 SHL SUB NOT DUP6 AND PUSH1 0x64 DUP3 ADD MSTORE PUSH1 0x84 ADD PUSH2 0x877 JUMP JUMPDEST POP POP JUMPDEST PUSH1 0x0 DUP2 DUP2 MSTORE PUSH1 0x2 DUP6 ADD PUSH1 0x20 MSTORE PUSH1 0x40 DUP1 DUP3 KECCAK256 DUP1 SLOAD PUSH6 0xFFFFFFFFFFFF NOT AND SWAP1 DUP2 SWAP1 SSTORE SWAP1 MLOAD PUSH1 0x1 PUSH1 0x30 SHL SWAP1 SWAP2 DIV PUSH4 0xFFFFFFFF AND SWAP2 DUP3 SWAP2 DUP5 SWAP2 PUSH32 0xBD9AC67A6E2F6463B80927326310338BCBB4BDB7936CE1365EA3E01067E7B9F7 SWAP2 LOG3 SWAP10 SWAP9 POP POP POP POP POP POP POP POP POP JUMP JUMPDEST PUSH1 0x0 DUP1 PUSH1 0x0 PUSH2 0x1086 PUSH2 0x1356 JUMP JUMPDEST SWAP1 POP CALLER PUSH1 0x0 PUSH2 0x1097 DUP3 DUP11 DUP11 DUP11 PUSH2 0x143F JUMP JUMPDEST SWAP2 POP POP PUSH1 0x0 DUP2 PUSH4 0xFFFFFFFF AND PUSH2 0x10AB PUSH2 0x1D87 JUMP JUMPDEST PUSH2 0x10B5 SWAP2 SWAP1 PUSH2 0x29DA JUMP JUMPDEST SWAP1 POP PUSH4 0xFFFFFFFF DUP3 AND ISZERO DUP1 PUSH2 0x10EC JUMPI POP PUSH1 0x0 DUP8 PUSH6 0xFFFFFFFFFFFF AND GT DUP1 ISZERO PUSH2 0x10EC JUMPI POP DUP1 PUSH6 0xFFFFFFFFFFFF AND DUP8 PUSH6 0xFFFFFFFFFFFF AND LT JUMPDEST ISZERO PUSH2 0x10FD JUMPI DUP3 DUP11 PUSH2 0x83E DUP12 DUP12 PUSH2 0x1492 JUMP JUMPDEST PUSH2 0x1117 DUP8 PUSH6 0xFFFFFFFFFFFF AND DUP3 PUSH6 0xFFFFFFFFFFFF AND PUSH2 0x1E63 JUMP JUMPDEST SWAP7 POP PUSH2 0x1125 DUP4 DUP12 DUP12 DUP12 PUSH2 0xCB4 JUMP JUMPDEST SWAP6 POP PUSH2 0x1130 DUP7 PUSH2 0x1E79 JUMP JUMPDEST DUP4 PUSH1 0x2 ADD PUSH1 0x0 DUP8 DUP2 MSTORE PUSH1 0x20 ADD SWAP1 DUP2 MSTORE PUSH1 0x20 ADD PUSH1 0x0 KECCAK256 PUSH1 0x0 ADD PUSH1 0x6 SWAP1 SLOAD SWAP1 PUSH2 0x100 EXP SWAP1 DIV PUSH4 0xFFFFFFFF AND PUSH1 0x1 ADD SWAP5 POP DUP7 DUP5 PUSH1 0x2 ADD PUSH1 0x0 DUP9 DUP2 MSTORE PUSH1 0x20 ADD SWAP1 DUP2 MSTORE PUSH1 0x20 ADD PUSH1 0x0 KECCAK256 PUSH1 0x0 ADD PUSH1 0x0 PUSH2 0x100 EXP DUP2 SLOAD DUP2 PUSH6 0xFFFFFFFFFFFF MUL NOT AND SWAP1 DUP4 PUSH6 0xFFFFFFFFFFFF AND MUL OR SWAP1 SSTORE POP DUP5 DUP5 PUSH1 0x2 ADD PUSH1 0x0 DUP9 DUP2 MSTORE PUSH1 0x20 ADD SWAP1 DUP2 MSTORE PUSH1 0x20 ADD PUSH1 0x0 KECCAK256 PUSH1 0x0 ADD PUSH1 0x6 PUSH2 0x100 EXP DUP2 SLOAD DUP2 PUSH4 0xFFFFFFFF MUL NOT AND SWAP1 DUP4 PUSH4 0xFFFFFFFF AND MUL OR SWAP1 SSTORE POP DUP5 PUSH4 0xFFFFFFFF AND DUP7 PUSH32 0x82A2DA5DEE54EA8021C6545B4444620291E07EE83BE6DD57EDB175062715F3B4 DUP10 DUP7 DUP15 DUP15 DUP15 PUSH1 0x40 MLOAD PUSH2 0x120F SWAP6 SWAP5 SWAP4 SWAP3 SWAP2 SWAP1 PUSH2 0x29F9 JUMP JUMPDEST PUSH1 0x40 MLOAD DUP1 SWAP2 SUB SWAP1 LOG3 POP POP POP POP SWAP5 POP SWAP5 SWAP3 POP POP POP JUMP JUMPDEST PUSH1 0x1 PUSH1 0x1 PUSH1 0xA0 SHL SUB DUP2 AND CALLER EQ PUSH2 0xE70 JUMPI PUSH1 0x40 MLOAD PUSH4 0x5F159E63 PUSH1 0xE0 SHL DUP2 MSTORE PUSH1 0x4 ADD PUSH1 0x40 MLOAD DUP1 SWAP2 SUB SWAP1 REVERT JUMPDEST CALLER PUSH1 0x0 DUP1 PUSH2 0x125C DUP4 DUP3 CALLDATASIZE PUSH2 0x1ED5 JUMP JUMPDEST SWAP2 POP SWAP2 POP DUP2 PUSH2 0xE7A JUMPI DUP1 PUSH4 0xFFFFFFFF AND PUSH1 0x0 SUB PUSH2 0x12B8 JUMPI PUSH1 0x0 PUSH2 0x127F DUP2 CALLDATASIZE PUSH2 0x1F8D JUMP JUMPDEST POP PUSH1 0x40 MLOAD PUSH4 0xF07E038F PUSH1 0xE0 SHL DUP2 MSTORE PUSH1 0x1 PUSH1 0x1 PUSH1 0xA0 SHL SUB DUP8 AND PUSH1 0x4 DUP3 ADD MSTORE PUSH1 0x1 PUSH1 0x1 PUSH1 0x40 SHL SUB DUP3 AND PUSH1 0x24 DUP3 ADD MSTORE SWAP1 SWAP3 POP PUSH1 0x44 ADD SWAP1 POP PUSH2 0x877 JUMP JUMPDEST PUSH2 0x95C PUSH2 0xC64 DUP5 ADDRESS PUSH1 0x0 CALLDATASIZE PUSH2 0xCB4 JUMP JUMPDEST PUSH1 0x0 PUSH2 0x12D2 PUSH2 0x1356 JUMP JUMPDEST PUSH1 0x1 PUSH1 0x1 PUSH1 0xA0 SHL SUB DUP6 AND PUSH1 0x0 DUP2 DUP2 MSTORE PUSH1 0x20 DUP4 DUP2 MSTORE PUSH1 0x40 DUP1 DUP4 KECCAK256 PUSH1 0x1 PUSH1 0x1 PUSH1 0xE0 SHL SUB NOT DUP10 AND DUP1 DUP6 MSTORE SWAP1 DUP4 MSTORE SWAP3 DUP2 SWAP1 KECCAK256 DUP1 SLOAD PUSH8 0xFFFFFFFFFFFFFFFF NOT AND PUSH1 0x1 PUSH1 0x1 PUSH1 0x40 SHL SUB DUP10 AND SWAP1 DUP2 OR SWAP1 SWAP2 SSTORE SWAP1 MLOAD SWAP3 DUP4 MSTORE SWAP4 SWAP5 POP PUSH32 0x9EA6790C7DADFD01C9F8B9762B3682607AF2C7E79E05A9F9FDF5580DDE949151 SWAP2 ADD PUSH1 0x40 MLOAD DUP1 SWAP2 SUB SWAP1 LOG3 POP POP POP POP JUMP JUMPDEST PUSH32 0x40C6C8C28789853C7EFD823AB20824BBD71718A8A5915E855F6F288C9A26AD00 SWAP1 JUMP JUMPDEST PUSH1 0x0 DUP1 PUSH2 0x138F DUP4 PUSH1 0x1 PUSH1 0x1 PUSH1 0x70 SHL SUB AND PUSH2 0x18FC JUMP JUMPDEST POP SWAP1 SWAP5 SWAP4 POP POP POP POP JUMP JUMPDEST PUSH1 0x0 PUSH2 0x13A3 PUSH2 0x1356 JUMP JUMPDEST SWAP1 POP ADDRESS PUSH1 0x1 PUSH1 0x1 PUSH1 0xA0 SHL SUB DUP5 AND SUB PUSH2 0x13D9 JUMPI PUSH1 0x40 MLOAD PUSH4 0xB40D179 PUSH1 0xE3 SHL DUP2 MSTORE PUSH1 0x1 PUSH1 0x1 PUSH1 0xA0 SHL SUB DUP5 AND PUSH1 0x4 DUP3 ADD MSTORE PUSH1 0x24 ADD PUSH2 0x877 JUMP JUMPDEST PUSH1 0x1 PUSH1 0x1 PUSH1 0xA0 SHL SUB DUP4 AND PUSH1 0x0 DUP2 DUP2 MSTORE PUSH1 0x20 DUP4 SWAP1 MSTORE PUSH1 0x40 SWAP1 DUP2 SWAP1 KECCAK256 PUSH1 0x1 ADD DUP1 SLOAD DUP6 ISZERO ISZERO PUSH1 0x1 PUSH1 0x70 SHL MUL PUSH1 0xFF PUSH1 0x70 SHL NOT SWAP1 SWAP2 AND OR SWAP1 SSTORE MLOAD PUSH32 0x90D4E7BB7E5D933792B3562E1741306F8BE94837E1348DACEF9B6F1DF56EB138 SWAP1 PUSH2 0xBB0 SWAP1 DUP6 ISZERO ISZERO DUP2 MSTORE PUSH1 0x20 ADD SWAP1 JUMP JUMPDEST PUSH1 0x0 DUP1 ADDRESS PUSH1 0x1 PUSH1 0x1 PUSH1 0xA0 SHL SUB DUP7 AND SUB PUSH2 0x1466 JUMPI PUSH2 0x145D DUP7 DUP6 DUP6 PUSH2 0x1ED5 JUMP JUMPDEST SWAP2 POP SWAP2 POP PUSH2 0x1489 JUMP JUMPDEST PUSH1 0x4 DUP4 LT PUSH2 0x1482 JUMPI PUSH2 0x147D DUP7 DUP7 PUSH2 0x58C DUP8 DUP8 PUSH2 0x1492 JUMP JUMPDEST PUSH2 0x145D JUMP JUMPDEST POP PUSH1 0x0 SWAP1 POP DUP1 JUMPDEST SWAP5 POP SWAP5 SWAP3 POP POP POP JUMP JUMPDEST PUSH1 0x0 PUSH2 0x14A1 PUSH1 0x4 DUP3 DUP5 DUP7 PUSH2 0x2A3F JUMP JUMPDEST PUSH2 0x776 SWAP2 PUSH2 0x2A69 JUMP JUMPDEST PUSH1 0x0 DUP1 PUSH2 0x14B5 PUSH2 0x1356 JUMP JUMPDEST PUSH1 0x0 DUP5 DUP2 MSTORE PUSH1 0x2 DUP3 ADD PUSH1 0x20 MSTORE PUSH1 0x40 DUP2 KECCAK256 SLOAD SWAP2 SWAP3 POP PUSH6 0xFFFFFFFFFFFF DUP3 AND SWAP2 PUSH1 0x1 PUSH1 0x30 SHL SWAP1 DIV PUSH4 0xFFFFFFFF AND SWAP1 DUP3 SWAP1 SUB PUSH2 0x1504 JUMPI PUSH1 0x40 MLOAD PUSH4 0x60A299B PUSH1 0xE4 SHL DUP2 MSTORE PUSH1 0x4 DUP2 ADD DUP7 SWAP1 MSTORE PUSH1 0x24 ADD PUSH2 0x877 JUMP JUMPDEST PUSH2 0x150C PUSH2 0x1D87 JUMP JUMPDEST PUSH6 0xFFFFFFFFFFFF AND DUP3 PUSH6 0xFFFFFFFFFFFF AND GT ISZERO PUSH2 0x153F JUMPI PUSH1 0x40 MLOAD PUSH4 0xC65B5BD PUSH1 0xE1 SHL DUP2 MSTORE PUSH1 0x4 DUP2 ADD DUP7 SWAP1 MSTORE PUSH1 0x24 ADD PUSH2 0x877 JUMP JUMPDEST PUSH2 0x1548 DUP3 PUSH2 0x19D1 JUMP JUMPDEST ISZERO PUSH2 0x1569 JUMPI PUSH1 0x40 MLOAD PUSH4 0x1E2975B9 PUSH1 0xE2 SHL DUP2 MSTORE PUSH1 0x4 DUP2 ADD DUP7 SWAP1 MSTORE PUSH1 0x24 ADD PUSH2 0x877 JUMP JUMPDEST PUSH1 0x0 DUP6 DUP2 MSTORE PUSH1 0x2 DUP5 ADD PUSH1 0x20 MSTORE PUSH1 0x40 DUP1 DUP3 KECCAK256 DUP1 SLOAD PUSH6 0xFFFFFFFFFFFF NOT AND SWAP1 SSTORE MLOAD PUSH4 0xFFFFFFFF DUP4 AND SWAP2 DUP8 SWAP2 PUSH32 0x76A2A46953689D4861A5D3F6ED883AD7E6AF674A21F8E162707159FC9DDE614D SWAP2 SWAP1 LOG3 SWAP5 SWAP4 POP POP POP POP JUMP JUMPDEST PUSH1 0x40 DUP1 MLOAD PUSH1 0x1 PUSH1 0x1 PUSH1 0xA0 SHL SUB SWAP4 SWAP1 SWAP4 AND PUSH1 0x20 DUP1 DUP6 ADD SWAP2 SWAP1 SWAP2 MSTORE PUSH1 0x1 PUSH1 0x1 PUSH1 0xE0 SHL SUB NOT SWAP3 SWAP1 SWAP3 AND DUP4 DUP3 ADD MSTORE DUP1 MLOAD DUP1 DUP5 SUB DUP3 ADD DUP2 MSTORE PUSH1 0x60 SWAP1 SWAP4 ADD SWAP1 MSTORE DUP2 MLOAD SWAP2 ADD KECCAK256 SWAP1 JUMP JUMPDEST PUSH1 0x60 DUP2 SELFBALANCE LT ISZERO PUSH2 0x1625 JUMPI PUSH1 0x40 MLOAD PUSH4 0xCD786059 PUSH1 0xE0 SHL DUP2 MSTORE ADDRESS PUSH1 0x4 DUP3 ADD MSTORE PUSH1 0x24 ADD PUSH2 0x877 JUMP JUMPDEST PUSH1 0x0 DUP1 DUP6 PUSH1 0x1 PUSH1 0x1 PUSH1 0xA0 SHL SUB AND DUP5 DUP7 PUSH1 0x40 MLOAD PUSH2 0x1641 SWAP2 SWAP1 PUSH2 0x2A99 JUMP JUMPDEST PUSH1 0x0 PUSH1 0x40 MLOAD DUP1 DUP4 SUB DUP2 DUP6 DUP8 GAS CALL SWAP3 POP POP POP RETURNDATASIZE DUP1 PUSH1 0x0 DUP2 EQ PUSH2 0x167E JUMPI PUSH1 0x40 MLOAD SWAP2 POP PUSH1 0x1F NOT PUSH1 0x3F RETURNDATASIZE ADD AND DUP3 ADD PUSH1 0x40 MSTORE RETURNDATASIZE DUP3 MSTORE RETURNDATASIZE PUSH1 0x0 PUSH1 0x20 DUP5 ADD RETURNDATACOPY PUSH2 0x1683 JUMP JUMPDEST PUSH1 0x60 SWAP2 POP JUMPDEST POP SWAP2 POP SWAP2 POP PUSH2 0x1693 DUP7 DUP4 DUP4 PUSH2 0x2159 JUMP JUMPDEST SWAP7 SWAP6 POP POP POP POP POP POP JUMP JUMPDEST PUSH1 0x0 DUP1 PUSH2 0x16A8 PUSH2 0x1356 JUMP JUMPDEST SWAP1 POP PUSH8 0xFFFFFFFFFFFFFFFE NOT PUSH1 0x1 PUSH1 0x1 PUSH1 0x40 SHL SUB DUP8 AND ADD PUSH2 0x16E7 JUMPI PUSH1 0x40 MLOAD PUSH4 0x61C6A43 PUSH1 0xE2 SHL DUP2 MSTORE PUSH1 0x1 PUSH1 0x1 PUSH1 0x40 SHL SUB DUP8 AND PUSH1 0x4 DUP3 ADD MSTORE PUSH1 0x24 ADD PUSH2 0x877 JUMP JUMPDEST PUSH1 0x1 PUSH1 0x1 PUSH1 0x40 SHL SUB DUP7 AND PUSH1 0x0 SWAP1 DUP2 MSTORE PUSH1 0x1 DUP3 ADD PUSH1 0x20 SWAP1 DUP2 MSTORE PUSH1 0x40 DUP1 DUP4 KECCAK256 PUSH1 0x1 PUSH1 0x1 PUSH1 0xA0 SHL SUB DUP10 AND DUP5 MSTORE SWAP1 SWAP2 MSTORE DUP2 KECCAK256 SLOAD PUSH6 0xFFFFFFFFFFFF AND ISZERO SWAP1 DUP2 ISZERO PUSH2 0x17DD JUMPI DUP6 PUSH4 0xFFFFFFFF AND PUSH2 0x1735 PUSH2 0x1D87 JUMP JUMPDEST PUSH2 0x173F SWAP2 SWAP1 PUSH2 0x29DA JUMP JUMPDEST SWAP1 POP PUSH1 0x40 MLOAD DUP1 PUSH1 0x40 ADD PUSH1 0x40 MSTORE DUP1 DUP3 PUSH6 0xFFFFFFFFFFFF AND DUP2 MSTORE PUSH1 0x20 ADD PUSH2 0x176D DUP8 PUSH4 0xFFFFFFFF AND PUSH4 0xFFFFFFFF AND SWAP1 JUMP JUMPDEST PUSH1 0x1 PUSH1 0x1 PUSH1 0x70 SHL SUB SWAP1 DUP2 AND SWAP1 SWAP2 MSTORE PUSH1 0x1 PUSH1 0x1 PUSH1 0x40 SHL SUB DUP11 AND PUSH1 0x0 SWAP1 DUP2 MSTORE PUSH1 0x1 DUP7 ADD PUSH1 0x20 SWAP1 DUP2 MSTORE PUSH1 0x40 DUP1 DUP4 KECCAK256 PUSH1 0x1 PUSH1 0x1 PUSH1 0xA0 SHL SUB DUP14 AND DUP5 MSTORE DUP3 MSTORE SWAP1 SWAP2 KECCAK256 DUP4 MLOAD DUP2 SLOAD SWAP5 SWAP1 SWAP3 ADD MLOAD SWAP1 SWAP3 AND PUSH1 0x1 PUSH1 0x30 SHL MUL PUSH1 0x1 PUSH1 0x1 PUSH1 0xA0 SHL SUB NOT SWAP1 SWAP4 AND PUSH6 0xFFFFFFFFFFFF SWAP1 SWAP2 AND OR SWAP2 SWAP1 SWAP2 OR SWAP1 SSTORE PUSH2 0x188D JUMP JUMPDEST PUSH1 0x1 PUSH1 0x1 PUSH1 0x40 SHL SUB DUP9 AND PUSH1 0x0 SWAP1 DUP2 MSTORE PUSH1 0x1 DUP5 ADD PUSH1 0x20 SWAP1 DUP2 MSTORE PUSH1 0x40 DUP1 DUP4 KECCAK256 PUSH1 0x1 PUSH1 0x1 PUSH1 0xA0 SHL SUB DUP12 AND DUP5 MSTORE SWAP1 SWAP2 MSTORE DUP2 KECCAK256 SLOAD PUSH2 0x1829 SWAP2 PUSH1 0x1 PUSH1 0x30 SHL SWAP1 SWAP2 DIV PUSH1 0x1 PUSH1 0x1 PUSH1 0x70 SHL SUB AND SWAP1 DUP8 SWAP1 PUSH2 0x21B5 JUMP JUMPDEST PUSH1 0x1 PUSH1 0x1 PUSH1 0x40 SHL SUB DUP11 AND PUSH1 0x0 SWAP1 DUP2 MSTORE PUSH1 0x1 DUP7 ADD PUSH1 0x20 SWAP1 DUP2 MSTORE PUSH1 0x40 DUP1 DUP4 KECCAK256 PUSH1 0x1 PUSH1 0x1 PUSH1 0xA0 SHL SUB DUP14 AND DUP5 MSTORE SWAP1 SWAP2 MSTORE SWAP1 KECCAK256 DUP1 SLOAD PUSH1 0x1 PUSH1 0x1 PUSH1 0x70 SHL SUB SWAP1 SWAP4 AND PUSH1 0x1 PUSH1 0x30 SHL MUL PUSH20 0xFFFFFFFFFFFFFFFFFFFFFFFFFFFF000000000000 NOT SWAP1 SWAP4 AND SWAP3 SWAP1 SWAP3 OR SWAP1 SWAP2 SSTORE SWAP1 POP JUMPDEST PUSH1 0x40 DUP1 MLOAD PUSH4 0xFFFFFFFF DUP8 AND DUP2 MSTORE PUSH6 0xFFFFFFFFFFFF DUP4 AND PUSH1 0x20 DUP3 ADD MSTORE DUP4 ISZERO ISZERO DUP2 DUP4 ADD MSTORE SWAP1 MLOAD PUSH1 0x1 PUSH1 0x1 PUSH1 0xA0 SHL SUB DUP10 AND SWAP2 PUSH1 0x1 PUSH1 0x1 PUSH1 0x40 SHL SUB DUP12 AND SWAP2 PUSH32 0xF98448B987F1428E0E230E1F3C6E2CE15B5693EAF31827FBD0B1EC4B424AE7CF SWAP2 DUP2 SWAP1 SUB PUSH1 0x60 ADD SWAP1 LOG3 POP SWAP7 SWAP6 POP POP POP POP POP POP JUMP JUMPDEST PUSH1 0x0 DUP1 PUSH1 0x0 PUSH2 0x1912 DUP5 PUSH2 0x190D PUSH2 0x1D87 JUMP JUMPDEST PUSH2 0x225F JUMP JUMPDEST SWAP3 POP SWAP3 POP SWAP3 POP SWAP2 SWAP4 SWAP1 SWAP3 POP JUMP JUMPDEST PUSH1 0x0 PUSH2 0x1929 PUSH2 0x1356 JUMP JUMPDEST SWAP1 POP PUSH1 0x1 PUSH1 0x1 PUSH1 0x40 SHL SUB DUP4 AND ISZERO DUP1 PUSH2 0x1949 JUMPI POP PUSH1 0x1 PUSH1 0x1 PUSH1 0x40 SHL SUB DUP4 DUP2 AND EQ JUMPDEST ISZERO PUSH2 0x1972 JUMPI PUSH1 0x40 MLOAD PUSH4 0x61C6A43 PUSH1 0xE2 SHL DUP2 MSTORE PUSH1 0x1 PUSH1 0x1 PUSH1 0x40 SHL SUB DUP5 AND PUSH1 0x4 DUP3 ADD MSTORE PUSH1 0x24 ADD PUSH2 0x877 JUMP JUMPDEST PUSH1 0x1 PUSH1 0x1 PUSH1 0x40 SHL SUB DUP4 DUP2 AND PUSH1 0x0 DUP2 DUP2 MSTORE PUSH1 0x1 DUP5 DUP2 ADD PUSH1 0x20 MSTORE PUSH1 0x40 DUP1 DUP4 KECCAK256 SWAP1 SWAP2 ADD DUP1 SLOAD PUSH8 0xFFFFFFFFFFFFFFFF NOT AND SWAP5 DUP8 AND SWAP5 DUP6 OR SWAP1 SSTORE MLOAD PUSH32 0x1FD6DD7631312DFAC2205B52913F99DE03B4D7E381D5D27D3DBFE0713E6E6340 SWAP2 SWAP1 LOG3 POP POP POP JUMP JUMPDEST PUSH1 0x0 PUSH2 0x19DB PUSH2 0x1D87 JUMP JUMPDEST PUSH6 0xFFFFFFFFFFFF AND PUSH2 0x19F0 PUSH3 0x93A80 DUP5 PUSH2 0x29DA JUMP JUMPDEST PUSH6 0xFFFFFFFFFFFF AND GT ISZERO SWAP3 SWAP2 POP POP JUMP JUMPDEST PUSH1 0x0 PUSH2 0x1A0A PUSH2 0x1356 JUMP JUMPDEST SWAP1 POP PUSH1 0x1 PUSH1 0x1 PUSH1 0x40 SHL SUB DUP4 AND ISZERO DUP1 PUSH2 0x1A2A JUMPI POP PUSH1 0x1 PUSH1 0x1 PUSH1 0x40 SHL SUB DUP4 DUP2 AND EQ JUMPDEST ISZERO PUSH2 0x1A53 JUMPI PUSH1 0x40 MLOAD PUSH4 0x61C6A43 PUSH1 0xE2 SHL DUP2 MSTORE PUSH1 0x1 PUSH1 0x1 PUSH1 0x40 SHL SUB DUP5 AND PUSH1 0x4 DUP3 ADD MSTORE PUSH1 0x24 ADD PUSH2 0x877 JUMP JUMPDEST PUSH1 0x1 PUSH1 0x1 PUSH1 0x40 SHL SUB DUP4 DUP2 AND PUSH1 0x0 DUP2 DUP2 MSTORE PUSH1 0x1 DUP5 DUP2 ADD PUSH1 0x20 MSTORE PUSH1 0x40 DUP1 DUP4 KECCAK256 SWAP1 SWAP2 ADD DUP1 SLOAD PUSH16 0xFFFFFFFFFFFFFFFF0000000000000000 NOT AND PUSH1 0x1 PUSH1 0x40 SHL SWAP6 DUP9 AND SWAP6 DUP7 MUL OR SWAP1 SSTORE MLOAD PUSH32 0x7A8059630B897B5DE4C08ADE69F8B90C3EAD1F8596D62D10B6C4D14A0AFB4AE2 SWAP2 SWAP1 LOG3 POP POP POP JUMP JUMPDEST PUSH1 0x0 PUSH2 0x1ACA PUSH2 0x1356 JUMP JUMPDEST SWAP1 POP PUSH8 0xFFFFFFFFFFFFFFFE NOT PUSH1 0x1 PUSH1 0x1 PUSH1 0x40 SHL SUB DUP5 AND ADD PUSH2 0x1B09 JUMPI PUSH1 0x40 MLOAD PUSH4 0x61C6A43 PUSH1 0xE2 SHL DUP2 MSTORE PUSH1 0x1 PUSH1 0x1 PUSH1 0x40 SHL SUB DUP5 AND PUSH1 0x4 DUP3 ADD MSTORE PUSH1 0x24 ADD PUSH2 0x877 JUMP JUMPDEST PUSH1 0x1 PUSH1 0x1 PUSH1 0x40 SHL SUB DUP4 AND PUSH1 0x0 SWAP1 DUP2 MSTORE PUSH1 0x1 DUP3 DUP2 ADD PUSH1 0x20 MSTORE PUSH1 0x40 DUP3 KECCAK256 ADD SLOAD PUSH2 0x1B44 SWAP1 PUSH1 0x1 PUSH1 0x80 SHL SWAP1 DIV PUSH1 0x1 PUSH1 0x1 PUSH1 0x70 SHL SUB AND DUP5 PUSH3 0x69780 PUSH2 0x21B5 JUMP JUMPDEST PUSH1 0x1 PUSH1 0x1 PUSH1 0x40 SHL SUB DUP7 AND PUSH1 0x0 DUP2 DUP2 MSTORE PUSH1 0x1 DUP1 DUP8 ADD PUSH1 0x20 MSTORE PUSH1 0x40 SWAP2 DUP3 SWAP1 KECCAK256 ADD DUP1 SLOAD PUSH1 0x1 PUSH1 0x1 PUSH1 0x70 SHL SUB SWAP1 SWAP6 AND PUSH1 0x1 PUSH1 0x80 SHL MUL PUSH14 0xFFFFFFFFFFFFFFFFFFFFFFFFFFFF PUSH1 0x80 SHL NOT SWAP1 SWAP6 AND SWAP5 SWAP1 SWAP5 OR SWAP1 SWAP4 SSTORE SWAP2 MLOAD SWAP1 SWAP3 POP PUSH32 0xFEB69018EE8B8FD50EA86348F1267D07673379F72CFFDECCEC63853EE8CE8B48 SWAP1 PUSH2 0x1BDF SWAP1 DUP7 SWAP1 DUP6 SWAP1 PUSH4 0xFFFFFFFF SWAP3 SWAP1 SWAP3 AND DUP3 MSTORE PUSH6 0xFFFFFFFFFFFF AND PUSH1 0x20 DUP3 ADD MSTORE PUSH1 0x40 ADD SWAP1 JUMP JUMPDEST PUSH1 0x40 MLOAD DUP1 SWAP2 SUB SWAP1 LOG2 POP POP POP POP JUMP JUMPDEST PUSH1 0x60 PUSH1 0x0 DUP1 DUP5 PUSH1 0x1 PUSH1 0x1 PUSH1 0xA0 SHL SUB AND DUP5 PUSH1 0x40 MLOAD PUSH2 0x1C0A SWAP2 SWAP1 PUSH2 0x2A99 JUMP JUMPDEST PUSH1 0x0 PUSH1 0x40 MLOAD DUP1 DUP4 SUB DUP2 DUP6 GAS DELEGATECALL SWAP2 POP POP RETURNDATASIZE DUP1 PUSH1 0x0 DUP2 EQ PUSH2 0x1C45 JUMPI PUSH1 0x40 MLOAD SWAP2 POP PUSH1 0x1F NOT PUSH1 0x3F RETURNDATASIZE ADD AND DUP3 ADD PUSH1 0x40 MSTORE RETURNDATASIZE DUP3 MSTORE RETURNDATASIZE PUSH1 0x0 PUSH1 0x20 DUP5 ADD RETURNDATACOPY PUSH2 0x1C4A JUMP JUMPDEST PUSH1 0x60 SWAP2 POP JUMPDEST POP SWAP2 POP SWAP2 POP PUSH2 0x1C5A DUP6 DUP4 DUP4 PUSH2 0x2159 JUMP JUMPDEST SWAP6 SWAP5 POP POP POP POP POP JUMP JUMPDEST PUSH1 0x0 DUP1 PUSH2 0x1C6E PUSH2 0x1356 JUMP JUMPDEST SWAP1 POP PUSH2 0x1C7A DUP5 DUP5 PUSH2 0x15BE JUMP JUMPDEST PUSH1 0x3 SWAP1 SWAP2 ADD SLOAD EQ SWAP4 SWAP3 POP POP POP JUMP JUMPDEST PUSH1 0x0 DUP1 PUSH2 0x1C93 PUSH2 0x1356 JUMP JUMPDEST SWAP1 POP PUSH8 0xFFFFFFFFFFFFFFFE NOT PUSH1 0x1 PUSH1 0x1 PUSH1 0x40 SHL SUB DUP6 AND ADD PUSH2 0x1CD2 JUMPI PUSH1 0x40 MLOAD PUSH4 0x61C6A43 PUSH1 0xE2 SHL DUP2 MSTORE PUSH1 0x1 PUSH1 0x1 PUSH1 0x40 SHL SUB DUP6 AND PUSH1 0x4 DUP3 ADD MSTORE PUSH1 0x24 ADD PUSH2 0x877 JUMP JUMPDEST PUSH1 0x1 PUSH1 0x1 PUSH1 0x40 SHL SUB DUP5 AND PUSH1 0x0 SWAP1 DUP2 MSTORE PUSH1 0x1 DUP3 ADD PUSH1 0x20 SWAP1 DUP2 MSTORE PUSH1 0x40 DUP1 DUP4 KECCAK256 PUSH1 0x1 PUSH1 0x1 PUSH1 0xA0 SHL SUB DUP8 AND DUP5 MSTORE SWAP1 SWAP2 MSTORE DUP2 KECCAK256 SLOAD PUSH6 0xFFFFFFFFFFFF AND SWAP1 SUB PUSH2 0x1D19 JUMPI PUSH1 0x0 SWAP2 POP POP PUSH2 0xB20 JUMP JUMPDEST PUSH1 0x1 PUSH1 0x1 PUSH1 0x40 SHL SUB DUP5 AND PUSH1 0x0 DUP2 DUP2 MSTORE PUSH1 0x1 DUP4 ADD PUSH1 0x20 SWAP1 DUP2 MSTORE PUSH1 0x40 DUP1 DUP4 KECCAK256 PUSH1 0x1 PUSH1 0x1 PUSH1 0xA0 SHL SUB DUP9 AND DUP1 DUP6 MSTORE SWAP3 MSTORE DUP1 DUP4 KECCAK256 DUP1 SLOAD PUSH1 0x1 PUSH1 0x1 PUSH1 0xA0 SHL SUB NOT AND SWAP1 SSTORE MLOAD SWAP1 SWAP3 SWAP2 PUSH32 0xF229BAA593AF28C41B1D16B748CD7688F0C83AAF92D4BE41C44005DEFE84C166 SWAP2 LOG3 POP PUSH1 0x1 SWAP4 SWAP3 POP POP POP JUMP JUMPDEST PUSH1 0x0 PUSH2 0x1D92 TIMESTAMP PUSH2 0x22B3 JUMP JUMPDEST SWAP1 POP SWAP1 JUMP JUMPDEST PUSH1 0x0 PUSH2 0x1DA1 PUSH2 0x1356 JUMP JUMPDEST SWAP1 POP PUSH1 0x0 PUSH2 0x1DD9 DUP4 PUSH3 0x69780 PUSH1 0x1 PUSH1 0x1 PUSH1 0xA0 SHL SUB DUP8 AND PUSH1 0x0 SWAP1 DUP2 MSTORE PUSH1 0x20 DUP7 SWAP1 MSTORE PUSH1 0x40 SWAP1 KECCAK256 PUSH1 0x1 ADD SLOAD PUSH1 0x1 PUSH1 0x1 PUSH1 0x70 SHL SUB AND SWAP2 SWAP1 PUSH2 0x21B5 JUMP JUMPDEST PUSH1 0x1 PUSH1 0x1 PUSH1 0xA0 SHL SUB DUP7 AND PUSH1 0x0 DUP2 DUP2 MSTORE PUSH1 0x20 DUP7 DUP2 MSTORE PUSH1 0x40 SWAP2 DUP3 SWAP1 KECCAK256 PUSH1 0x1 ADD DUP1 SLOAD PUSH14 0xFFFFFFFFFFFFFFFFFFFFFFFFFFFF NOT AND PUSH1 0x1 PUSH1 0x1 PUSH1 0x70 SHL SUB SWAP7 SWAP1 SWAP7 AND SWAP6 SWAP1 SWAP6 OR SWAP1 SWAP5 SSTORE DUP1 MLOAD PUSH4 0xFFFFFFFF DUP9 AND DUP2 MSTORE PUSH6 0xFFFFFFFFFFFF DUP5 AND SWAP5 DUP2 ADD SWAP5 SWAP1 SWAP5 MSTORE SWAP2 SWAP4 POP SWAP2 PUSH32 0xA56B76017453F399EC2327BA00375DBFB1FD070FF854341AD6191E6A2E2DE19C SWAP2 ADD PUSH2 0x1BDF JUMP JUMPDEST PUSH1 0x0 DUP2 DUP4 GT PUSH2 0x1E72 JUMPI DUP2 PUSH2 0x776 JUMP JUMPDEST POP SWAP1 SWAP2 SWAP1 POP JUMP JUMPDEST PUSH1 0x0 PUSH2 0x1E83 PUSH2 0x1356 JUMP JUMPDEST PUSH1 0x0 DUP4 DUP2 MSTORE PUSH1 0x2 DUP3 ADD PUSH1 0x20 MSTORE PUSH1 0x40 SWAP1 KECCAK256 SLOAD SWAP1 SWAP2 POP PUSH6 0xFFFFFFFFFFFF AND DUP1 ISZERO DUP1 ISZERO SWAP1 PUSH2 0x1EB4 JUMPI POP PUSH2 0x1EB2 DUP2 PUSH2 0x19D1 JUMP JUMPDEST ISZERO JUMPDEST ISZERO PUSH2 0xE7A JUMPI PUSH1 0x40 MLOAD PUSH4 0x813E9459 PUSH1 0xE0 SHL DUP2 MSTORE PUSH1 0x4 DUP2 ADD DUP5 SWAP1 MSTORE PUSH1 0x24 ADD PUSH2 0x877 JUMP JUMPDEST PUSH1 0x0 DUP1 PUSH1 0x4 DUP4 LT ISZERO PUSH2 0x1EEC JUMPI POP PUSH1 0x0 SWAP1 POP DUP1 PUSH2 0xE60 JUMP JUMPDEST ADDRESS PUSH1 0x1 PUSH1 0x1 PUSH1 0xA0 SHL SUB DUP7 AND SUB PUSH2 0x1F0F JUMPI PUSH2 0xE17 ADDRESS PUSH2 0x1F0A DUP7 DUP7 PUSH2 0x1492 JUMP JUMPDEST PUSH2 0x1C63 JUMP JUMPDEST PUSH1 0x0 DUP1 PUSH1 0x0 PUSH2 0x1F1E DUP8 DUP8 PUSH2 0x1F8D JUMP JUMPDEST SWAP3 POP SWAP3 POP SWAP3 POP DUP3 PUSH2 0x1F38 JUMPI PUSH1 0x0 DUP1 SWAP5 POP SWAP5 POP POP POP POP PUSH2 0xE60 JUMP JUMPDEST PUSH1 0x0 DUP1 PUSH2 0x1F45 DUP5 DUP12 PUSH2 0xE7F JUMP JUMPDEST SWAP2 POP SWAP2 POP DUP2 PUSH2 0x1F5F JUMPI PUSH1 0x0 DUP1 SWAP7 POP SWAP7 POP POP POP POP POP POP PUSH2 0xE60 JUMP JUMPDEST PUSH2 0x1F75 DUP4 PUSH4 0xFFFFFFFF AND DUP3 PUSH4 0xFFFFFFFF AND PUSH2 0x1E63 JUMP JUMPDEST PUSH4 0xFFFFFFFF DUP2 AND ISZERO SWAP12 SWAP1 SWAP11 POP SWAP9 POP POP POP POP POP POP POP POP POP JUMP JUMPDEST PUSH1 0x0 DUP1 DUP1 PUSH1 0x4 DUP5 LT ISZERO PUSH2 0x1FA8 JUMPI POP PUSH1 0x0 SWAP2 POP DUP2 SWAP1 POP DUP1 PUSH2 0x2152 JUMP JUMPDEST PUSH1 0x0 PUSH2 0x1FB4 DUP7 DUP7 PUSH2 0x1492 JUMP JUMPDEST SWAP1 POP PUSH1 0x1 PUSH1 0x1 PUSH1 0xE0 SHL SUB NOT DUP2 AND PUSH4 0x10A6AA37 PUSH1 0xE3 SHL EQ DUP1 PUSH2 0x1FE5 JUMPI POP PUSH1 0x1 PUSH1 0x1 PUSH1 0xE0 SHL SUB NOT DUP2 AND PUSH4 0x30CAE187 PUSH1 0xE0 SHL EQ JUMPDEST DUP1 PUSH2 0x2000 JUMPI POP PUSH1 0x1 PUSH1 0x1 PUSH1 0xE0 SHL SUB NOT DUP2 AND PUSH4 0x294B14A9 PUSH1 0xE1 SHL EQ JUMPDEST DUP1 PUSH2 0x201B JUMPI POP PUSH1 0x1 PUSH1 0x1 PUSH1 0xE0 SHL SUB NOT DUP2 AND PUSH4 0x5326CAE7 PUSH1 0xE1 SHL EQ JUMPDEST DUP1 PUSH2 0x2036 JUMPI POP PUSH1 0x1 PUSH1 0x1 PUSH1 0xE0 SHL SUB NOT DUP2 AND PUSH4 0xD22B5989 PUSH1 0xE0 SHL EQ JUMPDEST ISZERO PUSH2 0x204C JUMPI PUSH1 0x1 PUSH1 0x0 DUP1 SWAP4 POP SWAP4 POP SWAP4 POP POP PUSH2 0x2152 JUMP JUMPDEST PUSH1 0x1 PUSH1 0x1 PUSH1 0xE0 SHL SUB NOT DUP2 AND PUSH4 0x63FC60F PUSH1 0xE2 SHL EQ DUP1 PUSH2 0x207B JUMPI POP PUSH1 0x1 PUSH1 0x1 PUSH1 0xE0 SHL SUB NOT DUP2 AND PUSH4 0x167BD395 PUSH1 0xE0 SHL EQ JUMPDEST DUP1 PUSH2 0x2096 JUMPI POP PUSH1 0x1 PUSH1 0x1 PUSH1 0xE0 SHL SUB NOT DUP2 AND PUSH4 0x8D6122D PUSH1 0xE0 SHL EQ JUMPDEST ISZERO PUSH2 0x20D8 JUMPI PUSH1 0x0 PUSH2 0x20AB PUSH1 0x24 PUSH1 0x4 DUP9 DUP11 PUSH2 0x2A3F JUMP JUMPDEST DUP2 ADD SWAP1 PUSH2 0x20B8 SWAP2 SWAP1 PUSH2 0x25CE JUMP JUMPDEST SWAP1 POP PUSH1 0x0 PUSH2 0x20C5 DUP3 PUSH2 0xA5D JUMP JUMPDEST PUSH1 0x1 SWAP7 POP PUSH1 0x0 SWAP6 POP SWAP4 POP PUSH2 0x2152 SWAP3 POP POP POP JUMP JUMPDEST PUSH1 0x1 PUSH1 0x1 PUSH1 0xE0 SHL SUB NOT DUP2 AND PUSH4 0x12E238D PUSH1 0xE5 SHL EQ DUP1 PUSH2 0x2107 JUMPI POP PUSH1 0x1 PUSH1 0x1 PUSH1 0xE0 SHL SUB NOT DUP2 AND PUSH4 0x5BE958B1 PUSH1 0xE1 SHL EQ JUMPDEST ISZERO PUSH2 0x2145 JUMPI PUSH1 0x0 PUSH2 0x211C PUSH1 0x24 PUSH1 0x4 DUP9 DUP11 PUSH2 0x2A3F JUMP JUMPDEST DUP2 ADD SWAP1 PUSH2 0x2129 SWAP2 SWAP1 PUSH2 0x23F1 JUMP JUMPDEST SWAP1 POP PUSH1 0x1 PUSH2 0x2136 DUP3 PUSH2 0xAAB JUMP JUMPDEST PUSH1 0x0 SWAP5 POP SWAP5 POP SWAP5 POP POP POP PUSH2 0x2152 JUMP JUMPDEST PUSH1 0x0 DUP1 PUSH1 0x0 SWAP4 POP SWAP4 POP SWAP4 POP POP JUMPDEST SWAP3 POP SWAP3 POP SWAP3 JUMP JUMPDEST PUSH1 0x60 DUP3 PUSH2 0x216E JUMPI PUSH2 0x2169 DUP3 PUSH2 0x22EA JUMP JUMPDEST PUSH2 0x776 JUMP JUMPDEST DUP2 MLOAD ISZERO DUP1 ISZERO PUSH2 0x2185 JUMPI POP PUSH1 0x1 PUSH1 0x1 PUSH1 0xA0 SHL SUB DUP5 AND EXTCODESIZE ISZERO JUMPDEST ISZERO PUSH2 0x21AE JUMPI PUSH1 0x40 MLOAD PUSH4 0x9996B315 PUSH1 0xE0 SHL DUP2 MSTORE PUSH1 0x1 PUSH1 0x1 PUSH1 0xA0 SHL SUB DUP6 AND PUSH1 0x4 DUP3 ADD MSTORE PUSH1 0x24 ADD PUSH2 0x877 JUMP JUMPDEST POP DUP1 PUSH2 0x776 JUMP JUMPDEST PUSH1 0x0 DUP1 PUSH1 0x0 PUSH2 0x21CC DUP7 PUSH1 0x1 PUSH1 0x1 PUSH1 0x70 SHL SUB AND PUSH2 0x137A JUMP JUMPDEST SWAP1 POP PUSH1 0x0 PUSH2 0x2209 DUP6 PUSH4 0xFFFFFFFF AND DUP8 PUSH4 0xFFFFFFFF AND DUP5 PUSH4 0xFFFFFFFF AND GT PUSH2 0x21F4 JUMPI PUSH1 0x0 PUSH2 0x21FE JUMP JUMPDEST PUSH2 0x21FE DUP9 DUP6 PUSH2 0x2AB5 JUMP JUMPDEST PUSH4 0xFFFFFFFF AND PUSH2 0x1E63 JUMP JUMPDEST SWAP1 POP DUP1 PUSH4 0xFFFFFFFF AND PUSH2 0x221A PUSH2 0x1D87 JUMP JUMPDEST PUSH2 0x2224 SWAP2 SWAP1 PUSH2 0x29DA JUMP JUMPDEST SWAP3 POP PUSH4 0xFFFFFFFF DUP7 AND PUSH1 0x20 DUP4 SWAP1 SHL PUSH8 0xFFFFFFFF00000000 AND PUSH1 0x40 DUP6 SWAP1 SHL PUSH14 0xFFFFFFFFFFFF0000000000000000 AND OR OR SWAP4 POP POP POP SWAP4 POP SWAP4 SWAP2 POP POP JUMP JUMPDEST PUSH1 0x0 DUP1 DUP1 PUSH10 0xFFFFFFFFFFFFFFFFFFFF PUSH1 0x20 DUP7 SWAP1 SHR AND PUSH1 0x1 PUSH1 0x1 PUSH1 0x70 SHL SUB DUP7 AND PUSH6 0xFFFFFFFFFFFF PUSH1 0x40 DUP9 SWAP1 SHR DUP2 AND SWAP1 DUP8 AND DUP2 GT ISZERO PUSH2 0x229E JUMPI DUP3 DUP3 DUP3 PUSH2 0x22A3 JUMP JUMPDEST DUP2 PUSH1 0x0 DUP1 JUMPDEST SWAP6 POP SWAP6 POP SWAP6 POP POP POP POP SWAP3 POP SWAP3 POP SWAP3 JUMP JUMPDEST PUSH1 0x0 PUSH6 0xFFFFFFFFFFFF DUP3 GT ISZERO PUSH2 0x22E6 JUMPI PUSH1 0x40 MLOAD PUSH4 0x6DFCC65 PUSH1 0xE4 SHL DUP2 MSTORE PUSH1 0x30 PUSH1 0x4 DUP3 ADD MSTORE PUSH1 0x24 DUP2 ADD DUP4 SWAP1 MSTORE PUSH1 0x44 ADD PUSH2 0x877 JUMP JUMPDEST POP SWAP1 JUMP JUMPDEST DUP1 MLOAD ISZERO PUSH2 0x22FA JUMPI DUP1 MLOAD DUP1 DUP3 PUSH1 0x20 ADD REVERT JUMPDEST PUSH1 0x40 MLOAD PUSH4 0xA12F521 PUSH1 0xE1 SHL DUP2 MSTORE PUSH1 0x4 ADD PUSH1 0x40 MLOAD DUP1 SWAP2 SUB SWAP1 REVERT JUMPDEST POP JUMP JUMPDEST PUSH1 0x1 PUSH1 0x1 PUSH1 0xA0 SHL SUB DUP2 AND DUP2 EQ PUSH2 0x2313 JUMPI PUSH1 0x0 DUP1 REVERT JUMPDEST PUSH1 0x0 DUP1 DUP4 PUSH1 0x1F DUP5 ADD SLT PUSH2 0x233D JUMPI PUSH1 0x0 DUP1 REVERT JUMPDEST POP DUP2 CALLDATALOAD PUSH1 0x1 PUSH1 0x1 PUSH1 0x40 SHL SUB DUP2 GT ISZERO PUSH2 0x2354 JUMPI PUSH1 0x0 DUP1 REVERT JUMPDEST PUSH1 0x20 DUP4 ADD SWAP2 POP DUP4 PUSH1 0x20 DUP3 PUSH1 0x5 SHL DUP6 ADD ADD GT ISZERO PUSH2 0xEF5 JUMPI PUSH1 0x0 DUP1 REVERT JUMPDEST DUP1 CALLDATALOAD PUSH1 0x1 PUSH1 0x1 PUSH1 0x40 SHL SUB DUP2 AND DUP2 EQ PUSH2 0x2386 JUMPI PUSH1 0x0 DUP1 REVERT JUMPDEST SWAP2 SWAP1 POP JUMP JUMPDEST PUSH1 0x0 DUP1 PUSH1 0x0 DUP1 PUSH1 0x60 DUP6 DUP8 SUB SLT ISZERO PUSH2 0x23A1 JUMPI PUSH1 0x0 DUP1 REVERT JUMPDEST DUP5 CALLDATALOAD PUSH2 0x23AC DUP2 PUSH2 0x2316 JUMP JUMPDEST SWAP4 POP PUSH1 0x20 DUP6 ADD CALLDATALOAD PUSH1 0x1 PUSH1 0x1 PUSH1 0x40 SHL SUB DUP2 GT ISZERO PUSH2 0x23C7 JUMPI PUSH1 0x0 DUP1 REVERT JUMPDEST PUSH2 0x23D3 DUP8 DUP3 DUP9 ADD PUSH2 0x232B JUMP JUMPDEST SWAP1 SWAP5 POP SWAP3 POP PUSH2 0x23E6 SWAP1 POP PUSH1 0x40 DUP7 ADD PUSH2 0x236F JUMP JUMPDEST SWAP1 POP SWAP3 SWAP6 SWAP2 SWAP5 POP SWAP3 POP JUMP JUMPDEST PUSH1 0x0 PUSH1 0x20 DUP3 DUP5 SUB SLT ISZERO PUSH2 0x2403 JUMPI PUSH1 0x0 DUP1 REVERT JUMPDEST PUSH2 0x776 DUP3 PUSH2 0x236F JUMP JUMPDEST PUSH1 0x0 DUP1 PUSH1 0x40 DUP4 DUP6 SUB SLT ISZERO PUSH2 0x241F JUMPI PUSH1 0x0 DUP1 REVERT JUMPDEST DUP3 CALLDATALOAD PUSH2 0x242A DUP2 PUSH2 0x2316 JUMP JUMPDEST SWAP2 POP PUSH1 0x20 DUP4 ADD CALLDATALOAD DUP1 ISZERO ISZERO DUP2 EQ PUSH2 0x243F JUMPI PUSH1 0x0 DUP1 REVERT JUMPDEST DUP1 SWAP2 POP POP SWAP3 POP SWAP3 SWAP1 POP JUMP JUMPDEST PUSH1 0x0 DUP1 PUSH1 0x40 DUP4 DUP6 SUB SLT ISZERO PUSH2 0x245D JUMPI PUSH1 0x0 DUP1 REVERT JUMPDEST DUP3 CALLDATALOAD PUSH2 0x2468 DUP2 PUSH2 0x2316 JUMP JUMPDEST SWAP2 POP PUSH1 0x20 DUP4 ADD CALLDATALOAD PUSH2 0x243F DUP2 PUSH2 0x2316 JUMP JUMPDEST PUSH1 0x0 DUP1 DUP4 PUSH1 0x1F DUP5 ADD SLT PUSH2 0x248A JUMPI PUSH1 0x0 DUP1 REVERT JUMPDEST POP DUP2 CALLDATALOAD PUSH1 0x1 PUSH1 0x1 PUSH1 0x40 SHL SUB DUP2 GT ISZERO PUSH2 0x24A1 JUMPI PUSH1 0x0 DUP1 REVERT JUMPDEST PUSH1 0x20 DUP4 ADD SWAP2 POP DUP4 PUSH1 0x20 DUP3 DUP6 ADD ADD GT ISZERO PUSH2 0xEF5 JUMPI PUSH1 0x0 DUP1 REVERT JUMPDEST PUSH1 0x0 DUP1 PUSH1 0x0 PUSH1 0x40 DUP5 DUP7 SUB SLT ISZERO PUSH2 0x24CE JUMPI PUSH1 0x0 DUP1 REVERT JUMPDEST DUP4 CALLDATALOAD PUSH2 0x24D9 DUP2 PUSH2 0x2316 JUMP JUMPDEST SWAP3 POP PUSH1 0x20 DUP5 ADD CALLDATALOAD PUSH1 0x1 PUSH1 0x1 PUSH1 0x40 SHL SUB DUP2 GT ISZERO PUSH2 0x24F4 JUMPI PUSH1 0x0 DUP1 REVERT JUMPDEST PUSH2 0x2500 DUP7 DUP3 DUP8 ADD PUSH2 0x2478 JUMP JUMPDEST SWAP5 SWAP8 SWAP1 SWAP7 POP SWAP4 SWAP5 POP POP POP POP JUMP JUMPDEST DUP1 CALLDATALOAD PUSH4 0xFFFFFFFF DUP2 AND DUP2 EQ PUSH2 0x2386 JUMPI PUSH1 0x0 DUP1 REVERT JUMPDEST PUSH1 0x0 DUP1 PUSH1 0x0 PUSH1 0x60 DUP5 DUP7 SUB SLT ISZERO PUSH2 0x2536 JUMPI PUSH1 0x0 DUP1 REVERT JUMPDEST PUSH2 0x253F DUP5 PUSH2 0x236F JUMP JUMPDEST SWAP3 POP PUSH1 0x20 DUP5 ADD CALLDATALOAD PUSH2 0x254F DUP2 PUSH2 0x2316 JUMP JUMPDEST SWAP2 POP PUSH2 0x255D PUSH1 0x40 DUP6 ADD PUSH2 0x250D JUMP JUMPDEST SWAP1 POP SWAP3 POP SWAP3 POP SWAP3 JUMP JUMPDEST PUSH1 0x0 DUP1 PUSH1 0x40 DUP4 DUP6 SUB SLT ISZERO PUSH2 0x2579 JUMPI PUSH1 0x0 DUP1 REVERT JUMPDEST PUSH2 0x2468 DUP4 PUSH2 0x236F JUMP JUMPDEST PUSH1 0x0 DUP1 PUSH1 0x40 DUP4 DUP6 SUB SLT ISZERO PUSH2 0x2595 JUMPI PUSH1 0x0 DUP1 REVERT JUMPDEST PUSH2 0x259E DUP4 PUSH2 0x236F JUMP JUMPDEST SWAP2 POP PUSH2 0x25AC PUSH1 0x20 DUP5 ADD PUSH2 0x236F JUMP JUMPDEST SWAP1 POP SWAP3 POP SWAP3 SWAP1 POP JUMP JUMPDEST PUSH1 0x0 PUSH1 0x20 DUP3 DUP5 SUB SLT ISZERO PUSH2 0x25C7 JUMPI PUSH1 0x0 DUP1 REVERT JUMPDEST POP CALLDATALOAD SWAP2 SWAP1 POP JUMP JUMPDEST PUSH1 0x0 PUSH1 0x20 DUP3 DUP5 SUB SLT ISZERO PUSH2 0x25E0 JUMPI PUSH1 0x0 DUP1 REVERT JUMPDEST DUP2 CALLDATALOAD PUSH2 0x776 DUP2 PUSH2 0x2316 JUMP JUMPDEST PUSH1 0x1 PUSH1 0x1 PUSH1 0xE0 SHL SUB NOT DUP2 AND DUP2 EQ PUSH2 0x2313 JUMPI PUSH1 0x0 DUP1 REVERT JUMPDEST PUSH1 0x0 DUP1 PUSH1 0x40 DUP4 DUP6 SUB SLT ISZERO PUSH2 0x2614 JUMPI PUSH1 0x0 DUP1 REVERT JUMPDEST DUP3 CALLDATALOAD PUSH2 0x261F DUP2 PUSH2 0x2316 JUMP JUMPDEST SWAP2 POP PUSH1 0x20 DUP4 ADD CALLDATALOAD PUSH2 0x243F DUP2 PUSH2 0x25EB JUMP JUMPDEST PUSH1 0x0 DUP1 PUSH1 0x0 PUSH1 0x40 DUP5 DUP7 SUB SLT ISZERO PUSH2 0x2644 JUMPI PUSH1 0x0 DUP1 REVERT JUMPDEST PUSH2 0x24D9 DUP5 PUSH2 0x236F JUMP JUMPDEST PUSH1 0x0 DUP1 PUSH1 0x40 DUP4 DUP6 SUB SLT ISZERO PUSH2 0x2660 JUMPI PUSH1 0x0 DUP1 REVERT JUMPDEST PUSH2 0x2669 DUP4 PUSH2 0x236F JUMP JUMPDEST SWAP2 POP PUSH2 0x25AC PUSH1 0x20 DUP5 ADD PUSH2 0x250D JUMP JUMPDEST PUSH1 0x0 DUP1 PUSH1 0x0 DUP1 PUSH1 0x60 DUP6 DUP8 SUB SLT ISZERO PUSH2 0x268D JUMPI PUSH1 0x0 DUP1 REVERT JUMPDEST DUP5 CALLDATALOAD PUSH2 0x2698 DUP2 PUSH2 0x2316 JUMP JUMPDEST SWAP4 POP PUSH1 0x20 DUP6 ADD CALLDATALOAD PUSH2 0x26A8 DUP2 PUSH2 0x2316 JUMP JUMPDEST SWAP3 POP PUSH1 0x40 DUP6 ADD CALLDATALOAD PUSH1 0x1 PUSH1 0x1 PUSH1 0x40 SHL SUB DUP2 GT ISZERO PUSH2 0x26C3 JUMPI PUSH1 0x0 DUP1 REVERT JUMPDEST PUSH2 0x26CF DUP8 DUP3 DUP9 ADD PUSH2 0x2478 JUMP JUMPDEST SWAP6 SWAP9 SWAP5 SWAP8 POP SWAP6 POP POP POP POP JUMP JUMPDEST PUSH1 0x0 DUP1 PUSH1 0x20 DUP4 DUP6 SUB SLT ISZERO PUSH2 0x26EE JUMPI PUSH1 0x0 DUP1 REVERT JUMPDEST DUP3 CALLDATALOAD PUSH1 0x1 PUSH1 0x1 PUSH1 0x40 SHL SUB DUP2 GT ISZERO PUSH2 0x2704 JUMPI PUSH1 0x0 DUP1 REVERT JUMPDEST PUSH2 0x2710 DUP6 DUP3 DUP7 ADD PUSH2 0x232B JUMP JUMPDEST SWAP1 SWAP7 SWAP1 SWAP6 POP SWAP4 POP POP POP POP JUMP JUMPDEST PUSH1 0x0 JUMPDEST DUP4 DUP2 LT ISZERO PUSH2 0x2737 JUMPI DUP2 DUP2 ADD MLOAD DUP4 DUP3 ADD MSTORE PUSH1 0x20 ADD PUSH2 0x271F JUMP JUMPDEST POP POP PUSH1 0x0 SWAP2 ADD MSTORE JUMP JUMPDEST PUSH1 0x0 PUSH1 0x20 DUP1 DUP4 ADD DUP2 DUP5 MSTORE DUP1 DUP6 MLOAD DUP1 DUP4 MSTORE PUSH1 0x40 DUP7 ADD SWAP2 POP PUSH1 0x40 DUP2 PUSH1 0x5 SHL DUP8 ADD ADD SWAP3 POP DUP4 DUP8 ADD PUSH1 0x0 JUMPDEST DUP3 DUP2 LT ISZERO PUSH2 0x27AD JUMPI DUP8 DUP6 SUB PUSH1 0x3F NOT ADD DUP5 MSTORE DUP2 MLOAD DUP1 MLOAD DUP1 DUP8 MSTORE PUSH2 0x278E DUP2 DUP10 DUP10 ADD DUP11 DUP6 ADD PUSH2 0x271C JUMP JUMPDEST PUSH1 0x1F ADD PUSH1 0x1F NOT AND SWAP6 SWAP1 SWAP6 ADD DUP7 ADD SWAP5 POP SWAP3 DUP6 ADD SWAP3 SWAP1 DUP6 ADD SWAP1 PUSH1 0x1 ADD PUSH2 0x2767 JUMP JUMPDEST POP SWAP3 SWAP8 SWAP7 POP POP POP POP POP POP POP JUMP JUMPDEST PUSH1 0x0 DUP1 PUSH1 0x0 PUSH1 0x60 DUP5 DUP7 SUB SLT ISZERO PUSH2 0x27CF JUMPI PUSH1 0x0 DUP1 REVERT JUMPDEST DUP4 CALLDATALOAD PUSH2 0x27DA DUP2 PUSH2 0x2316 JUMP JUMPDEST SWAP3 POP PUSH1 0x20 DUP5 ADD CALLDATALOAD PUSH2 0x27EA DUP2 PUSH2 0x2316 JUMP JUMPDEST SWAP2 POP PUSH1 0x40 DUP5 ADD CALLDATALOAD PUSH2 0x27FA DUP2 PUSH2 0x25EB JUMP JUMPDEST DUP1 SWAP2 POP POP SWAP3 POP SWAP3 POP SWAP3 JUMP JUMPDEST PUSH1 0x0 DUP1 PUSH1 0x40 DUP4 DUP6 SUB SLT ISZERO PUSH2 0x2818 JUMPI PUSH1 0x0 DUP1 REVERT JUMPDEST DUP3 CALLDATALOAD PUSH2 0x2669 DUP2 PUSH2 0x2316 JUMP JUMPDEST PUSH1 0x0 DUP1 PUSH1 0x0 DUP1 PUSH1 0x60 DUP6 DUP8 SUB SLT ISZERO PUSH2 0x2839 JUMPI PUSH1 0x0 DUP1 REVERT JUMPDEST DUP5 CALLDATALOAD PUSH2 0x2844 DUP2 PUSH2 0x2316 JUMP JUMPDEST SWAP4 POP PUSH1 0x20 DUP6 ADD CALLDATALOAD PUSH1 0x1 PUSH1 0x1 PUSH1 0x40 SHL SUB DUP2 GT ISZERO PUSH2 0x285F JUMPI PUSH1 0x0 DUP1 REVERT JUMPDEST PUSH2 0x286B DUP8 DUP3 DUP9 ADD PUSH2 0x2478 JUMP JUMPDEST SWAP1 SWAP5 POP SWAP3 POP POP PUSH1 0x40 DUP6 ADD CALLDATALOAD PUSH6 0xFFFFFFFFFFFF DUP2 AND DUP2 EQ PUSH2 0x288A JUMPI PUSH1 0x0 DUP1 REVERT JUMPDEST SWAP4 SWAP7 SWAP3 SWAP6 POP SWAP1 SWAP4 POP POP JUMP JUMPDEST PUSH4 0x4E487B71 PUSH1 0xE0 SHL PUSH1 0x0 MSTORE PUSH1 0x32 PUSH1 0x4 MSTORE PUSH1 0x24 PUSH1 0x0 REVERT JUMPDEST PUSH1 0x0 PUSH1 0x20 DUP3 DUP5 SUB SLT ISZERO PUSH2 0x28BD JUMPI PUSH1 0x0 DUP1 REVERT JUMPDEST DUP2 CALLDATALOAD PUSH2 0x776 DUP2 PUSH2 0x25EB JUMP JUMPDEST PUSH4 0x4E487B71 PUSH1 0xE0 SHL PUSH1 0x0 MSTORE PUSH1 0x11 PUSH1 0x4 MSTORE PUSH1 0x24 PUSH1 0x0 REVERT JUMPDEST PUSH1 0x0 PUSH1 0x1 DUP3 ADD PUSH2 0x28F0 JUMPI PUSH2 0x28F0 PUSH2 0x28C8 JUMP JUMPDEST POP PUSH1 0x1 ADD SWAP1 JUMP JUMPDEST DUP2 DUP4 MSTORE DUP2 DUP2 PUSH1 0x20 DUP6 ADD CALLDATACOPY POP PUSH1 0x0 DUP3 DUP3 ADD PUSH1 0x20 SWAP1 DUP2 ADD SWAP2 SWAP1 SWAP2 MSTORE PUSH1 0x1F SWAP1 SWAP2 ADD PUSH1 0x1F NOT AND SWAP1 SWAP2 ADD ADD SWAP1 JUMP JUMPDEST PUSH1 0x20 DUP2 MSTORE PUSH1 0x0 PUSH2 0xA28 PUSH1 0x20 DUP4 ADD DUP5 DUP7 PUSH2 0x28F7 JUMP JUMPDEST PUSH1 0x0 PUSH1 0x20 DUP3 DUP5 SUB SLT ISZERO PUSH2 0x2946 JUMPI PUSH1 0x0 DUP1 REVERT JUMPDEST DUP2 MLOAD PUSH2 0x776 DUP2 PUSH2 0x25EB JUMP JUMPDEST PUSH1 0x1 PUSH1 0x1 PUSH1 0xA0 SHL SUB DUP6 DUP2 AND DUP3 MSTORE DUP5 AND PUSH1 0x20 DUP3 ADD MSTORE PUSH1 0x60 PUSH1 0x40 DUP3 ADD DUP2 SWAP1 MSTORE PUSH1 0x0 SWAP1 PUSH2 0x1693 SWAP1 DUP4 ADD DUP5 DUP7 PUSH2 0x28F7 JUMP JUMPDEST PUSH4 0x4E487B71 PUSH1 0xE0 SHL PUSH1 0x0 MSTORE PUSH1 0x41 PUSH1 0x4 MSTORE PUSH1 0x24 PUSH1 0x0 REVERT JUMPDEST PUSH1 0x0 DUP1 DUP4 CALLDATALOAD PUSH1 0x1E NOT DUP5 CALLDATASIZE SUB ADD DUP2 SLT PUSH2 0x29AB JUMPI PUSH1 0x0 DUP1 REVERT JUMPDEST DUP4 ADD DUP1 CALLDATALOAD SWAP2 POP PUSH1 0x1 PUSH1 0x1 PUSH1 0x40 SHL SUB DUP3 GT ISZERO PUSH2 0x29C5 JUMPI PUSH1 0x0 DUP1 REVERT JUMPDEST PUSH1 0x20 ADD SWAP2 POP CALLDATASIZE DUP2 SWAP1 SUB DUP3 SGT ISZERO PUSH2 0xEF5 JUMPI PUSH1 0x0 DUP1 REVERT JUMPDEST PUSH6 0xFFFFFFFFFFFF DUP2 DUP2 AND DUP4 DUP3 AND ADD SWAP1 DUP1 DUP3 GT ISZERO PUSH2 0xDDA JUMPI PUSH2 0xDDA PUSH2 0x28C8 JUMP JUMPDEST PUSH6 0xFFFFFFFFFFFF DUP7 AND DUP2 MSTORE PUSH1 0x1 PUSH1 0x1 PUSH1 0xA0 SHL SUB DUP6 DUP2 AND PUSH1 0x20 DUP4 ADD MSTORE DUP5 AND PUSH1 0x40 DUP3 ADD MSTORE PUSH1 0x80 PUSH1 0x60 DUP3 ADD DUP2 SWAP1 MSTORE PUSH1 0x0 SWAP1 PUSH2 0x2A34 SWAP1 DUP4 ADD DUP5 DUP7 PUSH2 0x28F7 JUMP JUMPDEST SWAP8 SWAP7 POP POP POP POP POP POP POP JUMP JUMPDEST PUSH1 0x0 DUP1 DUP6 DUP6 GT ISZERO PUSH2 0x2A4F JUMPI PUSH1 0x0 DUP1 REVERT JUMPDEST DUP4 DUP7 GT ISZERO PUSH2 0x2A5C JUMPI PUSH1 0x0 DUP1 REVERT JUMPDEST POP POP DUP3 ADD SWAP4 SWAP2 SWAP1 SWAP3 SUB SWAP2 POP JUMP JUMPDEST PUSH1 0x1 PUSH1 0x1 PUSH1 0xE0 SHL SUB NOT DUP2 CALLDATALOAD DUP2 DUP2 AND SWAP2 PUSH1 0x4 DUP6 LT ISZERO PUSH2 0x2A91 JUMPI DUP1 DUP2 DUP7 PUSH1 0x4 SUB PUSH1 0x3 SHL SHL DUP4 AND AND SWAP3 POP JUMPDEST POP POP SWAP3 SWAP2 POP POP JUMP JUMPDEST PUSH1 0x0 DUP3 MLOAD PUSH2 0x2AAB DUP2 DUP5 PUSH1 0x20 DUP8 ADD PUSH2 0x271C JUMP JUMPDEST SWAP2 SWAP1 SWAP2 ADD SWAP3 SWAP2 POP POP JUMP JUMPDEST PUSH4 0xFFFFFFFF DUP3 DUP2 AND DUP3 DUP3 AND SUB SWAP1 DUP1 DUP3 GT ISZERO PUSH2 0xDDA JUMPI PUSH2 0xDDA PUSH2 0x28C8 JUMP INVALID LOG2 PUSH5 0x6970667358 0x22 SLT KECCAK256 0xCB DUP14 SWAP15 PUSH25 0x1E4A1F57DFD3F54ACCBDE53ACC4CC6274E35D68BD009BE5781 SUB 0xC1 0xCB PUSH5 0x736F6C6343 STOP ADDMOD EQ STOP CALLER "},"methodIdentifiers":{"ADMIN_ROLE()":"75b238fc","PUBLIC_ROLE()":"3ca7c02a","canCall(address,address,bytes4)":"b7009613","cancel(address,address,bytes)":"d6bb62c6","consumeScheduledOp(address,bytes)":"94c7d7ee","execute(address,bytes)":"1cff79cd","expiration()":"4665096d","getAccess(uint64,address)":"3078f114","getNonce(bytes32)":"4136a33c","getRoleAdmin(uint64)":"530dd456","getRoleGrantDelay(uint64)":"12be8727","getRoleGuardian(uint64)":"0b0a93ba","getSchedule(bytes32)":"3adc277a","getTargetAdminDelay(address)":"4c1da1e2","getTargetFunctionRole(address,bytes4)":"6d5115bd","grantRole(uint64,address,uint32)":"25c471a0","hasRole(uint64,address)":"d1f856ee","hashOperation(address,address,bytes)":"abd9bd2a","isTargetClosed(address)":"a166aa89","labelRole(uint64,string)":"853551b8","minSetback()":"cc1b6c81","multicall(bytes[])":"ac9650d8","renounceRole(uint64,address)":"fe0776f5","revokeRole(uint64,address)":"b7d2b162","schedule(address,bytes,uint48)":"f801a698","setGrantDelay(uint64,uint32)":"a64d95ce","setRoleAdmin(uint64,uint64)":"30cae187","setRoleGuardian(uint64,uint64)":"52962952","setTargetAdminDelay(address,uint32)":"d22b5989","setTargetClosed(address,bool)":"167bd395","setTargetFunctionRole(address,bytes4[],uint64)":"08d6122d","updateAuthority(address,address)":"18ff183c"}},"storageLayout":{"storage":[],"types":null}}}}