{"contracts/DarkMarketAuction.sol":{"DarkMarketAuction":{"abi":[{"inputs":[],"stateMutability":"nonpayable","type":"constructor"},{"inputs":[{"internalType":"address","name":"authority","type":"address"}],"name":"AccessManagedInvalidAuthority","type":"error"},{"inputs":[{"internalType":"address","name":"caller","type":"address"},{"internalType":"uint32","name":"delay","type":"uint32"}],"name":"AccessManagedRequiredDelay","type":"error"},{"inputs":[{"internalType":"address","name":"caller","type":"address"}],"name":"AccessManagedUnauthorized","type":"error"},{"inputs":[{"internalType":"address","name":"target","type":"address"}],"name":"AddressEmptyCode","type":"error"},{"inputs":[{"internalType":"uint256","name":"now","type":"uint256"},{"internalType":"uint256","name":"endTime","type":"uint256"}],"name":"AuctionEnded","type":"error"},{"inputs":[],"name":"AuctionHasBids","type":"error"},{"inputs":[{"internalType":"uint256","name":"now","type":"uint256"},{"internalType":"uint256","name":"endTime","type":"uint256"}],"name":"AuctionNotEnded","type":"error"},{"inputs":[{"internalType":"uint256","name":"now","type":"uint256"},{"internalType":"uint256","name":"endTime","type":"uint256"}],"name":"AuctionNotStarted","type":"error"},{"inputs":[{"internalType":"uint256","name":"bidAmount","type":"uint256"},{"internalType":"uint256","name":"highestBid","type":"uint256"}],"name":"BidTooLow","type":"error"},{"inputs":[{"internalType":"uint256","name":"chainId","type":"uint256"}],"name":"ChainNotConfigured","type":"error"},{"inputs":[{"internalType":"address","name":"implementation","type":"address"}],"name":"ERC1967InvalidImplementation","type":"error"},{"inputs":[],"name":"ERC1967NonPayable","type":"error"},{"inputs":[],"name":"EnforcedPause","type":"error"},{"inputs":[],"name":"ExpectedPause","type":"error"},{"inputs":[],"name":"FailedInnerCall","type":"error"},{"inputs":[],"name":"FeeTokenNotConfigured","type":"error"},{"inputs":[{"internalType":"uint256","name":"incentiveAmount","type":"uint256"},{"internalType":"uint256","name":"maxIncentive","type":"uint256"}],"name":"IncentiveTooHigh","type":"error"},{"inputs":[{"internalType":"uint256","name":"count","type":"uint256"},{"internalType":"uint256","name":"max","type":"uint256"}],"name":"InvalidAAssetCount","type":"error"},{"inputs":[{"internalType":"uint256","name":"auctionId","type":"uint256"}],"name":"InvalidAuction","type":"error"},{"inputs":[{"internalType":"uint256","name":"duration","type":"uint256"},{"internalType":"uint256","name":"min","type":"uint256"},{"internalType":"uint256","name":"max","type":"uint256"}],"name":"InvalidAuctionDuration","type":"error"},{"inputs":[{"internalType":"uint256","name":"fee","type":"uint256"},{"internalType":"uint256","name":"max","type":"uint256"}],"name":"InvalidAuctionFeePercentage","type":"error"},{"inputs":[{"internalType":"uint32","name":"extraTime","type":"uint32"},{"internalType":"uint32","name":"max","type":"uint32"}],"name":"InvalidExtraTime","type":"error"},{"inputs":[],"name":"InvalidInitialization","type":"error"},{"inputs":[{"internalType":"uint256","name":"fee","type":"uint256"},{"internalType":"uint256","name":"max","type":"uint256"}],"name":"InvalidRoyaltyFeePercentage","type":"error"},{"inputs":[],"name":"NoFeesRemaining","type":"error"},{"inputs":[{"internalType":"address","name":"seller","type":"address"},{"internalType":"address","name":"msgSender","type":"address"}],"name":"NotAuctionSeller","type":"error"},{"inputs":[],"name":"NotInitializing","type":"error"},{"inputs":[],"name":"ReentrancyGuardReentrantCall","type":"error"},{"inputs":[{"internalType":"uint256","name":"chainId","type":"uint256"}],"name":"TreasuryNotConfigured","type":"error"},{"inputs":[],"name":"UUPSUnauthorizedCallContext","type":"error"},{"inputs":[{"internalType":"bytes32","name":"slot","type":"bytes32"}],"name":"UUPSUnsupportedProxiableUUID","type":"error"},{"anonymous":false,"inputs":[{"indexed":false,"internalType":"uint256","name":"auctionId","type":"uint256"}],"name":"AuctionCancelled","type":"event"},{"anonymous":false,"inputs":[{"indexed":false,"internalType":"uint256","name":"auctionId","type":"uint256"},{"indexed":false,"internalType":"uint256","name":"fee","type":"uint256"},{"indexed":false,"internalType":"address","name":"royaltyAddress","type":"address"},{"indexed":false,"internalType":"uint256","name":"royalty","type":"uint256"}],"name":"AuctionFinalized","type":"event"},{"anonymous":false,"inputs":[{"indexed":false,"internalType":"uint256","name":"auctionId","type":"uint256"},{"indexed":false,"internalType":"address","name":"seller","type":"address"},{"indexed":false,"internalType":"uint256","name":"startPrice","type":"uint256"},{"indexed":false,"internalType":"uint32","name":"endTime","type":"uint32"}],"name":"AuctionStarted","type":"event"},{"anonymous":false,"inputs":[{"indexed":false,"internalType":"address","name":"authority","type":"address"}],"name":"AuthorityUpdated","type":"event"},{"anonymous":false,"inputs":[{"indexed":false,"internalType":"uint256","name":"auctionId","type":"uint256"},{"indexed":false,"internalType":"address","name":"bidder","type":"address"},{"indexed":false,"internalType":"uint256","name":"amount","type":"uint256"},{"indexed":false,"internalType":"uint256","name":"incentive","type":"uint256"},{"indexed":false,"internalType":"uint32","name":"endTime","type":"uint32"}],"name":"BidPlaced","type":"event"},{"anonymous":false,"inputs":[{"indexed":false,"internalType":"uint256","name":"auctionId","type":"uint256"},{"indexed":false,"internalType":"address","name":"winner","type":"address"},{"indexed":false,"internalType":"uint256","name":"amount","type":"uint256"}],"name":"BidderFinalized","type":"event"},{"anonymous":false,"inputs":[{"indexed":false,"internalType":"uint32","name":"newExtraTime","type":"uint32"}],"name":"ExtraTimeUpdated","type":"event"},{"anonymous":false,"inputs":[{"indexed":true,"internalType":"address","name":"bidder","type":"address"},{"indexed":false,"internalType":"uint256","name":"amount","type":"uint256"}],"name":"IncentiveReceived","type":"event"},{"anonymous":false,"inputs":[{"indexed":false,"internalType":"uint64","name":"version","type":"uint64"}],"name":"Initialized","type":"event"},{"anonymous":false,"inputs":[{"indexed":false,"internalType":"uint32","name":"newMaxAssets","type":"uint32"}],"name":"MaxAssetsUpdated","type":"event"},{"anonymous":false,"inputs":[{"indexed":false,"internalType":"uint32","name":"newDuration","type":"uint32"}],"name":"MaxAuctionDurationUpdated","type":"event"},{"anonymous":false,"inputs":[{"indexed":false,"internalType":"uint16","name":"newIncentive","type":"uint16"}],"name":"MaxIncentiveUpdated","type":"event"},{"anonymous":false,"inputs":[{"indexed":false,"internalType":"uint32","name":"newMaxPmt","type":"uint32"}],"name":"MaxPaymentUpdated","type":"event"},{"anonymous":false,"inputs":[{"indexed":false,"internalType":"uint32","name":"newDuration","type":"uint32"}],"name":"MinAuctionDurationUpdated","type":"event"},{"anonymous":false,"inputs":[{"indexed":false,"internalType":"address","name":"account","type":"address"}],"name":"Paused","type":"event"},{"anonymous":false,"inputs":[{"indexed":false,"internalType":"uint256","name":"auctionId","type":"uint256"},{"indexed":false,"internalType":"address","name":"seller","type":"address"},{"indexed":false,"internalType":"uint256","name":"amount","type":"uint256"}],"name":"SellerFinalized","type":"event"},{"anonymous":false,"inputs":[{"indexed":false,"internalType":"address","name":"tokenAddress","type":"address"},{"indexed":false,"internalType":"address","name":"to","type":"address"},{"indexed":false,"internalType":"uint256","name":"tokenId","type":"uint256"}],"name":"TransferFailed","type":"event"},{"anonymous":false,"inputs":[{"indexed":false,"internalType":"address","name":"account","type":"address"}],"name":"Unpaused","type":"event"},{"anonymous":false,"inputs":[{"indexed":true,"internalType":"address","name":"implementation","type":"address"}],"name":"Upgraded","type":"event"},{"anonymous":false,"inputs":[{"indexed":false,"internalType":"uint32","name":"newWarmUp","type":"uint32"}],"name":"WarmUpTimeUpdated","type":"event"},{"inputs":[],"name":"UPGRADE_INTERFACE_VERSION","outputs":[{"internalType":"string","name":"","type":"string"}],"stateMutability":"view","type":"function"},{"inputs":[],"name":"authority","outputs":[{"internalType":"address","name":"","type":"address"}],"stateMutability":"view","type":"function"},{"inputs":[{"internalType":"uint256","name":"auctionId","type":"uint256"},{"internalType":"uint256","name":"bidAmount","type":"uint256"},{"internalType":"uint256","name":"incentiveAmount","type":"uint256"}],"name":"bid","outputs":[],"stateMutability":"nonpayable","type":"function"},{"inputs":[{"internalType":"uint256","name":"auctionId","type":"uint256"}],"name":"cancelAuction","outputs":[],"stateMutability":"nonpayable","type":"function"},{"inputs":[{"internalType":"uint256","name":"auctionId","type":"uint256"}],"name":"cancelSpecificAuction","outputs":[],"stateMutability":"nonpayable","type":"function"},{"inputs":[],"name":"extraTime","outputs":[{"internalType":"uint32","name":"","type":"uint32"}],"stateMutability":"view","type":"function"},{"inputs":[{"internalType":"uint256","name":"auctionId","type":"uint256"}],"name":"finalizeAuction","outputs":[],"stateMutability":"nonpayable","type":"function"},{"inputs":[{"internalType":"uint256","name":"auctionId","type":"uint256"}],"name":"getAuctionDetails","outputs":[{"internalType":"address","name":"seller","type":"address"},{"internalType":"uint32","name":"startTime","type":"uint32"},{"internalType":"uint32","name":"endTime","type":"uint32"},{"internalType":"address","name":"highestBidder","type":"address"},{"internalType":"uint256","name":"highestBid","type":"uint256"},{"internalType":"uint256","name":"bidderIncentive","type":"uint256"},{"internalType":"enum IDarkMarketAuctionStructures.AuctionStatus","name":"status","type":"uint8"},{"internalType":"address","name":"bidTokenAddress","type":"address"},{"internalType":"uint256","name":"totalIncentives","type":"uint256"}],"stateMutability":"view","type":"function"},{"inputs":[{"internalType":"uint256","name":"auctionId","type":"uint256"}],"name":"getAuctionEndTime","outputs":[{"internalType":"uint32","name":"","type":"uint32"}],"stateMutability":"view","type":"function"},{"inputs":[{"internalType":"uint256","name":"auctionId","type":"uint256"}],"name":"getAuctionStatus","outputs":[{"internalType":"enum IDarkMarketAuctionStructures.AuctionStatus","name":"","type":"uint8"}],"stateMutability":"view","type":"function"},{"inputs":[{"internalType":"uint256","name":"auctionId","type":"uint256"},{"internalType":"uint256","name":"tokenIndex","type":"uint256"}],"name":"getAuctionTokens","outputs":[{"components":[{"internalType":"address","name":"tokenAddress","type":"address"},{"internalType":"uint256","name":"tokenId","type":"uint256"},{"internalType":"uint256","name":"tokenQuantity","type":"uint256"},{"internalType":"enum IDarkMarketAuctionStructures.TokenType","name":"tokenType","type":"uint8"}],"internalType":"struct IDarkMarketAuctionStructures.TokenDetail","name":"","type":"tuple"}],"stateMutability":"view","type":"function"},{"inputs":[],"name":"initialize","outputs":[],"stateMutability":"nonpayable","type":"function"},{"inputs":[],"name":"isConsumingScheduledOp","outputs":[{"internalType":"bytes4","name":"","type":"bytes4"}],"stateMutability":"view","type":"function"},{"inputs":[],"name":"maxAssets","outputs":[{"internalType":"uint256","name":"","type":"uint256"}],"stateMutability":"view","type":"function"},{"inputs":[],"name":"maxAuctionDuration","outputs":[{"internalType":"uint256","name":"","type":"uint256"}],"stateMutability":"view","type":"function"},{"inputs":[],"name":"maxIncentive","outputs":[{"internalType":"uint256","name":"","type":"uint256"}],"stateMutability":"view","type":"function"},{"inputs":[],"name":"maxPayment","outputs":[{"internalType":"uint256","name":"","type":"uint256"}],"stateMutability":"view","type":"function"},{"inputs":[],"name":"minAuctionDuration","outputs":[{"internalType":"uint256","name":"","type":"uint256"}],"stateMutability":"view","type":"function"},{"inputs":[],"name":"nextAuctionId","outputs":[{"internalType":"uint256","name":"","type":"uint256"}],"stateMutability":"view","type":"function"},{"inputs":[{"internalType":"address","name":"","type":"address"},{"internalType":"address","name":"","type":"address"},{"internalType":"uint256[]","name":"","type":"uint256[]"},{"internalType":"uint256[]","name":"","type":"uint256[]"},{"internalType":"bytes","name":"","type":"bytes"}],"name":"onERC1155BatchReceived","outputs":[{"internalType":"bytes4","name":"","type":"bytes4"}],"stateMutability":"nonpayable","type":"function"},{"inputs":[{"internalType":"address","name":"","type":"address"},{"internalType":"address","name":"","type":"address"},{"internalType":"uint256","name":"","type":"uint256"},{"internalType":"uint256","name":"","type":"uint256"},{"internalType":"bytes","name":"","type":"bytes"}],"name":"onERC1155Received","outputs":[{"internalType":"bytes4","name":"","type":"bytes4"}],"stateMutability":"nonpayable","type":"function"},{"inputs":[{"internalType":"address","name":"","type":"address"},{"internalType":"address","name":"","type":"address"},{"internalType":"uint256","name":"","type":"uint256"},{"internalType":"bytes","name":"","type":"bytes"}],"name":"onERC721Received","outputs":[{"internalType":"bytes4","name":"","type":"bytes4"}],"stateMutability":"nonpayable","type":"function"},{"inputs":[],"name":"pause","outputs":[],"stateMutability":"nonpayable","type":"function"},{"inputs":[],"name":"paused","outputs":[{"internalType":"bool","name":"","type":"bool"}],"stateMutability":"view","type":"function"},{"inputs":[],"name":"proxiableUUID","outputs":[{"internalType":"bytes32","name":"","type":"bytes32"}],"stateMutability":"view","type":"function"},{"inputs":[{"internalType":"address","name":"newAuthority","type":"address"}],"name":"setAuthority","outputs":[],"stateMutability":"nonpayable","type":"function"},{"inputs":[{"internalType":"uint32","name":"_extTime","type":"uint32"}],"name":"setExtraTime","outputs":[],"stateMutability":"nonpayable","type":"function"},{"inputs":[{"internalType":"uint16","name":"_assets","type":"uint16"}],"name":"setMaxAssets","outputs":[],"stateMutability":"nonpayable","type":"function"},{"inputs":[{"internalType":"uint32","name":"_duration","type":"uint32"}],"name":"setMaxAuctionDuration","outputs":[],"stateMutability":"nonpayable","type":"function"},{"inputs":[{"internalType":"uint16","name":"_incentive","type":"uint16"}],"name":"setMaxIncentive","outputs":[],"stateMutability":"nonpayable","type":"function"},{"inputs":[{"internalType":"uint16","name":"_maxPmt","type":"uint16"}],"name":"setMaxPayment","outputs":[],"stateMutability":"nonpayable","type":"function"},{"inputs":[{"internalType":"uint32","name":"_duration","type":"uint32"}],"name":"setMinAuctionDuration","outputs":[],"stateMutability":"nonpayable","type":"function"},{"inputs":[{"internalType":"uint32","name":"_warmUp","type":"uint32"}],"name":"setWarmUpTime","outputs":[],"stateMutability":"nonpayable","type":"function"},{"inputs":[{"internalType":"uint256","name":"startPrice","type":"uint256"},{"internalType":"uint32","name":"duration","type":"uint32"},{"components":[{"internalType":"address","name":"tokenAddress","type":"address"},{"internalType":"uint256","name":"tokenId","type":"uint256"},{"internalType":"uint256","name":"tokenQuantity","type":"uint256"},{"internalType":"enum IDarkMarketAuctionStructures.TokenType","name":"tokenType","type":"uint8"}],"internalType":"struct IDarkMarketAuctionStructures.TokenDetail[]","name":"_tokens","type":"tuple[]"},{"internalType":"address","name":"ERC20forBidding","type":"address"},{"components":[{"internalType":"uint256","name":"contractFee","type":"uint256"},{"internalType":"uint256","name":"royaltyFee","type":"uint256"},{"internalType":"address","name":"royaltyAddress","type":"address"}],"internalType":"struct IDarkMarketAuctionStructures.FeeDetail","name":"_fees","type":"tuple"}],"name":"startAuction","outputs":[{"internalType":"uint256","name":"","type":"uint256"}],"stateMutability":"nonpayable","type":"function"},{"inputs":[{"internalType":"bytes4","name":"interfaceId","type":"bytes4"}],"name":"supportsInterface","outputs":[{"internalType":"bool","name":"","type":"bool"}],"stateMutability":"view","type":"function"},{"inputs":[],"name":"treasuryAddress","outputs":[{"internalType":"address","name":"","type":"address"}],"stateMutability":"view","type":"function"},{"inputs":[],"name":"unpause","outputs":[],"stateMutability":"nonpayable","type":"function"},{"inputs":[{"internalType":"address","name":"newImplementation","type":"address"},{"internalType":"bytes","name":"data","type":"bytes"}],"name":"upgradeToAndCall","outputs":[],"stateMutability":"payable","type":"function"},{"inputs":[],"name":"warmUpTime","outputs":[{"internalType":"uint256","name":"","type":"uint256"}],"stateMutability":"view","type":"function"}],"evm":{"bytecode":{"linkReferences":{},"object":"60a0604052306080523480156200001557600080fd5b506200002062000026565b620000da565b7ff0c57e16840df040f15088dc2f81fe391c3923bec73e23a9662efc9c229c6a00805468010000000000000000900460ff1615620000775760405163f92ee8a960e01b815260040160405180910390fd5b80546001600160401b0390811614620000d75780546001600160401b0319166001600160401b0390811782556040519081527fc7f505b2f371ae2175ee4913f4499e1f2633a7b5936321eed1cdaeb6115181d29060200160405180910390a15b50565b608051613487620001046000396000818161233e0152818161236701526124a901526134876000f3fe6080604052600436106102305760003560e01c80638456cb591161012e578063bf7e214f116100ab578063e80838631161006f578063e8083863146106dd578063e9d831be146106fd578063f20e5e3514610713578063f23a6e61146107aa578063fc528482146107d657600080fd5b8063bf7e214f1461063a578063c5f956af14610667578063dac10b1214610687578063e457bf05146106a7578063e7d3aced146106bd57600080fd5b806396b5a755116100f257806396b5a75514610570578063a1b295ea14610590578063ad3cb1cc146105b0578063b8c680a3146105ee578063bc197c811461060e57600080fd5b80638456cb59146104c95780638fb36037146104de578063930e79f1146104f357806394b2294b1461052d57806395719d0c1461054357600080fd5b806352d1902d116101bc57806363beec7d1161018057806363beec7d146104145780636cb2c088146104345780637765c52c146104545780637a9e5e4b146104945780638129fc1c146104b457600080fd5b806352d1902d1461038e57806354134876146103a35780635c975abb146103b95780635fdbcd4c146103de57806361608185146103f457600080fd5b806336de093e1161020357806336de093e146103025780633d791c25146103225780633f4ba83a1461034257806348c9581e146103575780634f1ef2861461037b57600080fd5b806301ffc9a714610235578063150b7a021461026a5780631800c0fe146102ae5780632ac9bf09146102e0575b600080fd5b34801561024157600080fd5b50610255610250366004612a52565b6107ec565b60405190151581526020015b60405180910390f35b34801561027657600080fd5b50610295610285366004612b78565b630a85bd0160e11b949350505050565b6040516001600160e01b03199091168152602001610261565b3480156102ba57600080fd5b506006546102cb9063ffffffff1681565b60405163ffffffff9091168152602001610261565b3480156102ec57600080fd5b506103006102fb366004612be0565b610823565b005b34801561030e57600080fd5b5061030061031d366004612c0c565b610c86565b34801561032e57600080fd5b5061030061033d366004612c42565b610d06565b34801561034e57600080fd5b50610300610d8d565b34801561036357600080fd5b5061036d60045481565b604051908152602001610261565b610300610389366004612c5f565b610da0565b34801561039a57600080fd5b5061036d610dbf565b3480156103af57600080fd5b5061036d60035481565b3480156103c557600080fd5b506000805160206134128339815191525460ff16610255565b3480156103ea57600080fd5b5061036d60075481565b34801561040057600080fd5b5061030061040f366004612cad565b610ddc565b34801561042057600080fd5b5061030061042f366004612c0c565b610ff1565b34801561044057600080fd5b5061030061044f366004612c42565b611067565b34801561046057600080fd5b5061048761046f366004612cad565b60009081526001602052604090206004015460ff1690565b6040516102619190612cf0565b3480156104a057600080fd5b506103006104af366004612cfe565b6110f1565b3480156104c057600080fd5b50610300611174565b3480156104d557600080fd5b5061030061130d565b3480156104ea57600080fd5b5061029561131e565b3480156104ff57600080fd5b506102cb61050e366004612cad565b600090815260016020526040902054600160c01b900463ffffffff1690565b34801561053957600080fd5b5061036d60095481565b34801561054f57600080fd5b5061056361055e366004612d19565b611357565b6040516102619190612d3b565b34801561057c57600080fd5b5061030061058b366004612cad565b61149d565b34801561059c57600080fd5b5061036d6105ab366004612e0a565b61166d565b3480156105bc57600080fd5b506105e1604051806040016040528060058152602001640352e302e360dc1b81525081565b6040516102619190612f54565b3480156105fa57600080fd5b50610300610609366004612c0c565b611b46565b34801561061a57600080fd5b50610295610629366004612fed565b63bc197c8160e01b95945050505050565b34801561064657600080fd5b5061064f611bd8565b6040516001600160a01b039091168152602001610261565b34801561067357600080fd5b5060025461064f906001600160a01b031681565b34801561069357600080fd5b506103006106a2366004612c42565b611bf4565b3480156106b357600080fd5b5061036d60085481565b3480156106c957600080fd5b506103006106d8366004612c42565b611c39565b3480156106e957600080fd5b506103006106f8366004612cad565b611cc6565b34801561070957600080fd5b5061036d60055481565b34801561071f57600080fd5b5061079561072e366004612cad565b600090815260016020819052604090912080549181015460028201546003830154600484015460068501546007909501546001600160a01b038088169863ffffffff600160a01b8a04811699600160c01b900416979682169660ff90941693919091169190565b60405161026199989796959493929190613097565b3480156107b657600080fd5b506102956107c53660046130fa565b63f23a6e6160e01b95945050505050565b3480156107e257600080fd5b5061036d60005481565b60006001600160e01b03198216630271189760e51b148061081d57506301ffc9a760e01b6001600160e01b03198316145b92915050565b61082b612156565b61083361218e565b60008381526001602052604090208054600160c01b900463ffffffff1642111561088c57805460405163394dab1560e21b8152426004820152600160c01b90910463ffffffff1660248201526044015b60405180910390fd5b806002015483116108c057600281015460405163f0defc6160e01b8152610883918591600401918252602082015260400190565b6064836007546108d09190613175565b6108da919061318c565b82111561090857600754604051634bb8657760e11b8152610883918491600401918252602082015260400190565b60068101546040516323b872dd60e01b81526001600160a01b039091169081906323b872dd90610940903390309089906004016131ae565b6020604051808303816000875af115801561095f573d6000803e3d6000fd5b505050506040513d601f19601f8201168201806040525081019061098391906131e2565b5060065482546109a39163ffffffff90811691600160c01b9004166131fd565b63ffffffff16421115610a0c57600654825463ffffffff9182169184916018916109d7918591600160c01b90910416613221565b82546101009290920a63ffffffff8181021990931691909216919091021790555060048201805460ff19166002179055610a1c565b60048201805460ff191660011790555b60018201546001600160a01b031615801590610a5357506005548254610a4f9190600160a01b900463ffffffff1661323e565b4210155b15610b5257600082600301548360020154610a6e919061323e565b600184015460405163a9059cbb60e01b81526001600160a01b0391821660048201526024810183905291925083169063a9059cbb906044016020604051808303816000875af1158015610ac5573d6000803e3d6000fd5b505050506040513d601f19601f82011682018060405250810190610ae991906131e2565b5083836007016000828254610afe919061323e565b9091555050600183015460038401546040519081526001600160a01b03909116907f70220290ea80981efd0f0f7e6b1b5085605eb976822c8b8422e5bcc53e4c6d639060200160405180910390a250610be6565b60018201546001600160a01b031615610be6576001820154600283015460405163a9059cbb60e01b81526001600160a01b03928316600482015260248101919091529082169063a9059cbb906044016020604051808303816000875af1158015610bc0573d6000803e3d6000fd5b505050506040513d601f19601f82011682018060405250810190610be491906131e2565b505b600182018054336001600160a01b0319909116811790915560028301859055600383018490558254604080518881526020810193909352820186905260608201859052600160c01b900463ffffffff1660808201527f460816b78aeb54f712462ac78724283fd863a6f1ba0f4886ca8b2b7f6926179e9060a00160405180910390a15050610c81600160008051602061343283398151915255565b505050565b610c93335b6000366121d3565b60648161ffff1610610cc557604051634bb8657760e11b815261ffff8216600482015260636024820152604401610883565b61ffff811660078190556040519081527f05ca520f831f8d754f63ab92b7cf507a5fd5e64acc73687fb37722eadbd032ee906020015b60405180910390a150565b610d0f33610c8b565b603c8163ffffffff161015610d51576004805460405163fb6ffde960e01b815263ffffffff841692810192909252603c60248301526044820152606401610883565b63ffffffff811660038190556040519081527fee11bf76cad37f7ee2e8ba9e649c433620af1ec464cc2986958b52de9e0a949190602001610cfb565b610d9633610c8b565b610d9e6122d9565b565b610da8612333565b610db1826123d8565b610dbb82826123e1565b5050565b6000610dc961249e565b506000805160206133f283398151915290565b610de533610c8b565b6000548110610e0a5760405163d9970fa160e01b815260048101829052602401610883565b6000818152600160208190526040909120908101546001600160a01b031615610ecf5760068101546001820154600783015460028401546001600160a01b039384169363a9059cbb931691610e5e91613251565b6040516001600160e01b031960e085901b1681526001600160a01b03909216600483015260248201526044016020604051808303816000875af1158015610ea9573d6000803e3d6000fd5b505050506040513d601f19601f82011682018060405250810190610ecd91906131e2565b505b60005b6005820154811015610fa857816005018181548110610ef357610ef3613264565b600091825260209091206004909102015482546005840180546001600160a01b03938416936342842e0e93309391169186908110610f3357610f33613264565b9060005260206000209060040201600101546040518463ffffffff1660e01b8152600401610f63939291906131ae565b600060405180830381600087803b158015610f7d57600080fd5b505af1158015610f91573d6000803e3d6000fd5b505050508080610fa09061327a565b915050610ed2565b506004818101805460ff191690911790556040518281527f2809c7e17bf978fbc7194c0a694b638c4215e9140cacc6c38ca36010b45697df906020015b60405180910390a15050565b610ffa33610c8b565b60648161ffff16111561102d576040516319d2c49360e21b815261ffff8216600482015260646024820152604401610883565b61ffff811660098190556040519081527f7d9d8ac44f7d6b305d6f922b6d49887e5d221d9d080577cca886a8569685a3d490602001610cfb565b61107033610c8b565b61a8c08163ffffffff1611156110a957604051631bec1bc960e21b815263ffffffff8216600482015261a8c06024820152604401610883565b6006805463ffffffff191663ffffffff83169081179091556040519081527f72ebdbda638f86e71d1679d2736f0b5cdfa3d224d38a46ab09400d9896b920fc90602001610cfb565b336110fa611bd8565b6001600160a01b0316816001600160a01b0316146111355760405162d1953b60e31b81526001600160a01b0382166004820152602401610883565b816001600160a01b03163b60000361116b576040516361798f2f60e11b81526001600160a01b0383166004820152602401610883565b610dbb826124e7565b7ff0c57e16840df040f15088dc2f81fe391c3923bec73e23a9662efc9c229c6a008054600160401b810460ff16159067ffffffffffffffff166000811580156111ba5750825b905060008267ffffffffffffffff1660011480156111d75750303b155b9050811580156111e5575080155b156112035760405163f92ee8a960e01b815260040160405180910390fd5b845467ffffffffffffffff19166001178555831561122d57845460ff60401b1916600160401b1785555b611235612541565b61123d612541565b611245612549565b611255611250612559565b612598565b61125d612541565b6112656125a9565b61126d6125b9565b600280546001600160a01b0319166001600160a01b039290921691909117905560016000908155603c600355626ebe006004556005556006805463ffffffff19169055600c6007556103e86008556014600955831561130657845460ff60401b19168555604051600181527fc7f505b2f371ae2175ee4913f4499e1f2633a7b5936321eed1cdaeb6115181d29060200160405180910390a15b5050505050565b61131633610c8b565b610d9e6125f8565b6000805160206133d2833981519152805460009190600160a01b900460ff16611348576000611351565b638fb3603760e01b5b91505090565b61137f6040805160808101825260008082526020820181905291810182905290606082015290565b60008381526001602052604090206005015482106113df5760405162461bcd60e51b815260206004820152601960248201527f546f6b656e20696e646578206f7574206f6620626f756e6473000000000000006044820152606401610883565b600083815260016020526040902060050180548390811061140257611402613264565b90600052602060002090600402016040518060800160405290816000820160009054906101000a90046001600160a01b03166001600160a01b03166001600160a01b0316815260200160018201548152602001600282015481526020016003820160009054906101000a900460ff16600181111561148257611482612cc6565b600181111561149357611493612cc6565b9052509392505050565b600081815260016020526040902080546001600160a01b031633146114e957805460405163b71af04b60e01b81526001600160a01b039091166004820152336024820152604401610883565b60048181015460ff168181111561150257611502612cc6565b14806115265750600360048083015460ff169081111561152457611524612cc6565b145b1561155b57805460405163394dab1560e21b8152426004820152600160c01b90910463ffffffff166024820152604401610883565b600060048083015460ff169081111561157657611576612cc6565b14611594576040516335473acb60e01b815260040160405180910390fd5b60005b6005820154811015610fa8578160050181815481106115b8576115b8613264565b600091825260209091206004909102015482546005840180546001600160a01b03938416936323b872dd933093911691869081106115f8576115f8613264565b9060005260206000209060040201600101546040518463ffffffff1660e01b8152600401611628939291906131ae565b600060405180830381600087803b15801561164257600080fd5b505af1158015611656573d6000803e3d6000fd5b5050505080806116659061327a565b915050611597565b600061167761218e565b8351158061168757506009548451115b156116b35783516009546040516319d2c49360e21b815260048101929092526024820152604401610883565b6003548563ffffffff1610806116d057506004548563ffffffff16115b1561170f576003546004805460405163fb6ffde960e01b815263ffffffff89169281019290925260248201929092526044810191909152606401610883565b600854825111156117415781516008546040516316f0a44560e21b815260048101929092526024820152604401610883565b600854826020015111156117795760208201516008546040516316f0a44560e21b815260048101929092526024820152604401610883565b60008054815260016020526040902080546001600160c01b0319163363ffffffff60a01b191617600160a01b4263ffffffff818116929092029290921783556117c5919088169061323e565b815463ffffffff91909116600160c01b0263ffffffff60c01b199091161781556002810187905560048101805460ff191690556006810180546001600160a01b038681166001600160a01b03199283161790925584516008840155602085015160098401556040850151600a8401805491909316911617905560005b8551811015611ac157600086828151811061185e5761185e613264565b602002602001015160600151600181111561187b5761187b612cc6565b036119215785818151811061189257611892613264565b6020026020010151600001516001600160a01b03166342842e0e33308985815181106118c0576118c0613264565b6020026020010151602001516040518463ffffffff1660e01b81526004016118ea939291906131ae565b600060405180830381600087803b15801561190457600080fd5b505af1158015611918573d6000803e3d6000fd5b50505050611a13565b600186828151811061193557611935613264565b602002602001015160600151600181111561195257611952612cc6565b03611a135785818151811061196957611969613264565b6020026020010151600001516001600160a01b031663f242432a333089858151811061199757611997613264565b6020026020010151602001518a86815181106119b5576119b5613264565b6020026020010151604001516040518563ffffffff1660e01b81526004016119e09493929190613293565b600060405180830381600087803b1580156119fa57600080fd5b505af1158015611a0e573d6000803e3d6000fd5b505050505b81600501868281518110611a2957611a29613264565b602090810291909101810151825460018082018555600094855293839020825160049092020180546001600160a01b0319166001600160a01b03909216919091178155918101518284015560408101516002830155606081015160038301805492949192909160ff19909116908381811115611aa757611aa7612cc6565b021790555050508080611ab99061327a565b915050611841565b506000548154604080519283523360208401528201899052600160c01b900463ffffffff1660608201527f413f6c06dd8588ebce23465fb71b348472bf4b188074db8aa826c046d3a628399060800160405180910390a1600080549080611b278361327a565b91905055506001600054611b3b9190613251565b979650505050505050565b611b4f33610c8b565b6103e88161ffff161115611b9e5760405162461bcd60e51b815260206004820152601660248201527546656573206d7573742062652062656c6f772031302560501b6044820152606401610883565b61ffff811660088190556040519081527f76c0a3015e83e0dd94e5b30db7fd5a526c1681fade10af7c7907afb87e10709190602001610cfb565b6000805160206133d2833981519152546001600160a01b031690565b611bfd33610c8b565b63ffffffff811660058190556040519081527f08a44ff5c31644ac1169a9a98797ee3dbc1034a731ab16cf1d627f4d2c2c3b4590602001610cfb565b611c4233610c8b565b6301dfe2008163ffffffff161115611c8a576004805460405163fb6ffde960e01b815263ffffffff84169281019290925260248201526301dfe2006044820152606401610883565b63ffffffff811660048190556040519081527f72c2908c3d91804a7b4eeff9563b5cbf3519159c818fe86be3f1366ed2dc1e3590602001610cfb565b611cce612156565b611cd661218e565b60008181526001602052604090208054600160c01b900463ffffffff16421015611d2a578054604051633df48b2560e21b8152426004820152600160c01b90910463ffffffff166024820152604401610883565b60018101546001600160a01b0316611d4557611d458261149d565b600681015460088201546001600160a01b0390911690600090611d6b906127109061318c565b8360020154611d7a9190613175565b905060006127108460080160010154611d93919061318c565b8460020154611da29190613175565b90506000846007015482848760020154611dbc9190613251565b611dc69190613251565b611dd09190613251565b85549091506001600160a01b03163303611e47578454611dfb9085906001600160a01b031683612641565b8454604080518881526001600160a01b03909216602083015281018290527ff73372fdca7f972b1cc507ab0bda9b67b500bd17aaed8c5e6a3366d413e7e1f89060600160405180910390a15b60018501546001600160a01b031633036120f95760005b60058601548110156120a6576000866005018281548110611e8157611e81613264565b600091825260209091206003600490920201015460ff166001811115611ea957611ea9612cc6565b03611f6d57856005018181548110611ec357611ec3613264565b600091825260209091206004909102015460018701546005880180546001600160a01b03938416936342842e0e93309391169186908110611f0657611f06613264565b9060005260206000209060040201600101546040518463ffffffff1660e01b8152600401611f36939291906131ae565b600060405180830381600087803b158015611f5057600080fd5b505af1158015611f64573d6000803e3d6000fd5b50505050612094565b6001866005018281548110611f8457611f84613264565b600091825260209091206003600490920201015460ff166001811115611fac57611fac612cc6565b0361209457856005018181548110611fc657611fc6613264565b600091825260209091206004909102015460018701546005880180546001600160a01b039384169363f242432a9330939116918690811061200957612009613264565b9060005260206000209060040201600101548a600501868154811061203057612030613264565b9060005260206000209060040201600201546040518563ffffffff1660e01b81526004016120619493929190613293565b600060405180830381600087803b15801561207b57600080fd5b505af115801561208f573d6000803e3d6000fd5b505050505b8061209e8161327a565b915050611e5e565b5060018501546002860154604080518981526001600160a01b0390931660208401528201527f287e93683fbdb8e8dc13e757ba52c664a7573734dfb5624353d5f49c033313b19060600160405180910390a15b8215612117576002546121179085906001600160a01b031685612641565b811561213757600a8501546121379085906001600160a01b031684612641565b5050505050612153600160008051602061343283398151915255565b50565b60008051602061343283398151915280546001190161218857604051633ee5aeb560e01b815260040160405180910390fd5b60029055565b6000805160206134128339815191525460ff1615610d9e5760405163d93c066560e01b815260040160405180910390fd5b600160008051602061343283398151915255565b6000805160206133d283398151915260008061220e6121f0611bd8565b8730612200600460008a8c6132cb565b612209916132f5565b6126bb565b91509150816122d15763ffffffff8116156122ae57825460ff60a01b1916600160a01b17835561223c611bd8565b6001600160a01b03166394c7d7ee8787876040518463ffffffff1660e01b815260040161226b93929190613325565b600060405180830381600087803b15801561228557600080fd5b505af1158015612299573d6000803e3d6000fd5b5050845460ff60a01b19168555506122d19050565b60405162d1953b60e31b81526001600160a01b0387166004820152602401610883565b505050505050565b6122e16127c7565b600080516020613412833981519152805460ff191681557f5db9ee0a495bf2e6ff9c91a7834c1ba4fdd244a5e8aa4e537bd38aeae4b073aa335b6040516001600160a01b039091168152602001610cfb565b306001600160a01b037f00000000000000000000000000000000000000000000000000000000000000001614806123ba57507f00000000000000000000000000000000000000000000000000000000000000006001600160a01b03166123ae6000805160206133f2833981519152546001600160a01b031690565b6001600160a01b031614155b15610d9e5760405163703e46dd60e11b815260040160405180910390fd5b61215333610c8b565b816001600160a01b03166352d1902d6040518163ffffffff1660e01b8152600401602060405180830381865afa92505050801561243b575060408051601f3d908101601f1916820190925261243891810190613365565b60015b61246357604051634c9c8ce360e01b81526001600160a01b0383166004820152602401610883565b6000805160206133f2833981519152811461249457604051632a87526960e21b815260048101829052602401610883565b610c8183836127f7565b306001600160a01b037f00000000000000000000000000000000000000000000000000000000000000001614610d9e5760405163703e46dd60e11b815260040160405180910390fd5b6000805160206133d283398151915280546001600160a01b0319166001600160a01b03831690811782556040519081527f2f658b440c35314f52658ea8a740e05b284cdc84dc9ae01e891f21b8933e7cad90602001610fe5565b610d9e61284d565b61255161284d565b610d9e612896565b60004661014f0361257d575073e1809d966d96bef678f808329336962944ffb10690565b60405163fc94119160e01b8152466004820152602401610883565b6125a061284d565b612153816128b7565b6125b161284d565b610d9e6128c8565b60004661014f036125dd575073419c3657532aad16955291af7942fea9a1b6d01090565b6040516367259b4960e01b8152466004820152602401610883565b61260061218e565b600080516020613412833981519152805460ff191660011781557f62e78cea01bee320cd4e420270b5ea74000d11b0c9f74754ebdbfc544b05a2583361231b565b60405163a9059cbb60e01b81526001600160a01b0383811660048301526024820183905284169063a9059cbb906044016020604051808303816000875af19250505080156126ac575060408051601f3d908101601f191682019092526126a9918101906131e2565b60015b6126b557600080fd5b50505050565b6040516001600160a01b03848116602483015283811660448301526001600160e01b03198316606483015260009182918291829189169060840160408051601f198184030181529181526020820180516001600160e01b031663b700961360e01b1790525161272a919061337e565b600060405180830381855afa9150503d8060008114612765576040519150601f19603f3d011682016040523d82523d6000602084013e61276a565b606091505b509150915081156127bc57604081511061279c5780806020019051810190612792919061339a565b90945092506127bc565b60208151106127bc57808060200190518101906127b991906131e2565b93505b505094509492505050565b6000805160206134128339815191525460ff16610d9e57604051638dfc202b60e01b815260040160405180910390fd5b612800826128d0565b6040516001600160a01b038316907fbc7cd75a20ee27fd9adebab32041f755214dbc6bffa90cc0225b39da2e5c2d3b90600090a280511561284557610c818282612935565b610dbb6129ab565b7ff0c57e16840df040f15088dc2f81fe391c3923bec73e23a9662efc9c229c6a0054600160401b900460ff16610d9e57604051631afcd79f60e31b815260040160405180910390fd5b61289e61284d565b600080516020613412833981519152805460ff19169055565b6128bf61284d565b612153816124e7565b6121bf61284d565b806001600160a01b03163b60000361290657604051634c9c8ce360e01b81526001600160a01b0382166004820152602401610883565b6000805160206133f283398151915280546001600160a01b0319166001600160a01b0392909216919091179055565b6060600080846001600160a01b031684604051612952919061337e565b600060405180830381855af49150503d806000811461298d576040519150601f19603f3d011682016040523d82523d6000602084013e612992565b606091505b50915091506129a28583836129ca565b95945050505050565b3415610d9e5760405163b398979f60e01b815260040160405180910390fd5b6060826129df576129da82612a29565b612a22565b81511580156129f657506001600160a01b0384163b155b15612a1f57604051639996b31560e01b81526001600160a01b0385166004820152602401610883565b50805b9392505050565b805115612a395780518082602001fd5b604051630a12f52160e11b815260040160405180910390fd5b600060208284031215612a6457600080fd5b81356001600160e01b031981168114612a2257600080fd5b80356001600160a01b0381168114612a9357600080fd5b919050565b634e487b7160e01b600052604160045260246000fd5b6040516080810167ffffffffffffffff81118282101715612ad157612ad1612a98565b60405290565b604051601f8201601f1916810167ffffffffffffffff81118282101715612b0057612b00612a98565b604052919050565b600082601f830112612b1957600080fd5b813567ffffffffffffffff811115612b3357612b33612a98565b612b46601f8201601f1916602001612ad7565b818152846020838601011115612b5b57600080fd5b816020850160208301376000918101602001919091529392505050565b60008060008060808587031215612b8e57600080fd5b612b9785612a7c565b9350612ba560208601612a7c565b925060408501359150606085013567ffffffffffffffff811115612bc857600080fd5b612bd487828801612b08565b91505092959194509250565b600080600060608486031215612bf557600080fd5b505081359360208301359350604090920135919050565b600060208284031215612c1e57600080fd5b813561ffff81168114612a2257600080fd5b63ffffffff8116811461215357600080fd5b600060208284031215612c5457600080fd5b8135612a2281612c30565b60008060408385031215612c7257600080fd5b612c7b83612a7c565b9150602083013567ffffffffffffffff811115612c9757600080fd5b612ca385828601612b08565b9150509250929050565b600060208284031215612cbf57600080fd5b5035919050565b634e487b7160e01b600052602160045260246000fd5b60058110612cec57612cec612cc6565b9052565b6020810161081d8284612cdc565b600060208284031215612d1057600080fd5b612a2282612a7c565b60008060408385031215612d2c57600080fd5b50508035926020909101359150565b81516001600160a01b0316815260208083015190820152604080830151908201526060820151608082019060028110612d7657612d76612cc6565b8060608401525092915050565b600067ffffffffffffffff821115612d9d57612d9d612a98565b5060051b60200190565b600060608284031215612db957600080fd5b6040516060810181811067ffffffffffffffff82111715612ddc57612ddc612a98565b80604052508091508235815260208301356020820152612dfe60408401612a7c565b60408201525092915050565b600080600080600060e08688031215612e2257600080fd5b85359450602080870135612e3581612c30565b945060408781013567ffffffffffffffff811115612e5257600080fd5b8801601f81018a13612e6357600080fd5b8035612e76612e7182612d83565b612ad7565b81815260079190911b8201840190848101908c831115612e9557600080fd5b928501925b82841015612f00576080848e031215612eb35760008081fd5b612ebb612aae565b612ec485612a7c565b81528685013587820152858501358682015260608086013560028110612eea5760008081fd5b9082015282526080939093019290850190612e9a565b809850505050505050612f1560608701612a7c565b9150612f248760808801612da7565b90509295509295909350565b60005b83811015612f4b578181015183820152602001612f33565b50506000910152565b6020815260008251806020840152612f73816040850160208701612f30565b601f01601f19169190910160400192915050565b600082601f830112612f9857600080fd5b81356020612fa8612e7183612d83565b82815260059290921b84018101918181019086841115612fc757600080fd5b8286015b84811015612fe25780358352918301918301612fcb565b509695505050505050565b600080600080600060a0868803121561300557600080fd5b61300e86612a7c565b945061301c60208701612a7c565b9350604086013567ffffffffffffffff8082111561303957600080fd5b61304589838a01612f87565b9450606088013591508082111561305b57600080fd5b61306789838a01612f87565b9350608088013591508082111561307d57600080fd5b5061308a88828901612b08565b9150509295509295909350565b6001600160a01b038a8116825263ffffffff8a811660208401528916604083015287811660608301526080820187905260a082018690526101208201906130e160c0840187612cdc565b9390931660e08201526101000152979650505050505050565b600080600080600060a0868803121561311257600080fd5b61311b86612a7c565b945061312960208701612a7c565b93506040860135925060608601359150608086013567ffffffffffffffff81111561315357600080fd5b61308a88828901612b08565b634e487b7160e01b600052601160045260246000fd5b808202811582820484141761081d5761081d61315f565b6000826131a957634e487b7160e01b600052601260045260246000fd5b500490565b6001600160a01b039384168152919092166020820152604081019190915260600190565b80518015158114612a9357600080fd5b6000602082840312156131f457600080fd5b612a22826131d2565b63ffffffff82811682821603908082111561321a5761321a61315f565b5092915050565b63ffffffff81811683821601908082111561321a5761321a61315f565b8082018082111561081d5761081d61315f565b8181038181111561081d5761081d61315f565b634e487b7160e01b600052603260045260246000fd5b60006001820161328c5761328c61315f565b5060010190565b6001600160a01b0394851681529290931660208301526040820152606081019190915260a06080820181905260009082015260c00190565b600080858511156132db57600080fd5b838611156132e857600080fd5b5050820193919092039150565b6001600160e01b0319813581811691600485101561331d5780818660040360031b1b83161692505b505092915050565b6001600160a01b03841681526040602082018190528101829052818360608301376000818301606090810191909152601f909201601f1916010192915050565b60006020828403121561337757600080fd5b5051919050565b60008251613390818460208701612f30565b9190910192915050565b600080604083850312156133ad57600080fd5b6133b6836131d2565b915060208301516133c681612c30565b80915050925092905056fef3177357ab46d8af007ab3fdb9af81da189e1068fefdc0073dca88a2cab40a00360894a13ba1a3210667c828492db98dca3e2076cc3735a920a3ca505d382bbccd5ed15c6e187e77e9aee88184c21f4f2182ab5827cb3b7e07fbedcd63f033009b779b17422d0df92223018b32b4d1fa46e071723d6817e2486d003becc55f00a264697066735822122052440abbc65172fd9ac9700d7cb62dedd3679e1d0277e550a919e0b845e46b4764736f6c63430008140033","opcodes":"PUSH1 0xA0 PUSH1 0x40 MSTORE ADDRESS PUSH1 0x80 MSTORE CALLVALUE DUP1 ISZERO PUSH3 0x15 JUMPI PUSH1 0x0 DUP1 REVERT JUMPDEST POP PUSH3 0x20 PUSH3 0x26 JUMP JUMPDEST PUSH3 0xDA JUMP JUMPDEST PUSH32 0xF0C57E16840DF040F15088DC2F81FE391C3923BEC73E23A9662EFC9C229C6A00 DUP1 SLOAD PUSH9 0x10000000000000000 SWAP1 DIV PUSH1 0xFF AND ISZERO PUSH3 0x77 JUMPI PUSH1 0x40 MLOAD PUSH4 0xF92EE8A9 PUSH1 0xE0 SHL DUP2 MSTORE PUSH1 0x4 ADD PUSH1 0x40 MLOAD DUP1 SWAP2 SUB SWAP1 REVERT JUMPDEST DUP1 SLOAD PUSH1 0x1 PUSH1 0x1 PUSH1 0x40 SHL SUB SWAP1 DUP2 AND EQ PUSH3 0xD7 JUMPI DUP1 SLOAD PUSH1 0x1 PUSH1 0x1 PUSH1 0x40 SHL SUB NOT AND PUSH1 0x1 PUSH1 0x1 PUSH1 0x40 SHL SUB SWAP1 DUP2 OR DUP3 SSTORE PUSH1 0x40 MLOAD SWAP1 DUP2 MSTORE PUSH32 0xC7F505B2F371AE2175EE4913F4499E1F2633A7B5936321EED1CDAEB6115181D2 SWAP1 PUSH1 0x20 ADD PUSH1 0x40 MLOAD DUP1 SWAP2 SUB SWAP1 LOG1 JUMPDEST POP JUMP JUMPDEST PUSH1 0x80 MLOAD PUSH2 0x3487 PUSH3 0x104 PUSH1 0x0 CODECOPY PUSH1 0x0 DUP2 DUP2 PUSH2 0x233E ADD MSTORE DUP2 DUP2 PUSH2 0x2367 ADD MSTORE PUSH2 0x24A9 ADD MSTORE PUSH2 0x3487 PUSH1 0x0 RETURN INVALID PUSH1 0x80 PUSH1 0x40 MSTORE PUSH1 0x4 CALLDATASIZE LT PUSH2 0x230 JUMPI PUSH1 0x0 CALLDATALOAD PUSH1 0xE0 SHR DUP1 PUSH4 0x8456CB59 GT PUSH2 0x12E JUMPI DUP1 PUSH4 0xBF7E214F GT PUSH2 0xAB JUMPI DUP1 PUSH4 0xE8083863 GT PUSH2 0x6F JUMPI DUP1 PUSH4 0xE8083863 EQ PUSH2 0x6DD JUMPI DUP1 PUSH4 0xE9D831BE EQ PUSH2 0x6FD JUMPI DUP1 PUSH4 0xF20E5E35 EQ PUSH2 0x713 JUMPI DUP1 PUSH4 0xF23A6E61 EQ PUSH2 0x7AA JUMPI DUP1 PUSH4 0xFC528482 EQ PUSH2 0x7D6 JUMPI PUSH1 0x0 DUP1 REVERT JUMPDEST DUP1 PUSH4 0xBF7E214F EQ PUSH2 0x63A JUMPI DUP1 PUSH4 0xC5F956AF EQ PUSH2 0x667 JUMPI DUP1 PUSH4 0xDAC10B12 EQ PUSH2 0x687 JUMPI DUP1 PUSH4 0xE457BF05 EQ PUSH2 0x6A7 JUMPI DUP1 PUSH4 0xE7D3ACED EQ PUSH2 0x6BD JUMPI PUSH1 0x0 DUP1 REVERT JUMPDEST DUP1 PUSH4 0x96B5A755 GT PUSH2 0xF2 JUMPI DUP1 PUSH4 0x96B5A755 EQ PUSH2 0x570 JUMPI DUP1 PUSH4 0xA1B295EA EQ PUSH2 0x590 JUMPI DUP1 PUSH4 0xAD3CB1CC EQ PUSH2 0x5B0 JUMPI DUP1 PUSH4 0xB8C680A3 EQ PUSH2 0x5EE JUMPI DUP1 PUSH4 0xBC197C81 EQ PUSH2 0x60E JUMPI PUSH1 0x0 DUP1 REVERT JUMPDEST DUP1 PUSH4 0x8456CB59 EQ PUSH2 0x4C9 JUMPI DUP1 PUSH4 0x8FB36037 EQ PUSH2 0x4DE JUMPI DUP1 PUSH4 0x930E79F1 EQ PUSH2 0x4F3 JUMPI DUP1 PUSH4 0x94B2294B EQ PUSH2 0x52D JUMPI DUP1 PUSH4 0x95719D0C EQ PUSH2 0x543 JUMPI PUSH1 0x0 DUP1 REVERT JUMPDEST DUP1 PUSH4 0x52D1902D GT PUSH2 0x1BC JUMPI DUP1 PUSH4 0x63BEEC7D GT PUSH2 0x180 JUMPI DUP1 PUSH4 0x63BEEC7D EQ PUSH2 0x414 JUMPI DUP1 PUSH4 0x6CB2C088 EQ PUSH2 0x434 JUMPI DUP1 PUSH4 0x7765C52C EQ PUSH2 0x454 JUMPI DUP1 PUSH4 0x7A9E5E4B EQ PUSH2 0x494 JUMPI DUP1 PUSH4 0x8129FC1C EQ PUSH2 0x4B4 JUMPI PUSH1 0x0 DUP1 REVERT JUMPDEST DUP1 PUSH4 0x52D1902D EQ PUSH2 0x38E JUMPI DUP1 PUSH4 0x54134876 EQ PUSH2 0x3A3 JUMPI DUP1 PUSH4 0x5C975ABB EQ PUSH2 0x3B9 JUMPI DUP1 PUSH4 0x5FDBCD4C EQ PUSH2 0x3DE JUMPI DUP1 PUSH4 0x61608185 EQ PUSH2 0x3F4 JUMPI PUSH1 0x0 DUP1 REVERT JUMPDEST DUP1 PUSH4 0x36DE093E GT PUSH2 0x203 JUMPI DUP1 PUSH4 0x36DE093E EQ PUSH2 0x302 JUMPI DUP1 PUSH4 0x3D791C25 EQ PUSH2 0x322 JUMPI DUP1 PUSH4 0x3F4BA83A EQ PUSH2 0x342 JUMPI DUP1 PUSH4 0x48C9581E EQ PUSH2 0x357 JUMPI DUP1 PUSH4 0x4F1EF286 EQ PUSH2 0x37B JUMPI PUSH1 0x0 DUP1 REVERT JUMPDEST DUP1 PUSH4 0x1FFC9A7 EQ PUSH2 0x235 JUMPI DUP1 PUSH4 0x150B7A02 EQ PUSH2 0x26A JUMPI DUP1 PUSH4 0x1800C0FE EQ PUSH2 0x2AE JUMPI DUP1 PUSH4 0x2AC9BF09 EQ PUSH2 0x2E0 JUMPI JUMPDEST PUSH1 0x0 DUP1 REVERT JUMPDEST CALLVALUE DUP1 ISZERO PUSH2 0x241 JUMPI PUSH1 0x0 DUP1 REVERT JUMPDEST POP PUSH2 0x255 PUSH2 0x250 CALLDATASIZE PUSH1 0x4 PUSH2 0x2A52 JUMP JUMPDEST PUSH2 0x7EC JUMP JUMPDEST PUSH1 0x40 MLOAD SWAP1 ISZERO ISZERO DUP2 MSTORE PUSH1 0x20 ADD JUMPDEST PUSH1 0x40 MLOAD DUP1 SWAP2 SUB SWAP1 RETURN JUMPDEST CALLVALUE DUP1 ISZERO PUSH2 0x276 JUMPI PUSH1 0x0 DUP1 REVERT JUMPDEST POP PUSH2 0x295 PUSH2 0x285 CALLDATASIZE PUSH1 0x4 PUSH2 0x2B78 JUMP JUMPDEST PUSH4 0xA85BD01 PUSH1 0xE1 SHL SWAP5 SWAP4 POP POP POP POP JUMP JUMPDEST PUSH1 0x40 MLOAD PUSH1 0x1 PUSH1 0x1 PUSH1 0xE0 SHL SUB NOT SWAP1 SWAP2 AND DUP2 MSTORE PUSH1 0x20 ADD PUSH2 0x261 JUMP JUMPDEST CALLVALUE DUP1 ISZERO PUSH2 0x2BA JUMPI PUSH1 0x0 DUP1 REVERT JUMPDEST POP PUSH1 0x6 SLOAD PUSH2 0x2CB SWAP1 PUSH4 0xFFFFFFFF AND DUP2 JUMP JUMPDEST PUSH1 0x40 MLOAD PUSH4 0xFFFFFFFF SWAP1 SWAP2 AND DUP2 MSTORE PUSH1 0x20 ADD PUSH2 0x261 JUMP JUMPDEST CALLVALUE DUP1 ISZERO PUSH2 0x2EC JUMPI PUSH1 0x0 DUP1 REVERT JUMPDEST POP PUSH2 0x300 PUSH2 0x2FB CALLDATASIZE PUSH1 0x4 PUSH2 0x2BE0 JUMP JUMPDEST PUSH2 0x823 JUMP JUMPDEST STOP JUMPDEST CALLVALUE DUP1 ISZERO PUSH2 0x30E JUMPI PUSH1 0x0 DUP1 REVERT JUMPDEST POP PUSH2 0x300 PUSH2 0x31D CALLDATASIZE PUSH1 0x4 PUSH2 0x2C0C JUMP JUMPDEST PUSH2 0xC86 JUMP JUMPDEST CALLVALUE DUP1 ISZERO PUSH2 0x32E JUMPI PUSH1 0x0 DUP1 REVERT JUMPDEST POP PUSH2 0x300 PUSH2 0x33D CALLDATASIZE PUSH1 0x4 PUSH2 0x2C42 JUMP JUMPDEST PUSH2 0xD06 JUMP JUMPDEST CALLVALUE DUP1 ISZERO PUSH2 0x34E JUMPI PUSH1 0x0 DUP1 REVERT JUMPDEST POP PUSH2 0x300 PUSH2 0xD8D JUMP JUMPDEST CALLVALUE DUP1 ISZERO PUSH2 0x363 JUMPI PUSH1 0x0 DUP1 REVERT JUMPDEST POP PUSH2 0x36D PUSH1 0x4 SLOAD DUP2 JUMP JUMPDEST PUSH1 0x40 MLOAD SWAP1 DUP2 MSTORE PUSH1 0x20 ADD PUSH2 0x261 JUMP JUMPDEST PUSH2 0x300 PUSH2 0x389 CALLDATASIZE PUSH1 0x4 PUSH2 0x2C5F JUMP JUMPDEST PUSH2 0xDA0 JUMP JUMPDEST CALLVALUE DUP1 ISZERO PUSH2 0x39A JUMPI PUSH1 0x0 DUP1 REVERT JUMPDEST POP PUSH2 0x36D PUSH2 0xDBF JUMP JUMPDEST CALLVALUE DUP1 ISZERO PUSH2 0x3AF JUMPI PUSH1 0x0 DUP1 REVERT JUMPDEST POP PUSH2 0x36D PUSH1 0x3 SLOAD DUP2 JUMP JUMPDEST CALLVALUE DUP1 ISZERO PUSH2 0x3C5 JUMPI PUSH1 0x0 DUP1 REVERT JUMPDEST POP PUSH1 0x0 DUP1 MLOAD PUSH1 0x20 PUSH2 0x3412 DUP4 CODECOPY DUP2 MLOAD SWAP2 MSTORE SLOAD PUSH1 0xFF AND PUSH2 0x255 JUMP JUMPDEST CALLVALUE DUP1 ISZERO PUSH2 0x3EA JUMPI PUSH1 0x0 DUP1 REVERT JUMPDEST POP PUSH2 0x36D PUSH1 0x7 SLOAD DUP2 JUMP JUMPDEST CALLVALUE DUP1 ISZERO PUSH2 0x400 JUMPI PUSH1 0x0 DUP1 REVERT JUMPDEST POP PUSH2 0x300 PUSH2 0x40F CALLDATASIZE PUSH1 0x4 PUSH2 0x2CAD JUMP JUMPDEST PUSH2 0xDDC JUMP JUMPDEST CALLVALUE DUP1 ISZERO PUSH2 0x420 JUMPI PUSH1 0x0 DUP1 REVERT JUMPDEST POP PUSH2 0x300 PUSH2 0x42F CALLDATASIZE PUSH1 0x4 PUSH2 0x2C0C JUMP JUMPDEST PUSH2 0xFF1 JUMP JUMPDEST CALLVALUE DUP1 ISZERO PUSH2 0x440 JUMPI PUSH1 0x0 DUP1 REVERT JUMPDEST POP PUSH2 0x300 PUSH2 0x44F CALLDATASIZE PUSH1 0x4 PUSH2 0x2C42 JUMP JUMPDEST PUSH2 0x1067 JUMP JUMPDEST CALLVALUE DUP1 ISZERO PUSH2 0x460 JUMPI PUSH1 0x0 DUP1 REVERT JUMPDEST POP PUSH2 0x487 PUSH2 0x46F CALLDATASIZE PUSH1 0x4 PUSH2 0x2CAD JUMP JUMPDEST PUSH1 0x0 SWAP1 DUP2 MSTORE PUSH1 0x1 PUSH1 0x20 MSTORE PUSH1 0x40 SWAP1 KECCAK256 PUSH1 0x4 ADD SLOAD PUSH1 0xFF AND SWAP1 JUMP JUMPDEST PUSH1 0x40 MLOAD PUSH2 0x261 SWAP2 SWAP1 PUSH2 0x2CF0 JUMP JUMPDEST CALLVALUE DUP1 ISZERO PUSH2 0x4A0 JUMPI PUSH1 0x0 DUP1 REVERT JUMPDEST POP PUSH2 0x300 PUSH2 0x4AF CALLDATASIZE PUSH1 0x4 PUSH2 0x2CFE JUMP JUMPDEST PUSH2 0x10F1 JUMP JUMPDEST CALLVALUE DUP1 ISZERO PUSH2 0x4C0 JUMPI PUSH1 0x0 DUP1 REVERT JUMPDEST POP PUSH2 0x300 PUSH2 0x1174 JUMP JUMPDEST CALLVALUE DUP1 ISZERO PUSH2 0x4D5 JUMPI PUSH1 0x0 DUP1 REVERT JUMPDEST POP PUSH2 0x300 PUSH2 0x130D JUMP JUMPDEST CALLVALUE DUP1 ISZERO PUSH2 0x4EA JUMPI PUSH1 0x0 DUP1 REVERT JUMPDEST POP PUSH2 0x295 PUSH2 0x131E JUMP JUMPDEST CALLVALUE DUP1 ISZERO PUSH2 0x4FF JUMPI PUSH1 0x0 DUP1 REVERT JUMPDEST POP PUSH2 0x2CB PUSH2 0x50E CALLDATASIZE PUSH1 0x4 PUSH2 0x2CAD JUMP JUMPDEST PUSH1 0x0 SWAP1 DUP2 MSTORE PUSH1 0x1 PUSH1 0x20 MSTORE PUSH1 0x40 SWAP1 KECCAK256 SLOAD PUSH1 0x1 PUSH1 0xC0 SHL SWAP1 DIV PUSH4 0xFFFFFFFF AND SWAP1 JUMP JUMPDEST CALLVALUE DUP1 ISZERO PUSH2 0x539 JUMPI PUSH1 0x0 DUP1 REVERT JUMPDEST POP PUSH2 0x36D PUSH1 0x9 SLOAD DUP2 JUMP JUMPDEST CALLVALUE DUP1 ISZERO PUSH2 0x54F JUMPI PUSH1 0x0 DUP1 REVERT JUMPDEST POP PUSH2 0x563 PUSH2 0x55E CALLDATASIZE PUSH1 0x4 PUSH2 0x2D19 JUMP JUMPDEST PUSH2 0x1357 JUMP JUMPDEST PUSH1 0x40 MLOAD PUSH2 0x261 SWAP2 SWAP1 PUSH2 0x2D3B JUMP JUMPDEST CALLVALUE DUP1 ISZERO PUSH2 0x57C JUMPI PUSH1 0x0 DUP1 REVERT JUMPDEST POP PUSH2 0x300 PUSH2 0x58B CALLDATASIZE PUSH1 0x4 PUSH2 0x2CAD JUMP JUMPDEST PUSH2 0x149D JUMP JUMPDEST CALLVALUE DUP1 ISZERO PUSH2 0x59C JUMPI PUSH1 0x0 DUP1 REVERT JUMPDEST POP PUSH2 0x36D PUSH2 0x5AB CALLDATASIZE PUSH1 0x4 PUSH2 0x2E0A JUMP JUMPDEST PUSH2 0x166D JUMP JUMPDEST CALLVALUE DUP1 ISZERO PUSH2 0x5BC JUMPI PUSH1 0x0 DUP1 REVERT JUMPDEST POP PUSH2 0x5E1 PUSH1 0x40 MLOAD DUP1 PUSH1 0x40 ADD PUSH1 0x40 MSTORE DUP1 PUSH1 0x5 DUP2 MSTORE PUSH1 0x20 ADD PUSH5 0x352E302E3 PUSH1 0xDC SHL DUP2 MSTORE POP DUP2 JUMP JUMPDEST PUSH1 0x40 MLOAD PUSH2 0x261 SWAP2 SWAP1 PUSH2 0x2F54 JUMP JUMPDEST CALLVALUE DUP1 ISZERO PUSH2 0x5FA JUMPI PUSH1 0x0 DUP1 REVERT JUMPDEST POP PUSH2 0x300 PUSH2 0x609 CALLDATASIZE PUSH1 0x4 PUSH2 0x2C0C JUMP JUMPDEST PUSH2 0x1B46 JUMP JUMPDEST CALLVALUE DUP1 ISZERO PUSH2 0x61A JUMPI PUSH1 0x0 DUP1 REVERT JUMPDEST POP PUSH2 0x295 PUSH2 0x629 CALLDATASIZE PUSH1 0x4 PUSH2 0x2FED JUMP JUMPDEST PUSH4 0xBC197C81 PUSH1 0xE0 SHL SWAP6 SWAP5 POP POP POP POP POP JUMP JUMPDEST CALLVALUE DUP1 ISZERO PUSH2 0x646 JUMPI PUSH1 0x0 DUP1 REVERT JUMPDEST POP PUSH2 0x64F PUSH2 0x1BD8 JUMP JUMPDEST PUSH1 0x40 MLOAD PUSH1 0x1 PUSH1 0x1 PUSH1 0xA0 SHL SUB SWAP1 SWAP2 AND DUP2 MSTORE PUSH1 0x20 ADD PUSH2 0x261 JUMP JUMPDEST CALLVALUE DUP1 ISZERO PUSH2 0x673 JUMPI PUSH1 0x0 DUP1 REVERT JUMPDEST POP PUSH1 0x2 SLOAD PUSH2 0x64F SWAP1 PUSH1 0x1 PUSH1 0x1 PUSH1 0xA0 SHL SUB AND DUP2 JUMP JUMPDEST CALLVALUE DUP1 ISZERO PUSH2 0x693 JUMPI PUSH1 0x0 DUP1 REVERT JUMPDEST POP PUSH2 0x300 PUSH2 0x6A2 CALLDATASIZE PUSH1 0x4 PUSH2 0x2C42 JUMP JUMPDEST PUSH2 0x1BF4 JUMP JUMPDEST CALLVALUE DUP1 ISZERO PUSH2 0x6B3 JUMPI PUSH1 0x0 DUP1 REVERT JUMPDEST POP PUSH2 0x36D PUSH1 0x8 SLOAD DUP2 JUMP JUMPDEST CALLVALUE DUP1 ISZERO PUSH2 0x6C9 JUMPI PUSH1 0x0 DUP1 REVERT JUMPDEST POP PUSH2 0x300 PUSH2 0x6D8 CALLDATASIZE PUSH1 0x4 PUSH2 0x2C42 JUMP JUMPDEST PUSH2 0x1C39 JUMP JUMPDEST CALLVALUE DUP1 ISZERO PUSH2 0x6E9 JUMPI PUSH1 0x0 DUP1 REVERT JUMPDEST POP PUSH2 0x300 PUSH2 0x6F8 CALLDATASIZE PUSH1 0x4 PUSH2 0x2CAD JUMP JUMPDEST PUSH2 0x1CC6 JUMP JUMPDEST CALLVALUE DUP1 ISZERO PUSH2 0x709 JUMPI PUSH1 0x0 DUP1 REVERT JUMPDEST POP PUSH2 0x36D PUSH1 0x5 SLOAD DUP2 JUMP JUMPDEST CALLVALUE DUP1 ISZERO PUSH2 0x71F JUMPI PUSH1 0x0 DUP1 REVERT JUMPDEST POP PUSH2 0x795 PUSH2 0x72E CALLDATASIZE PUSH1 0x4 PUSH2 0x2CAD JUMP JUMPDEST PUSH1 0x0 SWAP1 DUP2 MSTORE PUSH1 0x1 PUSH1 0x20 DUP2 SWAP1 MSTORE PUSH1 0x40 SWAP1 SWAP2 KECCAK256 DUP1 SLOAD SWAP2 DUP2 ADD SLOAD PUSH1 0x2 DUP3 ADD SLOAD PUSH1 0x3 DUP4 ADD SLOAD PUSH1 0x4 DUP5 ADD SLOAD PUSH1 0x6 DUP6 ADD SLOAD PUSH1 0x7 SWAP1 SWAP6 ADD SLOAD PUSH1 0x1 PUSH1 0x1 PUSH1 0xA0 SHL SUB DUP1 DUP9 AND SWAP9 PUSH4 0xFFFFFFFF PUSH1 0x1 PUSH1 0xA0 SHL DUP11 DIV DUP2 AND SWAP10 PUSH1 0x1 PUSH1 0xC0 SHL SWAP1 DIV AND SWAP8 SWAP7 DUP3 AND SWAP7 PUSH1 0xFF SWAP1 SWAP5 AND SWAP4 SWAP2 SWAP1 SWAP2 AND SWAP2 SWAP1 JUMP JUMPDEST PUSH1 0x40 MLOAD PUSH2 0x261 SWAP10 SWAP9 SWAP8 SWAP7 SWAP6 SWAP5 SWAP4 SWAP3 SWAP2 SWAP1 PUSH2 0x3097 JUMP JUMPDEST CALLVALUE DUP1 ISZERO PUSH2 0x7B6 JUMPI PUSH1 0x0 DUP1 REVERT JUMPDEST POP PUSH2 0x295 PUSH2 0x7C5 CALLDATASIZE PUSH1 0x4 PUSH2 0x30FA JUMP JUMPDEST PUSH4 0xF23A6E61 PUSH1 0xE0 SHL SWAP6 SWAP5 POP POP POP POP POP JUMP JUMPDEST CALLVALUE DUP1 ISZERO PUSH2 0x7E2 JUMPI PUSH1 0x0 DUP1 REVERT JUMPDEST POP PUSH2 0x36D PUSH1 0x0 SLOAD DUP2 JUMP JUMPDEST PUSH1 0x0 PUSH1 0x1 PUSH1 0x1 PUSH1 0xE0 SHL SUB NOT DUP3 AND PUSH4 0x2711897 PUSH1 0xE5 SHL EQ DUP1 PUSH2 0x81D JUMPI POP PUSH4 0x1FFC9A7 PUSH1 0xE0 SHL PUSH1 0x1 PUSH1 0x1 PUSH1 0xE0 SHL SUB NOT DUP4 AND EQ JUMPDEST SWAP3 SWAP2 POP POP JUMP JUMPDEST PUSH2 0x82B PUSH2 0x2156 JUMP JUMPDEST PUSH2 0x833 PUSH2 0x218E JUMP JUMPDEST PUSH1 0x0 DUP4 DUP2 MSTORE PUSH1 0x1 PUSH1 0x20 MSTORE PUSH1 0x40 SWAP1 KECCAK256 DUP1 SLOAD PUSH1 0x1 PUSH1 0xC0 SHL SWAP1 DIV PUSH4 0xFFFFFFFF AND TIMESTAMP GT ISZERO PUSH2 0x88C JUMPI DUP1 SLOAD PUSH1 0x40 MLOAD PUSH4 0x394DAB15 PUSH1 0xE2 SHL DUP2 MSTORE TIMESTAMP PUSH1 0x4 DUP3 ADD MSTORE PUSH1 0x1 PUSH1 0xC0 SHL SWAP1 SWAP2 DIV PUSH4 0xFFFFFFFF AND PUSH1 0x24 DUP3 ADD MSTORE PUSH1 0x44 ADD JUMPDEST PUSH1 0x40 MLOAD DUP1 SWAP2 SUB SWAP1 REVERT JUMPDEST DUP1 PUSH1 0x2 ADD SLOAD DUP4 GT PUSH2 0x8C0 JUMPI PUSH1 0x2 DUP2 ADD SLOAD PUSH1 0x40 MLOAD PUSH4 0xF0DEFC61 PUSH1 0xE0 SHL DUP2 MSTORE PUSH2 0x883 SWAP2 DUP6 SWAP2 PUSH1 0x4 ADD SWAP2 DUP3 MSTORE PUSH1 0x20 DUP3 ADD MSTORE PUSH1 0x40 ADD SWAP1 JUMP JUMPDEST PUSH1 0x64 DUP4 PUSH1 0x7 SLOAD PUSH2 0x8D0 SWAP2 SWAP1 PUSH2 0x3175 JUMP JUMPDEST PUSH2 0x8DA SWAP2 SWAP1 PUSH2 0x318C JUMP JUMPDEST DUP3 GT ISZERO PUSH2 0x908 JUMPI PUSH1 0x7 SLOAD PUSH1 0x40 MLOAD PUSH4 0x4BB86577 PUSH1 0xE1 SHL DUP2 MSTORE PUSH2 0x883 SWAP2 DUP5 SWAP2 PUSH1 0x4 ADD SWAP2 DUP3 MSTORE PUSH1 0x20 DUP3 ADD MSTORE PUSH1 0x40 ADD SWAP1 JUMP JUMPDEST PUSH1 0x6 DUP2 ADD SLOAD PUSH1 0x40 MLOAD PUSH4 0x23B872DD PUSH1 0xE0 SHL DUP2 MSTORE PUSH1 0x1 PUSH1 0x1 PUSH1 0xA0 SHL SUB SWAP1 SWAP2 AND SWAP1 DUP2 SWAP1 PUSH4 0x23B872DD SWAP1 PUSH2 0x940 SWAP1 CALLER SWAP1 ADDRESS SWAP1 DUP10 SWAP1 PUSH1 0x4 ADD PUSH2 0x31AE JUMP JUMPDEST PUSH1 0x20 PUSH1 0x40 MLOAD DUP1 DUP4 SUB DUP2 PUSH1 0x0 DUP8 GAS CALL ISZERO DUP1 ISZERO PUSH2 0x95F JUMPI RETURNDATASIZE PUSH1 0x0 DUP1 RETURNDATACOPY RETURNDATASIZE PUSH1 0x0 REVERT JUMPDEST POP POP POP POP PUSH1 0x40 MLOAD RETURNDATASIZE PUSH1 0x1F NOT PUSH1 0x1F DUP3 ADD AND DUP3 ADD DUP1 PUSH1 0x40 MSTORE POP DUP2 ADD SWAP1 PUSH2 0x983 SWAP2 SWAP1 PUSH2 0x31E2 JUMP JUMPDEST POP PUSH1 0x6 SLOAD DUP3 SLOAD PUSH2 0x9A3 SWAP2 PUSH4 0xFFFFFFFF SWAP1 DUP2 AND SWAP2 PUSH1 0x1 PUSH1 0xC0 SHL SWAP1 DIV AND PUSH2 0x31FD JUMP JUMPDEST PUSH4 0xFFFFFFFF AND TIMESTAMP GT ISZERO PUSH2 0xA0C JUMPI PUSH1 0x6 SLOAD DUP3 SLOAD PUSH4 0xFFFFFFFF SWAP2 DUP3 AND SWAP2 DUP5 SWAP2 PUSH1 0x18 SWAP2 PUSH2 0x9D7 SWAP2 DUP6 SWAP2 PUSH1 0x1 PUSH1 0xC0 SHL SWAP1 SWAP2 DIV AND PUSH2 0x3221 JUMP JUMPDEST DUP3 SLOAD PUSH2 0x100 SWAP3 SWAP1 SWAP3 EXP PUSH4 0xFFFFFFFF DUP2 DUP2 MUL NOT SWAP1 SWAP4 AND SWAP2 SWAP1 SWAP3 AND SWAP2 SWAP1 SWAP2 MUL OR SWAP1 SSTORE POP PUSH1 0x4 DUP3 ADD DUP1 SLOAD PUSH1 0xFF NOT AND PUSH1 0x2 OR SWAP1 SSTORE PUSH2 0xA1C JUMP JUMPDEST PUSH1 0x4 DUP3 ADD DUP1 SLOAD PUSH1 0xFF NOT AND PUSH1 0x1 OR SWAP1 SSTORE JUMPDEST PUSH1 0x1 DUP3 ADD SLOAD PUSH1 0x1 PUSH1 0x1 PUSH1 0xA0 SHL SUB AND ISZERO DUP1 ISZERO SWAP1 PUSH2 0xA53 JUMPI POP PUSH1 0x5 SLOAD DUP3 SLOAD PUSH2 0xA4F SWAP2 SWAP1 PUSH1 0x1 PUSH1 0xA0 SHL SWAP1 DIV PUSH4 0xFFFFFFFF AND PUSH2 0x323E JUMP JUMPDEST TIMESTAMP LT ISZERO JUMPDEST ISZERO PUSH2 0xB52 JUMPI PUSH1 0x0 DUP3 PUSH1 0x3 ADD SLOAD DUP4 PUSH1 0x2 ADD SLOAD PUSH2 0xA6E SWAP2 SWAP1 PUSH2 0x323E JUMP JUMPDEST PUSH1 0x1 DUP5 ADD SLOAD PUSH1 0x40 MLOAD PUSH4 0xA9059CBB PUSH1 0xE0 SHL DUP2 MSTORE PUSH1 0x1 PUSH1 0x1 PUSH1 0xA0 SHL SUB SWAP2 DUP3 AND PUSH1 0x4 DUP3 ADD MSTORE PUSH1 0x24 DUP2 ADD DUP4 SWAP1 MSTORE SWAP2 SWAP3 POP DUP4 AND SWAP1 PUSH4 0xA9059CBB SWAP1 PUSH1 0x44 ADD PUSH1 0x20 PUSH1 0x40 MLOAD DUP1 DUP4 SUB DUP2 PUSH1 0x0 DUP8 GAS CALL ISZERO DUP1 ISZERO PUSH2 0xAC5 JUMPI RETURNDATASIZE PUSH1 0x0 DUP1 RETURNDATACOPY RETURNDATASIZE PUSH1 0x0 REVERT JUMPDEST POP POP POP POP PUSH1 0x40 MLOAD RETURNDATASIZE PUSH1 0x1F NOT PUSH1 0x1F DUP3 ADD AND DUP3 ADD DUP1 PUSH1 0x40 MSTORE POP DUP2 ADD SWAP1 PUSH2 0xAE9 SWAP2 SWAP1 PUSH2 0x31E2 JUMP JUMPDEST POP DUP4 DUP4 PUSH1 0x7 ADD PUSH1 0x0 DUP3 DUP3 SLOAD PUSH2 0xAFE SWAP2 SWAP1 PUSH2 0x323E JUMP JUMPDEST SWAP1 SWAP2 SSTORE POP POP PUSH1 0x1 DUP4 ADD SLOAD PUSH1 0x3 DUP5 ADD SLOAD PUSH1 0x40 MLOAD SWAP1 DUP2 MSTORE PUSH1 0x1 PUSH1 0x1 PUSH1 0xA0 SHL SUB SWAP1 SWAP2 AND SWAP1 PUSH32 0x70220290EA80981EFD0F0F7E6B1B5085605EB976822C8B8422E5BCC53E4C6D63 SWAP1 PUSH1 0x20 ADD PUSH1 0x40 MLOAD DUP1 SWAP2 SUB SWAP1 LOG2 POP PUSH2 0xBE6 JUMP JUMPDEST PUSH1 0x1 DUP3 ADD SLOAD PUSH1 0x1 PUSH1 0x1 PUSH1 0xA0 SHL SUB AND ISZERO PUSH2 0xBE6 JUMPI PUSH1 0x1 DUP3 ADD SLOAD PUSH1 0x2 DUP4 ADD SLOAD PUSH1 0x40 MLOAD PUSH4 0xA9059CBB PUSH1 0xE0 SHL DUP2 MSTORE PUSH1 0x1 PUSH1 0x1 PUSH1 0xA0 SHL SUB SWAP3 DUP4 AND PUSH1 0x4 DUP3 ADD MSTORE PUSH1 0x24 DUP2 ADD SWAP2 SWAP1 SWAP2 MSTORE SWAP1 DUP3 AND SWAP1 PUSH4 0xA9059CBB SWAP1 PUSH1 0x44 ADD PUSH1 0x20 PUSH1 0x40 MLOAD DUP1 DUP4 SUB DUP2 PUSH1 0x0 DUP8 GAS CALL ISZERO DUP1 ISZERO PUSH2 0xBC0 JUMPI RETURNDATASIZE PUSH1 0x0 DUP1 RETURNDATACOPY RETURNDATASIZE PUSH1 0x0 REVERT JUMPDEST POP POP POP POP PUSH1 0x40 MLOAD RETURNDATASIZE PUSH1 0x1F NOT PUSH1 0x1F DUP3 ADD AND DUP3 ADD DUP1 PUSH1 0x40 MSTORE POP DUP2 ADD SWAP1 PUSH2 0xBE4 SWAP2 SWAP1 PUSH2 0x31E2 JUMP JUMPDEST POP JUMPDEST PUSH1 0x1 DUP3 ADD DUP1 SLOAD CALLER PUSH1 0x1 PUSH1 0x1 PUSH1 0xA0 SHL SUB NOT SWAP1 SWAP2 AND DUP2 OR SWAP1 SWAP2 SSTORE PUSH1 0x2 DUP4 ADD DUP6 SWAP1 SSTORE PUSH1 0x3 DUP4 ADD DUP5 SWAP1 SSTORE DUP3 SLOAD PUSH1 0x40 DUP1 MLOAD DUP9 DUP2 MSTORE PUSH1 0x20 DUP2 ADD SWAP4 SWAP1 SWAP4 MSTORE DUP3 ADD DUP7 SWAP1 MSTORE PUSH1 0x60 DUP3 ADD DUP6 SWAP1 MSTORE PUSH1 0x1 PUSH1 0xC0 SHL SWAP1 DIV PUSH4 0xFFFFFFFF AND PUSH1 0x80 DUP3 ADD MSTORE PUSH32 0x460816B78AEB54F712462AC78724283FD863A6F1BA0F4886CA8B2B7F6926179E SWAP1 PUSH1 0xA0 ADD PUSH1 0x40 MLOAD DUP1 SWAP2 SUB SWAP1 LOG1 POP POP PUSH2 0xC81 PUSH1 0x1 PUSH1 0x0 DUP1 MLOAD PUSH1 0x20 PUSH2 0x3432 DUP4 CODECOPY DUP2 MLOAD SWAP2 MSTORE SSTORE JUMP JUMPDEST POP POP POP JUMP JUMPDEST PUSH2 0xC93 CALLER JUMPDEST PUSH1 0x0 CALLDATASIZE PUSH2 0x21D3 JUMP JUMPDEST PUSH1 0x64 DUP2 PUSH2 0xFFFF AND LT PUSH2 0xCC5 JUMPI PUSH1 0x40 MLOAD PUSH4 0x4BB86577 PUSH1 0xE1 SHL DUP2 MSTORE PUSH2 0xFFFF DUP3 AND PUSH1 0x4 DUP3 ADD MSTORE PUSH1 0x63 PUSH1 0x24 DUP3 ADD MSTORE PUSH1 0x44 ADD PUSH2 0x883 JUMP JUMPDEST PUSH2 0xFFFF DUP2 AND PUSH1 0x7 DUP2 SWAP1 SSTORE PUSH1 0x40 MLOAD SWAP1 DUP2 MSTORE PUSH32 0x5CA520F831F8D754F63AB92B7CF507A5FD5E64ACC73687FB37722EADBD032EE SWAP1 PUSH1 0x20 ADD JUMPDEST PUSH1 0x40 MLOAD DUP1 SWAP2 SUB SWAP1 LOG1 POP JUMP JUMPDEST PUSH2 0xD0F CALLER PUSH2 0xC8B JUMP JUMPDEST PUSH1 0x3C DUP2 PUSH4 0xFFFFFFFF AND LT ISZERO PUSH2 0xD51 JUMPI PUSH1 0x4 DUP1 SLOAD PUSH1 0x40 MLOAD PUSH4 0xFB6FFDE9 PUSH1 0xE0 SHL DUP2 MSTORE PUSH4 0xFFFFFFFF DUP5 AND SWAP3 DUP2 ADD SWAP3 SWAP1 SWAP3 MSTORE PUSH1 0x3C PUSH1 0x24 DUP4 ADD MSTORE PUSH1 0x44 DUP3 ADD MSTORE PUSH1 0x64 ADD PUSH2 0x883 JUMP JUMPDEST PUSH4 0xFFFFFFFF DUP2 AND PUSH1 0x3 DUP2 SWAP1 SSTORE PUSH1 0x40 MLOAD SWAP1 DUP2 MSTORE PUSH32 0xEE11BF76CAD37F7EE2E8BA9E649C433620AF1EC464CC2986958B52DE9E0A9491 SWAP1 PUSH1 0x20 ADD PUSH2 0xCFB JUMP JUMPDEST PUSH2 0xD96 CALLER PUSH2 0xC8B JUMP JUMPDEST PUSH2 0xD9E PUSH2 0x22D9 JUMP JUMPDEST JUMP JUMPDEST PUSH2 0xDA8 PUSH2 0x2333 JUMP JUMPDEST PUSH2 0xDB1 DUP3 PUSH2 0x23D8 JUMP JUMPDEST PUSH2 0xDBB DUP3 DUP3 PUSH2 0x23E1 JUMP JUMPDEST POP POP JUMP JUMPDEST PUSH1 0x0 PUSH2 0xDC9 PUSH2 0x249E JUMP JUMPDEST POP PUSH1 0x0 DUP1 MLOAD PUSH1 0x20 PUSH2 0x33F2 DUP4 CODECOPY DUP2 MLOAD SWAP2 MSTORE SWAP1 JUMP JUMPDEST PUSH2 0xDE5 CALLER PUSH2 0xC8B JUMP JUMPDEST PUSH1 0x0 SLOAD DUP2 LT PUSH2 0xE0A JUMPI PUSH1 0x40 MLOAD PUSH4 0xD9970FA1 PUSH1 0xE0 SHL DUP2 MSTORE PUSH1 0x4 DUP2 ADD DUP3 SWAP1 MSTORE PUSH1 0x24 ADD PUSH2 0x883 JUMP JUMPDEST PUSH1 0x0 DUP2 DUP2 MSTORE PUSH1 0x1 PUSH1 0x20 DUP2 SWAP1 MSTORE PUSH1 0x40 SWAP1 SWAP2 KECCAK256 SWAP1 DUP2 ADD SLOAD PUSH1 0x1 PUSH1 0x1 PUSH1 0xA0 SHL SUB AND ISZERO PUSH2 0xECF JUMPI PUSH1 0x6 DUP2 ADD SLOAD PUSH1 0x1 DUP3 ADD SLOAD PUSH1 0x7 DUP4 ADD SLOAD PUSH1 0x2 DUP5 ADD SLOAD PUSH1 0x1 PUSH1 0x1 PUSH1 0xA0 SHL SUB SWAP4 DUP5 AND SWAP4 PUSH4 0xA9059CBB SWAP4 AND SWAP2 PUSH2 0xE5E SWAP2 PUSH2 0x3251 JUMP JUMPDEST PUSH1 0x40 MLOAD PUSH1 0x1 PUSH1 0x1 PUSH1 0xE0 SHL SUB NOT PUSH1 0xE0 DUP6 SWAP1 SHL AND DUP2 MSTORE PUSH1 0x1 PUSH1 0x1 PUSH1 0xA0 SHL SUB SWAP1 SWAP3 AND PUSH1 0x4 DUP4 ADD MSTORE PUSH1 0x24 DUP3 ADD MSTORE PUSH1 0x44 ADD PUSH1 0x20 PUSH1 0x40 MLOAD DUP1 DUP4 SUB DUP2 PUSH1 0x0 DUP8 GAS CALL ISZERO DUP1 ISZERO PUSH2 0xEA9 JUMPI RETURNDATASIZE PUSH1 0x0 DUP1 RETURNDATACOPY RETURNDATASIZE PUSH1 0x0 REVERT JUMPDEST POP POP POP POP PUSH1 0x40 MLOAD RETURNDATASIZE PUSH1 0x1F NOT PUSH1 0x1F DUP3 ADD AND DUP3 ADD DUP1 PUSH1 0x40 MSTORE POP DUP2 ADD SWAP1 PUSH2 0xECD SWAP2 SWAP1 PUSH2 0x31E2 JUMP JUMPDEST POP JUMPDEST PUSH1 0x0 JUMPDEST PUSH1 0x5 DUP3 ADD SLOAD DUP2 LT ISZERO PUSH2 0xFA8 JUMPI DUP2 PUSH1 0x5 ADD DUP2 DUP2 SLOAD DUP2 LT PUSH2 0xEF3 JUMPI PUSH2 0xEF3 PUSH2 0x3264 JUMP JUMPDEST PUSH1 0x0 SWAP2 DUP3 MSTORE PUSH1 0x20 SWAP1 SWAP2 KECCAK256 PUSH1 0x4 SWAP1 SWAP2 MUL ADD SLOAD DUP3 SLOAD PUSH1 0x5 DUP5 ADD DUP1 SLOAD PUSH1 0x1 PUSH1 0x1 PUSH1 0xA0 SHL SUB SWAP4 DUP5 AND SWAP4 PUSH4 0x42842E0E SWAP4 ADDRESS SWAP4 SWAP2 AND SWAP2 DUP7 SWAP1 DUP2 LT PUSH2 0xF33 JUMPI PUSH2 0xF33 PUSH2 0x3264 JUMP JUMPDEST SWAP1 PUSH1 0x0 MSTORE PUSH1 0x20 PUSH1 0x0 KECCAK256 SWAP1 PUSH1 0x4 MUL ADD PUSH1 0x1 ADD SLOAD PUSH1 0x40 MLOAD DUP5 PUSH4 0xFFFFFFFF AND PUSH1 0xE0 SHL DUP2 MSTORE PUSH1 0x4 ADD PUSH2 0xF63 SWAP4 SWAP3 SWAP2 SWAP1 PUSH2 0x31AE JUMP JUMPDEST PUSH1 0x0 PUSH1 0x40 MLOAD DUP1 DUP4 SUB DUP2 PUSH1 0x0 DUP8 DUP1 EXTCODESIZE ISZERO DUP1 ISZERO PUSH2 0xF7D JUMPI PUSH1 0x0 DUP1 REVERT JUMPDEST POP GAS CALL ISZERO DUP1 ISZERO PUSH2 0xF91 JUMPI RETURNDATASIZE PUSH1 0x0 DUP1 RETURNDATACOPY RETURNDATASIZE PUSH1 0x0 REVERT JUMPDEST POP POP POP POP DUP1 DUP1 PUSH2 0xFA0 SWAP1 PUSH2 0x327A JUMP JUMPDEST SWAP2 POP POP PUSH2 0xED2 JUMP JUMPDEST POP PUSH1 0x4 DUP2 DUP2 ADD DUP1 SLOAD PUSH1 0xFF NOT AND SWAP1 SWAP2 OR SWAP1 SSTORE PUSH1 0x40 MLOAD DUP3 DUP2 MSTORE PUSH32 0x2809C7E17BF978FBC7194C0A694B638C4215E9140CACC6C38CA36010B45697DF SWAP1 PUSH1 0x20 ADD JUMPDEST PUSH1 0x40 MLOAD DUP1 SWAP2 SUB SWAP1 LOG1 POP POP JUMP JUMPDEST PUSH2 0xFFA CALLER PUSH2 0xC8B JUMP JUMPDEST PUSH1 0x64 DUP2 PUSH2 0xFFFF AND GT ISZERO PUSH2 0x102D JUMPI PUSH1 0x40 MLOAD PUSH4 0x19D2C493 PUSH1 0xE2 SHL DUP2 MSTORE PUSH2 0xFFFF DUP3 AND PUSH1 0x4 DUP3 ADD MSTORE PUSH1 0x64 PUSH1 0x24 DUP3 ADD MSTORE PUSH1 0x44 ADD PUSH2 0x883 JUMP JUMPDEST PUSH2 0xFFFF DUP2 AND PUSH1 0x9 DUP2 SWAP1 SSTORE PUSH1 0x40 MLOAD SWAP1 DUP2 MSTORE PUSH32 0x7D9D8AC44F7D6B305D6F922B6D49887E5D221D9D080577CCA886A8569685A3D4 SWAP1 PUSH1 0x20 ADD PUSH2 0xCFB JUMP JUMPDEST PUSH2 0x1070 CALLER PUSH2 0xC8B JUMP JUMPDEST PUSH2 0xA8C0 DUP2 PUSH4 0xFFFFFFFF AND GT ISZERO PUSH2 0x10A9 JUMPI PUSH1 0x40 MLOAD PUSH4 0x1BEC1BC9 PUSH1 0xE2 SHL DUP2 MSTORE PUSH4 0xFFFFFFFF DUP3 AND PUSH1 0x4 DUP3 ADD MSTORE PUSH2 0xA8C0 PUSH1 0x24 DUP3 ADD MSTORE PUSH1 0x44 ADD PUSH2 0x883 JUMP JUMPDEST PUSH1 0x6 DUP1 SLOAD PUSH4 0xFFFFFFFF NOT AND PUSH4 0xFFFFFFFF DUP4 AND SWAP1 DUP2 OR SWAP1 SWAP2 SSTORE PUSH1 0x40 MLOAD SWAP1 DUP2 MSTORE PUSH32 0x72EBDBDA638F86E71D1679D2736F0B5CDFA3D224D38A46AB09400D9896B920FC SWAP1 PUSH1 0x20 ADD PUSH2 0xCFB JUMP JUMPDEST CALLER PUSH2 0x10FA PUSH2 0x1BD8 JUMP JUMPDEST PUSH1 0x1 PUSH1 0x1 PUSH1 0xA0 SHL SUB AND DUP2 PUSH1 0x1 PUSH1 0x1 PUSH1 0xA0 SHL SUB AND EQ PUSH2 0x1135 JUMPI PUSH1 0x40 MLOAD PUSH3 0xD1953B PUSH1 0xE3 SHL DUP2 MSTORE PUSH1 0x1 PUSH1 0x1 PUSH1 0xA0 SHL SUB DUP3 AND PUSH1 0x4 DUP3 ADD MSTORE PUSH1 0x24 ADD PUSH2 0x883 JUMP JUMPDEST DUP2 PUSH1 0x1 PUSH1 0x1 PUSH1 0xA0 SHL SUB AND EXTCODESIZE PUSH1 0x0 SUB PUSH2 0x116B JUMPI PUSH1 0x40 MLOAD PUSH4 0x61798F2F PUSH1 0xE1 SHL DUP2 MSTORE PUSH1 0x1 PUSH1 0x1 PUSH1 0xA0 SHL SUB DUP4 AND PUSH1 0x4 DUP3 ADD MSTORE PUSH1 0x24 ADD PUSH2 0x883 JUMP JUMPDEST PUSH2 0xDBB DUP3 PUSH2 0x24E7 JUMP JUMPDEST PUSH32 0xF0C57E16840DF040F15088DC2F81FE391C3923BEC73E23A9662EFC9C229C6A00 DUP1 SLOAD PUSH1 0x1 PUSH1 0x40 SHL DUP2 DIV PUSH1 0xFF AND ISZERO SWAP1 PUSH8 0xFFFFFFFFFFFFFFFF AND PUSH1 0x0 DUP2 ISZERO DUP1 ISZERO PUSH2 0x11BA JUMPI POP DUP3 JUMPDEST SWAP1 POP PUSH1 0x0 DUP3 PUSH8 0xFFFFFFFFFFFFFFFF AND PUSH1 0x1 EQ DUP1 ISZERO PUSH2 0x11D7 JUMPI POP ADDRESS EXTCODESIZE ISZERO JUMPDEST SWAP1 POP DUP2 ISZERO DUP1 ISZERO PUSH2 0x11E5 JUMPI POP DUP1 ISZERO JUMPDEST ISZERO PUSH2 0x1203 JUMPI PUSH1 0x40 MLOAD PUSH4 0xF92EE8A9 PUSH1 0xE0 SHL DUP2 MSTORE PUSH1 0x4 ADD PUSH1 0x40 MLOAD DUP1 SWAP2 SUB SWAP1 REVERT JUMPDEST DUP5 SLOAD PUSH8 0xFFFFFFFFFFFFFFFF NOT AND PUSH1 0x1 OR DUP6 SSTORE DUP4 ISZERO PUSH2 0x122D JUMPI DUP5 SLOAD PUSH1 0xFF PUSH1 0x40 SHL NOT AND PUSH1 0x1 PUSH1 0x40 SHL OR DUP6 SSTORE JUMPDEST PUSH2 0x1235 PUSH2 0x2541 JUMP JUMPDEST PUSH2 0x123D PUSH2 0x2541 JUMP JUMPDEST PUSH2 0x1245 PUSH2 0x2549 JUMP JUMPDEST PUSH2 0x1255 PUSH2 0x1250 PUSH2 0x2559 JUMP JUMPDEST PUSH2 0x2598 JUMP JUMPDEST PUSH2 0x125D PUSH2 0x2541 JUMP JUMPDEST PUSH2 0x1265 PUSH2 0x25A9 JUMP JUMPDEST PUSH2 0x126D PUSH2 0x25B9 JUMP JUMPDEST PUSH1 0x2 DUP1 SLOAD PUSH1 0x1 PUSH1 0x1 PUSH1 0xA0 SHL SUB NOT AND PUSH1 0x1 PUSH1 0x1 PUSH1 0xA0 SHL SUB SWAP3 SWAP1 SWAP3 AND SWAP2 SWAP1 SWAP2 OR SWAP1 SSTORE PUSH1 0x1 PUSH1 0x0 SWAP1 DUP2 SSTORE PUSH1 0x3C PUSH1 0x3 SSTORE PUSH3 0x6EBE00 PUSH1 0x4 SSTORE PUSH1 0x5 SSTORE PUSH1 0x6 DUP1 SLOAD PUSH4 0xFFFFFFFF NOT AND SWAP1 SSTORE PUSH1 0xC PUSH1 0x7 SSTORE PUSH2 0x3E8 PUSH1 0x8 SSTORE PUSH1 0x14 PUSH1 0x9 SSTORE DUP4 ISZERO PUSH2 0x1306 JUMPI DUP5 SLOAD PUSH1 0xFF PUSH1 0x40 SHL NOT AND DUP6 SSTORE PUSH1 0x40 MLOAD PUSH1 0x1 DUP2 MSTORE PUSH32 0xC7F505B2F371AE2175EE4913F4499E1F2633A7B5936321EED1CDAEB6115181D2 SWAP1 PUSH1 0x20 ADD PUSH1 0x40 MLOAD DUP1 SWAP2 SUB SWAP1 LOG1 JUMPDEST POP POP POP POP POP JUMP JUMPDEST PUSH2 0x1316 CALLER PUSH2 0xC8B JUMP JUMPDEST PUSH2 0xD9E PUSH2 0x25F8 JUMP JUMPDEST PUSH1 0x0 DUP1 MLOAD PUSH1 0x20 PUSH2 0x33D2 DUP4 CODECOPY DUP2 MLOAD SWAP2 MSTORE DUP1 SLOAD PUSH1 0x0 SWAP2 SWAP1 PUSH1 0x1 PUSH1 0xA0 SHL SWAP1 DIV PUSH1 0xFF AND PUSH2 0x1348 JUMPI PUSH1 0x0 PUSH2 0x1351 JUMP JUMPDEST PUSH4 0x8FB36037 PUSH1 0xE0 SHL JUMPDEST SWAP2 POP POP SWAP1 JUMP JUMPDEST PUSH2 0x137F PUSH1 0x40 DUP1 MLOAD PUSH1 0x80 DUP2 ADD DUP3 MSTORE PUSH1 0x0 DUP1 DUP3 MSTORE PUSH1 0x20 DUP3 ADD DUP2 SWAP1 MSTORE SWAP2 DUP2 ADD DUP3 SWAP1 MSTORE SWAP1 PUSH1 0x60 DUP3 ADD MSTORE SWAP1 JUMP JUMPDEST PUSH1 0x0 DUP4 DUP2 MSTORE PUSH1 0x1 PUSH1 0x20 MSTORE PUSH1 0x40 SWAP1 KECCAK256 PUSH1 0x5 ADD SLOAD DUP3 LT PUSH2 0x13DF JUMPI PUSH1 0x40 MLOAD PUSH3 0x461BCD PUSH1 0xE5 SHL DUP2 MSTORE PUSH1 0x20 PUSH1 0x4 DUP3 ADD MSTORE PUSH1 0x19 PUSH1 0x24 DUP3 ADD MSTORE PUSH32 0x546F6B656E20696E646578206F7574206F6620626F756E647300000000000000 PUSH1 0x44 DUP3 ADD MSTORE PUSH1 0x64 ADD PUSH2 0x883 JUMP JUMPDEST PUSH1 0x0 DUP4 DUP2 MSTORE PUSH1 0x1 PUSH1 0x20 MSTORE PUSH1 0x40 SWAP1 KECCAK256 PUSH1 0x5 ADD DUP1 SLOAD DUP4 SWAP1 DUP2 LT PUSH2 0x1402 JUMPI PUSH2 0x1402 PUSH2 0x3264 JUMP JUMPDEST SWAP1 PUSH1 0x0 MSTORE PUSH1 0x20 PUSH1 0x0 KECCAK256 SWAP1 PUSH1 0x4 MUL ADD PUSH1 0x40 MLOAD DUP1 PUSH1 0x80 ADD PUSH1 0x40 MSTORE SWAP1 DUP2 PUSH1 0x0 DUP3 ADD PUSH1 0x0 SWAP1 SLOAD SWAP1 PUSH2 0x100 EXP SWAP1 DIV PUSH1 0x1 PUSH1 0x1 PUSH1 0xA0 SHL SUB AND PUSH1 0x1 PUSH1 0x1 PUSH1 0xA0 SHL SUB AND PUSH1 0x1 PUSH1 0x1 PUSH1 0xA0 SHL SUB AND DUP2 MSTORE PUSH1 0x20 ADD PUSH1 0x1 DUP3 ADD SLOAD DUP2 MSTORE PUSH1 0x20 ADD PUSH1 0x2 DUP3 ADD SLOAD DUP2 MSTORE PUSH1 0x20 ADD PUSH1 0x3 DUP3 ADD PUSH1 0x0 SWAP1 SLOAD SWAP1 PUSH2 0x100 EXP SWAP1 DIV PUSH1 0xFF AND PUSH1 0x1 DUP2 GT ISZERO PUSH2 0x1482 JUMPI PUSH2 0x1482 PUSH2 0x2CC6 JUMP JUMPDEST PUSH1 0x1 DUP2 GT ISZERO PUSH2 0x1493 JUMPI PUSH2 0x1493 PUSH2 0x2CC6 JUMP JUMPDEST SWAP1 MSTORE POP SWAP4 SWAP3 POP POP POP JUMP JUMPDEST PUSH1 0x0 DUP2 DUP2 MSTORE PUSH1 0x1 PUSH1 0x20 MSTORE PUSH1 0x40 SWAP1 KECCAK256 DUP1 SLOAD PUSH1 0x1 PUSH1 0x1 PUSH1 0xA0 SHL SUB AND CALLER EQ PUSH2 0x14E9 JUMPI DUP1 SLOAD PUSH1 0x40 MLOAD PUSH4 0xB71AF04B PUSH1 0xE0 SHL DUP2 MSTORE PUSH1 0x1 PUSH1 0x1 PUSH1 0xA0 SHL SUB SWAP1 SWAP2 AND PUSH1 0x4 DUP3 ADD MSTORE CALLER PUSH1 0x24 DUP3 ADD MSTORE PUSH1 0x44 ADD PUSH2 0x883 JUMP JUMPDEST PUSH1 0x4 DUP2 DUP2 ADD SLOAD PUSH1 0xFF AND DUP2 DUP2 GT ISZERO PUSH2 0x1502 JUMPI PUSH2 0x1502 PUSH2 0x2CC6 JUMP JUMPDEST EQ DUP1 PUSH2 0x1526 JUMPI POP PUSH1 0x3 PUSH1 0x4 DUP1 DUP4 ADD SLOAD PUSH1 0xFF AND SWAP1 DUP2 GT ISZERO PUSH2 0x1524 JUMPI PUSH2 0x1524 PUSH2 0x2CC6 JUMP JUMPDEST EQ JUMPDEST ISZERO PUSH2 0x155B JUMPI DUP1 SLOAD PUSH1 0x40 MLOAD PUSH4 0x394DAB15 PUSH1 0xE2 SHL DUP2 MSTORE TIMESTAMP PUSH1 0x4 DUP3 ADD MSTORE PUSH1 0x1 PUSH1 0xC0 SHL SWAP1 SWAP2 DIV PUSH4 0xFFFFFFFF AND PUSH1 0x24 DUP3 ADD MSTORE PUSH1 0x44 ADD PUSH2 0x883 JUMP JUMPDEST PUSH1 0x0 PUSH1 0x4 DUP1 DUP4 ADD SLOAD PUSH1 0xFF AND SWAP1 DUP2 GT ISZERO PUSH2 0x1576 JUMPI PUSH2 0x1576 PUSH2 0x2CC6 JUMP JUMPDEST EQ PUSH2 0x1594 JUMPI PUSH1 0x40 MLOAD PUSH4 0x35473ACB PUSH1 0xE0 SHL DUP2 MSTORE PUSH1 0x4 ADD PUSH1 0x40 MLOAD DUP1 SWAP2 SUB SWAP1 REVERT JUMPDEST PUSH1 0x0 JUMPDEST PUSH1 0x5 DUP3 ADD SLOAD DUP2 LT ISZERO PUSH2 0xFA8 JUMPI DUP2 PUSH1 0x5 ADD DUP2 DUP2 SLOAD DUP2 LT PUSH2 0x15B8 JUMPI PUSH2 0x15B8 PUSH2 0x3264 JUMP JUMPDEST PUSH1 0x0 SWAP2 DUP3 MSTORE PUSH1 0x20 SWAP1 SWAP2 KECCAK256 PUSH1 0x4 SWAP1 SWAP2 MUL ADD SLOAD DUP3 SLOAD PUSH1 0x5 DUP5 ADD DUP1 SLOAD PUSH1 0x1 PUSH1 0x1 PUSH1 0xA0 SHL SUB SWAP4 DUP5 AND SWAP4 PUSH4 0x23B872DD SWAP4 ADDRESS SWAP4 SWAP2 AND SWAP2 DUP7 SWAP1 DUP2 LT PUSH2 0x15F8 JUMPI PUSH2 0x15F8 PUSH2 0x3264 JUMP JUMPDEST SWAP1 PUSH1 0x0 MSTORE PUSH1 0x20 PUSH1 0x0 KECCAK256 SWAP1 PUSH1 0x4 MUL ADD PUSH1 0x1 ADD SLOAD PUSH1 0x40 MLOAD DUP5 PUSH4 0xFFFFFFFF AND PUSH1 0xE0 SHL DUP2 MSTORE PUSH1 0x4 ADD PUSH2 0x1628 SWAP4 SWAP3 SWAP2 SWAP1 PUSH2 0x31AE JUMP JUMPDEST PUSH1 0x0 PUSH1 0x40 MLOAD DUP1 DUP4 SUB DUP2 PUSH1 0x0 DUP8 DUP1 EXTCODESIZE ISZERO DUP1 ISZERO PUSH2 0x1642 JUMPI PUSH1 0x0 DUP1 REVERT JUMPDEST POP GAS CALL ISZERO DUP1 ISZERO PUSH2 0x1656 JUMPI RETURNDATASIZE PUSH1 0x0 DUP1 RETURNDATACOPY RETURNDATASIZE PUSH1 0x0 REVERT JUMPDEST POP POP POP POP DUP1 DUP1 PUSH2 0x1665 SWAP1 PUSH2 0x327A JUMP JUMPDEST SWAP2 POP POP PUSH2 0x1597 JUMP JUMPDEST PUSH1 0x0 PUSH2 0x1677 PUSH2 0x218E JUMP JUMPDEST DUP4 MLOAD ISZERO DUP1 PUSH2 0x1687 JUMPI POP PUSH1 0x9 SLOAD DUP5 MLOAD GT JUMPDEST ISZERO PUSH2 0x16B3 JUMPI DUP4 MLOAD PUSH1 0x9 SLOAD PUSH1 0x40 MLOAD PUSH4 0x19D2C493 PUSH1 0xE2 SHL DUP2 MSTORE PUSH1 0x4 DUP2 ADD SWAP3 SWAP1 SWAP3 MSTORE PUSH1 0x24 DUP3 ADD MSTORE PUSH1 0x44 ADD PUSH2 0x883 JUMP JUMPDEST PUSH1 0x3 SLOAD DUP6 PUSH4 0xFFFFFFFF AND LT DUP1 PUSH2 0x16D0 JUMPI POP PUSH1 0x4 SLOAD DUP6 PUSH4 0xFFFFFFFF AND GT JUMPDEST ISZERO PUSH2 0x170F JUMPI PUSH1 0x3 SLOAD PUSH1 0x4 DUP1 SLOAD PUSH1 0x40 MLOAD PUSH4 0xFB6FFDE9 PUSH1 0xE0 SHL DUP2 MSTORE PUSH4 0xFFFFFFFF DUP10 AND SWAP3 DUP2 ADD SWAP3 SWAP1 SWAP3 MSTORE PUSH1 0x24 DUP3 ADD SWAP3 SWAP1 SWAP3 MSTORE PUSH1 0x44 DUP2 ADD SWAP2 SWAP1 SWAP2 MSTORE PUSH1 0x64 ADD PUSH2 0x883 JUMP JUMPDEST PUSH1 0x8 SLOAD DUP3 MLOAD GT ISZERO PUSH2 0x1741 JUMPI DUP2 MLOAD PUSH1 0x8 SLOAD PUSH1 0x40 MLOAD PUSH4 0x16F0A445 PUSH1 0xE2 SHL DUP2 MSTORE PUSH1 0x4 DUP2 ADD SWAP3 SWAP1 SWAP3 MSTORE PUSH1 0x24 DUP3 ADD MSTORE PUSH1 0x44 ADD PUSH2 0x883 JUMP JUMPDEST PUSH1 0x8 SLOAD DUP3 PUSH1 0x20 ADD MLOAD GT ISZERO PUSH2 0x1779 JUMPI PUSH1 0x20 DUP3 ADD MLOAD PUSH1 0x8 SLOAD PUSH1 0x40 MLOAD PUSH4 0x16F0A445 PUSH1 0xE2 SHL DUP2 MSTORE PUSH1 0x4 DUP2 ADD SWAP3 SWAP1 SWAP3 MSTORE PUSH1 0x24 DUP3 ADD MSTORE PUSH1 0x44 ADD PUSH2 0x883 JUMP JUMPDEST PUSH1 0x0 DUP1 SLOAD DUP2 MSTORE PUSH1 0x1 PUSH1 0x20 MSTORE PUSH1 0x40 SWAP1 KECCAK256 DUP1 SLOAD PUSH1 0x1 PUSH1 0x1 PUSH1 0xC0 SHL SUB NOT AND CALLER PUSH4 0xFFFFFFFF PUSH1 0xA0 SHL NOT AND OR PUSH1 0x1 PUSH1 0xA0 SHL TIMESTAMP PUSH4 0xFFFFFFFF DUP2 DUP2 AND SWAP3 SWAP1 SWAP3 MUL SWAP3 SWAP1 SWAP3 OR DUP4 SSTORE PUSH2 0x17C5 SWAP2 SWAP1 DUP9 AND SWAP1 PUSH2 0x323E JUMP JUMPDEST DUP2 SLOAD PUSH4 0xFFFFFFFF SWAP2 SWAP1 SWAP2 AND PUSH1 0x1 PUSH1 0xC0 SHL MUL PUSH4 0xFFFFFFFF PUSH1 0xC0 SHL NOT SWAP1 SWAP2 AND OR DUP2 SSTORE PUSH1 0x2 DUP2 ADD DUP8 SWAP1 SSTORE PUSH1 0x4 DUP2 ADD DUP1 SLOAD PUSH1 0xFF NOT AND SWAP1 SSTORE PUSH1 0x6 DUP2 ADD DUP1 SLOAD PUSH1 0x1 PUSH1 0x1 PUSH1 0xA0 SHL SUB DUP7 DUP2 AND PUSH1 0x1 PUSH1 0x1 PUSH1 0xA0 SHL SUB NOT SWAP3 DUP4 AND OR SWAP1 SWAP3 SSTORE DUP5 MLOAD PUSH1 0x8 DUP5 ADD SSTORE PUSH1 0x20 DUP6 ADD MLOAD PUSH1 0x9 DUP5 ADD SSTORE PUSH1 0x40 DUP6 ADD MLOAD PUSH1 0xA DUP5 ADD DUP1 SLOAD SWAP2 SWAP1 SWAP4 AND SWAP2 AND OR SWAP1 SSTORE PUSH1 0x0 JUMPDEST DUP6 MLOAD DUP2 LT ISZERO PUSH2 0x1AC1 JUMPI PUSH1 0x0 DUP7 DUP3 DUP2 MLOAD DUP2 LT PUSH2 0x185E JUMPI PUSH2 0x185E PUSH2 0x3264 JUMP JUMPDEST PUSH1 0x20 MUL PUSH1 0x20 ADD ADD MLOAD PUSH1 0x60 ADD MLOAD PUSH1 0x1 DUP2 GT ISZERO PUSH2 0x187B JUMPI PUSH2 0x187B PUSH2 0x2CC6 JUMP JUMPDEST SUB PUSH2 0x1921 JUMPI DUP6 DUP2 DUP2 MLOAD DUP2 LT PUSH2 0x1892 JUMPI PUSH2 0x1892 PUSH2 0x3264 JUMP JUMPDEST PUSH1 0x20 MUL PUSH1 0x20 ADD ADD MLOAD PUSH1 0x0 ADD MLOAD PUSH1 0x1 PUSH1 0x1 PUSH1 0xA0 SHL SUB AND PUSH4 0x42842E0E CALLER ADDRESS DUP10 DUP6 DUP2 MLOAD DUP2 LT PUSH2 0x18C0 JUMPI PUSH2 0x18C0 PUSH2 0x3264 JUMP JUMPDEST PUSH1 0x20 MUL PUSH1 0x20 ADD ADD MLOAD PUSH1 0x20 ADD MLOAD PUSH1 0x40 MLOAD DUP5 PUSH4 0xFFFFFFFF AND PUSH1 0xE0 SHL DUP2 MSTORE PUSH1 0x4 ADD PUSH2 0x18EA SWAP4 SWAP3 SWAP2 SWAP1 PUSH2 0x31AE JUMP JUMPDEST PUSH1 0x0 PUSH1 0x40 MLOAD DUP1 DUP4 SUB DUP2 PUSH1 0x0 DUP8 DUP1 EXTCODESIZE ISZERO DUP1 ISZERO PUSH2 0x1904 JUMPI PUSH1 0x0 DUP1 REVERT JUMPDEST POP GAS CALL ISZERO DUP1 ISZERO PUSH2 0x1918 JUMPI RETURNDATASIZE PUSH1 0x0 DUP1 RETURNDATACOPY RETURNDATASIZE PUSH1 0x0 REVERT JUMPDEST POP POP POP POP PUSH2 0x1A13 JUMP JUMPDEST PUSH1 0x1 DUP7 DUP3 DUP2 MLOAD DUP2 LT PUSH2 0x1935 JUMPI PUSH2 0x1935 PUSH2 0x3264 JUMP JUMPDEST PUSH1 0x20 MUL PUSH1 0x20 ADD ADD MLOAD PUSH1 0x60 ADD MLOAD PUSH1 0x1 DUP2 GT ISZERO PUSH2 0x1952 JUMPI PUSH2 0x1952 PUSH2 0x2CC6 JUMP JUMPDEST SUB PUSH2 0x1A13 JUMPI DUP6 DUP2 DUP2 MLOAD DUP2 LT PUSH2 0x1969 JUMPI PUSH2 0x1969 PUSH2 0x3264 JUMP JUMPDEST PUSH1 0x20 MUL PUSH1 0x20 ADD ADD MLOAD PUSH1 0x0 ADD MLOAD PUSH1 0x1 PUSH1 0x1 PUSH1 0xA0 SHL SUB AND PUSH4 0xF242432A CALLER ADDRESS DUP10 DUP6 DUP2 MLOAD DUP2 LT PUSH2 0x1997 JUMPI PUSH2 0x1997 PUSH2 0x3264 JUMP JUMPDEST PUSH1 0x20 MUL PUSH1 0x20 ADD ADD MLOAD PUSH1 0x20 ADD MLOAD DUP11 DUP7 DUP2 MLOAD DUP2 LT PUSH2 0x19B5 JUMPI PUSH2 0x19B5 PUSH2 0x3264 JUMP JUMPDEST PUSH1 0x20 MUL PUSH1 0x20 ADD ADD MLOAD PUSH1 0x40 ADD MLOAD PUSH1 0x40 MLOAD DUP6 PUSH4 0xFFFFFFFF AND PUSH1 0xE0 SHL DUP2 MSTORE PUSH1 0x4 ADD PUSH2 0x19E0 SWAP5 SWAP4 SWAP3 SWAP2 SWAP1 PUSH2 0x3293 JUMP JUMPDEST PUSH1 0x0 PUSH1 0x40 MLOAD DUP1 DUP4 SUB DUP2 PUSH1 0x0 DUP8 DUP1 EXTCODESIZE ISZERO DUP1 ISZERO PUSH2 0x19FA JUMPI PUSH1 0x0 DUP1 REVERT JUMPDEST POP GAS CALL ISZERO DUP1 ISZERO PUSH2 0x1A0E JUMPI RETURNDATASIZE PUSH1 0x0 DUP1 RETURNDATACOPY RETURNDATASIZE PUSH1 0x0 REVERT JUMPDEST POP POP POP POP JUMPDEST DUP2 PUSH1 0x5 ADD DUP7 DUP3 DUP2 MLOAD DUP2 LT PUSH2 0x1A29 JUMPI PUSH2 0x1A29 PUSH2 0x3264 JUMP JUMPDEST PUSH1 0x20 SWAP1 DUP2 MUL SWAP2 SWAP1 SWAP2 ADD DUP2 ADD MLOAD DUP3 SLOAD PUSH1 0x1 DUP1 DUP3 ADD DUP6 SSTORE PUSH1 0x0 SWAP5 DUP6 MSTORE SWAP4 DUP4 SWAP1 KECCAK256 DUP3 MLOAD PUSH1 0x4 SWAP1 SWAP3 MUL ADD DUP1 SLOAD PUSH1 0x1 PUSH1 0x1 PUSH1 0xA0 SHL SUB NOT AND PUSH1 0x1 PUSH1 0x1 PUSH1 0xA0 SHL SUB SWAP1 SWAP3 AND SWAP2 SWAP1 SWAP2 OR DUP2 SSTORE SWAP2 DUP2 ADD MLOAD DUP3 DUP5 ADD SSTORE PUSH1 0x40 DUP2 ADD MLOAD PUSH1 0x2 DUP4 ADD SSTORE PUSH1 0x60 DUP2 ADD MLOAD PUSH1 0x3 DUP4 ADD DUP1 SLOAD SWAP3 SWAP5 SWAP2 SWAP3 SWAP1 SWAP2 PUSH1 0xFF NOT SWAP1 SWAP2 AND SWAP1 DUP4 DUP2 DUP2 GT ISZERO PUSH2 0x1AA7 JUMPI PUSH2 0x1AA7 PUSH2 0x2CC6 JUMP JUMPDEST MUL OR SWAP1 SSTORE POP POP POP DUP1 DUP1 PUSH2 0x1AB9 SWAP1 PUSH2 0x327A JUMP JUMPDEST SWAP2 POP POP PUSH2 0x1841 JUMP JUMPDEST POP PUSH1 0x0 SLOAD DUP2 SLOAD PUSH1 0x40 DUP1 MLOAD SWAP3 DUP4 MSTORE CALLER PUSH1 0x20 DUP5 ADD MSTORE DUP3 ADD DUP10 SWAP1 MSTORE PUSH1 0x1 PUSH1 0xC0 SHL SWAP1 DIV PUSH4 0xFFFFFFFF AND PUSH1 0x60 DUP3 ADD MSTORE PUSH32 0x413F6C06DD8588EBCE23465FB71B348472BF4B188074DB8AA826C046D3A62839 SWAP1 PUSH1 0x80 ADD PUSH1 0x40 MLOAD DUP1 SWAP2 SUB SWAP1 LOG1 PUSH1 0x0 DUP1 SLOAD SWAP1 DUP1 PUSH2 0x1B27 DUP4 PUSH2 0x327A JUMP JUMPDEST SWAP2 SWAP1 POP SSTORE POP PUSH1 0x1 PUSH1 0x0 SLOAD PUSH2 0x1B3B SWAP2 SWAP1 PUSH2 0x3251 JUMP JUMPDEST SWAP8 SWAP7 POP POP POP POP POP POP POP JUMP JUMPDEST PUSH2 0x1B4F CALLER PUSH2 0xC8B JUMP JUMPDEST PUSH2 0x3E8 DUP2 PUSH2 0xFFFF AND GT ISZERO PUSH2 0x1B9E JUMPI PUSH1 0x40 MLOAD PUSH3 0x461BCD PUSH1 0xE5 SHL DUP2 MSTORE PUSH1 0x20 PUSH1 0x4 DUP3 ADD MSTORE PUSH1 0x16 PUSH1 0x24 DUP3 ADD MSTORE PUSH22 0x46656573206D7573742062652062656C6F7720313025 PUSH1 0x50 SHL PUSH1 0x44 DUP3 ADD MSTORE PUSH1 0x64 ADD PUSH2 0x883 JUMP JUMPDEST PUSH2 0xFFFF DUP2 AND PUSH1 0x8 DUP2 SWAP1 SSTORE PUSH1 0x40 MLOAD SWAP1 DUP2 MSTORE PUSH32 0x76C0A3015E83E0DD94E5B30DB7FD5A526C1681FADE10AF7C7907AFB87E107091 SWAP1 PUSH1 0x20 ADD PUSH2 0xCFB JUMP JUMPDEST PUSH1 0x0 DUP1 MLOAD PUSH1 0x20 PUSH2 0x33D2 DUP4 CODECOPY DUP2 MLOAD SWAP2 MSTORE SLOAD PUSH1 0x1 PUSH1 0x1 PUSH1 0xA0 SHL SUB AND SWAP1 JUMP JUMPDEST PUSH2 0x1BFD CALLER PUSH2 0xC8B JUMP JUMPDEST PUSH4 0xFFFFFFFF DUP2 AND PUSH1 0x5 DUP2 SWAP1 SSTORE PUSH1 0x40 MLOAD SWAP1 DUP2 MSTORE PUSH32 0x8A44FF5C31644AC1169A9A98797EE3DBC1034A731AB16CF1D627F4D2C2C3B45 SWAP1 PUSH1 0x20 ADD PUSH2 0xCFB JUMP JUMPDEST PUSH2 0x1C42 CALLER PUSH2 0xC8B JUMP JUMPDEST PUSH4 0x1DFE200 DUP2 PUSH4 0xFFFFFFFF AND GT ISZERO PUSH2 0x1C8A JUMPI PUSH1 0x4 DUP1 SLOAD PUSH1 0x40 MLOAD PUSH4 0xFB6FFDE9 PUSH1 0xE0 SHL DUP2 MSTORE PUSH4 0xFFFFFFFF DUP5 AND SWAP3 DUP2 ADD SWAP3 SWAP1 SWAP3 MSTORE PUSH1 0x24 DUP3 ADD MSTORE PUSH4 0x1DFE200 PUSH1 0x44 DUP3 ADD MSTORE PUSH1 0x64 ADD PUSH2 0x883 JUMP JUMPDEST PUSH4 0xFFFFFFFF DUP2 AND PUSH1 0x4 DUP2 SWAP1 SSTORE PUSH1 0x40 MLOAD SWAP1 DUP2 MSTORE PUSH32 0x72C2908C3D91804A7B4EEFF9563B5CBF3519159C818FE86BE3F1366ED2DC1E35 SWAP1 PUSH1 0x20 ADD PUSH2 0xCFB JUMP JUMPDEST PUSH2 0x1CCE PUSH2 0x2156 JUMP JUMPDEST PUSH2 0x1CD6 PUSH2 0x218E JUMP JUMPDEST PUSH1 0x0 DUP2 DUP2 MSTORE PUSH1 0x1 PUSH1 0x20 MSTORE PUSH1 0x40 SWAP1 KECCAK256 DUP1 SLOAD PUSH1 0x1 PUSH1 0xC0 SHL SWAP1 DIV PUSH4 0xFFFFFFFF AND TIMESTAMP LT ISZERO PUSH2 0x1D2A JUMPI DUP1 SLOAD PUSH1 0x40 MLOAD PUSH4 0x3DF48B25 PUSH1 0xE2 SHL DUP2 MSTORE TIMESTAMP PUSH1 0x4 DUP3 ADD MSTORE PUSH1 0x1 PUSH1 0xC0 SHL SWAP1 SWAP2 DIV PUSH4 0xFFFFFFFF AND PUSH1 0x24 DUP3 ADD MSTORE PUSH1 0x44 ADD PUSH2 0x883 JUMP JUMPDEST PUSH1 0x1 DUP2 ADD SLOAD PUSH1 0x1 PUSH1 0x1 PUSH1 0xA0 SHL SUB AND PUSH2 0x1D45 JUMPI PUSH2 0x1D45 DUP3 PUSH2 0x149D JUMP JUMPDEST PUSH1 0x6 DUP2 ADD SLOAD PUSH1 0x8 DUP3 ADD SLOAD PUSH1 0x1 PUSH1 0x1 PUSH1 0xA0 SHL SUB SWAP1 SWAP2 AND SWAP1 PUSH1 0x0 SWAP1 PUSH2 0x1D6B SWAP1 PUSH2 0x2710 SWAP1 PUSH2 0x318C JUMP JUMPDEST DUP4 PUSH1 0x2 ADD SLOAD PUSH2 0x1D7A SWAP2 SWAP1 PUSH2 0x3175 JUMP JUMPDEST SWAP1 POP PUSH1 0x0 PUSH2 0x2710 DUP5 PUSH1 0x8 ADD PUSH1 0x1 ADD SLOAD PUSH2 0x1D93 SWAP2 SWAP1 PUSH2 0x318C JUMP JUMPDEST DUP5 PUSH1 0x2 ADD SLOAD PUSH2 0x1DA2 SWAP2 SWAP1 PUSH2 0x3175 JUMP JUMPDEST SWAP1 POP PUSH1 0x0 DUP5 PUSH1 0x7 ADD SLOAD DUP3 DUP5 DUP8 PUSH1 0x2 ADD SLOAD PUSH2 0x1DBC SWAP2 SWAP1 PUSH2 0x3251 JUMP JUMPDEST PUSH2 0x1DC6 SWAP2 SWAP1 PUSH2 0x3251 JUMP JUMPDEST PUSH2 0x1DD0 SWAP2 SWAP1 PUSH2 0x3251 JUMP JUMPDEST DUP6 SLOAD SWAP1 SWAP2 POP PUSH1 0x1 PUSH1 0x1 PUSH1 0xA0 SHL SUB AND CALLER SUB PUSH2 0x1E47 JUMPI DUP5 SLOAD PUSH2 0x1DFB SWAP1 DUP6 SWAP1 PUSH1 0x1 PUSH1 0x1 PUSH1 0xA0 SHL SUB AND DUP4 PUSH2 0x2641 JUMP JUMPDEST DUP5 SLOAD PUSH1 0x40 DUP1 MLOAD DUP9 DUP2 MSTORE PUSH1 0x1 PUSH1 0x1 PUSH1 0xA0 SHL SUB SWAP1 SWAP3 AND PUSH1 0x20 DUP4 ADD MSTORE DUP2 ADD DUP3 SWAP1 MSTORE PUSH32 0xF73372FDCA7F972B1CC507AB0BDA9B67B500BD17AAED8C5E6A3366D413E7E1F8 SWAP1 PUSH1 0x60 ADD PUSH1 0x40 MLOAD DUP1 SWAP2 SUB SWAP1 LOG1 JUMPDEST PUSH1 0x1 DUP6 ADD SLOAD PUSH1 0x1 PUSH1 0x1 PUSH1 0xA0 SHL SUB AND CALLER SUB PUSH2 0x20F9 JUMPI PUSH1 0x0 JUMPDEST PUSH1 0x5 DUP7 ADD SLOAD DUP2 LT ISZERO PUSH2 0x20A6 JUMPI PUSH1 0x0 DUP7 PUSH1 0x5 ADD DUP3 DUP2 SLOAD DUP2 LT PUSH2 0x1E81 JUMPI PUSH2 0x1E81 PUSH2 0x3264 JUMP JUMPDEST PUSH1 0x0 SWAP2 DUP3 MSTORE PUSH1 0x20 SWAP1 SWAP2 KECCAK256 PUSH1 0x3 PUSH1 0x4 SWAP1 SWAP3 MUL ADD ADD SLOAD PUSH1 0xFF AND PUSH1 0x1 DUP2 GT ISZERO PUSH2 0x1EA9 JUMPI PUSH2 0x1EA9 PUSH2 0x2CC6 JUMP JUMPDEST SUB PUSH2 0x1F6D JUMPI DUP6 PUSH1 0x5 ADD DUP2 DUP2 SLOAD DUP2 LT PUSH2 0x1EC3 JUMPI PUSH2 0x1EC3 PUSH2 0x3264 JUMP JUMPDEST PUSH1 0x0 SWAP2 DUP3 MSTORE PUSH1 0x20 SWAP1 SWAP2 KECCAK256 PUSH1 0x4 SWAP1 SWAP2 MUL ADD SLOAD PUSH1 0x1 DUP8 ADD SLOAD PUSH1 0x5 DUP9 ADD DUP1 SLOAD PUSH1 0x1 PUSH1 0x1 PUSH1 0xA0 SHL SUB SWAP4 DUP5 AND SWAP4 PUSH4 0x42842E0E SWAP4 ADDRESS SWAP4 SWAP2 AND SWAP2 DUP7 SWAP1 DUP2 LT PUSH2 0x1F06 JUMPI PUSH2 0x1F06 PUSH2 0x3264 JUMP JUMPDEST SWAP1 PUSH1 0x0 MSTORE PUSH1 0x20 PUSH1 0x0 KECCAK256 SWAP1 PUSH1 0x4 MUL ADD PUSH1 0x1 ADD SLOAD PUSH1 0x40 MLOAD DUP5 PUSH4 0xFFFFFFFF AND PUSH1 0xE0 SHL DUP2 MSTORE PUSH1 0x4 ADD PUSH2 0x1F36 SWAP4 SWAP3 SWAP2 SWAP1 PUSH2 0x31AE JUMP JUMPDEST PUSH1 0x0 PUSH1 0x40 MLOAD DUP1 DUP4 SUB DUP2 PUSH1 0x0 DUP8 DUP1 EXTCODESIZE ISZERO DUP1 ISZERO PUSH2 0x1F50 JUMPI PUSH1 0x0 DUP1 REVERT JUMPDEST POP GAS CALL ISZERO DUP1 ISZERO PUSH2 0x1F64 JUMPI RETURNDATASIZE PUSH1 0x0 DUP1 RETURNDATACOPY RETURNDATASIZE PUSH1 0x0 REVERT JUMPDEST POP POP POP POP PUSH2 0x2094 JUMP JUMPDEST PUSH1 0x1 DUP7 PUSH1 0x5 ADD DUP3 DUP2 SLOAD DUP2 LT PUSH2 0x1F84 JUMPI PUSH2 0x1F84 PUSH2 0x3264 JUMP JUMPDEST PUSH1 0x0 SWAP2 DUP3 MSTORE PUSH1 0x20 SWAP1 SWAP2 KECCAK256 PUSH1 0x3 PUSH1 0x4 SWAP1 SWAP3 MUL ADD ADD SLOAD PUSH1 0xFF AND PUSH1 0x1 DUP2 GT ISZERO PUSH2 0x1FAC JUMPI PUSH2 0x1FAC PUSH2 0x2CC6 JUMP JUMPDEST SUB PUSH2 0x2094 JUMPI DUP6 PUSH1 0x5 ADD DUP2 DUP2 SLOAD DUP2 LT PUSH2 0x1FC6 JUMPI PUSH2 0x1FC6 PUSH2 0x3264 JUMP JUMPDEST PUSH1 0x0 SWAP2 DUP3 MSTORE PUSH1 0x20 SWAP1 SWAP2 KECCAK256 PUSH1 0x4 SWAP1 SWAP2 MUL ADD SLOAD PUSH1 0x1 DUP8 ADD SLOAD PUSH1 0x5 DUP9 ADD DUP1 SLOAD PUSH1 0x1 PUSH1 0x1 PUSH1 0xA0 SHL SUB SWAP4 DUP5 AND SWAP4 PUSH4 0xF242432A SWAP4 ADDRESS SWAP4 SWAP2 AND SWAP2 DUP7 SWAP1 DUP2 LT PUSH2 0x2009 JUMPI PUSH2 0x2009 PUSH2 0x3264 JUMP JUMPDEST SWAP1 PUSH1 0x0 MSTORE PUSH1 0x20 PUSH1 0x0 KECCAK256 SWAP1 PUSH1 0x4 MUL ADD PUSH1 0x1 ADD SLOAD DUP11 PUSH1 0x5 ADD DUP7 DUP2 SLOAD DUP2 LT PUSH2 0x2030 JUMPI PUSH2 0x2030 PUSH2 0x3264 JUMP JUMPDEST SWAP1 PUSH1 0x0 MSTORE PUSH1 0x20 PUSH1 0x0 KECCAK256 SWAP1 PUSH1 0x4 MUL ADD PUSH1 0x2 ADD SLOAD PUSH1 0x40 MLOAD DUP6 PUSH4 0xFFFFFFFF AND PUSH1 0xE0 SHL DUP2 MSTORE PUSH1 0x4 ADD PUSH2 0x2061 SWAP5 SWAP4 SWAP3 SWAP2 SWAP1 PUSH2 0x3293 JUMP JUMPDEST PUSH1 0x0 PUSH1 0x40 MLOAD DUP1 DUP4 SUB DUP2 PUSH1 0x0 DUP8 DUP1 EXTCODESIZE ISZERO DUP1 ISZERO PUSH2 0x207B JUMPI PUSH1 0x0 DUP1 REVERT JUMPDEST POP GAS CALL ISZERO DUP1 ISZERO PUSH2 0x208F JUMPI RETURNDATASIZE PUSH1 0x0 DUP1 RETURNDATACOPY RETURNDATASIZE PUSH1 0x0 REVERT JUMPDEST POP POP POP POP JUMPDEST DUP1 PUSH2 0x209E DUP2 PUSH2 0x327A JUMP JUMPDEST SWAP2 POP POP PUSH2 0x1E5E JUMP JUMPDEST POP PUSH1 0x1 DUP6 ADD SLOAD PUSH1 0x2 DUP7 ADD SLOAD PUSH1 0x40 DUP1 MLOAD DUP10 DUP2 MSTORE PUSH1 0x1 PUSH1 0x1 PUSH1 0xA0 SHL SUB SWAP1 SWAP4 AND PUSH1 0x20 DUP5 ADD MSTORE DUP3 ADD MSTORE PUSH32 0x287E93683FBDB8E8DC13E757BA52C664A7573734DFB5624353D5F49C033313B1 SWAP1 PUSH1 0x60 ADD PUSH1 0x40 MLOAD DUP1 SWAP2 SUB SWAP1 LOG1 JUMPDEST DUP3 ISZERO PUSH2 0x2117 JUMPI PUSH1 0x2 SLOAD PUSH2 0x2117 SWAP1 DUP6 SWAP1 PUSH1 0x1 PUSH1 0x1 PUSH1 0xA0 SHL SUB AND DUP6 PUSH2 0x2641 JUMP JUMPDEST DUP2 ISZERO PUSH2 0x2137 JUMPI PUSH1 0xA DUP6 ADD SLOAD PUSH2 0x2137 SWAP1 DUP6 SWAP1 PUSH1 0x1 PUSH1 0x1 PUSH1 0xA0 SHL SUB AND DUP5 PUSH2 0x2641 JUMP JUMPDEST POP POP POP POP POP PUSH2 0x2153 PUSH1 0x1 PUSH1 0x0 DUP1 MLOAD PUSH1 0x20 PUSH2 0x3432 DUP4 CODECOPY DUP2 MLOAD SWAP2 MSTORE SSTORE JUMP JUMPDEST POP JUMP JUMPDEST PUSH1 0x0 DUP1 MLOAD PUSH1 0x20 PUSH2 0x3432 DUP4 CODECOPY DUP2 MLOAD SWAP2 MSTORE DUP1 SLOAD PUSH1 0x1 NOT ADD PUSH2 0x2188 JUMPI PUSH1 0x40 MLOAD PUSH4 0x3EE5AEB5 PUSH1 0xE0 SHL DUP2 MSTORE PUSH1 0x4 ADD PUSH1 0x40 MLOAD DUP1 SWAP2 SUB SWAP1 REVERT JUMPDEST PUSH1 0x2 SWAP1 SSTORE JUMP JUMPDEST PUSH1 0x0 DUP1 MLOAD PUSH1 0x20 PUSH2 0x3412 DUP4 CODECOPY DUP2 MLOAD SWAP2 MSTORE SLOAD PUSH1 0xFF AND ISZERO PUSH2 0xD9E JUMPI PUSH1 0x40 MLOAD PUSH4 0xD93C0665 PUSH1 0xE0 SHL DUP2 MSTORE PUSH1 0x4 ADD PUSH1 0x40 MLOAD DUP1 SWAP2 SUB SWAP1 REVERT JUMPDEST PUSH1 0x1 PUSH1 0x0 DUP1 MLOAD PUSH1 0x20 PUSH2 0x3432 DUP4 CODECOPY DUP2 MLOAD SWAP2 MSTORE SSTORE JUMP JUMPDEST PUSH1 0x0 DUP1 MLOAD PUSH1 0x20 PUSH2 0x33D2 DUP4 CODECOPY DUP2 MLOAD SWAP2 MSTORE PUSH1 0x0 DUP1 PUSH2 0x220E PUSH2 0x21F0 PUSH2 0x1BD8 JUMP JUMPDEST DUP8 ADDRESS PUSH2 0x2200 PUSH1 0x4 PUSH1 0x0 DUP11 DUP13 PUSH2 0x32CB JUMP JUMPDEST PUSH2 0x2209 SWAP2 PUSH2 0x32F5 JUMP JUMPDEST PUSH2 0x26BB JUMP JUMPDEST SWAP2 POP SWAP2 POP DUP2 PUSH2 0x22D1 JUMPI PUSH4 0xFFFFFFFF DUP2 AND ISZERO PUSH2 0x22AE JUMPI DUP3 SLOAD PUSH1 0xFF PUSH1 0xA0 SHL NOT AND PUSH1 0x1 PUSH1 0xA0 SHL OR DUP4 SSTORE PUSH2 0x223C PUSH2 0x1BD8 JUMP JUMPDEST PUSH1 0x1 PUSH1 0x1 PUSH1 0xA0 SHL SUB AND PUSH4 0x94C7D7EE DUP8 DUP8 DUP8 PUSH1 0x40 MLOAD DUP5 PUSH4 0xFFFFFFFF AND PUSH1 0xE0 SHL DUP2 MSTORE PUSH1 0x4 ADD PUSH2 0x226B SWAP4 SWAP3 SWAP2 SWAP1 PUSH2 0x3325 JUMP JUMPDEST PUSH1 0x0 PUSH1 0x40 MLOAD DUP1 DUP4 SUB DUP2 PUSH1 0x0 DUP8 DUP1 EXTCODESIZE ISZERO DUP1 ISZERO PUSH2 0x2285 JUMPI PUSH1 0x0 DUP1 REVERT JUMPDEST POP GAS CALL ISZERO DUP1 ISZERO PUSH2 0x2299 JUMPI RETURNDATASIZE PUSH1 0x0 DUP1 RETURNDATACOPY RETURNDATASIZE PUSH1 0x0 REVERT JUMPDEST POP POP DUP5 SLOAD PUSH1 0xFF PUSH1 0xA0 SHL NOT AND DUP6 SSTORE POP PUSH2 0x22D1 SWAP1 POP JUMP JUMPDEST PUSH1 0x40 MLOAD PUSH3 0xD1953B PUSH1 0xE3 SHL DUP2 MSTORE PUSH1 0x1 PUSH1 0x1 PUSH1 0xA0 SHL SUB DUP8 AND PUSH1 0x4 DUP3 ADD MSTORE PUSH1 0x24 ADD PUSH2 0x883 JUMP JUMPDEST POP POP POP POP POP POP JUMP JUMPDEST PUSH2 0x22E1 PUSH2 0x27C7 JUMP JUMPDEST PUSH1 0x0 DUP1 MLOAD PUSH1 0x20 PUSH2 0x3412 DUP4 CODECOPY DUP2 MLOAD SWAP2 MSTORE DUP1 SLOAD PUSH1 0xFF NOT AND DUP2 SSTORE PUSH32 0x5DB9EE0A495BF2E6FF9C91A7834C1BA4FDD244A5E8AA4E537BD38AEAE4B073AA CALLER JUMPDEST PUSH1 0x40 MLOAD PUSH1 0x1 PUSH1 0x1 PUSH1 0xA0 SHL SUB SWAP1 SWAP2 AND DUP2 MSTORE PUSH1 0x20 ADD PUSH2 0xCFB JUMP JUMPDEST ADDRESS PUSH1 0x1 PUSH1 0x1 PUSH1 0xA0 SHL SUB PUSH32 0x0 AND EQ DUP1 PUSH2 0x23BA JUMPI POP PUSH32 0x0 PUSH1 0x1 PUSH1 0x1 PUSH1 0xA0 SHL SUB AND PUSH2 0x23AE PUSH1 0x0 DUP1 MLOAD PUSH1 0x20 PUSH2 0x33F2 DUP4 CODECOPY DUP2 MLOAD SWAP2 MSTORE SLOAD PUSH1 0x1 PUSH1 0x1 PUSH1 0xA0 SHL SUB AND SWAP1 JUMP JUMPDEST PUSH1 0x1 PUSH1 0x1 PUSH1 0xA0 SHL SUB AND EQ ISZERO JUMPDEST ISZERO PUSH2 0xD9E JUMPI PUSH1 0x40 MLOAD PUSH4 0x703E46DD PUSH1 0xE1 SHL DUP2 MSTORE PUSH1 0x4 ADD PUSH1 0x40 MLOAD DUP1 SWAP2 SUB SWAP1 REVERT JUMPDEST PUSH2 0x2153 CALLER PUSH2 0xC8B JUMP JUMPDEST DUP2 PUSH1 0x1 PUSH1 0x1 PUSH1 0xA0 SHL SUB AND PUSH4 0x52D1902D PUSH1 0x40 MLOAD DUP2 PUSH4 0xFFFFFFFF AND PUSH1 0xE0 SHL DUP2 MSTORE PUSH1 0x4 ADD PUSH1 0x20 PUSH1 0x40 MLOAD DUP1 DUP4 SUB DUP2 DUP7 GAS STATICCALL SWAP3 POP POP POP DUP1 ISZERO PUSH2 0x243B JUMPI POP PUSH1 0x40 DUP1 MLOAD PUSH1 0x1F RETURNDATASIZE SWAP1 DUP2 ADD PUSH1 0x1F NOT AND DUP3 ADD SWAP1 SWAP3 MSTORE PUSH2 0x2438 SWAP2 DUP2 ADD SWAP1 PUSH2 0x3365 JUMP JUMPDEST PUSH1 0x1 JUMPDEST PUSH2 0x2463 JUMPI PUSH1 0x40 MLOAD PUSH4 0x4C9C8CE3 PUSH1 0xE0 SHL DUP2 MSTORE PUSH1 0x1 PUSH1 0x1 PUSH1 0xA0 SHL SUB DUP4 AND PUSH1 0x4 DUP3 ADD MSTORE PUSH1 0x24 ADD PUSH2 0x883 JUMP JUMPDEST PUSH1 0x0 DUP1 MLOAD PUSH1 0x20 PUSH2 0x33F2 DUP4 CODECOPY DUP2 MLOAD SWAP2 MSTORE DUP2 EQ PUSH2 0x2494 JUMPI PUSH1 0x40 MLOAD PUSH4 0x2A875269 PUSH1 0xE2 SHL DUP2 MSTORE PUSH1 0x4 DUP2 ADD DUP3 SWAP1 MSTORE PUSH1 0x24 ADD PUSH2 0x883 JUMP JUMPDEST PUSH2 0xC81 DUP4 DUP4 PUSH2 0x27F7 JUMP JUMPDEST ADDRESS PUSH1 0x1 PUSH1 0x1 PUSH1 0xA0 SHL SUB PUSH32 0x0 AND EQ PUSH2 0xD9E JUMPI PUSH1 0x40 MLOAD PUSH4 0x703E46DD PUSH1 0xE1 SHL DUP2 MSTORE PUSH1 0x4 ADD PUSH1 0x40 MLOAD DUP1 SWAP2 SUB SWAP1 REVERT JUMPDEST PUSH1 0x0 DUP1 MLOAD PUSH1 0x20 PUSH2 0x33D2 DUP4 CODECOPY DUP2 MLOAD SWAP2 MSTORE DUP1 SLOAD PUSH1 0x1 PUSH1 0x1 PUSH1 0xA0 SHL SUB NOT AND PUSH1 0x1 PUSH1 0x1 PUSH1 0xA0 SHL SUB DUP4 AND SWAP1 DUP2 OR DUP3 SSTORE PUSH1 0x40 MLOAD SWAP1 DUP2 MSTORE PUSH32 0x2F658B440C35314F52658EA8A740E05B284CDC84DC9AE01E891F21B8933E7CAD SWAP1 PUSH1 0x20 ADD PUSH2 0xFE5 JUMP JUMPDEST PUSH2 0xD9E PUSH2 0x284D JUMP JUMPDEST PUSH2 0x2551 PUSH2 0x284D JUMP JUMPDEST PUSH2 0xD9E PUSH2 0x2896 JUMP JUMPDEST PUSH1 0x0 CHAINID PUSH2 0x14F SUB PUSH2 0x257D JUMPI POP PUSH20 0xE1809D966D96BEF678F808329336962944FFB106 SWAP1 JUMP JUMPDEST PUSH1 0x40 MLOAD PUSH4 0xFC941191 PUSH1 0xE0 SHL DUP2 MSTORE CHAINID PUSH1 0x4 DUP3 ADD MSTORE PUSH1 0x24 ADD PUSH2 0x883 JUMP JUMPDEST PUSH2 0x25A0 PUSH2 0x284D JUMP JUMPDEST PUSH2 0x2153 DUP2 PUSH2 0x28B7 JUMP JUMPDEST PUSH2 0x25B1 PUSH2 0x284D JUMP JUMPDEST PUSH2 0xD9E PUSH2 0x28C8 JUMP JUMPDEST PUSH1 0x0 CHAINID PUSH2 0x14F SUB PUSH2 0x25DD JUMPI POP PUSH20 0x419C3657532AAD16955291AF7942FEA9A1B6D010 SWAP1 JUMP JUMPDEST PUSH1 0x40 MLOAD PUSH4 0x67259B49 PUSH1 0xE0 SHL DUP2 MSTORE CHAINID PUSH1 0x4 DUP3 ADD MSTORE PUSH1 0x24 ADD PUSH2 0x883 JUMP JUMPDEST PUSH2 0x2600 PUSH2 0x218E JUMP JUMPDEST PUSH1 0x0 DUP1 MLOAD PUSH1 0x20 PUSH2 0x3412 DUP4 CODECOPY DUP2 MLOAD SWAP2 MSTORE DUP1 SLOAD PUSH1 0xFF NOT AND PUSH1 0x1 OR DUP2 SSTORE PUSH32 0x62E78CEA01BEE320CD4E420270B5EA74000D11B0C9F74754EBDBFC544B05A258 CALLER PUSH2 0x231B JUMP JUMPDEST PUSH1 0x40 MLOAD PUSH4 0xA9059CBB PUSH1 0xE0 SHL DUP2 MSTORE PUSH1 0x1 PUSH1 0x1 PUSH1 0xA0 SHL SUB DUP4 DUP2 AND PUSH1 0x4 DUP4 ADD MSTORE PUSH1 0x24 DUP3 ADD DUP4 SWAP1 MSTORE DUP5 AND SWAP1 PUSH4 0xA9059CBB SWAP1 PUSH1 0x44 ADD PUSH1 0x20 PUSH1 0x40 MLOAD DUP1 DUP4 SUB DUP2 PUSH1 0x0 DUP8 GAS CALL SWAP3 POP POP POP DUP1 ISZERO PUSH2 0x26AC JUMPI POP PUSH1 0x40 DUP1 MLOAD PUSH1 0x1F RETURNDATASIZE SWAP1 DUP2 ADD PUSH1 0x1F NOT AND DUP3 ADD SWAP1 SWAP3 MSTORE PUSH2 0x26A9 SWAP2 DUP2 ADD SWAP1 PUSH2 0x31E2 JUMP JUMPDEST PUSH1 0x1 JUMPDEST PUSH2 0x26B5 JUMPI PUSH1 0x0 DUP1 REVERT JUMPDEST POP POP POP POP JUMP JUMPDEST PUSH1 0x40 MLOAD PUSH1 0x1 PUSH1 0x1 PUSH1 0xA0 SHL SUB DUP5 DUP2 AND PUSH1 0x24 DUP4 ADD MSTORE DUP4 DUP2 AND PUSH1 0x44 DUP4 ADD MSTORE PUSH1 0x1 PUSH1 0x1 PUSH1 0xE0 SHL SUB NOT DUP4 AND PUSH1 0x64 DUP4 ADD MSTORE PUSH1 0x0 SWAP2 DUP3 SWAP2 DUP3 SWAP2 DUP3 SWAP2 DUP10 AND SWAP1 PUSH1 0x84 ADD PUSH1 0x40 DUP1 MLOAD PUSH1 0x1F NOT DUP2 DUP5 SUB ADD DUP2 MSTORE SWAP2 DUP2 MSTORE PUSH1 0x20 DUP3 ADD DUP1 MLOAD PUSH1 0x1 PUSH1 0x1 PUSH1 0xE0 SHL SUB AND PUSH4 0xB7009613 PUSH1 0xE0 SHL OR SWAP1 MSTORE MLOAD PUSH2 0x272A SWAP2 SWAP1 PUSH2 0x337E JUMP JUMPDEST PUSH1 0x0 PUSH1 0x40 MLOAD DUP1 DUP4 SUB DUP2 DUP6 GAS STATICCALL SWAP2 POP POP RETURNDATASIZE DUP1 PUSH1 0x0 DUP2 EQ PUSH2 0x2765 JUMPI PUSH1 0x40 MLOAD SWAP2 POP PUSH1 0x1F NOT PUSH1 0x3F RETURNDATASIZE ADD AND DUP3 ADD PUSH1 0x40 MSTORE RETURNDATASIZE DUP3 MSTORE RETURNDATASIZE PUSH1 0x0 PUSH1 0x20 DUP5 ADD RETURNDATACOPY PUSH2 0x276A JUMP JUMPDEST PUSH1 0x60 SWAP2 POP JUMPDEST POP SWAP2 POP SWAP2 POP DUP2 ISZERO PUSH2 0x27BC JUMPI PUSH1 0x40 DUP2 MLOAD LT PUSH2 0x279C JUMPI DUP1 DUP1 PUSH1 0x20 ADD SWAP1 MLOAD DUP2 ADD SWAP1 PUSH2 0x2792 SWAP2 SWAP1 PUSH2 0x339A JUMP JUMPDEST SWAP1 SWAP5 POP SWAP3 POP PUSH2 0x27BC JUMP JUMPDEST PUSH1 0x20 DUP2 MLOAD LT PUSH2 0x27BC JUMPI DUP1 DUP1 PUSH1 0x20 ADD SWAP1 MLOAD DUP2 ADD SWAP1 PUSH2 0x27B9 SWAP2 SWAP1 PUSH2 0x31E2 JUMP JUMPDEST SWAP4 POP JUMPDEST POP POP SWAP5 POP SWAP5 SWAP3 POP POP POP JUMP JUMPDEST PUSH1 0x0 DUP1 MLOAD PUSH1 0x20 PUSH2 0x3412 DUP4 CODECOPY DUP2 MLOAD SWAP2 MSTORE SLOAD PUSH1 0xFF AND PUSH2 0xD9E JUMPI PUSH1 0x40 MLOAD PUSH4 0x8DFC202B PUSH1 0xE0 SHL DUP2 MSTORE PUSH1 0x4 ADD PUSH1 0x40 MLOAD DUP1 SWAP2 SUB SWAP1 REVERT JUMPDEST PUSH2 0x2800 DUP3 PUSH2 0x28D0 JUMP JUMPDEST PUSH1 0x40 MLOAD PUSH1 0x1 PUSH1 0x1 PUSH1 0xA0 SHL SUB DUP4 AND SWAP1 PUSH32 0xBC7CD75A20EE27FD9ADEBAB32041F755214DBC6BFFA90CC0225B39DA2E5C2D3B SWAP1 PUSH1 0x0 SWAP1 LOG2 DUP1 MLOAD ISZERO PUSH2 0x2845 JUMPI PUSH2 0xC81 DUP3 DUP3 PUSH2 0x2935 JUMP JUMPDEST PUSH2 0xDBB PUSH2 0x29AB JUMP JUMPDEST PUSH32 0xF0C57E16840DF040F15088DC2F81FE391C3923BEC73E23A9662EFC9C229C6A00 SLOAD PUSH1 0x1 PUSH1 0x40 SHL SWAP1 DIV PUSH1 0xFF AND PUSH2 0xD9E JUMPI PUSH1 0x40 MLOAD PUSH4 0x1AFCD79F PUSH1 0xE3 SHL DUP2 MSTORE PUSH1 0x4 ADD PUSH1 0x40 MLOAD DUP1 SWAP2 SUB SWAP1 REVERT JUMPDEST PUSH2 0x289E PUSH2 0x284D JUMP JUMPDEST PUSH1 0x0 DUP1 MLOAD PUSH1 0x20 PUSH2 0x3412 DUP4 CODECOPY DUP2 MLOAD SWAP2 MSTORE DUP1 SLOAD PUSH1 0xFF NOT AND SWAP1 SSTORE JUMP JUMPDEST PUSH2 0x28BF PUSH2 0x284D JUMP JUMPDEST PUSH2 0x2153 DUP2 PUSH2 0x24E7 JUMP JUMPDEST PUSH2 0x21BF PUSH2 0x284D JUMP JUMPDEST DUP1 PUSH1 0x1 PUSH1 0x1 PUSH1 0xA0 SHL SUB AND EXTCODESIZE PUSH1 0x0 SUB PUSH2 0x2906 JUMPI PUSH1 0x40 MLOAD PUSH4 0x4C9C8CE3 PUSH1 0xE0 SHL DUP2 MSTORE PUSH1 0x1 PUSH1 0x1 PUSH1 0xA0 SHL SUB DUP3 AND PUSH1 0x4 DUP3 ADD MSTORE PUSH1 0x24 ADD PUSH2 0x883 JUMP JUMPDEST PUSH1 0x0 DUP1 MLOAD PUSH1 0x20 PUSH2 0x33F2 DUP4 CODECOPY DUP2 MLOAD SWAP2 MSTORE DUP1 SLOAD PUSH1 0x1 PUSH1 0x1 PUSH1 0xA0 SHL SUB NOT AND PUSH1 0x1 PUSH1 0x1 PUSH1 0xA0 SHL SUB SWAP3 SWAP1 SWAP3 AND SWAP2 SWAP1 SWAP2 OR SWAP1 SSTORE JUMP JUMPDEST PUSH1 0x60 PUSH1 0x0 DUP1 DUP5 PUSH1 0x1 PUSH1 0x1 PUSH1 0xA0 SHL SUB AND DUP5 PUSH1 0x40 MLOAD PUSH2 0x2952 SWAP2 SWAP1 PUSH2 0x337E JUMP JUMPDEST PUSH1 0x0 PUSH1 0x40 MLOAD DUP1 DUP4 SUB DUP2 DUP6 GAS DELEGATECALL SWAP2 POP POP RETURNDATASIZE DUP1 PUSH1 0x0 DUP2 EQ PUSH2 0x298D JUMPI PUSH1 0x40 MLOAD SWAP2 POP PUSH1 0x1F NOT PUSH1 0x3F RETURNDATASIZE ADD AND DUP3 ADD PUSH1 0x40 MSTORE RETURNDATASIZE DUP3 MSTORE RETURNDATASIZE PUSH1 0x0 PUSH1 0x20 DUP5 ADD RETURNDATACOPY PUSH2 0x2992 JUMP JUMPDEST PUSH1 0x60 SWAP2 POP JUMPDEST POP SWAP2 POP SWAP2 POP PUSH2 0x29A2 DUP6 DUP4 DUP4 PUSH2 0x29CA JUMP JUMPDEST SWAP6 SWAP5 POP POP POP POP POP JUMP JUMPDEST CALLVALUE ISZERO PUSH2 0xD9E JUMPI PUSH1 0x40 MLOAD PUSH4 0xB398979F PUSH1 0xE0 SHL DUP2 MSTORE PUSH1 0x4 ADD PUSH1 0x40 MLOAD DUP1 SWAP2 SUB SWAP1 REVERT JUMPDEST PUSH1 0x60 DUP3 PUSH2 0x29DF JUMPI PUSH2 0x29DA DUP3 PUSH2 0x2A29 JUMP JUMPDEST PUSH2 0x2A22 JUMP JUMPDEST DUP2 MLOAD ISZERO DUP1 ISZERO PUSH2 0x29F6 JUMPI POP PUSH1 0x1 PUSH1 0x1 PUSH1 0xA0 SHL SUB DUP5 AND EXTCODESIZE ISZERO JUMPDEST ISZERO PUSH2 0x2A1F JUMPI PUSH1 0x40 MLOAD PUSH4 0x9996B315 PUSH1 0xE0 SHL DUP2 MSTORE PUSH1 0x1 PUSH1 0x1 PUSH1 0xA0 SHL SUB DUP6 AND PUSH1 0x4 DUP3 ADD MSTORE PUSH1 0x24 ADD PUSH2 0x883 JUMP JUMPDEST POP DUP1 JUMPDEST SWAP4 SWAP3 POP POP POP JUMP JUMPDEST DUP1 MLOAD ISZERO PUSH2 0x2A39 JUMPI DUP1 MLOAD DUP1 DUP3 PUSH1 0x20 ADD REVERT JUMPDEST PUSH1 0x40 MLOAD PUSH4 0xA12F521 PUSH1 0xE1 SHL DUP2 MSTORE PUSH1 0x4 ADD PUSH1 0x40 MLOAD DUP1 SWAP2 SUB SWAP1 REVERT JUMPDEST PUSH1 0x0 PUSH1 0x20 DUP3 DUP5 SUB SLT ISZERO PUSH2 0x2A64 JUMPI PUSH1 0x0 DUP1 REVERT JUMPDEST DUP2 CALLDATALOAD PUSH1 0x1 PUSH1 0x1 PUSH1 0xE0 SHL SUB NOT DUP2 AND DUP2 EQ PUSH2 0x2A22 JUMPI PUSH1 0x0 DUP1 REVERT JUMPDEST DUP1 CALLDATALOAD PUSH1 0x1 PUSH1 0x1 PUSH1 0xA0 SHL SUB DUP2 AND DUP2 EQ PUSH2 0x2A93 JUMPI PUSH1 0x0 DUP1 REVERT JUMPDEST SWAP2 SWAP1 POP JUMP JUMPDEST PUSH4 0x4E487B71 PUSH1 0xE0 SHL PUSH1 0x0 MSTORE PUSH1 0x41 PUSH1 0x4 MSTORE PUSH1 0x24 PUSH1 0x0 REVERT JUMPDEST PUSH1 0x40 MLOAD PUSH1 0x80 DUP2 ADD PUSH8 0xFFFFFFFFFFFFFFFF DUP2 GT DUP3 DUP3 LT OR ISZERO PUSH2 0x2AD1 JUMPI PUSH2 0x2AD1 PUSH2 0x2A98 JUMP JUMPDEST PUSH1 0x40 MSTORE SWAP1 JUMP JUMPDEST PUSH1 0x40 MLOAD PUSH1 0x1F DUP3 ADD PUSH1 0x1F NOT AND DUP2 ADD PUSH8 0xFFFFFFFFFFFFFFFF DUP2 GT DUP3 DUP3 LT OR ISZERO PUSH2 0x2B00 JUMPI PUSH2 0x2B00 PUSH2 0x2A98 JUMP JUMPDEST PUSH1 0x40 MSTORE SWAP2 SWAP1 POP JUMP JUMPDEST PUSH1 0x0 DUP3 PUSH1 0x1F DUP4 ADD SLT PUSH2 0x2B19 JUMPI PUSH1 0x0 DUP1 REVERT JUMPDEST DUP2 CALLDATALOAD PUSH8 0xFFFFFFFFFFFFFFFF DUP2 GT ISZERO PUSH2 0x2B33 JUMPI PUSH2 0x2B33 PUSH2 0x2A98 JUMP JUMPDEST PUSH2 0x2B46 PUSH1 0x1F DUP3 ADD PUSH1 0x1F NOT AND PUSH1 0x20 ADD PUSH2 0x2AD7 JUMP JUMPDEST DUP2 DUP2 MSTORE DUP5 PUSH1 0x20 DUP4 DUP7 ADD ADD GT ISZERO PUSH2 0x2B5B JUMPI PUSH1 0x0 DUP1 REVERT JUMPDEST DUP2 PUSH1 0x20 DUP6 ADD PUSH1 0x20 DUP4 ADD CALLDATACOPY PUSH1 0x0 SWAP2 DUP2 ADD PUSH1 0x20 ADD SWAP2 SWAP1 SWAP2 MSTORE SWAP4 SWAP3 POP POP POP JUMP JUMPDEST PUSH1 0x0 DUP1 PUSH1 0x0 DUP1 PUSH1 0x80 DUP6 DUP8 SUB SLT ISZERO PUSH2 0x2B8E JUMPI PUSH1 0x0 DUP1 REVERT JUMPDEST PUSH2 0x2B97 DUP6 PUSH2 0x2A7C JUMP JUMPDEST SWAP4 POP PUSH2 0x2BA5 PUSH1 0x20 DUP7 ADD PUSH2 0x2A7C JUMP JUMPDEST SWAP3 POP PUSH1 0x40 DUP6 ADD CALLDATALOAD SWAP2 POP PUSH1 0x60 DUP6 ADD CALLDATALOAD PUSH8 0xFFFFFFFFFFFFFFFF DUP2 GT ISZERO PUSH2 0x2BC8 JUMPI PUSH1 0x0 DUP1 REVERT JUMPDEST PUSH2 0x2BD4 DUP8 DUP3 DUP9 ADD PUSH2 0x2B08 JUMP JUMPDEST SWAP2 POP POP SWAP3 SWAP6 SWAP2 SWAP5 POP SWAP3 POP JUMP JUMPDEST PUSH1 0x0 DUP1 PUSH1 0x0 PUSH1 0x60 DUP5 DUP7 SUB SLT ISZERO PUSH2 0x2BF5 JUMPI PUSH1 0x0 DUP1 REVERT JUMPDEST POP POP DUP2 CALLDATALOAD SWAP4 PUSH1 0x20 DUP4 ADD CALLDATALOAD SWAP4 POP PUSH1 0x40 SWAP1 SWAP3 ADD CALLDATALOAD SWAP2 SWAP1 POP JUMP JUMPDEST PUSH1 0x0 PUSH1 0x20 DUP3 DUP5 SUB SLT ISZERO PUSH2 0x2C1E JUMPI PUSH1 0x0 DUP1 REVERT JUMPDEST DUP2 CALLDATALOAD PUSH2 0xFFFF DUP2 AND DUP2 EQ PUSH2 0x2A22 JUMPI PUSH1 0x0 DUP1 REVERT JUMPDEST PUSH4 0xFFFFFFFF DUP2 AND DUP2 EQ PUSH2 0x2153 JUMPI PUSH1 0x0 DUP1 REVERT JUMPDEST PUSH1 0x0 PUSH1 0x20 DUP3 DUP5 SUB SLT ISZERO PUSH2 0x2C54 JUMPI PUSH1 0x0 DUP1 REVERT JUMPDEST DUP2 CALLDATALOAD PUSH2 0x2A22 DUP2 PUSH2 0x2C30 JUMP JUMPDEST PUSH1 0x0 DUP1 PUSH1 0x40 DUP4 DUP6 SUB SLT ISZERO PUSH2 0x2C72 JUMPI PUSH1 0x0 DUP1 REVERT JUMPDEST PUSH2 0x2C7B DUP4 PUSH2 0x2A7C JUMP JUMPDEST SWAP2 POP PUSH1 0x20 DUP4 ADD CALLDATALOAD PUSH8 0xFFFFFFFFFFFFFFFF DUP2 GT ISZERO PUSH2 0x2C97 JUMPI PUSH1 0x0 DUP1 REVERT JUMPDEST PUSH2 0x2CA3 DUP6 DUP3 DUP7 ADD PUSH2 0x2B08 JUMP JUMPDEST SWAP2 POP POP SWAP3 POP SWAP3 SWAP1 POP JUMP JUMPDEST PUSH1 0x0 PUSH1 0x20 DUP3 DUP5 SUB SLT ISZERO PUSH2 0x2CBF JUMPI PUSH1 0x0 DUP1 REVERT JUMPDEST POP CALLDATALOAD SWAP2 SWAP1 POP JUMP JUMPDEST PUSH4 0x4E487B71 PUSH1 0xE0 SHL PUSH1 0x0 MSTORE PUSH1 0x21 PUSH1 0x4 MSTORE PUSH1 0x24 PUSH1 0x0 REVERT JUMPDEST PUSH1 0x5 DUP2 LT PUSH2 0x2CEC JUMPI PUSH2 0x2CEC PUSH2 0x2CC6 JUMP JUMPDEST SWAP1 MSTORE JUMP JUMPDEST PUSH1 0x20 DUP2 ADD PUSH2 0x81D DUP3 DUP5 PUSH2 0x2CDC JUMP JUMPDEST PUSH1 0x0 PUSH1 0x20 DUP3 DUP5 SUB SLT ISZERO PUSH2 0x2D10 JUMPI PUSH1 0x0 DUP1 REVERT JUMPDEST PUSH2 0x2A22 DUP3 PUSH2 0x2A7C JUMP JUMPDEST PUSH1 0x0 DUP1 PUSH1 0x40 DUP4 DUP6 SUB SLT ISZERO PUSH2 0x2D2C JUMPI PUSH1 0x0 DUP1 REVERT JUMPDEST POP POP DUP1 CALLDATALOAD SWAP3 PUSH1 0x20 SWAP1 SWAP2 ADD CALLDATALOAD SWAP2 POP JUMP JUMPDEST DUP2 MLOAD PUSH1 0x1 PUSH1 0x1 PUSH1 0xA0 SHL SUB AND DUP2 MSTORE PUSH1 0x20 DUP1 DUP4 ADD MLOAD SWAP1 DUP3 ADD MSTORE PUSH1 0x40 DUP1 DUP4 ADD MLOAD SWAP1 DUP3 ADD MSTORE PUSH1 0x60 DUP3 ADD MLOAD PUSH1 0x80 DUP3 ADD SWAP1 PUSH1 0x2 DUP2 LT PUSH2 0x2D76 JUMPI PUSH2 0x2D76 PUSH2 0x2CC6 JUMP JUMPDEST DUP1 PUSH1 0x60 DUP5 ADD MSTORE POP SWAP3 SWAP2 POP POP JUMP JUMPDEST PUSH1 0x0 PUSH8 0xFFFFFFFFFFFFFFFF DUP3 GT ISZERO PUSH2 0x2D9D JUMPI PUSH2 0x2D9D PUSH2 0x2A98 JUMP JUMPDEST POP PUSH1 0x5 SHL PUSH1 0x20 ADD SWAP1 JUMP JUMPDEST PUSH1 0x0 PUSH1 0x60 DUP3 DUP5 SUB SLT ISZERO PUSH2 0x2DB9 JUMPI PUSH1 0x0 DUP1 REVERT JUMPDEST PUSH1 0x40 MLOAD PUSH1 0x60 DUP2 ADD DUP2 DUP2 LT PUSH8 0xFFFFFFFFFFFFFFFF DUP3 GT OR ISZERO PUSH2 0x2DDC JUMPI PUSH2 0x2DDC PUSH2 0x2A98 JUMP JUMPDEST DUP1 PUSH1 0x40 MSTORE POP DUP1 SWAP2 POP DUP3 CALLDATALOAD DUP2 MSTORE PUSH1 0x20 DUP4 ADD CALLDATALOAD PUSH1 0x20 DUP3 ADD MSTORE PUSH2 0x2DFE PUSH1 0x40 DUP5 ADD PUSH2 0x2A7C JUMP JUMPDEST PUSH1 0x40 DUP3 ADD MSTORE POP SWAP3 SWAP2 POP POP JUMP JUMPDEST PUSH1 0x0 DUP1 PUSH1 0x0 DUP1 PUSH1 0x0 PUSH1 0xE0 DUP7 DUP9 SUB SLT ISZERO PUSH2 0x2E22 JUMPI PUSH1 0x0 DUP1 REVERT JUMPDEST DUP6 CALLDATALOAD SWAP5 POP PUSH1 0x20 DUP1 DUP8 ADD CALLDATALOAD PUSH2 0x2E35 DUP2 PUSH2 0x2C30 JUMP JUMPDEST SWAP5 POP PUSH1 0x40 DUP8 DUP2 ADD CALLDATALOAD PUSH8 0xFFFFFFFFFFFFFFFF DUP2 GT ISZERO PUSH2 0x2E52 JUMPI PUSH1 0x0 DUP1 REVERT JUMPDEST DUP9 ADD PUSH1 0x1F DUP2 ADD DUP11 SGT PUSH2 0x2E63 JUMPI PUSH1 0x0 DUP1 REVERT JUMPDEST DUP1 CALLDATALOAD PUSH2 0x2E76 PUSH2 0x2E71 DUP3 PUSH2 0x2D83 JUMP JUMPDEST PUSH2 0x2AD7 JUMP JUMPDEST DUP2 DUP2 MSTORE PUSH1 0x7 SWAP2 SWAP1 SWAP2 SHL DUP3 ADD DUP5 ADD SWAP1 DUP5 DUP2 ADD SWAP1 DUP13 DUP4 GT ISZERO PUSH2 0x2E95 JUMPI PUSH1 0x0 DUP1 REVERT JUMPDEST SWAP3 DUP6 ADD SWAP3 JUMPDEST DUP3 DUP5 LT ISZERO PUSH2 0x2F00 JUMPI PUSH1 0x80 DUP5 DUP15 SUB SLT ISZERO PUSH2 0x2EB3 JUMPI PUSH1 0x0 DUP1 DUP2 REVERT JUMPDEST PUSH2 0x2EBB PUSH2 0x2AAE JUMP JUMPDEST PUSH2 0x2EC4 DUP6 PUSH2 0x2A7C JUMP JUMPDEST DUP2 MSTORE DUP7 DUP6 ADD CALLDATALOAD DUP8 DUP3 ADD MSTORE DUP6 DUP6 ADD CALLDATALOAD DUP7 DUP3 ADD MSTORE PUSH1 0x60 DUP1 DUP7 ADD CALLDATALOAD PUSH1 0x2 DUP2 LT PUSH2 0x2EEA JUMPI PUSH1 0x0 DUP1 DUP2 REVERT JUMPDEST SWAP1 DUP3 ADD MSTORE DUP3 MSTORE PUSH1 0x80 SWAP4 SWAP1 SWAP4 ADD SWAP3 SWAP1 DUP6 ADD SWAP1 PUSH2 0x2E9A JUMP JUMPDEST DUP1 SWAP9 POP POP POP POP POP POP POP PUSH2 0x2F15 PUSH1 0x60 DUP8 ADD PUSH2 0x2A7C JUMP JUMPDEST SWAP2 POP PUSH2 0x2F24 DUP8 PUSH1 0x80 DUP9 ADD PUSH2 0x2DA7 JUMP JUMPDEST SWAP1 POP SWAP3 SWAP6 POP SWAP3 SWAP6 SWAP1 SWAP4 POP JUMP JUMPDEST PUSH1 0x0 JUMPDEST DUP4 DUP2 LT ISZERO PUSH2 0x2F4B JUMPI DUP2 DUP2 ADD MLOAD DUP4 DUP3 ADD MSTORE PUSH1 0x20 ADD PUSH2 0x2F33 JUMP JUMPDEST POP POP PUSH1 0x0 SWAP2 ADD MSTORE JUMP JUMPDEST PUSH1 0x20 DUP2 MSTORE PUSH1 0x0 DUP3 MLOAD DUP1 PUSH1 0x20 DUP5 ADD MSTORE PUSH2 0x2F73 DUP2 PUSH1 0x40 DUP6 ADD PUSH1 0x20 DUP8 ADD PUSH2 0x2F30 JUMP JUMPDEST PUSH1 0x1F ADD PUSH1 0x1F NOT AND SWAP2 SWAP1 SWAP2 ADD PUSH1 0x40 ADD SWAP3 SWAP2 POP POP JUMP JUMPDEST PUSH1 0x0 DUP3 PUSH1 0x1F DUP4 ADD SLT PUSH2 0x2F98 JUMPI PUSH1 0x0 DUP1 REVERT JUMPDEST DUP2 CALLDATALOAD PUSH1 0x20 PUSH2 0x2FA8 PUSH2 0x2E71 DUP4 PUSH2 0x2D83 JUMP JUMPDEST DUP3 DUP2 MSTORE PUSH1 0x5 SWAP3 SWAP1 SWAP3 SHL DUP5 ADD DUP2 ADD SWAP2 DUP2 DUP2 ADD SWAP1 DUP7 DUP5 GT ISZERO PUSH2 0x2FC7 JUMPI PUSH1 0x0 DUP1 REVERT JUMPDEST DUP3 DUP7 ADD JUMPDEST DUP5 DUP2 LT ISZERO PUSH2 0x2FE2 JUMPI DUP1 CALLDATALOAD DUP4 MSTORE SWAP2 DUP4 ADD SWAP2 DUP4 ADD PUSH2 0x2FCB JUMP JUMPDEST POP SWAP7 SWAP6 POP POP POP POP POP POP JUMP JUMPDEST PUSH1 0x0 DUP1 PUSH1 0x0 DUP1 PUSH1 0x0 PUSH1 0xA0 DUP7 DUP9 SUB SLT ISZERO PUSH2 0x3005 JUMPI PUSH1 0x0 DUP1 REVERT JUMPDEST PUSH2 0x300E DUP7 PUSH2 0x2A7C JUMP JUMPDEST SWAP5 POP PUSH2 0x301C PUSH1 0x20 DUP8 ADD PUSH2 0x2A7C JUMP JUMPDEST SWAP4 POP PUSH1 0x40 DUP7 ADD CALLDATALOAD PUSH8 0xFFFFFFFFFFFFFFFF DUP1 DUP3 GT ISZERO PUSH2 0x3039 JUMPI PUSH1 0x0 DUP1 REVERT JUMPDEST PUSH2 0x3045 DUP10 DUP4 DUP11 ADD PUSH2 0x2F87 JUMP JUMPDEST SWAP5 POP PUSH1 0x60 DUP9 ADD CALLDATALOAD SWAP2 POP DUP1 DUP3 GT ISZERO PUSH2 0x305B JUMPI PUSH1 0x0 DUP1 REVERT JUMPDEST PUSH2 0x3067 DUP10 DUP4 DUP11 ADD PUSH2 0x2F87 JUMP JUMPDEST SWAP4 POP PUSH1 0x80 DUP9 ADD CALLDATALOAD SWAP2 POP DUP1 DUP3 GT ISZERO PUSH2 0x307D JUMPI PUSH1 0x0 DUP1 REVERT JUMPDEST POP PUSH2 0x308A DUP9 DUP3 DUP10 ADD PUSH2 0x2B08 JUMP JUMPDEST SWAP2 POP POP SWAP3 SWAP6 POP SWAP3 SWAP6 SWAP1 SWAP4 POP JUMP JUMPDEST PUSH1 0x1 PUSH1 0x1 PUSH1 0xA0 SHL SUB DUP11 DUP2 AND DUP3 MSTORE PUSH4 0xFFFFFFFF DUP11 DUP2 AND PUSH1 0x20 DUP5 ADD MSTORE DUP10 AND PUSH1 0x40 DUP4 ADD MSTORE DUP8 DUP2 AND PUSH1 0x60 DUP4 ADD MSTORE PUSH1 0x80 DUP3 ADD DUP8 SWAP1 MSTORE PUSH1 0xA0 DUP3 ADD DUP7 SWAP1 MSTORE PUSH2 0x120 DUP3 ADD SWAP1 PUSH2 0x30E1 PUSH1 0xC0 DUP5 ADD DUP8 PUSH2 0x2CDC JUMP JUMPDEST SWAP4 SWAP1 SWAP4 AND PUSH1 0xE0 DUP3 ADD MSTORE PUSH2 0x100 ADD MSTORE SWAP8 SWAP7 POP POP POP POP POP POP POP JUMP JUMPDEST PUSH1 0x0 DUP1 PUSH1 0x0 DUP1 PUSH1 0x0 PUSH1 0xA0 DUP7 DUP9 SUB SLT ISZERO PUSH2 0x3112 JUMPI PUSH1 0x0 DUP1 REVERT JUMPDEST PUSH2 0x311B DUP7 PUSH2 0x2A7C JUMP JUMPDEST SWAP5 POP PUSH2 0x3129 PUSH1 0x20 DUP8 ADD PUSH2 0x2A7C JUMP JUMPDEST SWAP4 POP PUSH1 0x40 DUP7 ADD CALLDATALOAD SWAP3 POP PUSH1 0x60 DUP7 ADD CALLDATALOAD SWAP2 POP PUSH1 0x80 DUP7 ADD CALLDATALOAD PUSH8 0xFFFFFFFFFFFFFFFF DUP2 GT ISZERO PUSH2 0x3153 JUMPI PUSH1 0x0 DUP1 REVERT JUMPDEST PUSH2 0x308A DUP9 DUP3 DUP10 ADD PUSH2 0x2B08 JUMP JUMPDEST PUSH4 0x4E487B71 PUSH1 0xE0 SHL PUSH1 0x0 MSTORE PUSH1 0x11 PUSH1 0x4 MSTORE PUSH1 0x24 PUSH1 0x0 REVERT JUMPDEST DUP1 DUP3 MUL DUP2 ISZERO DUP3 DUP3 DIV DUP5 EQ OR PUSH2 0x81D JUMPI PUSH2 0x81D PUSH2 0x315F JUMP JUMPDEST PUSH1 0x0 DUP3 PUSH2 0x31A9 JUMPI PUSH4 0x4E487B71 PUSH1 0xE0 SHL PUSH1 0x0 MSTORE PUSH1 0x12 PUSH1 0x4 MSTORE PUSH1 0x24 PUSH1 0x0 REVERT JUMPDEST POP DIV SWAP1 JUMP JUMPDEST PUSH1 0x1 PUSH1 0x1 PUSH1 0xA0 SHL SUB SWAP4 DUP5 AND DUP2 MSTORE SWAP2 SWAP1 SWAP3 AND PUSH1 0x20 DUP3 ADD MSTORE PUSH1 0x40 DUP2 ADD SWAP2 SWAP1 SWAP2 MSTORE PUSH1 0x60 ADD SWAP1 JUMP JUMPDEST DUP1 MLOAD DUP1 ISZERO ISZERO DUP2 EQ PUSH2 0x2A93 JUMPI PUSH1 0x0 DUP1 REVERT JUMPDEST PUSH1 0x0 PUSH1 0x20 DUP3 DUP5 SUB SLT ISZERO PUSH2 0x31F4 JUMPI PUSH1 0x0 DUP1 REVERT JUMPDEST PUSH2 0x2A22 DUP3 PUSH2 0x31D2 JUMP JUMPDEST PUSH4 0xFFFFFFFF DUP3 DUP2 AND DUP3 DUP3 AND SUB SWAP1 DUP1 DUP3 GT ISZERO PUSH2 0x321A JUMPI PUSH2 0x321A PUSH2 0x315F JUMP JUMPDEST POP SWAP3 SWAP2 POP POP JUMP JUMPDEST PUSH4 0xFFFFFFFF DUP2 DUP2 AND DUP4 DUP3 AND ADD SWAP1 DUP1 DUP3 GT ISZERO PUSH2 0x321A JUMPI PUSH2 0x321A PUSH2 0x315F JUMP JUMPDEST DUP1 DUP3 ADD DUP1 DUP3 GT ISZERO PUSH2 0x81D JUMPI PUSH2 0x81D PUSH2 0x315F JUMP JUMPDEST DUP2 DUP2 SUB DUP2 DUP2 GT ISZERO PUSH2 0x81D JUMPI PUSH2 0x81D PUSH2 0x315F JUMP JUMPDEST PUSH4 0x4E487B71 PUSH1 0xE0 SHL PUSH1 0x0 MSTORE PUSH1 0x32 PUSH1 0x4 MSTORE PUSH1 0x24 PUSH1 0x0 REVERT JUMPDEST PUSH1 0x0 PUSH1 0x1 DUP3 ADD PUSH2 0x328C JUMPI PUSH2 0x328C PUSH2 0x315F JUMP JUMPDEST POP PUSH1 0x1 ADD SWAP1 JUMP JUMPDEST PUSH1 0x1 PUSH1 0x1 PUSH1 0xA0 SHL SUB SWAP5 DUP6 AND DUP2 MSTORE SWAP3 SWAP1 SWAP4 AND PUSH1 0x20 DUP4 ADD MSTORE PUSH1 0x40 DUP3 ADD MSTORE PUSH1 0x60 DUP2 ADD SWAP2 SWAP1 SWAP2 MSTORE PUSH1 0xA0 PUSH1 0x80 DUP3 ADD DUP2 SWAP1 MSTORE PUSH1 0x0 SWAP1 DUP3 ADD MSTORE PUSH1 0xC0 ADD SWAP1 JUMP JUMPDEST PUSH1 0x0 DUP1 DUP6 DUP6 GT ISZERO PUSH2 0x32DB JUMPI PUSH1 0x0 DUP1 REVERT JUMPDEST DUP4 DUP7 GT ISZERO PUSH2 0x32E8 JUMPI PUSH1 0x0 DUP1 REVERT JUMPDEST POP POP DUP3 ADD SWAP4 SWAP2 SWAP1 SWAP3 SUB SWAP2 POP JUMP JUMPDEST PUSH1 0x1 PUSH1 0x1 PUSH1 0xE0 SHL SUB NOT DUP2 CALLDATALOAD DUP2 DUP2 AND SWAP2 PUSH1 0x4 DUP6 LT ISZERO PUSH2 0x331D JUMPI DUP1 DUP2 DUP7 PUSH1 0x4 SUB PUSH1 0x3 SHL SHL DUP4 AND AND SWAP3 POP JUMPDEST POP POP SWAP3 SWAP2 POP POP JUMP JUMPDEST PUSH1 0x1 PUSH1 0x1 PUSH1 0xA0 SHL SUB DUP5 AND DUP2 MSTORE PUSH1 0x40 PUSH1 0x20 DUP3 ADD DUP2 SWAP1 MSTORE DUP2 ADD DUP3 SWAP1 MSTORE DUP2 DUP4 PUSH1 0x60 DUP4 ADD CALLDATACOPY PUSH1 0x0 DUP2 DUP4 ADD PUSH1 0x60 SWAP1 DUP2 ADD SWAP2 SWAP1 SWAP2 MSTORE PUSH1 0x1F SWAP1 SWAP3 ADD PUSH1 0x1F NOT AND ADD ADD SWAP3 SWAP2 POP POP JUMP JUMPDEST PUSH1 0x0 PUSH1 0x20 DUP3 DUP5 SUB SLT ISZERO PUSH2 0x3377 JUMPI PUSH1 0x0 DUP1 REVERT JUMPDEST POP MLOAD SWAP2 SWAP1 POP JUMP JUMPDEST PUSH1 0x0 DUP3 MLOAD PUSH2 0x3390 DUP2 DUP5 PUSH1 0x20 DUP8 ADD PUSH2 0x2F30 JUMP JUMPDEST SWAP2 SWAP1 SWAP2 ADD SWAP3 SWAP2 POP POP JUMP JUMPDEST PUSH1 0x0 DUP1 PUSH1 0x40 DUP4 DUP6 SUB SLT ISZERO PUSH2 0x33AD JUMPI PUSH1 0x0 DUP1 REVERT JUMPDEST PUSH2 0x33B6 DUP4 PUSH2 0x31D2 JUMP JUMPDEST SWAP2 POP PUSH1 0x20 DUP4 ADD MLOAD PUSH2 0x33C6 DUP2 PUSH2 0x2C30 JUMP JUMPDEST DUP1 SWAP2 POP POP SWAP3 POP SWAP3 SWAP1 POP JUMP INVALID RETURN OR PUSH20 0x57AB46D8AF007AB3FDB9AF81DA189E1068FEFDC0 SMOD RETURNDATASIZE 0xCA DUP9 LOG2 0xCA 0xB4 EXP STOP CALLDATASIZE ADDMOD SWAP5 LOG1 EXTCODESIZE LOG1 LOG3 0x21 MOD PUSH8 0xC828492DB98DCA3E KECCAK256 PUSH23 0xCC3735A920A3CA505D382BBCCD5ED15C6E187E77E9AEE8 DUP2 DUP5 0xC2 0x1F 0x4F 0x21 DUP3 0xAB PC 0x27 0xCB EXTCODESIZE PUSH31 0x7FBEDCD63F033009B779B17422D0DF92223018B32B4D1FA46E071723D6817 0xE2 BASEFEE PUSH14 0x3BECC55F00A264697066735822 SLT KECCAK256 MSTORE DIFFICULTY EXP 0xBB 0xC6 MLOAD PUSH19 0xFD9AC9700D7CB62DEDD3679E1D0277E550A919 0xE0 0xB8 GASLIMIT 0xE4 PUSH12 0x4764736F6C63430008140033 "},"methodIdentifiers":{"UPGRADE_INTERFACE_VERSION()":"ad3cb1cc","authority()":"bf7e214f","bid(uint256,uint256,uint256)":"2ac9bf09","cancelAuction(uint256)":"96b5a755","cancelSpecificAuction(uint256)":"61608185","extraTime()":"1800c0fe","finalizeAuction(uint256)":"e8083863","getAuctionDetails(uint256)":"f20e5e35","getAuctionEndTime(uint256)":"930e79f1","getAuctionStatus(uint256)":"7765c52c","getAuctionTokens(uint256,uint256)":"95719d0c","initialize()":"8129fc1c","isConsumingScheduledOp()":"8fb36037","maxAssets()":"94b2294b","maxAuctionDuration()":"48c9581e","maxIncentive()":"5fdbcd4c","maxPayment()":"e457bf05","minAuctionDuration()":"54134876","nextAuctionId()":"fc528482","onERC1155BatchReceived(address,address,uint256[],uint256[],bytes)":"bc197c81","onERC1155Received(address,address,uint256,uint256,bytes)":"f23a6e61","onERC721Received(address,address,uint256,bytes)":"150b7a02","pause()":"8456cb59","paused()":"5c975abb","proxiableUUID()":"52d1902d","setAuthority(address)":"7a9e5e4b","setExtraTime(uint32)":"6cb2c088","setMaxAssets(uint16)":"63beec7d","setMaxAuctionDuration(uint32)":"e7d3aced","setMaxIncentive(uint16)":"36de093e","setMaxPayment(uint16)":"b8c680a3","setMinAuctionDuration(uint32)":"3d791c25","setWarmUpTime(uint32)":"dac10b12","startAuction(uint256,uint32,(address,uint256,uint256,uint8)[],address,(uint256,uint256,address))":"a1b295ea","supportsInterface(bytes4)":"01ffc9a7","treasuryAddress()":"c5f956af","unpause()":"3f4ba83a","upgradeToAndCall(address,bytes)":"4f1ef286","warmUpTime()":"e9d831be"}},"storageLayout":{"storage":[{"astId":8164,"contract":"contracts/DarkMarketAuction.sol:DarkMarketAuction","label":"nextAuctionId","offset":0,"slot":"0","type":"t_uint256"},{"astId":8169,"contract":"contracts/DarkMarketAuction.sol:DarkMarketAuction","label":"auctions","offset":0,"slot":"1","type":"t_mapping(t_uint256,t_struct(Auction)9867_storage)"},{"astId":8256,"contract":"contracts/DarkMarketAuction.sol:DarkMarketAuction","label":"treasuryAddress","offset":0,"slot":"2","type":"t_address"},{"astId":8258,"contract":"contracts/DarkMarketAuction.sol:DarkMarketAuction","label":"minAuctionDuration","offset":0,"slot":"3","type":"t_uint256"},{"astId":8260,"contract":"contracts/DarkMarketAuction.sol:DarkMarketAuction","label":"maxAuctionDuration","offset":0,"slot":"4","type":"t_uint256"},{"astId":8262,"contract":"contracts/DarkMarketAuction.sol:DarkMarketAuction","label":"warmUpTime","offset":0,"slot":"5","type":"t_uint256"},{"astId":8264,"contract":"contracts/DarkMarketAuction.sol:DarkMarketAuction","label":"extraTime","offset":0,"slot":"6","type":"t_uint32"},{"astId":8266,"contract":"contracts/DarkMarketAuction.sol:DarkMarketAuction","label":"maxIncentive","offset":0,"slot":"7","type":"t_uint256"},{"astId":8268,"contract":"contracts/DarkMarketAuction.sol:DarkMarketAuction","label":"maxPayment","offset":0,"slot":"8","type":"t_uint256"},{"astId":8270,"contract":"contracts/DarkMarketAuction.sol:DarkMarketAuction","label":"maxAssets","offset":0,"slot":"9","type":"t_uint256"}],"types":{"t_address":{"encoding":"inplace","label":"address","numberOfBytes":"20"},"t_address_payable":{"encoding":"inplace","label":"address payable","numberOfBytes":"20"},"t_array(t_struct(TokenDetail)9831_storage)dyn_storage":{"base":"t_struct(TokenDetail)9831_storage","encoding":"dynamic_array","label":"struct IDarkMarketAuctionStructures.TokenDetail[]","numberOfBytes":"32"},"t_enum(AuctionStatus)9817":{"encoding":"inplace","label":"enum IDarkMarketAuctionStructures.AuctionStatus","numberOfBytes":"1"},"t_enum(TokenType)9821":{"encoding":"inplace","label":"enum IDarkMarketAuctionStructures.TokenType","numberOfBytes":"1"},"t_mapping(t_uint256,t_struct(Auction)9867_storage)":{"encoding":"mapping","key":"t_uint256","label":"mapping(uint256 => struct IDarkMarketAuctionStructures.Auction)","numberOfBytes":"32","value":"t_struct(Auction)9867_storage"},"t_struct(Auction)9867_storage":{"encoding":"inplace","label":"struct IDarkMarketAuctionStructures.Auction","members":[{"astId":9842,"contract":"contracts/DarkMarketAuction.sol:DarkMarketAuction","label":"seller","offset":0,"slot":"0","type":"t_address_payable"},{"astId":9844,"contract":"contracts/DarkMarketAuction.sol:DarkMarketAuction","label":"startTime","offset":20,"slot":"0","type":"t_uint32"},{"astId":9846,"contract":"contracts/DarkMarketAuction.sol:DarkMarketAuction","label":"endTime","offset":24,"slot":"0","type":"t_uint32"},{"astId":9848,"contract":"contracts/DarkMarketAuction.sol:DarkMarketAuction","label":"highestBidder","offset":0,"slot":"1","type":"t_address"},{"astId":9850,"contract":"contracts/DarkMarketAuction.sol:DarkMarketAuction","label":"highestBid","offset":0,"slot":"2","type":"t_uint256"},{"astId":9852,"contract":"contracts/DarkMarketAuction.sol:DarkMarketAuction","label":"bidderIncentive","offset":0,"slot":"3","type":"t_uint256"},{"astId":9855,"contract":"contracts/DarkMarketAuction.sol:DarkMarketAuction","label":"status","offset":0,"slot":"4","type":"t_enum(AuctionStatus)9817"},{"astId":9859,"contract":"contracts/DarkMarketAuction.sol:DarkMarketAuction","label":"tokens","offset":0,"slot":"5","type":"t_array(t_struct(TokenDetail)9831_storage)dyn_storage"},{"astId":9861,"contract":"contracts/DarkMarketAuction.sol:DarkMarketAuction","label":"bidTokenAddress","offset":0,"slot":"6","type":"t_address"},{"astId":9863,"contract":"contracts/DarkMarketAuction.sol:DarkMarketAuction","label":"totalIncentives","offset":0,"slot":"7","type":"t_uint256"},{"astId":9866,"contract":"contracts/DarkMarketAuction.sol:DarkMarketAuction","label":"fees","offset":0,"slot":"8","type":"t_struct(FeeDetail)9839_storage"}],"numberOfBytes":"352"},"t_struct(FeeDetail)9839_storage":{"encoding":"inplace","label":"struct IDarkMarketAuctionStructures.FeeDetail","members":[{"astId":9834,"contract":"contracts/DarkMarketAuction.sol:DarkMarketAuction","label":"contractFee","offset":0,"slot":"0","type":"t_uint256"},{"astId":9836,"contract":"contracts/DarkMarketAuction.sol:DarkMarketAuction","label":"royaltyFee","offset":0,"slot":"1","type":"t_uint256"},{"astId":9838,"contract":"contracts/DarkMarketAuction.sol:DarkMarketAuction","label":"royaltyAddress","offset":0,"slot":"2","type":"t_address"}],"numberOfBytes":"96"},"t_struct(TokenDetail)9831_storage":{"encoding":"inplace","label":"struct IDarkMarketAuctionStructures.TokenDetail","members":[{"astId":9823,"contract":"contracts/DarkMarketAuction.sol:DarkMarketAuction","label":"tokenAddress","offset":0,"slot":"0","type":"t_address"},{"astId":9825,"contract":"contracts/DarkMarketAuction.sol:DarkMarketAuction","label":"tokenId","offset":0,"slot":"1","type":"t_uint256"},{"astId":9827,"contract":"contracts/DarkMarketAuction.sol:DarkMarketAuction","label":"tokenQuantity","offset":0,"slot":"2","type":"t_uint256"},{"astId":9830,"contract":"contracts/DarkMarketAuction.sol:DarkMarketAuction","label":"tokenType","offset":0,"slot":"3","type":"t_enum(TokenType)9821"}],"numberOfBytes":"128"},"t_uint256":{"encoding":"inplace","label":"uint256","numberOfBytes":"32"},"t_uint32":{"encoding":"inplace","label":"uint32","numberOfBytes":"4"}}}}}}