{
  "_format": "hh-sol-artifact-1",
  "contractName": "DarkMarketAuction",
  "sourceName": "src/contracts/DarkMarketAuction.sol",
  "abi": [
    {
      "inputs": [],
      "stateMutability": "nonpayable",
      "type": "constructor"
    },
    {
      "inputs": [
        {
          "internalType": "address",
          "name": "authority",
          "type": "address"
        }
      ],
      "name": "AccessManagedInvalidAuthority",
      "type": "error"
    },
    {
      "inputs": [
        {
          "internalType": "address",
          "name": "caller",
          "type": "address"
        },
        {
          "internalType": "uint32",
          "name": "delay",
          "type": "uint32"
        }
      ],
      "name": "AccessManagedRequiredDelay",
      "type": "error"
    },
    {
      "inputs": [
        {
          "internalType": "address",
          "name": "caller",
          "type": "address"
        }
      ],
      "name": "AccessManagedUnauthorized",
      "type": "error"
    },
    {
      "inputs": [
        {
          "internalType": "address",
          "name": "target",
          "type": "address"
        }
      ],
      "name": "AddressEmptyCode",
      "type": "error"
    },
    {
      "inputs": [
        {
          "internalType": "uint256",
          "name": "now",
          "type": "uint256"
        },
        {
          "internalType": "uint256",
          "name": "endTime",
          "type": "uint256"
        }
      ],
      "name": "AuctionEnded",
      "type": "error"
    },
    {
      "inputs": [],
      "name": "AuctionHasBids",
      "type": "error"
    },
    {
      "inputs": [
        {
          "internalType": "uint256",
          "name": "now",
          "type": "uint256"
        },
        {
          "internalType": "uint256",
          "name": "endTime",
          "type": "uint256"
        }
      ],
      "name": "AuctionNotEnded",
      "type": "error"
    },
    {
      "inputs": [
        {
          "internalType": "uint256",
          "name": "now",
          "type": "uint256"
        },
        {
          "internalType": "uint256",
          "name": "endTime",
          "type": "uint256"
        }
      ],
      "name": "AuctionNotStarted",
      "type": "error"
    },
    {
      "inputs": [
        {
          "internalType": "uint256",
          "name": "bidAmount",
          "type": "uint256"
        },
        {
          "internalType": "uint256",
          "name": "highestBid",
          "type": "uint256"
        }
      ],
      "name": "BidTooLow",
      "type": "error"
    },
    {
      "inputs": [
        {
          "internalType": "uint256",
          "name": "chainId",
          "type": "uint256"
        }
      ],
      "name": "ChainNotConfigured",
      "type": "error"
    },
    {
      "inputs": [
        {
          "internalType": "address",
          "name": "implementation",
          "type": "address"
        }
      ],
      "name": "ERC1967InvalidImplementation",
      "type": "error"
    },
    {
      "inputs": [],
      "name": "ERC1967NonPayable",
      "type": "error"
    },
    {
      "inputs": [],
      "name": "EnforcedPause",
      "type": "error"
    },
    {
      "inputs": [],
      "name": "ExpectedPause",
      "type": "error"
    },
    {
      "inputs": [],
      "name": "FailedInnerCall",
      "type": "error"
    },
    {
      "inputs": [],
      "name": "FeeTokenNotConfigured",
      "type": "error"
    },
    {
      "inputs": [
        {
          "internalType": "uint256",
          "name": "incentiveAmount",
          "type": "uint256"
        },
        {
          "internalType": "uint256",
          "name": "maxIncentive",
          "type": "uint256"
        }
      ],
      "name": "IncentiveTooHigh",
      "type": "error"
    },
    {
      "inputs": [
        {
          "internalType": "uint256",
          "name": "count",
          "type": "uint256"
        },
        {
          "internalType": "uint256",
          "name": "max",
          "type": "uint256"
        }
      ],
      "name": "InvalidAAssetCount",
      "type": "error"
    },
    {
      "inputs": [
        {
          "internalType": "uint256",
          "name": "auctionId",
          "type": "uint256"
        }
      ],
      "name": "InvalidAuction",
      "type": "error"
    },
    {
      "inputs": [
        {
          "internalType": "uint256",
          "name": "duration",
          "type": "uint256"
        },
        {
          "internalType": "uint256",
          "name": "min",
          "type": "uint256"
        },
        {
          "internalType": "uint256",
          "name": "max",
          "type": "uint256"
        }
      ],
      "name": "InvalidAuctionDuration",
      "type": "error"
    },
    {
      "inputs": [
        {
          "internalType": "uint256",
          "name": "fee",
          "type": "uint256"
        },
        {
          "internalType": "uint256",
          "name": "max",
          "type": "uint256"
        }
      ],
      "name": "InvalidAuctionFeePercentage",
      "type": "error"
    },
    {
      "inputs": [
        {
          "internalType": "uint256",
          "name": "extraTime",
          "type": "uint256"
        },
        {
          "internalType": "uint256",
          "name": "max",
          "type": "uint256"
        }
      ],
      "name": "InvalidExtraTime",
      "type": "error"
    },
    {
      "inputs": [],
      "name": "InvalidInitialization",
      "type": "error"
    },
    {
      "inputs": [
        {
          "internalType": "uint256",
          "name": "fee",
          "type": "uint256"
        },
        {
          "internalType": "uint256",
          "name": "max",
          "type": "uint256"
        }
      ],
      "name": "InvalidRoyaltyFeePercentage",
      "type": "error"
    },
    {
      "inputs": [],
      "name": "NoFeesRemaining",
      "type": "error"
    },
    {
      "inputs": [
        {
          "internalType": "address",
          "name": "seller",
          "type": "address"
        },
        {
          "internalType": "address",
          "name": "msgSender",
          "type": "address"
        }
      ],
      "name": "NotAuctionSeller",
      "type": "error"
    },
    {
      "inputs": [],
      "name": "NotInitializing",
      "type": "error"
    },
    {
      "inputs": [],
      "name": "ReentrancyGuardReentrantCall",
      "type": "error"
    },
    {
      "inputs": [],
      "name": "UUPSUnauthorizedCallContext",
      "type": "error"
    },
    {
      "inputs": [
        {
          "internalType": "bytes32",
          "name": "slot",
          "type": "bytes32"
        }
      ],
      "name": "UUPSUnsupportedProxiableUUID",
      "type": "error"
    },
    {
      "anonymous": false,
      "inputs": [
        {
          "indexed": false,
          "internalType": "uint256",
          "name": "auctionId",
          "type": "uint256"
        }
      ],
      "name": "AuctionCancelled",
      "type": "event"
    },
    {
      "anonymous": false,
      "inputs": [
        {
          "indexed": false,
          "internalType": "uint256",
          "name": "auctionId",
          "type": "uint256"
        },
        {
          "indexed": false,
          "internalType": "uint256",
          "name": "fee",
          "type": "uint256"
        },
        {
          "indexed": false,
          "internalType": "address",
          "name": "royaltyAddress",
          "type": "address"
        },
        {
          "indexed": false,
          "internalType": "uint256",
          "name": "royalty",
          "type": "uint256"
        }
      ],
      "name": "AuctionFinalized",
      "type": "event"
    },
    {
      "anonymous": false,
      "inputs": [
        {
          "indexed": false,
          "internalType": "uint256",
          "name": "auctionId",
          "type": "uint256"
        },
        {
          "indexed": false,
          "internalType": "address",
          "name": "seller",
          "type": "address"
        },
        {
          "indexed": false,
          "internalType": "uint256",
          "name": "startPrice",
          "type": "uint256"
        },
        {
          "indexed": false,
          "internalType": "uint256",
          "name": "endTime",
          "type": "uint256"
        }
      ],
      "name": "AuctionStarted",
      "type": "event"
    },
    {
      "anonymous": false,
      "inputs": [
        {
          "indexed": false,
          "internalType": "address",
          "name": "authority",
          "type": "address"
        }
      ],
      "name": "AuthorityUpdated",
      "type": "event"
    },
    {
      "anonymous": false,
      "inputs": [
        {
          "indexed": false,
          "internalType": "uint256",
          "name": "auctionId",
          "type": "uint256"
        },
        {
          "indexed": false,
          "internalType": "address",
          "name": "bidder",
          "type": "address"
        },
        {
          "indexed": false,
          "internalType": "uint256",
          "name": "amount",
          "type": "uint256"
        },
        {
          "indexed": false,
          "internalType": "uint256",
          "name": "incentive",
          "type": "uint256"
        },
        {
          "indexed": false,
          "internalType": "uint256",
          "name": "endTime",
          "type": "uint256"
        }
      ],
      "name": "BidPlaced",
      "type": "event"
    },
    {
      "anonymous": false,
      "inputs": [
        {
          "indexed": false,
          "internalType": "uint256",
          "name": "auctionId",
          "type": "uint256"
        },
        {
          "indexed": false,
          "internalType": "address",
          "name": "winner",
          "type": "address"
        },
        {
          "indexed": false,
          "internalType": "uint256",
          "name": "amount",
          "type": "uint256"
        }
      ],
      "name": "BidderFinalized",
      "type": "event"
    },
    {
      "anonymous": false,
      "inputs": [
        {
          "indexed": false,
          "internalType": "uint256",
          "name": "newExtraTime",
          "type": "uint256"
        }
      ],
      "name": "ExtraTimeUpdated",
      "type": "event"
    },
    {
      "anonymous": false,
      "inputs": [
        {
          "indexed": true,
          "internalType": "address",
          "name": "bidder",
          "type": "address"
        },
        {
          "indexed": false,
          "internalType": "uint256",
          "name": "amount",
          "type": "uint256"
        }
      ],
      "name": "IncentiveReceived",
      "type": "event"
    },
    {
      "anonymous": false,
      "inputs": [
        {
          "indexed": false,
          "internalType": "uint64",
          "name": "version",
          "type": "uint64"
        }
      ],
      "name": "Initialized",
      "type": "event"
    },
    {
      "anonymous": false,
      "inputs": [
        {
          "indexed": false,
          "internalType": "uint256",
          "name": "newMaxAssets",
          "type": "uint256"
        }
      ],
      "name": "MaxAssetsUpdated",
      "type": "event"
    },
    {
      "anonymous": false,
      "inputs": [
        {
          "indexed": false,
          "internalType": "uint256",
          "name": "newDuration",
          "type": "uint256"
        }
      ],
      "name": "MaxAuctionDurationUpdated",
      "type": "event"
    },
    {
      "anonymous": false,
      "inputs": [
        {
          "indexed": false,
          "internalType": "uint16",
          "name": "newIncentive",
          "type": "uint16"
        }
      ],
      "name": "MaxIncentiveUpdated",
      "type": "event"
    },
    {
      "anonymous": false,
      "inputs": [
        {
          "indexed": false,
          "internalType": "uint256",
          "name": "newMaxPmt",
          "type": "uint256"
        }
      ],
      "name": "MaxPaymentUpdated",
      "type": "event"
    },
    {
      "anonymous": false,
      "inputs": [
        {
          "indexed": false,
          "internalType": "uint256",
          "name": "newDuration",
          "type": "uint256"
        }
      ],
      "name": "MinAuctionDurationUpdated",
      "type": "event"
    },
    {
      "anonymous": false,
      "inputs": [
        {
          "indexed": false,
          "internalType": "address",
          "name": "account",
          "type": "address"
        }
      ],
      "name": "Paused",
      "type": "event"
    },
    {
      "anonymous": false,
      "inputs": [
        {
          "indexed": false,
          "internalType": "uint256",
          "name": "auctionId",
          "type": "uint256"
        },
        {
          "indexed": false,
          "internalType": "address",
          "name": "seller",
          "type": "address"
        },
        {
          "indexed": false,
          "internalType": "uint256",
          "name": "amount",
          "type": "uint256"
        }
      ],
      "name": "SellerFinalized",
      "type": "event"
    },
    {
      "anonymous": false,
      "inputs": [
        {
          "indexed": false,
          "internalType": "address",
          "name": "tokenAddress",
          "type": "address"
        },
        {
          "indexed": false,
          "internalType": "address",
          "name": "to",
          "type": "address"
        },
        {
          "indexed": false,
          "internalType": "uint256",
          "name": "tokenId",
          "type": "uint256"
        }
      ],
      "name": "TransferFailed",
      "type": "event"
    },
    {
      "anonymous": false,
      "inputs": [
        {
          "indexed": false,
          "internalType": "address",
          "name": "newTreasury",
          "type": "address"
        }
      ],
      "name": "TreasuryUpdated",
      "type": "event"
    },
    {
      "anonymous": false,
      "inputs": [
        {
          "indexed": false,
          "internalType": "address",
          "name": "account",
          "type": "address"
        }
      ],
      "name": "Unpaused",
      "type": "event"
    },
    {
      "anonymous": false,
      "inputs": [
        {
          "indexed": true,
          "internalType": "address",
          "name": "implementation",
          "type": "address"
        }
      ],
      "name": "Upgraded",
      "type": "event"
    },
    {
      "anonymous": false,
      "inputs": [
        {
          "indexed": false,
          "internalType": "uint256",
          "name": "newWarmUp",
          "type": "uint256"
        }
      ],
      "name": "WarmUpTimeUpdated",
      "type": "event"
    },
    {
      "inputs": [],
      "name": "UPGRADE_INTERFACE_VERSION",
      "outputs": [
        {
          "internalType": "string",
          "name": "",
          "type": "string"
        }
      ],
      "stateMutability": "view",
      "type": "function"
    },
    {
      "inputs": [],
      "name": "authority",
      "outputs": [
        {
          "internalType": "address",
          "name": "",
          "type": "address"
        }
      ],
      "stateMutability": "view",
      "type": "function"
    },
    {
      "inputs": [
        {
          "internalType": "uint256",
          "name": "auctionId",
          "type": "uint256"
        },
        {
          "internalType": "uint256",
          "name": "bidAmount",
          "type": "uint256"
        },
        {
          "internalType": "uint256",
          "name": "incentiveAmount",
          "type": "uint256"
        }
      ],
      "name": "bid",
      "outputs": [],
      "stateMutability": "nonpayable",
      "type": "function"
    },
    {
      "inputs": [
        {
          "internalType": "uint256",
          "name": "auctionId",
          "type": "uint256"
        }
      ],
      "name": "cancelAuction",
      "outputs": [],
      "stateMutability": "nonpayable",
      "type": "function"
    },
    {
      "inputs": [
        {
          "internalType": "uint256",
          "name": "auctionId",
          "type": "uint256"
        }
      ],
      "name": "cancelSpecificAuction",
      "outputs": [],
      "stateMutability": "nonpayable",
      "type": "function"
    },
    {
      "inputs": [],
      "name": "extraTime",
      "outputs": [
        {
          "internalType": "uint256",
          "name": "",
          "type": "uint256"
        }
      ],
      "stateMutability": "view",
      "type": "function"
    },
    {
      "inputs": [
        {
          "internalType": "uint256",
          "name": "auctionId",
          "type": "uint256"
        }
      ],
      "name": "finalizeAuction",
      "outputs": [],
      "stateMutability": "nonpayable",
      "type": "function"
    },
    {
      "inputs": [
        {
          "internalType": "uint256",
          "name": "auctionId_",
          "type": "uint256"
        }
      ],
      "name": "getAuction",
      "outputs": [
        {
          "components": [
            {
              "internalType": "address payable",
              "name": "seller",
              "type": "address"
            },
            {
              "internalType": "address",
              "name": "highestBidder",
              "type": "address"
            },
            {
              "internalType": "address",
              "name": "bidTokenAddress",
              "type": "address"
            },
            {
              "internalType": "uint256",
              "name": "startTime",
              "type": "uint256"
            },
            {
              "internalType": "uint256",
              "name": "endTime",
              "type": "uint256"
            },
            {
              "internalType": "uint256",
              "name": "highestBid",
              "type": "uint256"
            },
            {
              "internalType": "uint256",
              "name": "bidderIncentive",
              "type": "uint256"
            },
            {
              "internalType": "uint256",
              "name": "totalIncentives",
              "type": "uint256"
            },
            {
              "internalType": "enum IDarkMarketAuctionStructures.AuctionStatus",
              "name": "status",
              "type": "uint8"
            },
            {
              "components": [
                {
                  "internalType": "uint256",
                  "name": "contractFee",
                  "type": "uint256"
                },
                {
                  "internalType": "uint256",
                  "name": "royaltyFee",
                  "type": "uint256"
                },
                {
                  "internalType": "address",
                  "name": "royaltyAddress",
                  "type": "address"
                }
              ],
              "internalType": "struct IDarkMarketAuctionStructures.FeeDetail",
              "name": "fees",
              "type": "tuple"
            },
            {
              "components": [
                {
                  "internalType": "address",
                  "name": "tokenAddress",
                  "type": "address"
                },
                {
                  "internalType": "uint256",
                  "name": "tokenId",
                  "type": "uint256"
                },
                {
                  "internalType": "uint256",
                  "name": "tokenQuantity",
                  "type": "uint256"
                },
                {
                  "internalType": "enum IDarkMarketAuctionStructures.TokenType",
                  "name": "tokenType",
                  "type": "uint8"
                }
              ],
              "internalType": "struct IDarkMarketAuctionStructures.TokenDetail[]",
              "name": "tokens",
              "type": "tuple[]"
            }
          ],
          "internalType": "struct IDarkMarketAuctionStructures.Auction",
          "name": "",
          "type": "tuple"
        }
      ],
      "stateMutability": "view",
      "type": "function"
    },
    {
      "inputs": [],
      "name": "initialize",
      "outputs": [],
      "stateMutability": "nonpayable",
      "type": "function"
    },
    {
      "inputs": [],
      "name": "isConsumingScheduledOp",
      "outputs": [
        {
          "internalType": "bytes4",
          "name": "",
          "type": "bytes4"
        }
      ],
      "stateMutability": "view",
      "type": "function"
    },
    {
      "inputs": [],
      "name": "maxAssets",
      "outputs": [
        {
          "internalType": "uint256",
          "name": "",
          "type": "uint256"
        }
      ],
      "stateMutability": "view",
      "type": "function"
    },
    {
      "inputs": [],
      "name": "maxAuctionDuration",
      "outputs": [
        {
          "internalType": "uint256",
          "name": "",
          "type": "uint256"
        }
      ],
      "stateMutability": "view",
      "type": "function"
    },
    {
      "inputs": [],
      "name": "maxIncentive",
      "outputs": [
        {
          "internalType": "uint256",
          "name": "",
          "type": "uint256"
        }
      ],
      "stateMutability": "view",
      "type": "function"
    },
    {
      "inputs": [],
      "name": "maxPayment",
      "outputs": [
        {
          "internalType": "uint256",
          "name": "",
          "type": "uint256"
        }
      ],
      "stateMutability": "view",
      "type": "function"
    },
    {
      "inputs": [],
      "name": "minAuctionDuration",
      "outputs": [
        {
          "internalType": "uint256",
          "name": "",
          "type": "uint256"
        }
      ],
      "stateMutability": "view",
      "type": "function"
    },
    {
      "inputs": [],
      "name": "nextAuctionId",
      "outputs": [
        {
          "internalType": "uint256",
          "name": "",
          "type": "uint256"
        }
      ],
      "stateMutability": "view",
      "type": "function"
    },
    {
      "inputs": [
        {
          "internalType": "address",
          "name": "",
          "type": "address"
        },
        {
          "internalType": "address",
          "name": "",
          "type": "address"
        },
        {
          "internalType": "uint256[]",
          "name": "",
          "type": "uint256[]"
        },
        {
          "internalType": "uint256[]",
          "name": "",
          "type": "uint256[]"
        },
        {
          "internalType": "bytes",
          "name": "",
          "type": "bytes"
        }
      ],
      "name": "onERC1155BatchReceived",
      "outputs": [
        {
          "internalType": "bytes4",
          "name": "",
          "type": "bytes4"
        }
      ],
      "stateMutability": "nonpayable",
      "type": "function"
    },
    {
      "inputs": [
        {
          "internalType": "address",
          "name": "",
          "type": "address"
        },
        {
          "internalType": "address",
          "name": "",
          "type": "address"
        },
        {
          "internalType": "uint256",
          "name": "",
          "type": "uint256"
        },
        {
          "internalType": "uint256",
          "name": "",
          "type": "uint256"
        },
        {
          "internalType": "bytes",
          "name": "",
          "type": "bytes"
        }
      ],
      "name": "onERC1155Received",
      "outputs": [
        {
          "internalType": "bytes4",
          "name": "",
          "type": "bytes4"
        }
      ],
      "stateMutability": "nonpayable",
      "type": "function"
    },
    {
      "inputs": [
        {
          "internalType": "address",
          "name": "",
          "type": "address"
        },
        {
          "internalType": "address",
          "name": "",
          "type": "address"
        },
        {
          "internalType": "uint256",
          "name": "",
          "type": "uint256"
        },
        {
          "internalType": "bytes",
          "name": "",
          "type": "bytes"
        }
      ],
      "name": "onERC721Received",
      "outputs": [
        {
          "internalType": "bytes4",
          "name": "",
          "type": "bytes4"
        }
      ],
      "stateMutability": "nonpayable",
      "type": "function"
    },
    {
      "inputs": [],
      "name": "pause",
      "outputs": [],
      "stateMutability": "nonpayable",
      "type": "function"
    },
    {
      "inputs": [],
      "name": "paused",
      "outputs": [
        {
          "internalType": "bool",
          "name": "",
          "type": "bool"
        }
      ],
      "stateMutability": "view",
      "type": "function"
    },
    {
      "inputs": [],
      "name": "proxiableUUID",
      "outputs": [
        {
          "internalType": "bytes32",
          "name": "",
          "type": "bytes32"
        }
      ],
      "stateMutability": "view",
      "type": "function"
    },
    {
      "inputs": [
        {
          "internalType": "address",
          "name": "newAuthority",
          "type": "address"
        }
      ],
      "name": "setAuthority",
      "outputs": [],
      "stateMutability": "nonpayable",
      "type": "function"
    },
    {
      "inputs": [
        {
          "internalType": "uint256",
          "name": "_extTime",
          "type": "uint256"
        }
      ],
      "name": "setExtraTime",
      "outputs": [],
      "stateMutability": "nonpayable",
      "type": "function"
    },
    {
      "inputs": [
        {
          "internalType": "uint16",
          "name": "_assets",
          "type": "uint16"
        }
      ],
      "name": "setMaxAssets",
      "outputs": [],
      "stateMutability": "nonpayable",
      "type": "function"
    },
    {
      "inputs": [
        {
          "internalType": "uint256",
          "name": "_duration",
          "type": "uint256"
        }
      ],
      "name": "setMaxAuctionDuration",
      "outputs": [],
      "stateMutability": "nonpayable",
      "type": "function"
    },
    {
      "inputs": [
        {
          "internalType": "uint16",
          "name": "_incentive",
          "type": "uint16"
        }
      ],
      "name": "setMaxIncentive",
      "outputs": [],
      "stateMutability": "nonpayable",
      "type": "function"
    },
    {
      "inputs": [
        {
          "internalType": "uint256",
          "name": "_maxPmt",
          "type": "uint256"
        }
      ],
      "name": "setMaxPayment",
      "outputs": [],
      "stateMutability": "nonpayable",
      "type": "function"
    },
    {
      "inputs": [
        {
          "internalType": "uint256",
          "name": "_duration",
          "type": "uint256"
        }
      ],
      "name": "setMinAuctionDuration",
      "outputs": [],
      "stateMutability": "nonpayable",
      "type": "function"
    },
    {
      "inputs": [
        {
          "internalType": "address",
          "name": "_treasury",
          "type": "address"
        }
      ],
      "name": "setTreasury",
      "outputs": [],
      "stateMutability": "nonpayable",
      "type": "function"
    },
    {
      "inputs": [
        {
          "internalType": "uint256",
          "name": "_warmUp",
          "type": "uint256"
        }
      ],
      "name": "setWarmUpTime",
      "outputs": [],
      "stateMutability": "nonpayable",
      "type": "function"
    },
    {
      "inputs": [
        {
          "internalType": "uint256",
          "name": "startPrice",
          "type": "uint256"
        },
        {
          "internalType": "uint256",
          "name": "duration",
          "type": "uint256"
        },
        {
          "components": [
            {
              "internalType": "address",
              "name": "tokenAddress",
              "type": "address"
            },
            {
              "internalType": "uint256",
              "name": "tokenId",
              "type": "uint256"
            },
            {
              "internalType": "uint256",
              "name": "tokenQuantity",
              "type": "uint256"
            },
            {
              "internalType": "enum IDarkMarketAuctionStructures.TokenType",
              "name": "tokenType",
              "type": "uint8"
            }
          ],
          "internalType": "struct IDarkMarketAuctionStructures.TokenDetail[]",
          "name": "_tokens",
          "type": "tuple[]"
        },
        {
          "internalType": "address",
          "name": "ERC20forBidding",
          "type": "address"
        },
        {
          "components": [
            {
              "internalType": "uint256",
              "name": "contractFee",
              "type": "uint256"
            },
            {
              "internalType": "uint256",
              "name": "royaltyFee",
              "type": "uint256"
            },
            {
              "internalType": "address",
              "name": "royaltyAddress",
              "type": "address"
            }
          ],
          "internalType": "struct IDarkMarketAuctionStructures.FeeDetail",
          "name": "_fees",
          "type": "tuple"
        }
      ],
      "name": "startAuction",
      "outputs": [],
      "stateMutability": "nonpayable",
      "type": "function"
    },
    {
      "inputs": [
        {
          "internalType": "bytes4",
          "name": "interfaceId",
          "type": "bytes4"
        }
      ],
      "name": "supportsInterface",
      "outputs": [
        {
          "internalType": "bool",
          "name": "",
          "type": "bool"
        }
      ],
      "stateMutability": "view",
      "type": "function"
    },
    {
      "inputs": [],
      "name": "treasury",
      "outputs": [
        {
          "internalType": "address",
          "name": "",
          "type": "address"
        }
      ],
      "stateMutability": "view",
      "type": "function"
    },
    {
      "inputs": [],
      "name": "unpause",
      "outputs": [],
      "stateMutability": "nonpayable",
      "type": "function"
    },
    {
      "inputs": [
        {
          "internalType": "address",
          "name": "newImplementation",
          "type": "address"
        },
        {
          "internalType": "bytes",
          "name": "data",
          "type": "bytes"
        }
      ],
      "name": "upgradeToAndCall",
      "outputs": [],
      "stateMutability": "payable",
      "type": "function"
    },
    {
      "inputs": [],
      "name": "warmUpTime",
      "outputs": [
        {
          "internalType": "uint256",
          "name": "",
          "type": "uint256"
        }
      ],
      "stateMutability": "view",
      "type": "function"
    }
  ],
  "bytecode": "0x60a0604052306080523480156200001557600080fd5b506200002062000026565b620000da565b7ff0c57e16840df040f15088dc2f81fe391c3923bec73e23a9662efc9c229c6a00805468010000000000000000900460ff1615620000775760405163f92ee8a960e01b815260040160405180910390fd5b80546001600160401b0390811614620000d75780546001600160401b0319166001600160401b0390811782556040519081527fc7f505b2f371ae2175ee4913f4499e1f2633a7b5936321eed1cdaeb6115181d29060200160405180910390a15b50565b60805161360162000104600039600081816123560152818161237f01526124c101526136016000f3fe60806040526004361061021a5760003560e01c806378bd793511610123578063bf7e214f116100ab578063f0f442601161006f578063f0f4426014610615578063f23a6e6114610635578063f273591314610661578063f690825814610681578063fc528482146106a157600080fd5b8063bf7e214f14610596578063e12d145a146105ab578063e457bf05146105cb578063e8083863146105e0578063e9d831be1461060057600080fd5b80638fb36037116100f25780638fb36037146104e257806394b2294b146104f757806396b5a7551461050c578063ad3cb1cc1461052c578063bc197c811461056a57600080fd5b806378bd79351461046b5780637a9e5e4b146104985780638129fc1c146104b85780638456cb59146104cd57600080fd5b806348cf48b5116101a65780635c975abb116101755780635c975abb146103c45780635fdbcd4c146103e957806361608185146103fe57806361d027b31461041e57806363beec7d1461044b57600080fd5b806348cf48b5146103675780634f1ef2861461038757806352d1902d1461039a57806354134876146103af57600080fd5b80632cf04c2f116101ed5780632cf04c2f146102dd578063339b174a146102fd57806336de093e1461031d5780633f4ba83a1461033d57806348c9581e1461035257600080fd5b806301ffc9a71461021f578063150b7a02146102545780631800c0fe146102985780632ac9bf09146102bb575b600080fd5b34801561022b57600080fd5b5061023f61023a366004612bbd565b6106b6565b60405190151581526020015b60405180910390f35b34801561026057600080fd5b5061027f61026f366004612cc3565b630a85bd0160e11b949350505050565b6040516001600160e01b0319909116815260200161024b565b3480156102a457600080fd5b506102ad6106ed565b60405190815260200161024b565b3480156102c757600080fd5b506102db6102d6366004612d2f565b610702565b005b3480156102e957600080fd5b506102db6102f8366004612d5b565b610b15565b34801561030957600080fd5b506102db610318366004612d5b565b610b90565b34801561032957600080fd5b506102db610338366004612d74565b610c1d565b34801561034957600080fd5b506102db610c99565b34801561035e57600080fd5b506102ad610cac565b34801561037357600080fd5b506102db610382366004612db0565b610cc1565b6102db610395366004612e5a565b61110f565b3480156103a657600080fd5b506102ad61112e565b3480156103bb57600080fd5b506102ad61114b565b3480156103d057600080fd5b5060008051602061358c8339815191525460ff1661023f565b3480156103f557600080fd5b506102ad611160565b34801561040a57600080fd5b506102db610419366004612d5b565b611175565b34801561042a57600080fd5b5061043361138c565b6040516001600160a01b03909116815260200161024b565b34801561045757600080fd5b506102db610466366004612d74565b6113aa565b34801561047757600080fd5b5061048b610486366004612d5b565b611427565b60405161024b9190612f48565b3480156104a457600080fd5b506102db6104b3366004613032565b6115e6565b3480156104c457600080fd5b506102db611669565b3480156104d957600080fd5b506102db6117af565b3480156104ee57600080fd5b5061027f6117c0565b34801561050357600080fd5b506102ad6117f9565b34801561051857600080fd5b506102db610527366004612d5b565b61180e565b34801561053857600080fd5b5061055d604051806040016040528060058152602001640352e302e360dc1b81525081565b60405161024b9190613073565b34801561057657600080fd5b5061027f610585366004613126565b63bc197c8160e01b95945050505050565b3480156105a257600080fd5b50610433611aa3565b3480156105b757600080fd5b506102db6105c6366004612d5b565b611abf565b3480156105d757600080fd5b506102ad611b42565b3480156105ec57600080fd5b506102db6105fb366004612d5b565b611b57565b34801561060c57600080fd5b506102ad611fcb565b34801561062157600080fd5b506102db610630366004613032565b611fe0565b34801561064157600080fd5b5061027f6106503660046131d4565b63f23a6e6160e01b95945050505050565b34801561066d57600080fd5b506102db61067c366004612d5b565b61202b565b34801561068d57600080fd5b506102db61069c366004612d5b565b61206d565b3480156106ad57600080fd5b506102ad6120c3565b60006001600160e01b03198216630271189760e51b14806106e757506301ffc9a760e01b6001600160e01b03198316145b92915050565b6000806106f86120d5565b6007015492915050565b61070a6120f9565b610712612131565b600061071d84612162565b905080600401544211156107585760048082015460405163394dab1560e21b8152429281019290925260248201526044015b60405180910390fd5b8060050154831161078c57600581015460405163f0defc6160e01b815261074f918591600401918252602082015260400190565b606483610797611160565b6107a19190613253565b6107ab919061326a565b8211156107dd57816107bb611160565b604051634bb8657760e11b81526004810192909252602482015260440161074f565b60028101546040516323b872dd60e01b81526001600160a01b039091169081906323b872dd906108159033903090899060040161328c565b6020604051808303816000875af1158015610834573d6000803e3d6000fd5b505050506040513d601f19601f8201168201806040525081019061085891906132c0565b506108616106ed565b826004015461087091906132db565b4211156108ab5761087f6106ed565b82600401600082825461089291906132ee565b909155505060088201805460ff191660021790556108bb565b60088201805460ff191660011790555b60018201546001600160a01b0316158015906108ed57506108da611fcb565b82600301546108e991906132ee565b4210155b156109ec5760008260060154836005015461090891906132ee565b600184015460405163a9059cbb60e01b81526001600160a01b0391821660048201526024810183905291925083169063a9059cbb906044016020604051808303816000875af115801561095f573d6000803e3d6000fd5b505050506040513d601f19601f8201168201806040525081019061098391906132c0565b508383600701600082825461099891906132ee565b9091555050600183015460068401546040519081526001600160a01b03909116907f70220290ea80981efd0f0f7e6b1b5085605eb976822c8b8422e5bcc53e4c6d639060200160405180910390a250610a80565b60018201546001600160a01b031615610a80576001820154600583015460405163a9059cbb60e01b81526001600160a01b03928316600482015260248101919091529082169063a9059cbb906044016020604051808303816000875af1158015610a5a573d6000803e3d6000fd5b505050506040513d601f19601f82011682018060405250810190610a7e91906132c0565b505b6001820180546001600160a01b031916339081179091556005830185905560068301849055600483015460408051888152602081019390935282018690526060820185905260808201527fe0771bb8191f40e2c9380d044dd32271d56e14b7722162d048aa9ebe13eefbb19060a00160405180910390a15050610b1060016000805160206135ac83398151915255565b505050565b610b22335b600036612195565b61a8c0811115610b5057604051638758956b60e01b81526004810182905261a8c0602482015260440161074f565b610b5981612293565b6040518181527fbfc3b8f5a88703f2c18a06cad35260a2d10c85f63de450b5b5addbadcdfc08eb906020015b60405180910390a150565b610b9933610b1a565b6103e8811115610be45760405162461bcd60e51b815260206004820152601660248201527546656573206d7573742062652062656c6f772031302560501b604482015260640161074f565b610bed816122a7565b6040518181527f42a5471985e5ddd8227f0f32637d539819564f327d0fb8366fd3d982aa426c0e90602001610b85565b610c2633610b1a565b60648161ffff1610610c5857604051634bb8657760e11b815261ffff821660048201526063602482015260440161074f565b610c658161ffff166122bb565b60405161ffff821681527f05ca520f831f8d754f63ab92b7cf507a5fd5e64acc73687fb37722eadbd032ee90602001610b85565b610ca233610b1a565b610caa6122cf565b565b600080610cb76120d5565b6002015492915050565b610cc9612131565b610cd16120f9565b6000610cdb612329565b9050831580610cf05750610ced6117f9565b84115b15610d205783610cfe6117f9565b6040516319d2c49360e21b81526004810192909252602482015260440161074f565b610d2861114b565b861080610d3b5750610d38610cac565b86115b15610d7b5785610d4961114b565b610d51610cac565b60405163fb6ffde960e01b815260048101939093526024830191909152604482015260640161074f565b610d83611b42565b82351115610db7578135610d95611b42565b6040516316f0a44560e21b81526004810192909252602482015260440161074f565b610dbf611b42565b82602001351115610dd7578160200135610d95611b42565b6000610de282612162565b80546001600160a01b031916331781554260038201819055909150610e089088906132ee565b60048201556005810188905560088101805460ff191690556002810180546001600160a01b0319166001600160a01b0386161790558260098201610e4c8282613321565b90505060005b858110156110a2576000878783818110610e6e57610e6e61334a565b9050608002016060016020810190610e86919061336d565b6001811115610e9757610e97612eaa565b03610f4557868682818110610eae57610eae61334a565b610ec49260206080909202019081019150613032565b6001600160a01b03166342842e0e33308a8a86818110610ee657610ee661334a565b905060800201602001356040518463ffffffff1660e01b8152600401610f0e9392919061328c565b600060405180830381600087803b158015610f2857600080fd5b505af1158015610f3c573d6000803e3d6000fd5b50505050611049565b6001878783818110610f5957610f5961334a565b9050608002016060016020810190610f71919061336d565b6001811115610f8257610f82612eaa565b0361104957868682818110610f9957610f9961334a565b610faf9260206080909202019081019150613032565b6001600160a01b031663f242432a33308a8a86818110610fd157610fd161334a565b905060800201602001358b8b87818110610fed57610fed61334a565b905060800201604001356040518563ffffffff1660e01b8152600401611016949392919061338a565b600060405180830381600087803b15801561103057600080fd5b505af1158015611044573d6000803e3d6000fd5b505050505b81600c0187878381811061105f5761105f61334a565b83546001810185556000948552602090942060809091029290920192600402909101905061108d82826133c2565b5050808061109a90613423565b915050610e52565b506004810154604080518481523360208201528082018b90526060810192909252517fbf6dc7bdf2f23af5a506fe03ee1221f47d023a2227fbc949c6b812ae44534e6d9181900360800190a1505061110760016000805160206135ac83398151915255565b505050505050565b61111761234b565b611120826123f0565b61112a82826123f9565b5050565b60006111386124b6565b5060008051602061356c83398151915290565b6000806111566120d5565b6001015492915050565b60008061116b6120d5565b6004015492915050565b61117e33610b1a565b6111866120c3565b81106111a85760405163d9970fa160e01b81526004810182905260240161074f565b60006111b382612162565b60018101549091506001600160a01b03161561126b5760028101546001820154600783015460058401546001600160a01b039384169363a9059cbb9316916111fa916132db565b6040516001600160e01b031960e085901b1681526001600160a01b03909216600483015260248201526044016020604051808303816000875af1158015611245573d6000803e3d6000fd5b505050506040513d601f19601f8201168201806040525081019061126991906132c0565b505b60005b600c8201548110156113445781600c01818154811061128f5761128f61334a565b60009182526020909120600490910201548254600c840180546001600160a01b03938416936342842e0e933093911691869081106112cf576112cf61334a565b9060005260206000209060040201600101546040518463ffffffff1660e01b81526004016112ff9392919061328c565b600060405180830381600087803b15801561131957600080fd5b505af115801561132d573d6000803e3d6000fd5b50505050808061133c90613423565b91505061126e565b5060088101805460ff191660041790556040518281527f2809c7e17bf978fbc7194c0a694b638c4215e9140cacc6c38ca36010b45697df906020015b60405180910390a15050565b6000806113976120d5565b600801546001600160a01b031692915050565b6113b333610b1a565b60648161ffff1611156113e6576040516319d2c49360e21b815261ffff821660048201526064602482015260440161074f565b6113f38161ffff166124ff565b60405161ffff821681527f0fb15ab527eb75167c1ba0957b32fedfeb6cb153a67c3b8987cf1be51c31d32890602001610b85565b61142f612b1e565b60006114396120d5565b600084815260098201602090815260409182902082516101608101845281546001600160a01b0390811682526001830154811693820193909352600282015490921692820192909252600382015460608201526004808301546080830152600583015460a0830152600683015460c0830152600783015460e08301526008830154939450909261010084019160ff909116908111156114da576114da612eaa565b60048111156114eb576114eb612eaa565b81526040805160608101825260098401548152600a840154602082810191909152600b8501546001600160a01b03168284015280840191909152600c8401805483518184028101840185528181529390940193909160009084015b828210156115d7576000848152602090819020604080516080810182526004860290920180546001600160a01b0316835260018082015494840194909452600281015491830191909152600381015491929091606084019160ff909116908111156115b3576115b3612eaa565b60018111156115c4576115c4612eaa565b8152505081526020019060010190611546565b50505091525090949350505050565b336115ef611aa3565b6001600160a01b0316816001600160a01b03161461162a5760405162d1953b60e31b81526001600160a01b038216600482015260240161074f565b816001600160a01b03163b600003611660576040516361798f2f60e11b81526001600160a01b038316600482015260240161074f565b61112a82612513565b7ff0c57e16840df040f15088dc2f81fe391c3923bec73e23a9662efc9c229c6a008054600160401b810460ff16159067ffffffffffffffff166000811580156116af5750825b905060008267ffffffffffffffff1660011480156116cc5750303b155b9050811580156116da575080155b156116f85760405163f92ee8a960e01b815260040160405180910390fd5b845467ffffffffffffffff19166001178555831561172257845460ff60401b1916600160401b1785555b61172a61256d565b61173261256d565b61173a612575565b61174a611745612585565b6125c4565b61175261256d565b61175a6125d5565b6117626125e5565b83156117a857845460ff60401b19168555604051600181527fc7f505b2f371ae2175ee4913f4499e1f2633a7b5936321eed1cdaeb6115181d29060200160405180910390a15b5050505050565b6117b833610b1a565b610caa612659565b60008051602061354c833981519152805460009190600160a01b900460ff166117ea5760006117f3565b638fb3603760e01b5b91505090565b6000806118046120d5565b6006015492915050565b6118166120f9565b600061182182612162565b80549091506001600160a01b0316331461186257805460405163b71af04b60e01b81526001600160a01b03909116600482015233602482015260440161074f565b6004600882015460ff16600481111561187d5761187d612eaa565b14806118a157506003600882015460ff16600481111561189f5761189f612eaa565b145b156118ce5760048082015460405163394dab1560e21b81524292810192909252602482015260440161074f565b6000600882015460ff1660048111156118e9576118e9612eaa565b14611907576040516335473acb60e01b815260040160405180910390fd5b600c81015460005b81811015611a4457600083600c01828154811061192e5761192e61334a565b90600052602060002090600402016040518060800160405290816000820160009054906101000a90046001600160a01b03166001600160a01b03166001600160a01b0316815260200160018201548152602001600282015481526020016003820160009054906101000a900460ff1660018111156119ae576119ae612eaa565b60018111156119bf576119bf612eaa565b9052508051855460208301516040516323b872dd60e01b81529394506001600160a01b03928316936323b872dd936119fe93309391169160040161328c565b600060405180830381600087803b158015611a1857600080fd5b505af1158015611a2c573d6000803e3d6000fd5b50505050508080611a3c90613423565b91505061190f565b5060088201805460ff191660041790556040518381527f2809c7e17bf978fbc7194c0a694b638c4215e9140cacc6c38ca36010b45697df9060200160405180910390a15050611aa060016000805160206135ac83398151915255565b50565b60008051602061354c833981519152546001600160a01b031690565b611ac833610b1a565b6301dfe200811115611b095780611add610cac565b60405163fb6ffde960e01b8152600481019290925260248201526301dfe200604482015260640161074f565b611b12816126a2565b6040518181527f58762e4727ba1f653f8ac18ff80f9956b5cab3da576bce87bfe21fbca72d10e990602001610b85565b600080611b4d6120d5565b6005015492915050565b611b5f6120f9565b611b67612131565b6000611b7282612162565b90508060040154421015611ba857600480820154604051633df48b2560e21b81524292810192909252602482015260440161074f565b60018101546001600160a01b0316611bc357611bc38261180e565b600281015460098201546001600160a01b0390911690600090611be9906127109061326a565b8360050154611bf89190613253565b905060006127108460090160010154611c11919061326a565b8460050154611c209190613253565b90506000846007015482848760050154611c3a91906132db565b611c4491906132db565b611c4e91906132db565b85549091506001600160a01b03163303611cc5578454611c799085906001600160a01b0316836126b6565b8454604080518881526001600160a01b03909216602083015281018290527ff73372fdca7f972b1cc507ab0bda9b67b500bd17aaed8c5e6a3366d413e7e1f89060600160405180910390a15b60018501546001600160a01b03163303611f775760005b600c860154811015611f2457600086600c018281548110611cff57611cff61334a565b600091825260209091206003600490920201015460ff166001811115611d2757611d27612eaa565b03611deb5785600c018181548110611d4157611d4161334a565b60009182526020909120600490910201546001870154600c880180546001600160a01b03938416936342842e0e93309391169186908110611d8457611d8461334a565b9060005260206000209060040201600101546040518463ffffffff1660e01b8152600401611db49392919061328c565b600060405180830381600087803b158015611dce57600080fd5b505af1158015611de2573d6000803e3d6000fd5b50505050611f12565b600186600c018281548110611e0257611e0261334a565b600091825260209091206003600490920201015460ff166001811115611e2a57611e2a612eaa565b03611f125785600c018181548110611e4457611e4461334a565b60009182526020909120600490910201546001870154600c880180546001600160a01b039384169363f242432a93309391169186908110611e8757611e8761334a565b9060005260206000209060040201600101548a600c018681548110611eae57611eae61334a565b9060005260206000209060040201600201546040518563ffffffff1660e01b8152600401611edf949392919061338a565b600060405180830381600087803b158015611ef957600080fd5b505af1158015611f0d573d6000803e3d6000fd5b505050505b80611f1c81613423565b915050611cdc565b5060018501546005860154604080518981526001600160a01b0390931660208401528201527f287e93683fbdb8e8dc13e757ba52c664a7573734dfb5624353d5f49c033313b19060600160405180910390a15b8215611f8f57611f8f84611f8961138c565b856126b6565b8115611faf57600b850154611faf9085906001600160a01b0316846126b6565b5050505050611aa060016000805160206135ac83398151915255565b600080611fd66120d5565b6003015492915050565b611fe933610b1a565b611ff281612730565b6040516001600160a01b03821681527f7dae230f18360d76a040c81f050aa14eb9d6dc7901b20fc5d855e2a20fe814d190602001610b85565b61203433610b1a565b61203d8161275f565b6040518181527f4cd8b89ec991355064be8d3cfeaaacab8c2fe683e8357b3c9de90b0bdda6cb1d90602001610b85565b61207633610b1a565b603c81101561208a5780603c610d51610cac565b61209381612773565b6040518181527fe2720c1018ae21600ff3d5ee8e1b01ca87b27dfde5c38ea8456571a7294440e290602001610b85565b6000806120ce6120d5565b5492915050565b7f27b49f3b53a795769950b1f0d5678148bbca7c47eb1e64956b2aa849760b9a0090565b6000805160206135ac83398151915280546001190161212b57604051633ee5aeb560e01b815260040160405180910390fd5b60029055565b60008051602061358c8339815191525460ff1615610caa5760405163d93c066560e01b815260040160405180910390fd5b60008061216d6120d5565b600093845260090160205250506040902090565b60016000805160206135ac83398151915255565b60008051602061354c8339815191526000806121d06121b2611aa3565b87306121c2600460008a8c61343c565b6121cb91613466565b612787565b91509150816111075763ffffffff81161561227057825460ff60a01b1916600160a01b1783556121fe611aa3565b6001600160a01b03166394c7d7ee8787876040518463ffffffff1660e01b815260040161222d93929190613496565b600060405180830381600087803b15801561224757600080fd5b505af115801561225b573d6000803e3d6000fd5b5050845460ff60a01b19168555506111079050565b60405162d1953b60e31b81526001600160a01b038716600482015260240161074f565b600061229d6120d5565b6007019190915550565b60006122b16120d5565b6005019190915550565b60006122c56120d5565b6004019190915550565b6122d7612893565b60008051602061358c833981519152805460ff191681557f5db9ee0a495bf2e6ff9c91a7834c1ba4fdd244a5e8aa4e537bd38aeae4b073aa335b6040516001600160a01b039091168152602001610b85565b6000806123346120d5565b80549091508061234381613423565b925550919050565b306001600160a01b037f00000000000000000000000000000000000000000000000000000000000000001614806123d257507f00000000000000000000000000000000000000000000000000000000000000006001600160a01b03166123c660008051602061356c833981519152546001600160a01b031690565b6001600160a01b031614155b15610caa5760405163703e46dd60e11b815260040160405180910390fd5b611aa033610b1a565b816001600160a01b03166352d1902d6040518163ffffffff1660e01b8152600401602060405180830381865afa925050508015612453575060408051601f3d908101601f19168201909252612450918101906134d6565b60015b61247b57604051634c9c8ce360e01b81526001600160a01b038316600482015260240161074f565b60008051602061356c83398151915281146124ac57604051632a87526960e21b81526004810182905260240161074f565b610b1083836128c3565b306001600160a01b037f00000000000000000000000000000000000000000000000000000000000000001614610caa5760405163703e46dd60e11b815260040160405180910390fd5b60006125096120d5565b6006019190915550565b60008051602061354c83398151915280546001600160a01b0319166001600160a01b03831690811782556040519081527f2f658b440c35314f52658ea8a740e05b284cdc84dc9ae01e891f21b8933e7cad90602001611380565b610caa612919565b61257d612919565b610caa612962565b60004661014f036125a9575073e1809d966d96bef678f808329336962944ffb10690565b60405163fc94119160e01b815246600482015260240161074f565b6125cc612919565b611aa081612983565b6125dd612919565b610caa612994565b6125ed612919565b60006125f76120d5565b6001808255603c90820155626ebe0060028201556000600382018190556007820155600c60048201556103e860058201556014600682015560080180546001600160a01b03191673419c3657532aad16955291af7942fea9a1b6d01017905550565b612661612131565b60008051602061358c833981519152805460ff191660011781557f62e78cea01bee320cd4e420270b5ea74000d11b0c9f74754ebdbfc544b05a25833612311565b60006126ac6120d5565b6002019190915550565b60405163a9059cbb60e01b81526001600160a01b0383811660048301526024820183905284169063a9059cbb906044016020604051808303816000875af1925050508015612721575060408051601f3d908101601f1916820190925261271e918101906132c0565b60015b61272a57600080fd5b50505050565b600061273a6120d5565b60080180546001600160a01b0319166001600160a01b03939093169290921790915550565b60006127696120d5565b6003019190915550565b600061277d6120d5565b6001019190915550565b6040516001600160a01b03848116602483015283811660448301526001600160e01b03198316606483015260009182918291829189169060840160408051601f198184030181529181526020820180516001600160e01b031663b700961360e01b179052516127f691906134ef565b600060405180830381855afa9150503d8060008114612831576040519150601f19603f3d011682016040523d82523d6000602084013e612836565b606091505b50915091508115612888576040815110612868578080602001905181019061285e919061350b565b9094509250612888565b6020815110612888578080602001905181019061288591906132c0565b93505b505094509492505050565b60008051602061358c8339815191525460ff16610caa57604051638dfc202b60e01b815260040160405180910390fd5b6128cc8261299c565b6040516001600160a01b038316907fbc7cd75a20ee27fd9adebab32041f755214dbc6bffa90cc0225b39da2e5c2d3b90600090a280511561291157610b108282612a01565b61112a612a77565b7ff0c57e16840df040f15088dc2f81fe391c3923bec73e23a9662efc9c229c6a0054600160401b900460ff16610caa57604051631afcd79f60e31b815260040160405180910390fd5b61296a612919565b60008051602061358c833981519152805460ff19169055565b61298b612919565b611aa081612513565b612181612919565b806001600160a01b03163b6000036129d257604051634c9c8ce360e01b81526001600160a01b038216600482015260240161074f565b60008051602061356c83398151915280546001600160a01b0319166001600160a01b0392909216919091179055565b6060600080846001600160a01b031684604051612a1e91906134ef565b600060405180830381855af49150503d8060008114612a59576040519150601f19603f3d011682016040523d82523d6000602084013e612a5e565b606091505b5091509150612a6e858383612a96565b95945050505050565b3415610caa5760405163b398979f60e01b815260040160405180910390fd5b606082612aab57612aa682612af5565b612aee565b8151158015612ac257506001600160a01b0384163b155b15612aeb57604051639996b31560e01b81526001600160a01b038516600482015260240161074f565b50805b9392505050565b805115612b055780518082602001fd5b604051630a12f52160e11b815260040160405180910390fd5b60405180610160016040528060006001600160a01b0316815260200160006001600160a01b0316815260200160006001600160a01b03168152602001600081526020016000815260200160008152602001600081526020016000815260200160006004811115612b9057612b90612eaa565b81526040805160608101825260008082526020828101829052928201529101908152602001606081525090565b600060208284031215612bcf57600080fd5b81356001600160e01b031981168114612aee57600080fd5b6001600160a01b0381168114611aa057600080fd5b8035612c0781612be7565b919050565b634e487b7160e01b600052604160045260246000fd5b604051601f8201601f1916810167ffffffffffffffff81118282101715612c4b57612c4b612c0c565b604052919050565b600082601f830112612c6457600080fd5b813567ffffffffffffffff811115612c7e57612c7e612c0c565b612c91601f8201601f1916602001612c22565b818152846020838601011115612ca657600080fd5b816020850160208301376000918101602001919091529392505050565b60008060008060808587031215612cd957600080fd5b8435612ce481612be7565b93506020850135612cf481612be7565b925060408501359150606085013567ffffffffffffffff811115612d1757600080fd5b612d2387828801612c53565b91505092959194509250565b600080600060608486031215612d4457600080fd5b505081359360208301359350604090920135919050565b600060208284031215612d6d57600080fd5b5035919050565b600060208284031215612d8657600080fd5b813561ffff81168114612aee57600080fd5b600060608284031215612daa57600080fd5b50919050565b60008060008060008060e08789031215612dc957600080fd5b8635955060208701359450604087013567ffffffffffffffff80821115612def57600080fd5b818901915089601f830112612e0357600080fd5b813581811115612e1257600080fd5b8a60208260071b8501011115612e2757600080fd5b602083019650809550505050612e3f60608801612bfc565b9150612e4e8860808901612d98565b90509295509295509295565b60008060408385031215612e6d57600080fd5b8235612e7881612be7565b9150602083013567ffffffffffffffff811115612e9457600080fd5b612ea085828601612c53565b9150509250929050565b634e487b7160e01b600052602160045260246000fd5b60058110612ed057612ed0612eaa565b9052565b600081518084526020808501945080840160005b83811015612f3d57815180516001600160a01b031688528381015184890152604080820151908901526060908101519060028210612f2857612f28612eaa565b88015260809096019590820190600101612ee8565b509495945050505050565b60208152612f626020820183516001600160a01b03169052565b60006020830151612f7e60408401826001600160a01b03169052565b5060408301516001600160a01b03811660608401525060608301516080830152608083015160a083015260a083015160c083015260c083015160e083015260e0830151610100818185015280850151915050610120612fdf81850183612ec0565b84015190506101406130108482018380518252602080820151908301526040908101516001600160a01b0316910152565b8401516101a084810152905061302a6101c0840182612ed4565b949350505050565b60006020828403121561304457600080fd5b8135612aee81612be7565b60005b8381101561306a578181015183820152602001613052565b50506000910152565b602081526000825180602084015261309281604085016020870161304f565b601f01601f19169190910160400192915050565b600082601f8301126130b757600080fd5b8135602067ffffffffffffffff8211156130d3576130d3612c0c565b8160051b6130e2828201612c22565b92835284810182019282810190878511156130fc57600080fd5b83870192505b8483101561311b57823582529183019190830190613102565b979650505050505050565b600080600080600060a0868803121561313e57600080fd5b853561314981612be7565b9450602086013561315981612be7565b9350604086013567ffffffffffffffff8082111561317657600080fd5b61318289838a016130a6565b9450606088013591508082111561319857600080fd5b6131a489838a016130a6565b935060808801359150808211156131ba57600080fd5b506131c788828901612c53565b9150509295509295909350565b600080600080600060a086880312156131ec57600080fd5b85356131f781612be7565b9450602086013561320781612be7565b93506040860135925060608601359150608086013567ffffffffffffffff81111561323157600080fd5b6131c788828901612c53565b634e487b7160e01b600052601160045260246000fd5b80820281158282048414176106e7576106e761323d565b60008261328757634e487b7160e01b600052601260045260246000fd5b500490565b6001600160a01b039384168152919092166020820152604081019190915260600190565b80518015158114612c0757600080fd5b6000602082840312156132d257600080fd5b612aee826132b0565b818103818111156106e7576106e761323d565b808201808211156106e7576106e761323d565b80546001600160a01b0319166001600160a01b0392909216919091179055565b8135815560208201356001820155604082013561333d81612be7565b610b108160028401613301565b634e487b7160e01b600052603260045260246000fd5b60028110611aa057600080fd5b60006020828403121561337f57600080fd5b8135612aee81613360565b6001600160a01b0394851681529290931660208301526040820152606081019190915260a06080820181905260009082015260c00190565b81356133cd81612be7565b6133d78183613301565b5060208201356001820155604082013560028201556003810160608301356133fe81613360565b6002811061340e5761340e612eaa565b60ff1982541660ff8216811783555050505050565b6000600182016134355761343561323d565b5060010190565b6000808585111561344c57600080fd5b8386111561345957600080fd5b5050820193919092039150565b6001600160e01b0319813581811691600485101561348e5780818660040360031b1b83161692505b505092915050565b6001600160a01b03841681526040602082018190528101829052818360608301376000818301606090810191909152601f909201601f1916010192915050565b6000602082840312156134e857600080fd5b5051919050565b6000825161350181846020870161304f565b9190910192915050565b6000806040838503121561351e57600080fd5b613527836132b0565b9150602083015163ffffffff8116811461354057600080fd5b80915050925092905056fef3177357ab46d8af007ab3fdb9af81da189e1068fefdc0073dca88a2cab40a00360894a13ba1a3210667c828492db98dca3e2076cc3735a920a3ca505d382bbccd5ed15c6e187e77e9aee88184c21f4f2182ab5827cb3b7e07fbedcd63f033009b779b17422d0df92223018b32b4d1fa46e071723d6817e2486d003becc55f00a2646970667358221220b08dac5d546bcb09d6988a8c8f927207bc5b5a7373ef5df9be9b5dce675425c764736f6c63430008140033",
  "linkReferences": {},
  "deployedLinkReferences": {}
}