{
  "_format": "hh-sol-artifact-1",
  "contractName": "DarkMarketAuction",
  "sourceName": "src/contracts/DarkMarketAuction.sol",
  "abi": [
    {
      "inputs": [],
      "stateMutability": "nonpayable",
      "type": "constructor"
    },
    {
      "inputs": [
        {
          "internalType": "address",
          "name": "authority",
          "type": "address"
        }
      ],
      "name": "AccessManagedInvalidAuthority",
      "type": "error"
    },
    {
      "inputs": [
        {
          "internalType": "address",
          "name": "caller",
          "type": "address"
        },
        {
          "internalType": "uint32",
          "name": "delay",
          "type": "uint32"
        }
      ],
      "name": "AccessManagedRequiredDelay",
      "type": "error"
    },
    {
      "inputs": [
        {
          "internalType": "address",
          "name": "caller",
          "type": "address"
        }
      ],
      "name": "AccessManagedUnauthorized",
      "type": "error"
    },
    {
      "inputs": [
        {
          "internalType": "address",
          "name": "target",
          "type": "address"
        }
      ],
      "name": "AddressEmptyCode",
      "type": "error"
    },
    {
      "inputs": [
        {
          "internalType": "uint256",
          "name": "now",
          "type": "uint256"
        },
        {
          "internalType": "uint256",
          "name": "endTime",
          "type": "uint256"
        }
      ],
      "name": "AuctionEnded",
      "type": "error"
    },
    {
      "inputs": [],
      "name": "AuctionHasBids",
      "type": "error"
    },
    {
      "inputs": [
        {
          "internalType": "uint256",
          "name": "now",
          "type": "uint256"
        },
        {
          "internalType": "uint256",
          "name": "endTime",
          "type": "uint256"
        }
      ],
      "name": "AuctionNotEnded",
      "type": "error"
    },
    {
      "inputs": [
        {
          "internalType": "uint256",
          "name": "now",
          "type": "uint256"
        },
        {
          "internalType": "uint256",
          "name": "endTime",
          "type": "uint256"
        }
      ],
      "name": "AuctionNotStarted",
      "type": "error"
    },
    {
      "inputs": [
        {
          "internalType": "uint256",
          "name": "bidAmount",
          "type": "uint256"
        },
        {
          "internalType": "uint256",
          "name": "highestBid",
          "type": "uint256"
        }
      ],
      "name": "BidTooLow",
      "type": "error"
    },
    {
      "inputs": [
        {
          "internalType": "uint256",
          "name": "chainId",
          "type": "uint256"
        }
      ],
      "name": "ChainNotConfigured",
      "type": "error"
    },
    {
      "inputs": [
        {
          "internalType": "address",
          "name": "implementation",
          "type": "address"
        }
      ],
      "name": "ERC1967InvalidImplementation",
      "type": "error"
    },
    {
      "inputs": [],
      "name": "ERC1967NonPayable",
      "type": "error"
    },
    {
      "inputs": [],
      "name": "EnforcedPause",
      "type": "error"
    },
    {
      "inputs": [],
      "name": "ExpectedPause",
      "type": "error"
    },
    {
      "inputs": [],
      "name": "FailedInnerCall",
      "type": "error"
    },
    {
      "inputs": [],
      "name": "FeeTokenNotConfigured",
      "type": "error"
    },
    {
      "inputs": [
        {
          "internalType": "uint256",
          "name": "incentiveAmount",
          "type": "uint256"
        },
        {
          "internalType": "uint256",
          "name": "maxIncentive",
          "type": "uint256"
        }
      ],
      "name": "IncentiveTooHigh",
      "type": "error"
    },
    {
      "inputs": [
        {
          "internalType": "uint256",
          "name": "count",
          "type": "uint256"
        },
        {
          "internalType": "uint256",
          "name": "max",
          "type": "uint256"
        }
      ],
      "name": "InvalidAAssetCount",
      "type": "error"
    },
    {
      "inputs": [
        {
          "internalType": "uint256",
          "name": "auctionId",
          "type": "uint256"
        }
      ],
      "name": "InvalidAuction",
      "type": "error"
    },
    {
      "inputs": [
        {
          "internalType": "uint256",
          "name": "duration",
          "type": "uint256"
        },
        {
          "internalType": "uint256",
          "name": "min",
          "type": "uint256"
        },
        {
          "internalType": "uint256",
          "name": "max",
          "type": "uint256"
        }
      ],
      "name": "InvalidAuctionDuration",
      "type": "error"
    },
    {
      "inputs": [
        {
          "internalType": "uint256",
          "name": "fee",
          "type": "uint256"
        },
        {
          "internalType": "uint256",
          "name": "max",
          "type": "uint256"
        }
      ],
      "name": "InvalidAuctionFeePercentage",
      "type": "error"
    },
    {
      "inputs": [
        {
          "internalType": "uint256",
          "name": "extraTime",
          "type": "uint256"
        },
        {
          "internalType": "uint256",
          "name": "max",
          "type": "uint256"
        }
      ],
      "name": "InvalidExtraTime",
      "type": "error"
    },
    {
      "inputs": [],
      "name": "InvalidInitialization",
      "type": "error"
    },
    {
      "inputs": [
        {
          "internalType": "uint256",
          "name": "fee",
          "type": "uint256"
        },
        {
          "internalType": "uint256",
          "name": "max",
          "type": "uint256"
        }
      ],
      "name": "InvalidRoyaltyFeePercentage",
      "type": "error"
    },
    {
      "inputs": [],
      "name": "NoFeesRemaining",
      "type": "error"
    },
    {
      "inputs": [
        {
          "internalType": "address",
          "name": "seller",
          "type": "address"
        },
        {
          "internalType": "address",
          "name": "msgSender",
          "type": "address"
        }
      ],
      "name": "NotAuctionSeller",
      "type": "error"
    },
    {
      "inputs": [],
      "name": "NotInitializing",
      "type": "error"
    },
    {
      "inputs": [],
      "name": "ReentrancyGuardReentrantCall",
      "type": "error"
    },
    {
      "inputs": [
        {
          "internalType": "uint256",
          "name": "chainId",
          "type": "uint256"
        }
      ],
      "name": "TreasuryNotConfigured",
      "type": "error"
    },
    {
      "inputs": [],
      "name": "UUPSUnauthorizedCallContext",
      "type": "error"
    },
    {
      "inputs": [
        {
          "internalType": "bytes32",
          "name": "slot",
          "type": "bytes32"
        }
      ],
      "name": "UUPSUnsupportedProxiableUUID",
      "type": "error"
    },
    {
      "anonymous": false,
      "inputs": [
        {
          "indexed": false,
          "internalType": "uint256",
          "name": "auctionId",
          "type": "uint256"
        }
      ],
      "name": "AuctionCancelled",
      "type": "event"
    },
    {
      "anonymous": false,
      "inputs": [
        {
          "indexed": false,
          "internalType": "uint256",
          "name": "auctionId",
          "type": "uint256"
        },
        {
          "indexed": false,
          "internalType": "uint256",
          "name": "fee",
          "type": "uint256"
        },
        {
          "indexed": false,
          "internalType": "address",
          "name": "royaltyAddress",
          "type": "address"
        },
        {
          "indexed": false,
          "internalType": "uint256",
          "name": "royalty",
          "type": "uint256"
        }
      ],
      "name": "AuctionFinalized",
      "type": "event"
    },
    {
      "anonymous": false,
      "inputs": [
        {
          "indexed": false,
          "internalType": "uint256",
          "name": "auctionId",
          "type": "uint256"
        },
        {
          "indexed": false,
          "internalType": "address",
          "name": "seller",
          "type": "address"
        },
        {
          "indexed": false,
          "internalType": "uint256",
          "name": "startPrice",
          "type": "uint256"
        },
        {
          "indexed": false,
          "internalType": "uint256",
          "name": "endTime",
          "type": "uint256"
        }
      ],
      "name": "AuctionStarted",
      "type": "event"
    },
    {
      "anonymous": false,
      "inputs": [
        {
          "indexed": false,
          "internalType": "address",
          "name": "authority",
          "type": "address"
        }
      ],
      "name": "AuthorityUpdated",
      "type": "event"
    },
    {
      "anonymous": false,
      "inputs": [
        {
          "indexed": false,
          "internalType": "uint256",
          "name": "auctionId",
          "type": "uint256"
        },
        {
          "indexed": false,
          "internalType": "address",
          "name": "bidder",
          "type": "address"
        },
        {
          "indexed": false,
          "internalType": "uint256",
          "name": "amount",
          "type": "uint256"
        },
        {
          "indexed": false,
          "internalType": "uint256",
          "name": "incentive",
          "type": "uint256"
        },
        {
          "indexed": false,
          "internalType": "uint256",
          "name": "endTime",
          "type": "uint256"
        }
      ],
      "name": "BidPlaced",
      "type": "event"
    },
    {
      "anonymous": false,
      "inputs": [
        {
          "indexed": false,
          "internalType": "uint256",
          "name": "auctionId",
          "type": "uint256"
        },
        {
          "indexed": false,
          "internalType": "address",
          "name": "winner",
          "type": "address"
        },
        {
          "indexed": false,
          "internalType": "uint256",
          "name": "amount",
          "type": "uint256"
        }
      ],
      "name": "BidderFinalized",
      "type": "event"
    },
    {
      "anonymous": false,
      "inputs": [
        {
          "indexed": false,
          "internalType": "uint256",
          "name": "newExtraTime",
          "type": "uint256"
        }
      ],
      "name": "ExtraTimeUpdated",
      "type": "event"
    },
    {
      "anonymous": false,
      "inputs": [
        {
          "indexed": true,
          "internalType": "address",
          "name": "bidder",
          "type": "address"
        },
        {
          "indexed": false,
          "internalType": "uint256",
          "name": "amount",
          "type": "uint256"
        }
      ],
      "name": "IncentiveReceived",
      "type": "event"
    },
    {
      "anonymous": false,
      "inputs": [
        {
          "indexed": false,
          "internalType": "uint64",
          "name": "version",
          "type": "uint64"
        }
      ],
      "name": "Initialized",
      "type": "event"
    },
    {
      "anonymous": false,
      "inputs": [
        {
          "indexed": false,
          "internalType": "uint256",
          "name": "newMaxAssets",
          "type": "uint256"
        }
      ],
      "name": "MaxAssetsUpdated",
      "type": "event"
    },
    {
      "anonymous": false,
      "inputs": [
        {
          "indexed": false,
          "internalType": "uint256",
          "name": "newDuration",
          "type": "uint256"
        }
      ],
      "name": "MaxAuctionDurationUpdated",
      "type": "event"
    },
    {
      "anonymous": false,
      "inputs": [
        {
          "indexed": false,
          "internalType": "uint16",
          "name": "newIncentive",
          "type": "uint16"
        }
      ],
      "name": "MaxIncentiveUpdated",
      "type": "event"
    },
    {
      "anonymous": false,
      "inputs": [
        {
          "indexed": false,
          "internalType": "uint256",
          "name": "newMaxPmt",
          "type": "uint256"
        }
      ],
      "name": "MaxPaymentUpdated",
      "type": "event"
    },
    {
      "anonymous": false,
      "inputs": [
        {
          "indexed": false,
          "internalType": "uint256",
          "name": "newDuration",
          "type": "uint256"
        }
      ],
      "name": "MinAuctionDurationUpdated",
      "type": "event"
    },
    {
      "anonymous": false,
      "inputs": [
        {
          "indexed": false,
          "internalType": "address",
          "name": "account",
          "type": "address"
        }
      ],
      "name": "Paused",
      "type": "event"
    },
    {
      "anonymous": false,
      "inputs": [
        {
          "indexed": false,
          "internalType": "uint256",
          "name": "auctionId",
          "type": "uint256"
        },
        {
          "indexed": false,
          "internalType": "address",
          "name": "seller",
          "type": "address"
        },
        {
          "indexed": false,
          "internalType": "uint256",
          "name": "amount",
          "type": "uint256"
        }
      ],
      "name": "SellerFinalized",
      "type": "event"
    },
    {
      "anonymous": false,
      "inputs": [
        {
          "indexed": false,
          "internalType": "address",
          "name": "tokenAddress",
          "type": "address"
        },
        {
          "indexed": false,
          "internalType": "address",
          "name": "to",
          "type": "address"
        },
        {
          "indexed": false,
          "internalType": "uint256",
          "name": "tokenId",
          "type": "uint256"
        }
      ],
      "name": "TransferFailed",
      "type": "event"
    },
    {
      "anonymous": false,
      "inputs": [
        {
          "indexed": false,
          "internalType": "address",
          "name": "account",
          "type": "address"
        }
      ],
      "name": "Unpaused",
      "type": "event"
    },
    {
      "anonymous": false,
      "inputs": [
        {
          "indexed": true,
          "internalType": "address",
          "name": "implementation",
          "type": "address"
        }
      ],
      "name": "Upgraded",
      "type": "event"
    },
    {
      "anonymous": false,
      "inputs": [
        {
          "indexed": false,
          "internalType": "uint256",
          "name": "newWarmUp",
          "type": "uint256"
        }
      ],
      "name": "WarmUpTimeUpdated",
      "type": "event"
    },
    {
      "inputs": [],
      "name": "UPGRADE_INTERFACE_VERSION",
      "outputs": [
        {
          "internalType": "string",
          "name": "",
          "type": "string"
        }
      ],
      "stateMutability": "view",
      "type": "function"
    },
    {
      "inputs": [],
      "name": "authority",
      "outputs": [
        {
          "internalType": "address",
          "name": "",
          "type": "address"
        }
      ],
      "stateMutability": "view",
      "type": "function"
    },
    {
      "inputs": [
        {
          "internalType": "uint256",
          "name": "auctionId",
          "type": "uint256"
        },
        {
          "internalType": "uint256",
          "name": "bidAmount",
          "type": "uint256"
        },
        {
          "internalType": "uint256",
          "name": "incentiveAmount",
          "type": "uint256"
        }
      ],
      "name": "bid",
      "outputs": [],
      "stateMutability": "nonpayable",
      "type": "function"
    },
    {
      "inputs": [
        {
          "internalType": "uint256",
          "name": "auctionId",
          "type": "uint256"
        }
      ],
      "name": "cancelAuction",
      "outputs": [],
      "stateMutability": "nonpayable",
      "type": "function"
    },
    {
      "inputs": [
        {
          "internalType": "uint256",
          "name": "auctionId",
          "type": "uint256"
        }
      ],
      "name": "cancelSpecificAuction",
      "outputs": [],
      "stateMutability": "nonpayable",
      "type": "function"
    },
    {
      "inputs": [],
      "name": "extraTime",
      "outputs": [
        {
          "internalType": "uint256",
          "name": "",
          "type": "uint256"
        }
      ],
      "stateMutability": "view",
      "type": "function"
    },
    {
      "inputs": [
        {
          "internalType": "uint256",
          "name": "auctionId",
          "type": "uint256"
        }
      ],
      "name": "finalizeAuction",
      "outputs": [],
      "stateMutability": "nonpayable",
      "type": "function"
    },
    {
      "inputs": [
        {
          "internalType": "uint256",
          "name": "auctionId_",
          "type": "uint256"
        }
      ],
      "name": "getAuction",
      "outputs": [
        {
          "components": [
            {
              "internalType": "address payable",
              "name": "seller",
              "type": "address"
            },
            {
              "internalType": "address",
              "name": "highestBidder",
              "type": "address"
            },
            {
              "internalType": "address",
              "name": "bidTokenAddress",
              "type": "address"
            },
            {
              "internalType": "uint256",
              "name": "startTime",
              "type": "uint256"
            },
            {
              "internalType": "uint256",
              "name": "endTime",
              "type": "uint256"
            },
            {
              "internalType": "uint256",
              "name": "highestBid",
              "type": "uint256"
            },
            {
              "internalType": "uint256",
              "name": "bidderIncentive",
              "type": "uint256"
            },
            {
              "internalType": "uint256",
              "name": "totalIncentives",
              "type": "uint256"
            },
            {
              "internalType": "enum IDarkMarketAuctionStructures.AuctionStatus",
              "name": "status",
              "type": "uint8"
            },
            {
              "components": [
                {
                  "internalType": "uint256",
                  "name": "contractFee",
                  "type": "uint256"
                },
                {
                  "internalType": "uint256",
                  "name": "royaltyFee",
                  "type": "uint256"
                },
                {
                  "internalType": "address",
                  "name": "royaltyAddress",
                  "type": "address"
                }
              ],
              "internalType": "struct IDarkMarketAuctionStructures.FeeDetail",
              "name": "fees",
              "type": "tuple"
            },
            {
              "components": [
                {
                  "internalType": "address",
                  "name": "tokenAddress",
                  "type": "address"
                },
                {
                  "internalType": "uint256",
                  "name": "tokenId",
                  "type": "uint256"
                },
                {
                  "internalType": "uint256",
                  "name": "tokenQuantity",
                  "type": "uint256"
                },
                {
                  "internalType": "enum IDarkMarketAuctionStructures.TokenType",
                  "name": "tokenType",
                  "type": "uint8"
                }
              ],
              "internalType": "struct IDarkMarketAuctionStructures.TokenDetail[]",
              "name": "tokens",
              "type": "tuple[]"
            }
          ],
          "internalType": "struct IDarkMarketAuctionStructures.Auction",
          "name": "",
          "type": "tuple"
        }
      ],
      "stateMutability": "view",
      "type": "function"
    },
    {
      "inputs": [],
      "name": "initialize",
      "outputs": [],
      "stateMutability": "nonpayable",
      "type": "function"
    },
    {
      "inputs": [],
      "name": "isConsumingScheduledOp",
      "outputs": [
        {
          "internalType": "bytes4",
          "name": "",
          "type": "bytes4"
        }
      ],
      "stateMutability": "view",
      "type": "function"
    },
    {
      "inputs": [],
      "name": "maxAssets",
      "outputs": [
        {
          "internalType": "uint256",
          "name": "",
          "type": "uint256"
        }
      ],
      "stateMutability": "view",
      "type": "function"
    },
    {
      "inputs": [],
      "name": "maxAuctionDuration",
      "outputs": [
        {
          "internalType": "uint256",
          "name": "",
          "type": "uint256"
        }
      ],
      "stateMutability": "view",
      "type": "function"
    },
    {
      "inputs": [],
      "name": "maxIncentive",
      "outputs": [
        {
          "internalType": "uint256",
          "name": "",
          "type": "uint256"
        }
      ],
      "stateMutability": "view",
      "type": "function"
    },
    {
      "inputs": [],
      "name": "maxPayment",
      "outputs": [
        {
          "internalType": "uint256",
          "name": "",
          "type": "uint256"
        }
      ],
      "stateMutability": "view",
      "type": "function"
    },
    {
      "inputs": [],
      "name": "minAuctionDuration",
      "outputs": [
        {
          "internalType": "uint256",
          "name": "",
          "type": "uint256"
        }
      ],
      "stateMutability": "view",
      "type": "function"
    },
    {
      "inputs": [],
      "name": "nextAuctionId",
      "outputs": [
        {
          "internalType": "uint256",
          "name": "",
          "type": "uint256"
        }
      ],
      "stateMutability": "view",
      "type": "function"
    },
    {
      "inputs": [
        {
          "internalType": "address",
          "name": "",
          "type": "address"
        },
        {
          "internalType": "address",
          "name": "",
          "type": "address"
        },
        {
          "internalType": "uint256[]",
          "name": "",
          "type": "uint256[]"
        },
        {
          "internalType": "uint256[]",
          "name": "",
          "type": "uint256[]"
        },
        {
          "internalType": "bytes",
          "name": "",
          "type": "bytes"
        }
      ],
      "name": "onERC1155BatchReceived",
      "outputs": [
        {
          "internalType": "bytes4",
          "name": "",
          "type": "bytes4"
        }
      ],
      "stateMutability": "nonpayable",
      "type": "function"
    },
    {
      "inputs": [
        {
          "internalType": "address",
          "name": "",
          "type": "address"
        },
        {
          "internalType": "address",
          "name": "",
          "type": "address"
        },
        {
          "internalType": "uint256",
          "name": "",
          "type": "uint256"
        },
        {
          "internalType": "uint256",
          "name": "",
          "type": "uint256"
        },
        {
          "internalType": "bytes",
          "name": "",
          "type": "bytes"
        }
      ],
      "name": "onERC1155Received",
      "outputs": [
        {
          "internalType": "bytes4",
          "name": "",
          "type": "bytes4"
        }
      ],
      "stateMutability": "nonpayable",
      "type": "function"
    },
    {
      "inputs": [
        {
          "internalType": "address",
          "name": "",
          "type": "address"
        },
        {
          "internalType": "address",
          "name": "",
          "type": "address"
        },
        {
          "internalType": "uint256",
          "name": "",
          "type": "uint256"
        },
        {
          "internalType": "bytes",
          "name": "",
          "type": "bytes"
        }
      ],
      "name": "onERC721Received",
      "outputs": [
        {
          "internalType": "bytes4",
          "name": "",
          "type": "bytes4"
        }
      ],
      "stateMutability": "nonpayable",
      "type": "function"
    },
    {
      "inputs": [],
      "name": "pause",
      "outputs": [],
      "stateMutability": "nonpayable",
      "type": "function"
    },
    {
      "inputs": [],
      "name": "paused",
      "outputs": [
        {
          "internalType": "bool",
          "name": "",
          "type": "bool"
        }
      ],
      "stateMutability": "view",
      "type": "function"
    },
    {
      "inputs": [],
      "name": "proxiableUUID",
      "outputs": [
        {
          "internalType": "bytes32",
          "name": "",
          "type": "bytes32"
        }
      ],
      "stateMutability": "view",
      "type": "function"
    },
    {
      "inputs": [
        {
          "internalType": "address",
          "name": "newAuthority",
          "type": "address"
        }
      ],
      "name": "setAuthority",
      "outputs": [],
      "stateMutability": "nonpayable",
      "type": "function"
    },
    {
      "inputs": [
        {
          "internalType": "uint256",
          "name": "_extTime",
          "type": "uint256"
        }
      ],
      "name": "setExtraTime",
      "outputs": [],
      "stateMutability": "nonpayable",
      "type": "function"
    },
    {
      "inputs": [
        {
          "internalType": "uint16",
          "name": "_assets",
          "type": "uint16"
        }
      ],
      "name": "setMaxAssets",
      "outputs": [],
      "stateMutability": "nonpayable",
      "type": "function"
    },
    {
      "inputs": [
        {
          "internalType": "uint256",
          "name": "_duration",
          "type": "uint256"
        }
      ],
      "name": "setMaxAuctionDuration",
      "outputs": [],
      "stateMutability": "nonpayable",
      "type": "function"
    },
    {
      "inputs": [
        {
          "internalType": "uint16",
          "name": "_incentive",
          "type": "uint16"
        }
      ],
      "name": "setMaxIncentive",
      "outputs": [],
      "stateMutability": "nonpayable",
      "type": "function"
    },
    {
      "inputs": [
        {
          "internalType": "uint256",
          "name": "_maxPmt",
          "type": "uint256"
        }
      ],
      "name": "setMaxPayment",
      "outputs": [],
      "stateMutability": "nonpayable",
      "type": "function"
    },
    {
      "inputs": [
        {
          "internalType": "uint256",
          "name": "_duration",
          "type": "uint256"
        }
      ],
      "name": "setMinAuctionDuration",
      "outputs": [],
      "stateMutability": "nonpayable",
      "type": "function"
    },
    {
      "inputs": [
        {
          "internalType": "uint256",
          "name": "_warmUp",
          "type": "uint256"
        }
      ],
      "name": "setWarmUpTime",
      "outputs": [],
      "stateMutability": "nonpayable",
      "type": "function"
    },
    {
      "inputs": [
        {
          "internalType": "uint256",
          "name": "startPrice",
          "type": "uint256"
        },
        {
          "internalType": "uint256",
          "name": "duration",
          "type": "uint256"
        },
        {
          "components": [
            {
              "internalType": "address",
              "name": "tokenAddress",
              "type": "address"
            },
            {
              "internalType": "uint256",
              "name": "tokenId",
              "type": "uint256"
            },
            {
              "internalType": "uint256",
              "name": "tokenQuantity",
              "type": "uint256"
            },
            {
              "internalType": "enum IDarkMarketAuctionStructures.TokenType",
              "name": "tokenType",
              "type": "uint8"
            }
          ],
          "internalType": "struct IDarkMarketAuctionStructures.TokenDetail[]",
          "name": "_tokens",
          "type": "tuple[]"
        },
        {
          "internalType": "address",
          "name": "ERC20forBidding",
          "type": "address"
        },
        {
          "components": [
            {
              "internalType": "uint256",
              "name": "contractFee",
              "type": "uint256"
            },
            {
              "internalType": "uint256",
              "name": "royaltyFee",
              "type": "uint256"
            },
            {
              "internalType": "address",
              "name": "royaltyAddress",
              "type": "address"
            }
          ],
          "internalType": "struct IDarkMarketAuctionStructures.FeeDetail",
          "name": "_fees",
          "type": "tuple"
        }
      ],
      "name": "startAuction",
      "outputs": [],
      "stateMutability": "nonpayable",
      "type": "function"
    },
    {
      "inputs": [
        {
          "internalType": "bytes4",
          "name": "interfaceId",
          "type": "bytes4"
        }
      ],
      "name": "supportsInterface",
      "outputs": [
        {
          "internalType": "bool",
          "name": "",
          "type": "bool"
        }
      ],
      "stateMutability": "view",
      "type": "function"
    },
    {
      "inputs": [],
      "name": "unpause",
      "outputs": [],
      "stateMutability": "nonpayable",
      "type": "function"
    },
    {
      "inputs": [
        {
          "internalType": "address",
          "name": "newImplementation",
          "type": "address"
        },
        {
          "internalType": "bytes",
          "name": "data",
          "type": "bytes"
        }
      ],
      "name": "upgradeToAndCall",
      "outputs": [],
      "stateMutability": "payable",
      "type": "function"
    },
    {
      "inputs": [],
      "name": "warmUpTime",
      "outputs": [
        {
          "internalType": "uint256",
          "name": "",
          "type": "uint256"
        }
      ],
      "stateMutability": "view",
      "type": "function"
    }
  ],
  "bytecode": "0x60a0604052306080523480156200001557600080fd5b506200002062000026565b620000da565b7ff0c57e16840df040f15088dc2f81fe391c3923bec73e23a9662efc9c229c6a00805468010000000000000000900460ff1615620000775760405163f92ee8a960e01b815260040160405180910390fd5b80546001600160401b0390811614620000d75780546001600160401b0319166001600160401b0390811782556040519081527fc7f505b2f371ae2175ee4913f4499e1f2633a7b5936321eed1cdaeb6115181d29060200160405180910390a15b50565b60805161353662000104600039600081816122a1015281816122ca015261240c01526135366000f3fe6080604052600436106102045760003560e01c806378bd793511610118578063bf7e214f116100a0578063e9d831be1161006f578063e9d831be146105d5578063f23a6e61146105ea578063f273591314610616578063f690825814610636578063fc5284821461065657600080fd5b8063bf7e214f14610553578063e12d145a14610580578063e457bf05146105a0578063e8083863146105b557600080fd5b80638fb36037116100e75780638fb360371461049f57806394b2294b146104b457806396b5a755146104c9578063ad3cb1cc146104e9578063bc197c811461052757600080fd5b806378bd7935146104285780637a9e5e4b146104555780638129fc1c146104755780638456cb591461048a57600080fd5b806348c9581e1161019b578063541348761161016a57806354134876146103995780635c975abb146103ae5780635fdbcd4c146103d357806361608185146103e857806363beec7d1461040857600080fd5b806348c9581e1461033c57806348cf48b5146103515780634f1ef2861461037157806352d1902d1461038457600080fd5b80632cf04c2f116101d75780632cf04c2f146102c7578063339b174a146102e757806336de093e146103075780633f4ba83a1461032757600080fd5b806301ffc9a714610209578063150b7a021461023e5780631800c0fe146102825780632ac9bf09146102a5575b600080fd5b34801561021557600080fd5b50610229610224366004612af2565b61066b565b60405190151581526020015b60405180910390f35b34801561024a57600080fd5b50610269610259366004612bf8565b630a85bd0160e11b949350505050565b6040516001600160e01b03199091168152602001610235565b34801561028e57600080fd5b506102976106a2565b604051908152602001610235565b3480156102b157600080fd5b506102c56102c0366004612c64565b6106b7565b005b3480156102d357600080fd5b506102c56102e2366004612c90565b610aca565b3480156102f357600080fd5b506102c5610302366004612c90565b610b45565b34801561031357600080fd5b506102c5610322366004612ca9565b610bd2565b34801561033357600080fd5b506102c5610c4e565b34801561034857600080fd5b50610297610c61565b34801561035d57600080fd5b506102c561036c366004612ce5565b610c76565b6102c561037f366004612d8f565b6110c4565b34801561039057600080fd5b506102976110e3565b3480156103a557600080fd5b50610297611100565b3480156103ba57600080fd5b506000805160206134c18339815191525460ff16610229565b3480156103df57600080fd5b50610297611115565b3480156103f457600080fd5b506102c5610403366004612c90565b61112a565b34801561041457600080fd5b506102c5610423366004612ca9565b611341565b34801561043457600080fd5b50610448610443366004612c90565b6113be565b6040516102359190612e7d565b34801561046157600080fd5b506102c5610470366004612f67565b61157c565b34801561048157600080fd5b506102c56115ff565b34801561049657600080fd5b506102c5611745565b3480156104ab57600080fd5b50610269611756565b3480156104c057600080fd5b5061029761178f565b3480156104d557600080fd5b506102c56104e4366004612c90565b6117a4565b3480156104f557600080fd5b5061051a604051806040016040528060058152602001640352e302e360dc1b81525081565b6040516102359190612fa8565b34801561053357600080fd5b5061026961054236600461305b565b63bc197c8160e01b95945050505050565b34801561055f57600080fd5b50610568611a39565b6040516001600160a01b039091168152602001610235565b34801561058c57600080fd5b506102c561059b366004612c90565b611a55565b3480156105ac57600080fd5b50610297611ad8565b3480156105c157600080fd5b506102c56105d0366004612c90565b611aed565b3480156105e157600080fd5b50610297611f61565b3480156105f657600080fd5b50610269610605366004613109565b63f23a6e6160e01b95945050505050565b34801561062257600080fd5b506102c5610631366004612c90565b611f76565b34801561064257600080fd5b506102c5610651366004612c90565b611fb8565b34801561066257600080fd5b5061029761200e565b60006001600160e01b03198216630271189760e51b148061069c57506301ffc9a760e01b6001600160e01b03198316145b92915050565b6000806106ad612020565b6007015492915050565b6106bf612044565b6106c761207c565b60006106d2846120ad565b9050806004015442111561070d5760048082015460405163394dab1560e21b8152429281019290925260248201526044015b60405180910390fd5b8060050154831161074157600581015460405163f0defc6160e01b8152610704918591600401918252602082015260400190565b60648361074c611115565b6107569190613188565b610760919061319f565b8211156107925781610770611115565b604051634bb8657760e11b815260048101929092526024820152604401610704565b60028101546040516323b872dd60e01b81526001600160a01b039091169081906323b872dd906107ca903390309089906004016131c1565b6020604051808303816000875af11580156107e9573d6000803e3d6000fd5b505050506040513d601f19601f8201168201806040525081019061080d91906131f5565b506108166106a2565b82600401546108259190613210565b421115610860576108346106a2565b8260040160008282546108479190613223565b909155505060088201805460ff19166002179055610870565b60088201805460ff191660011790555b60018201546001600160a01b0316158015906108a2575061088f611f61565b826003015461089e9190613223565b4210155b156109a1576000826006015483600501546108bd9190613223565b600184015460405163a9059cbb60e01b81526001600160a01b0391821660048201526024810183905291925083169063a9059cbb906044016020604051808303816000875af1158015610914573d6000803e3d6000fd5b505050506040513d601f19601f8201168201806040525081019061093891906131f5565b508383600701600082825461094d9190613223565b9091555050600183015460068401546040519081526001600160a01b03909116907f70220290ea80981efd0f0f7e6b1b5085605eb976822c8b8422e5bcc53e4c6d639060200160405180910390a250610a35565b60018201546001600160a01b031615610a35576001820154600583015460405163a9059cbb60e01b81526001600160a01b03928316600482015260248101919091529082169063a9059cbb906044016020604051808303816000875af1158015610a0f573d6000803e3d6000fd5b505050506040513d601f19601f82011682018060405250810190610a3391906131f5565b505b6001820180546001600160a01b031916339081179091556005830185905560068301849055600483015460408051888152602081019390935282018690526060820185905260808201527fe0771bb8191f40e2c9380d044dd32271d56e14b7722162d048aa9ebe13eefbb19060a00160405180910390a15050610ac560016000805160206134e183398151915255565b505050565b610ad7335b6000366120e0565b61a8c0811115610b0557604051638758956b60e01b81526004810182905261a8c06024820152604401610704565b610b0e816121de565b6040518181527fbfc3b8f5a88703f2c18a06cad35260a2d10c85f63de450b5b5addbadcdfc08eb906020015b60405180910390a150565b610b4e33610acf565b6103e8811115610b995760405162461bcd60e51b815260206004820152601660248201527546656573206d7573742062652062656c6f772031302560501b6044820152606401610704565b610ba2816121f2565b6040518181527f42a5471985e5ddd8227f0f32637d539819564f327d0fb8366fd3d982aa426c0e90602001610b3a565b610bdb33610acf565b60648161ffff1610610c0d57604051634bb8657760e11b815261ffff8216600482015260636024820152604401610704565b610c1a8161ffff16612206565b60405161ffff821681527f05ca520f831f8d754f63ab92b7cf507a5fd5e64acc73687fb37722eadbd032ee90602001610b3a565b610c5733610acf565b610c5f61221a565b565b600080610c6c612020565b6002015492915050565b610c7e61207c565b610c86612044565b6000610c90612274565b9050831580610ca55750610ca261178f565b84115b15610cd55783610cb361178f565b6040516319d2c49360e21b815260048101929092526024820152604401610704565b610cdd611100565b861080610cf05750610ced610c61565b86115b15610d305785610cfe611100565b610d06610c61565b60405163fb6ffde960e01b8152600481019390935260248301919091526044820152606401610704565b610d38611ad8565b82351115610d6c578135610d4a611ad8565b6040516316f0a44560e21b815260048101929092526024820152604401610704565b610d74611ad8565b82602001351115610d8c578160200135610d4a611ad8565b6000610d97826120ad565b80546001600160a01b031916331781554260038201819055909150610dbd908890613223565b60048201556005810188905560088101805460ff191690556002810180546001600160a01b0319166001600160a01b0386161790558260098201610e018282613256565b90505060005b85811015611057576000878783818110610e2357610e2361327f565b9050608002016060016020810190610e3b91906132a2565b6001811115610e4c57610e4c612ddf565b03610efa57868682818110610e6357610e6361327f565b610e799260206080909202019081019150612f67565b6001600160a01b03166342842e0e33308a8a86818110610e9b57610e9b61327f565b905060800201602001356040518463ffffffff1660e01b8152600401610ec3939291906131c1565b600060405180830381600087803b158015610edd57600080fd5b505af1158015610ef1573d6000803e3d6000fd5b50505050610ffe565b6001878783818110610f0e57610f0e61327f565b9050608002016060016020810190610f2691906132a2565b6001811115610f3757610f37612ddf565b03610ffe57868682818110610f4e57610f4e61327f565b610f649260206080909202019081019150612f67565b6001600160a01b031663f242432a33308a8a86818110610f8657610f8661327f565b905060800201602001358b8b87818110610fa257610fa261327f565b905060800201604001356040518563ffffffff1660e01b8152600401610fcb94939291906132bf565b600060405180830381600087803b158015610fe557600080fd5b505af1158015610ff9573d6000803e3d6000fd5b505050505b81600c018787838181106110145761101461327f565b83546001810185556000948552602090942060809091029290920192600402909101905061104282826132f7565b5050808061104f90613358565b915050610e07565b506004810154604080518481523360208201528082018b90526060810192909252517fbf6dc7bdf2f23af5a506fe03ee1221f47d023a2227fbc949c6b812ae44534e6d9181900360800190a150506110bc60016000805160206134e183398151915255565b505050505050565b6110cc612296565b6110d58261233b565b6110df8282612344565b5050565b60006110ed612401565b506000805160206134a183398151915290565b60008061110b612020565b6001015492915050565b600080611120612020565b6004015492915050565b61113333610acf565b61113b61200e565b811061115d5760405163d9970fa160e01b815260048101829052602401610704565b6000611168826120ad565b60018101549091506001600160a01b0316156112205760028101546001820154600783015460058401546001600160a01b039384169363a9059cbb9316916111af91613210565b6040516001600160e01b031960e085901b1681526001600160a01b03909216600483015260248201526044016020604051808303816000875af11580156111fa573d6000803e3d6000fd5b505050506040513d601f19601f8201168201806040525081019061121e91906131f5565b505b60005b600c8201548110156112f95781600c0181815481106112445761124461327f565b60009182526020909120600490910201548254600c840180546001600160a01b03938416936342842e0e933093911691869081106112845761128461327f565b9060005260206000209060040201600101546040518463ffffffff1660e01b81526004016112b4939291906131c1565b600060405180830381600087803b1580156112ce57600080fd5b505af11580156112e2573d6000803e3d6000fd5b5050505080806112f190613358565b915050611223565b5060088101805460ff191660041790556040518281527f2809c7e17bf978fbc7194c0a694b638c4215e9140cacc6c38ca36010b45697df906020015b60405180910390a15050565b61134a33610acf565b60648161ffff16111561137d576040516319d2c49360e21b815261ffff8216600482015260646024820152604401610704565b61138a8161ffff1661244a565b60405161ffff821681527f0fb15ab527eb75167c1ba0957b32fedfeb6cb153a67c3b8987cf1be51c31d32890602001610b3a565b6113c6612a53565b60006113d0612020565b60008481526008808301602090815260409283902083516101608101855281546001600160a01b0390811682526001830154811693820193909352600282015490921693820193909352600383015460608201526004808401546080830152600584015460a0830152600684015460c0830152600784015460e0830152918301549394509261010084019160ff9091169081111561147057611470612ddf565b600481111561148157611481612ddf565b81526040805160608101825260098401548152600a840154602082810191909152600b8501546001600160a01b03168284015280840191909152600c8401805483518184028101840185528181529390940193909160009084015b8282101561156d576000848152602090819020604080516080810182526004860290920180546001600160a01b0316835260018082015494840194909452600281015491830191909152600381015491929091606084019160ff9091169081111561154957611549612ddf565b600181111561155a5761155a612ddf565b81525050815260200190600101906114dc565b50505091525090949350505050565b33611585611a39565b6001600160a01b0316816001600160a01b0316146115c05760405162d1953b60e31b81526001600160a01b0382166004820152602401610704565b816001600160a01b03163b6000036115f6576040516361798f2f60e11b81526001600160a01b0383166004820152602401610704565b6110df8261245e565b7ff0c57e16840df040f15088dc2f81fe391c3923bec73e23a9662efc9c229c6a008054600160401b810460ff16159067ffffffffffffffff166000811580156116455750825b905060008267ffffffffffffffff1660011480156116625750303b155b905081158015611670575080155b1561168e5760405163f92ee8a960e01b815260040160405180910390fd5b845467ffffffffffffffff1916600117855583156116b857845460ff60401b1916600160401b1785555b6116c06124b8565b6116c86124b8565b6116d06124c0565b6116e06116db6124d0565b61250f565b6116e86124b8565b6116f0612520565b6116f8612530565b831561173e57845460ff60401b19168555604051600181527fc7f505b2f371ae2175ee4913f4499e1f2633a7b5936321eed1cdaeb6115181d29060200160405180910390a15b5050505050565b61174e33610acf565b610c5f61257e565b600080516020613481833981519152805460009190600160a01b900460ff16611780576000611789565b638fb3603760e01b5b91505090565b60008061179a612020565b6006015492915050565b6117ac612044565b60006117b7826120ad565b80549091506001600160a01b031633146117f857805460405163b71af04b60e01b81526001600160a01b039091166004820152336024820152604401610704565b6004600882015460ff16600481111561181357611813612ddf565b148061183757506003600882015460ff16600481111561183557611835612ddf565b145b156118645760048082015460405163394dab1560e21b815242928101929092526024820152604401610704565b6000600882015460ff16600481111561187f5761187f612ddf565b1461189d576040516335473acb60e01b815260040160405180910390fd5b600c81015460005b818110156119da57600083600c0182815481106118c4576118c461327f565b90600052602060002090600402016040518060800160405290816000820160009054906101000a90046001600160a01b03166001600160a01b03166001600160a01b0316815260200160018201548152602001600282015481526020016003820160009054906101000a900460ff16600181111561194457611944612ddf565b600181111561195557611955612ddf565b9052508051855460208301516040516323b872dd60e01b81529394506001600160a01b03928316936323b872dd936119949330939116916004016131c1565b600060405180830381600087803b1580156119ae57600080fd5b505af11580156119c2573d6000803e3d6000fd5b505050505080806119d290613358565b9150506118a5565b5060088201805460ff191660041790556040518381527f2809c7e17bf978fbc7194c0a694b638c4215e9140cacc6c38ca36010b45697df9060200160405180910390a15050611a3660016000805160206134e183398151915255565b50565b600080516020613481833981519152546001600160a01b031690565b611a5e33610acf565b6301dfe200811115611a9f5780611a73610c61565b60405163fb6ffde960e01b8152600481019290925260248201526301dfe2006044820152606401610704565b611aa8816125c7565b6040518181527f58762e4727ba1f653f8ac18ff80f9956b5cab3da576bce87bfe21fbca72d10e990602001610b3a565b600080611ae3612020565b6005015492915050565b611af5612044565b611afd61207c565b6000611b08826120ad565b90508060040154421015611b3e57600480820154604051633df48b2560e21b815242928101929092526024820152604401610704565b60018101546001600160a01b0316611b5957611b59826117a4565b600281015460098201546001600160a01b0390911690600090611b7f906127109061319f565b8360050154611b8e9190613188565b905060006127108460090160010154611ba7919061319f565b8460050154611bb69190613188565b90506000846007015482848760050154611bd09190613210565b611bda9190613210565b611be49190613210565b85549091506001600160a01b03163303611c5b578454611c0f9085906001600160a01b0316836125db565b8454604080518881526001600160a01b03909216602083015281018290527ff73372fdca7f972b1cc507ab0bda9b67b500bd17aaed8c5e6a3366d413e7e1f89060600160405180910390a15b60018501546001600160a01b03163303611f0d5760005b600c860154811015611eba57600086600c018281548110611c9557611c9561327f565b600091825260209091206003600490920201015460ff166001811115611cbd57611cbd612ddf565b03611d815785600c018181548110611cd757611cd761327f565b60009182526020909120600490910201546001870154600c880180546001600160a01b03938416936342842e0e93309391169186908110611d1a57611d1a61327f565b9060005260206000209060040201600101546040518463ffffffff1660e01b8152600401611d4a939291906131c1565b600060405180830381600087803b158015611d6457600080fd5b505af1158015611d78573d6000803e3d6000fd5b50505050611ea8565b600186600c018281548110611d9857611d9861327f565b600091825260209091206003600490920201015460ff166001811115611dc057611dc0612ddf565b03611ea85785600c018181548110611dda57611dda61327f565b60009182526020909120600490910201546001870154600c880180546001600160a01b039384169363f242432a93309391169186908110611e1d57611e1d61327f565b9060005260206000209060040201600101548a600c018681548110611e4457611e4461327f565b9060005260206000209060040201600201546040518563ffffffff1660e01b8152600401611e7594939291906132bf565b600060405180830381600087803b158015611e8f57600080fd5b505af1158015611ea3573d6000803e3d6000fd5b505050505b80611eb281613358565b915050611c72565b5060018501546005860154604080518981526001600160a01b0390931660208401528201527f287e93683fbdb8e8dc13e757ba52c664a7573734dfb5624353d5f49c033313b19060600160405180910390a15b8215611f2557611f2584611f1f612655565b856125db565b8115611f4557600b850154611f459085906001600160a01b0316846125db565b5050505050611a3660016000805160206134e183398151915255565b600080611f6c612020565b6003015492915050565b611f7f33610acf565b611f8881612694565b6040518181527f4cd8b89ec991355064be8d3cfeaaacab8c2fe683e8357b3c9de90b0bdda6cb1d90602001610b3a565b611fc133610acf565b603c811015611fd55780603c610d06610c61565b611fde816126a8565b6040518181527fe2720c1018ae21600ff3d5ee8e1b01ca87b27dfde5c38ea8456571a7294440e290602001610b3a565b600080612019612020565b5492915050565b7f27b49f3b53a795769950b1f0d5678148bbca7c47eb1e64956b2aa849760b9a0090565b6000805160206134e183398151915280546001190161207657604051633ee5aeb560e01b815260040160405180910390fd5b60029055565b6000805160206134c18339815191525460ff1615610c5f5760405163d93c066560e01b815260040160405180910390fd5b6000806120b8612020565b600093845260080160205250506040902090565b60016000805160206134e183398151915255565b60008051602061348183398151915260008061211b6120fd611a39565b873061210d600460008a8c613371565b6121169161339b565b6126bc565b91509150816110bc5763ffffffff8116156121bb57825460ff60a01b1916600160a01b178355612149611a39565b6001600160a01b03166394c7d7ee8787876040518463ffffffff1660e01b8152600401612178939291906133cb565b600060405180830381600087803b15801561219257600080fd5b505af11580156121a6573d6000803e3d6000fd5b5050845460ff60a01b19168555506110bc9050565b60405162d1953b60e31b81526001600160a01b0387166004820152602401610704565b60006121e8612020565b6007019190915550565b60006121fc612020565b6005019190915550565b6000612210612020565b6004019190915550565b6122226127c8565b6000805160206134c1833981519152805460ff191681557f5db9ee0a495bf2e6ff9c91a7834c1ba4fdd244a5e8aa4e537bd38aeae4b073aa335b6040516001600160a01b039091168152602001610b3a565b60008061227f612020565b80549091508061228e81613358565b925550919050565b306001600160a01b037f000000000000000000000000000000000000000000000000000000000000000016148061231d57507f00000000000000000000000000000000000000000000000000000000000000006001600160a01b03166123116000805160206134a1833981519152546001600160a01b031690565b6001600160a01b031614155b15610c5f5760405163703e46dd60e11b815260040160405180910390fd5b611a3633610acf565b816001600160a01b03166352d1902d6040518163ffffffff1660e01b8152600401602060405180830381865afa92505050801561239e575060408051601f3d908101601f1916820190925261239b9181019061340b565b60015b6123c657604051634c9c8ce360e01b81526001600160a01b0383166004820152602401610704565b6000805160206134a183398151915281146123f757604051632a87526960e21b815260048101829052602401610704565b610ac583836127f8565b306001600160a01b037f00000000000000000000000000000000000000000000000000000000000000001614610c5f5760405163703e46dd60e11b815260040160405180910390fd5b6000612454612020565b6006019190915550565b60008051602061348183398151915280546001600160a01b0319166001600160a01b03831690811782556040519081527f2f658b440c35314f52658ea8a740e05b284cdc84dc9ae01e891f21b8933e7cad90602001611335565b610c5f61284e565b6124c861284e565b610c5f612897565b60004661014f036124f4575073e1809d966d96bef678f808329336962944ffb10690565b60405163fc94119160e01b8152466004820152602401610704565b61251761284e565b611a36816128b8565b61252861284e565b610c5f6128c9565b61253861284e565b6000612542612020565b6001808255603c90820155626ebe0060028201556000600382018190556007820155600c60048201556103e86005820155601460069091015550565b61258661207c565b6000805160206134c1833981519152805460ff191660011781557f62e78cea01bee320cd4e420270b5ea74000d11b0c9f74754ebdbfc544b05a2583361225c565b60006125d1612020565b6002019190915550565b60405163a9059cbb60e01b81526001600160a01b0383811660048301526024820183905284169063a9059cbb906044016020604051808303816000875af1925050508015612646575060408051601f3d908101601f19168201909252612643918101906131f5565b60015b61264f57600080fd5b50505050565b60004661014f03612679575073419c3657532aad16955291af7942fea9a1b6d01090565b6040516367259b4960e01b8152466004820152602401610704565b600061269e612020565b6003019190915550565b60006126b2612020565b6001019190915550565b6040516001600160a01b03848116602483015283811660448301526001600160e01b03198316606483015260009182918291829189169060840160408051601f198184030181529181526020820180516001600160e01b031663b700961360e01b1790525161272b9190613424565b600060405180830381855afa9150503d8060008114612766576040519150601f19603f3d011682016040523d82523d6000602084013e61276b565b606091505b509150915081156127bd57604081511061279d57808060200190518101906127939190613440565b90945092506127bd565b60208151106127bd57808060200190518101906127ba91906131f5565b93505b505094509492505050565b6000805160206134c18339815191525460ff16610c5f57604051638dfc202b60e01b815260040160405180910390fd5b612801826128d1565b6040516001600160a01b038316907fbc7cd75a20ee27fd9adebab32041f755214dbc6bffa90cc0225b39da2e5c2d3b90600090a280511561284657610ac58282612936565b6110df6129ac565b7ff0c57e16840df040f15088dc2f81fe391c3923bec73e23a9662efc9c229c6a0054600160401b900460ff16610c5f57604051631afcd79f60e31b815260040160405180910390fd5b61289f61284e565b6000805160206134c1833981519152805460ff19169055565b6128c061284e565b611a368161245e565b6120cc61284e565b806001600160a01b03163b60000361290757604051634c9c8ce360e01b81526001600160a01b0382166004820152602401610704565b6000805160206134a183398151915280546001600160a01b0319166001600160a01b0392909216919091179055565b6060600080846001600160a01b0316846040516129539190613424565b600060405180830381855af49150503d806000811461298e576040519150601f19603f3d011682016040523d82523d6000602084013e612993565b606091505b50915091506129a38583836129cb565b95945050505050565b3415610c5f5760405163b398979f60e01b815260040160405180910390fd5b6060826129e0576129db82612a2a565b612a23565b81511580156129f757506001600160a01b0384163b155b15612a2057604051639996b31560e01b81526001600160a01b0385166004820152602401610704565b50805b9392505050565b805115612a3a5780518082602001fd5b604051630a12f52160e11b815260040160405180910390fd5b60405180610160016040528060006001600160a01b0316815260200160006001600160a01b0316815260200160006001600160a01b03168152602001600081526020016000815260200160008152602001600081526020016000815260200160006004811115612ac557612ac5612ddf565b81526040805160608101825260008082526020828101829052928201529101908152602001606081525090565b600060208284031215612b0457600080fd5b81356001600160e01b031981168114612a2357600080fd5b6001600160a01b0381168114611a3657600080fd5b8035612b3c81612b1c565b919050565b634e487b7160e01b600052604160045260246000fd5b604051601f8201601f1916810167ffffffffffffffff81118282101715612b8057612b80612b41565b604052919050565b600082601f830112612b9957600080fd5b813567ffffffffffffffff811115612bb357612bb3612b41565b612bc6601f8201601f1916602001612b57565b818152846020838601011115612bdb57600080fd5b816020850160208301376000918101602001919091529392505050565b60008060008060808587031215612c0e57600080fd5b8435612c1981612b1c565b93506020850135612c2981612b1c565b925060408501359150606085013567ffffffffffffffff811115612c4c57600080fd5b612c5887828801612b88565b91505092959194509250565b600080600060608486031215612c7957600080fd5b505081359360208301359350604090920135919050565b600060208284031215612ca257600080fd5b5035919050565b600060208284031215612cbb57600080fd5b813561ffff81168114612a2357600080fd5b600060608284031215612cdf57600080fd5b50919050565b60008060008060008060e08789031215612cfe57600080fd5b8635955060208701359450604087013567ffffffffffffffff80821115612d2457600080fd5b818901915089601f830112612d3857600080fd5b813581811115612d4757600080fd5b8a60208260071b8501011115612d5c57600080fd5b602083019650809550505050612d7460608801612b31565b9150612d838860808901612ccd565b90509295509295509295565b60008060408385031215612da257600080fd5b8235612dad81612b1c565b9150602083013567ffffffffffffffff811115612dc957600080fd5b612dd585828601612b88565b9150509250929050565b634e487b7160e01b600052602160045260246000fd5b60058110612e0557612e05612ddf565b9052565b600081518084526020808501945080840160005b83811015612e7257815180516001600160a01b031688528381015184890152604080820151908901526060908101519060028210612e5d57612e5d612ddf565b88015260809096019590820190600101612e1d565b509495945050505050565b60208152612e976020820183516001600160a01b03169052565b60006020830151612eb360408401826001600160a01b03169052565b5060408301516001600160a01b03811660608401525060608301516080830152608083015160a083015260a083015160c083015260c083015160e083015260e0830151610100818185015280850151915050610120612f1481850183612df5565b8401519050610140612f458482018380518252602080820151908301526040908101516001600160a01b0316910152565b8401516101a0848101529050612f5f6101c0840182612e09565b949350505050565b600060208284031215612f7957600080fd5b8135612a2381612b1c565b60005b83811015612f9f578181015183820152602001612f87565b50506000910152565b6020815260008251806020840152612fc7816040850160208701612f84565b601f01601f19169190910160400192915050565b600082601f830112612fec57600080fd5b8135602067ffffffffffffffff82111561300857613008612b41565b8160051b613017828201612b57565b928352848101820192828101908785111561303157600080fd5b83870192505b8483101561305057823582529183019190830190613037565b979650505050505050565b600080600080600060a0868803121561307357600080fd5b853561307e81612b1c565b9450602086013561308e81612b1c565b9350604086013567ffffffffffffffff808211156130ab57600080fd5b6130b789838a01612fdb565b945060608801359150808211156130cd57600080fd5b6130d989838a01612fdb565b935060808801359150808211156130ef57600080fd5b506130fc88828901612b88565b9150509295509295909350565b600080600080600060a0868803121561312157600080fd5b853561312c81612b1c565b9450602086013561313c81612b1c565b93506040860135925060608601359150608086013567ffffffffffffffff81111561316657600080fd5b6130fc88828901612b88565b634e487b7160e01b600052601160045260246000fd5b808202811582820484141761069c5761069c613172565b6000826131bc57634e487b7160e01b600052601260045260246000fd5b500490565b6001600160a01b039384168152919092166020820152604081019190915260600190565b80518015158114612b3c57600080fd5b60006020828403121561320757600080fd5b612a23826131e5565b8181038181111561069c5761069c613172565b8082018082111561069c5761069c613172565b80546001600160a01b0319166001600160a01b0392909216919091179055565b8135815560208201356001820155604082013561327281612b1c565b610ac58160028401613236565b634e487b7160e01b600052603260045260246000fd5b60028110611a3657600080fd5b6000602082840312156132b457600080fd5b8135612a2381613295565b6001600160a01b0394851681529290931660208301526040820152606081019190915260a06080820181905260009082015260c00190565b813561330281612b1c565b61330c8183613236565b50602082013560018201556040820135600282015560038101606083013561333381613295565b6002811061334357613343612ddf565b60ff1982541660ff8216811783555050505050565b60006001820161336a5761336a613172565b5060010190565b6000808585111561338157600080fd5b8386111561338e57600080fd5b5050820193919092039150565b6001600160e01b031981358181169160048510156133c35780818660040360031b1b83161692505b505092915050565b6001600160a01b03841681526040602082018190528101829052818360608301376000818301606090810191909152601f909201601f1916010192915050565b60006020828403121561341d57600080fd5b5051919050565b60008251613436818460208701612f84565b9190910192915050565b6000806040838503121561345357600080fd5b61345c836131e5565b9150602083015163ffffffff8116811461347557600080fd5b80915050925092905056fef3177357ab46d8af007ab3fdb9af81da189e1068fefdc0073dca88a2cab40a00360894a13ba1a3210667c828492db98dca3e2076cc3735a920a3ca505d382bbccd5ed15c6e187e77e9aee88184c21f4f2182ab5827cb3b7e07fbedcd63f033009b779b17422d0df92223018b32b4d1fa46e071723d6817e2486d003becc55f00a2646970667358221220ddd64691b5097974b5b1057588f0a8631bd18837585ee58d1031a486ef9c480a64736f6c63430008140033",
  "linkReferences": {},
  "deployedLinkReferences": {}
}